{
	"contracts/DegenToken.sol": {
		"DegenToken": {
			"abi": [
				{
					"inputs": [],
					"stateMutability": "nonpayable",
					"type": "constructor"
				},
				{
					"anonymous": false,
					"inputs": [
						{
							"indexed": true,
							"internalType": "address",
							"name": "owner",
							"type": "address"
						},
						{
							"indexed": true,
							"internalType": "address",
							"name": "spender",
							"type": "address"
						},
						{
							"indexed": false,
							"internalType": "uint256",
							"name": "value",
							"type": "uint256"
						}
					],
					"name": "Approval",
					"type": "event"
				},
				{
					"anonymous": false,
					"inputs": [
						{
							"indexed": true,
							"internalType": "address",
							"name": "from",
							"type": "address"
						},
						{
							"indexed": true,
							"internalType": "address",
							"name": "to",
							"type": "address"
						},
						{
							"indexed": false,
							"internalType": "uint256",
							"name": "value",
							"type": "uint256"
						}
					],
					"name": "Transfer",
					"type": "event"
				},
				{
					"inputs": [
						{
							"internalType": "address",
							"name": "owner",
							"type": "address"
						},
						{
							"internalType": "address",
							"name": "spender",
							"type": "address"
						}
					],
					"name": "allowance",
					"outputs": [
						{
							"internalType": "uint256",
							"name": "",
							"type": "uint256"
						}
					],
					"stateMutability": "view",
					"type": "function"
				},
				{
					"inputs": [
						{
							"internalType": "address",
							"name": "spender",
							"type": "address"
						},
						{
							"internalType": "uint256",
							"name": "amount",
							"type": "uint256"
						}
					],
					"name": "approve",
					"outputs": [
						{
							"internalType": "bool",
							"name": "",
							"type": "bool"
						}
					],
					"stateMutability": "nonpayable",
					"type": "function"
				},
				{
					"inputs": [
						{
							"internalType": "address",
							"name": "account",
							"type": "address"
						}
					],
					"name": "balanceOf",
					"outputs": [
						{
							"internalType": "uint256",
							"name": "",
							"type": "uint256"
						}
					],
					"stateMutability": "view",
					"type": "function"
				},
				{
					"inputs": [
						{
							"internalType": "uint256",
							"name": "_tokens",
							"type": "uint256"
						}
					],
					"name": "burnTokens",
					"outputs": [],
					"stateMutability": "nonpayable",
					"type": "function"
				},
				{
					"inputs": [],
					"name": "checkTokenBalance",
					"outputs": [
						{
							"internalType": "uint256",
							"name": "",
							"type": "uint256"
						}
					],
					"stateMutability": "view",
					"type": "function"
				},
				{
					"inputs": [],
					"name": "decimals",
					"outputs": [
						{
							"internalType": "uint8",
							"name": "",
							"type": "uint8"
						}
					],
					"stateMutability": "view",
					"type": "function"
				},
				{
					"inputs": [
						{
							"internalType": "address",
							"name": "spender",
							"type": "address"
						},
						{
							"internalType": "uint256",
							"name": "subtractedValue",
							"type": "uint256"
						}
					],
					"name": "decreaseAllowance",
					"outputs": [
						{
							"internalType": "bool",
							"name": "",
							"type": "bool"
						}
					],
					"stateMutability": "nonpayable",
					"type": "function"
				},
				{
					"inputs": [
						{
							"internalType": "address",
							"name": "spender",
							"type": "address"
						},
						{
							"internalType": "uint256",
							"name": "addedValue",
							"type": "uint256"
						}
					],
					"name": "increaseAllowance",
					"outputs": [
						{
							"internalType": "bool",
							"name": "",
							"type": "bool"
						}
					],
					"stateMutability": "nonpayable",
					"type": "function"
				},
				{
					"inputs": [
						{
							"internalType": "address",
							"name": "_receiver",
							"type": "address"
						},
						{
							"internalType": "uint256",
							"name": "_tokens",
							"type": "uint256"
						}
					],
					"name": "mintTokens",
					"outputs": [],
					"stateMutability": "nonpayable",
					"type": "function"
				},
				{
					"inputs": [],
					"name": "myPurchases",
					"outputs": [
						{
							"internalType": "string[]",
							"name": "",
							"type": "string[]"
						},
						{
							"internalType": "uint256",
							"name": "",
							"type": "uint256"
						}
					],
					"stateMutability": "view",
					"type": "function"
				},
				{
					"inputs": [],
					"name": "name",
					"outputs": [
						{
							"internalType": "string",
							"name": "",
							"type": "string"
						}
					],
					"stateMutability": "view",
					"type": "function"
				},
				{
					"inputs": [],
					"name": "owner",
					"outputs": [
						{
							"internalType": "address",
							"name": "",
							"type": "address"
						}
					],
					"stateMutability": "view",
					"type": "function"
				},
				{
					"inputs": [
						{
							"internalType": "uint256",
							"name": "_ch",
							"type": "uint256"
						}
					],
					"name": "redeemTokens",
					"outputs": [],
					"stateMutability": "nonpayable",
					"type": "function"
				},
				{
					"inputs": [],
					"name": "shopItems",
					"outputs": [
						{
							"internalType": "string",
							"name": "",
							"type": "string"
						}
					],
					"stateMutability": "pure",
					"type": "function"
				},
				{
					"inputs": [],
					"name": "symbol",
					"outputs": [
						{
							"internalType": "string",
							"name": "",
							"type": "string"
						}
					],
					"stateMutability": "view",
					"type": "function"
				},
				{
					"inputs": [],
					"name": "tokenName",
					"outputs": [
						{
							"internalType": "string",
							"name": "",
							"type": "string"
						}
					],
					"stateMutability": "view",
					"type": "function"
				},
				{
					"inputs": [],
					"name": "tokenSymbol",
					"outputs": [
						{
							"internalType": "string",
							"name": "",
							"type": "string"
						}
					],
					"stateMutability": "view",
					"type": "function"
				},
				{
					"inputs": [],
					"name": "totalSupply",
					"outputs": [
						{
							"internalType": "uint256",
							"name": "",
							"type": "uint256"
						}
					],
					"stateMutability": "view",
					"type": "function"
				},
				{
					"inputs": [
						{
							"internalType": "address",
							"name": "to",
							"type": "address"
						},
						{
							"internalType": "uint256",
							"name": "amount",
							"type": "uint256"
						}
					],
					"name": "transfer",
					"outputs": [
						{
							"internalType": "bool",
							"name": "",
							"type": "bool"
						}
					],
					"stateMutability": "nonpayable",
					"type": "function"
				},
				{
					"inputs": [
						{
							"internalType": "address",
							"name": "from",
							"type": "address"
						},
						{
							"internalType": "address",
							"name": "to",
							"type": "address"
						},
						{
							"internalType": "uint256",
							"name": "amount",
							"type": "uint256"
						}
					],
					"name": "transferFrom",
					"outputs": [
						{
							"internalType": "bool",
							"name": "",
							"type": "bool"
						}
					],
					"stateMutability": "nonpayable",
					"type": "function"
				},
				{
					"inputs": [
						{
							"internalType": "address",
							"name": "_reciever",
							"type": "address"
						},
						{
							"internalType": "uint256",
							"name": "_tokens",
							"type": "uint256"
						}
					],
					"name": "transferTokens",
					"outputs": [],
					"stateMutability": "nonpayable",
					"type": "function"
				}
			],
			"devdoc": {
				"events": {
					"Approval(address,address,uint256)": {
						"details": "Emitted when the allowance of a `spender` for an `owner` is set by a call to {approve}. `value` is the new allowance."
					},
					"Transfer(address,address,uint256)": {
						"details": "Emitted when `value` tokens are moved from one account (`from`) to another (`to`). Note that `value` may be zero."
					}
				},
				"kind": "dev",
				"methods": {
					"allowance(address,address)": {
						"details": "See {IERC20-allowance}."
					},
					"approve(address,uint256)": {
						"details": "See {IERC20-approve}. NOTE: If `amount` is the maximum `uint256`, the allowance is not updated on `transferFrom`. This is semantically equivalent to an infinite approval. Requirements: - `spender` cannot be the zero address."
					},
					"balanceOf(address)": {
						"details": "See {IERC20-balanceOf}."
					},
					"decimals()": {
						"details": "Returns the number of decimals used to get its user representation. For example, if `decimals` equals `2`, a balance of `505` tokens should be displayed to a user as `5.05` (`505 / 10 ** 2`). Tokens usually opt for a value of 18, imitating the relationship between Ether and Wei. This is the default value returned by this function, unless it's overridden. NOTE: This information is only used for _display_ purposes: it in no way affects any of the arithmetic of the contract, including {IERC20-balanceOf} and {IERC20-transfer}."
					},
					"decreaseAllowance(address,uint256)": {
						"details": "Atomically decreases the allowance granted to `spender` by the caller. This is an alternative to {approve} that can be used as a mitigation for problems described in {IERC20-approve}. Emits an {Approval} event indicating the updated allowance. Requirements: - `spender` cannot be the zero address. - `spender` must have allowance for the caller of at least `subtractedValue`."
					},
					"increaseAllowance(address,uint256)": {
						"details": "Atomically increases the allowance granted to `spender` by the caller. This is an alternative to {approve} that can be used as a mitigation for problems described in {IERC20-approve}. Emits an {Approval} event indicating the updated allowance. Requirements: - `spender` cannot be the zero address."
					},
					"name()": {
						"details": "Returns the name of the token."
					},
					"symbol()": {
						"details": "Returns the symbol of the token, usually a shorter version of the name."
					},
					"totalSupply()": {
						"details": "See {IERC20-totalSupply}."
					},
					"transfer(address,uint256)": {
						"details": "See {IERC20-transfer}. Requirements: - `to` cannot be the zero address. - the caller must have a balance of at least `amount`."
					},
					"transferFrom(address,address,uint256)": {
						"details": "See {IERC20-transferFrom}. Emits an {Approval} event indicating the updated allowance. This is not required by the EIP. See the note at the beginning of {ERC20}. NOTE: Does not update the allowance if the current allowance is the maximum `uint256`. Requirements: - `from` and `to` cannot be the zero address. - `from` must have a balance of at least `amount`. - the caller must have allowance for ``from``'s tokens of at least `amount`."
					}
				},
				"version": 1
			},
			"evm": {
				"assembly": "    /* \"contracts/DegenToken.sol\":217:2947  contract DegenToken is ERC20 {... */\n  mstore(0x40, 0x80)\n    /* \"contracts/DegenToken.sol\":253:295  string public tokenName = \"DEGEN VALORANT\" */\n  mload(0x40)\n  dup1\n  0x40\n  add\n  0x40\n  mstore\n  dup1\n  0x0e\n  dup2\n  mstore\n  0x20\n  add\n  0x444547454e2056414c4f52414e54000000000000000000000000000000000000\n  dup2\n  mstore\n  pop\n  0x05\n  swap1\n  dup2\n  tag_1\n  swap2\n  swap1\n  tag_2\n  jump\t// in\ntag_1:\n  pop\n    /* \"contracts/DegenToken.sol\":301:336  string public tokenSymbol = \"DGt-V\" */\n  mload(0x40)\n  dup1\n  0x40\n  add\n  0x40\n  mstore\n  dup1\n  0x05\n  dup2\n  mstore\n  0x20\n  add\n  0x4447742d56000000000000000000000000000000000000000000000000000000\n  dup2\n  mstore\n  pop\n  0x06\n  swap1\n  dup2\n  tag_3\n  swap2\n  swap1\n  tag_2\n  jump\t// in\ntag_3:\n  pop\n    /* \"contracts/DegenToken.sol\":415:527  constructor() ERC20(tokenName, tokenSymbol){... */\n  callvalue\n  dup1\n  iszero\n  tag_4\n  jumpi\n  0x00\n  dup1\n  revert\ntag_4:\n  pop\n    /* \"contracts/DegenToken.sol\":435:444  tokenName */\n  0x05\n    /* \"@openzeppelin/contracts/token/ERC20/ERC20.sol\":1980:2093  constructor(string memory name_, string memory symbol_) {... */\n  dup1\n  sload\n  tag_6\n  swap1\n  tag_7\n  jump\t// in\ntag_6:\n  dup1\n  0x1f\n  add\n  0x20\n  dup1\n  swap2\n  div\n  mul\n  0x20\n  add\n  mload(0x40)\n  swap1\n  dup2\n  add\n  0x40\n  mstore\n  dup1\n  swap3\n  swap2\n  swap1\n  dup2\n  dup2\n  mstore\n  0x20\n  add\n  dup3\n  dup1\n  sload\n  tag_8\n  swap1\n  tag_7\n  jump\t// in\ntag_8:\n  dup1\n  iszero\n  tag_9\n  jumpi\n  dup1\n  0x1f\n  lt\n  tag_10\n  jumpi\n  0x0100\n  dup1\n  dup4\n  sload\n  div\n  mul\n  dup4\n  mstore\n  swap2\n  0x20\n  add\n  swap2\n  jump(tag_9)\ntag_10:\n  dup3\n  add\n  swap2\n  swap1\n  0x00\n  mstore\n  keccak256(0x00, 0x20)\n  swap1\ntag_11:\n  dup2\n  sload\n  dup2\n  mstore\n  swap1\n  0x01\n  add\n  swap1\n  0x20\n  add\n  dup1\n  dup4\n  gt\n  tag_11\n  jumpi\n  dup3\n  swap1\n  sub\n  0x1f\n  and\n  dup3\n  add\n  swap2\ntag_9:\n  pop\n  pop\n  pop\n  pop\n  pop\n    /* \"contracts/DegenToken.sol\":446:457  tokenSymbol */\n  0x06\n    /* \"@openzeppelin/contracts/token/ERC20/ERC20.sol\":1980:2093  constructor(string memory name_, string memory symbol_) {... */\n  dup1\n  sload\n  tag_12\n  swap1\n  tag_7\n  jump\t// in\ntag_12:\n  dup1\n  0x1f\n  add\n  0x20\n  dup1\n  swap2\n  div\n  mul\n  0x20\n  add\n  mload(0x40)\n  swap1\n  dup2\n  add\n  0x40\n  mstore\n  dup1\n  swap3\n  swap2\n  swap1\n  dup2\n  dup2\n  mstore\n  0x20\n  add\n  dup3\n  dup1\n  sload\n  tag_13\n  swap1\n  tag_7\n  jump\t// in\ntag_13:\n  dup1\n  iszero\n  tag_14\n  jumpi\n  dup1\n  0x1f\n  lt\n  tag_15\n  jumpi\n  0x0100\n  dup1\n  dup4\n  sload\n  div\n  mul\n  dup4\n  mstore\n  swap2\n  0x20\n  add\n  swap2\n  jump(tag_14)\ntag_15:\n  dup3\n  add\n  swap2\n  swap1\n  0x00\n  mstore\n  keccak256(0x00, 0x20)\n  swap1\ntag_16:\n  dup2\n  sload\n  dup2\n  mstore\n  swap1\n  0x01\n  add\n  swap1\n  0x20\n  add\n  dup1\n  dup4\n  gt\n  tag_16\n  jumpi\n  dup3\n  swap1\n  sub\n  0x1f\n  and\n  dup3\n  add\n  swap2\ntag_14:\n  pop\n  pop\n  pop\n  pop\n  pop\n    /* \"@openzeppelin/contracts/token/ERC20/ERC20.sol\":2054:2059  name_ */\n  dup2\n    /* \"@openzeppelin/contracts/token/ERC20/ERC20.sol\":2046:2051  _name */\n  0x03\n    /* \"@openzeppelin/contracts/token/ERC20/ERC20.sol\":2046:2059  _name = name_ */\n  swap1\n  dup2\n  tag_19\n  swap2\n  swap1\n  tag_2\n  jump\t// in\ntag_19:\n  pop\n    /* \"@openzeppelin/contracts/token/ERC20/ERC20.sol\":2079:2086  symbol_ */\n  dup1\n    /* \"@openzeppelin/contracts/token/ERC20/ERC20.sol\":2069:2076  _symbol */\n  0x04\n    /* \"@openzeppelin/contracts/token/ERC20/ERC20.sol\":2069:2086  _symbol = symbol_ */\n  swap1\n  dup2\n  tag_20\n  swap2\n  swap1\n  tag_2\n  jump\t// in\ntag_20:\n  pop\n    /* \"@openzeppelin/contracts/token/ERC20/ERC20.sol\":1980:2093  constructor(string memory name_, string memory symbol_) {... */\n  pop\n  pop\n    /* \"contracts/DegenToken.sol\":468:492  _mint(msg.sender, 10000) */\n  tag_22\n    /* \"contracts/DegenToken.sol\":474:484  msg.sender */\n  caller\n    /* \"contracts/DegenToken.sol\":486:491  10000 */\n  0x2710\n    /* \"contracts/DegenToken.sol\":468:473  _mint */\n  shl(0x20, tag_23)\n    /* \"contracts/DegenToken.sol\":468:492  _mint(msg.sender, 10000) */\n  0x20\n  shr\n  jump\t// in\ntag_22:\n    /* \"contracts/DegenToken.sol\":510:520  msg.sender */\n  caller\n    /* \"contracts/DegenToken.sol\":502:507  owner */\n  0x08\n  0x00\n    /* \"contracts/DegenToken.sol\":502:520  owner = msg.sender */\n  0x0100\n  exp\n  dup2\n  sload\n  dup2\n  0xffffffffffffffffffffffffffffffffffffffff\n  mul\n  not\n  and\n  swap1\n  dup4\n  0xffffffffffffffffffffffffffffffffffffffff\n  and\n  mul\n  or\n  swap1\n  sstore\n  pop\n    /* \"contracts/DegenToken.sol\":217:2947  contract DegenToken is ERC20 {... */\n  jump(tag_24)\n    /* \"@openzeppelin/contracts/token/ERC20/ERC20.sol\":8520:9055  function _mint(address account, uint256 amount) internal virtual {... */\ntag_23:\n    /* \"@openzeppelin/contracts/token/ERC20/ERC20.sol\":8622:8623  0 */\n  0x00\n    /* \"@openzeppelin/contracts/token/ERC20/ERC20.sol\":8603:8624  account != address(0) */\n  0xffffffffffffffffffffffffffffffffffffffff\n  and\n    /* \"@openzeppelin/contracts/token/ERC20/ERC20.sol\":8603:8610  account */\n  dup3\n    /* \"@openzeppelin/contracts/token/ERC20/ERC20.sol\":8603:8624  account != address(0) */\n  0xffffffffffffffffffffffffffffffffffffffff\n  and\n  sub\n    /* \"@openzeppelin/contracts/token/ERC20/ERC20.sol\":8595:8660  require(account != address(0), \"ERC20: mint to the zero address\") */\n  tag_26\n  jumpi\n  mload(0x40)\n  0x08c379a000000000000000000000000000000000000000000000000000000000\n  dup2\n  mstore\n  0x04\n  add\n  tag_27\n  swap1\n  tag_28\n  jump\t// in\ntag_27:\n  mload(0x40)\n  dup1\n  swap2\n  sub\n  swap1\n  revert\ntag_26:\n    /* \"@openzeppelin/contracts/token/ERC20/ERC20.sol\":8671:8720  _beforeTokenTransfer(address(0), account, amount) */\n  tag_29\n    /* \"@openzeppelin/contracts/token/ERC20/ERC20.sol\":8700:8701  0 */\n  0x00\n    /* \"@openzeppelin/contracts/token/ERC20/ERC20.sol\":8704:8711  account */\n  dup4\n    /* \"@openzeppelin/contracts/token/ERC20/ERC20.sol\":8713:8719  amount */\n  dup4\n    /* \"@openzeppelin/contracts/token/ERC20/ERC20.sol\":8671:8691  _beforeTokenTransfer */\n  shl(0x20, tag_30)\n    /* \"@openzeppelin/contracts/token/ERC20/ERC20.sol\":8671:8720  _beforeTokenTransfer(address(0), account, amount) */\n  0x20\n  shr\n  jump\t// in\ntag_29:\n    /* \"@openzeppelin/contracts/token/ERC20/ERC20.sol\":8747:8753  amount */\n  dup1\n    /* \"@openzeppelin/contracts/token/ERC20/ERC20.sol\":8731:8743  _totalSupply */\n  0x02\n  0x00\n    /* \"@openzeppelin/contracts/token/ERC20/ERC20.sol\":8731:8753  _totalSupply += amount */\n  dup3\n  dup3\n  sload\n  tag_31\n  swap2\n  swap1\n  tag_32\n  jump\t// in\ntag_31:\n  swap3\n  pop\n  pop\n  dup2\n  swap1\n  sstore\n  pop\n    /* \"@openzeppelin/contracts/token/ERC20/ERC20.sol\":8921:8927  amount */\n  dup1\n    /* \"@openzeppelin/contracts/token/ERC20/ERC20.sol\":8899:8908  _balances */\n  0x00\n    /* \"@openzeppelin/contracts/token/ERC20/ERC20.sol\":8899:8917  _balances[account] */\n  dup1\n    /* \"@openzeppelin/contracts/token/ERC20/ERC20.sol\":8909:8916  account */\n  dup5\n    /* \"@openzeppelin/contracts/token/ERC20/ERC20.sol\":8899:8917  _balances[account] */\n  0xffffffffffffffffffffffffffffffffffffffff\n  and\n  0xffffffffffffffffffffffffffffffffffffffff\n  and\n  dup2\n  mstore\n  0x20\n  add\n  swap1\n  dup2\n  mstore\n  0x20\n  add\n  0x00\n  keccak256\n  0x00\n    /* \"@openzeppelin/contracts/token/ERC20/ERC20.sol\":8899:8927  _balances[account] += amount */\n  dup3\n  dup3\n  sload\n  add\n  swap3\n  pop\n  pop\n  dup2\n  swap1\n  sstore\n  pop\n    /* \"@openzeppelin/contracts/token/ERC20/ERC20.sol\":8973:8980  account */\n  dup2\n    /* \"@openzeppelin/contracts/token/ERC20/ERC20.sol\":8952:8989  Transfer(address(0), account, amount) */\n  0xffffffffffffffffffffffffffffffffffffffff\n  and\n    /* \"@openzeppelin/contracts/token/ERC20/ERC20.sol\":8969:8970  0 */\n  0x00\n    /* \"@openzeppelin/contracts/token/ERC20/ERC20.sol\":8952:8989  Transfer(address(0), account, amount) */\n  0xffffffffffffffffffffffffffffffffffffffff\n  and\n  0xddf252ad1be2c89b69c2b068fc378daa952ba7f163c4a11628f55a4df523b3ef\n    /* \"@openzeppelin/contracts/token/ERC20/ERC20.sol\":8982:8988  amount */\n  dup4\n    /* \"@openzeppelin/contracts/token/ERC20/ERC20.sol\":8952:8989  Transfer(address(0), account, amount) */\n  mload(0x40)\n  tag_33\n  swap2\n  swap1\n  tag_34\n  jump\t// in\ntag_33:\n  mload(0x40)\n  dup1\n  swap2\n  sub\n  swap1\n  log3\n    /* \"@openzeppelin/contracts/token/ERC20/ERC20.sol\":9000:9048  _afterTokenTransfer(address(0), account, amount) */\n  tag_35\n    /* \"@openzeppelin/contracts/token/ERC20/ERC20.sol\":9028:9029  0 */\n  0x00\n    /* \"@openzeppelin/contracts/token/ERC20/ERC20.sol\":9032:9039  account */\n  dup4\n    /* \"@openzeppelin/contracts/token/ERC20/ERC20.sol\":9041:9047  amount */\n  dup4\n    /* \"@openzeppelin/contracts/token/ERC20/ERC20.sol\":9000:9019  _afterTokenTransfer */\n  shl(0x20, tag_36)\n    /* \"@openzeppelin/contracts/token/ERC20/ERC20.sol\":9000:9048  _afterTokenTransfer(address(0), account, amount) */\n  0x20\n  shr\n  jump\t// in\ntag_35:\n    /* \"@openzeppelin/contracts/token/ERC20/ERC20.sol\":8520:9055  function _mint(address account, uint256 amount) internal virtual {... */\n  pop\n  pop\n  jump\t// out\n    /* \"@openzeppelin/contracts/token/ERC20/ERC20.sol\":12073:12164  function _beforeTokenTransfer(address from, address to, uint256 amount) internal virtual {} */\ntag_30:\n  pop\n  pop\n  pop\n  jump\t// out\n    /* \"@openzeppelin/contracts/token/ERC20/ERC20.sol\":12752:12842  function _afterTokenTransfer(address from, address to, uint256 amount) internal virtual {} */\ntag_36:\n  pop\n  pop\n  pop\n  jump\t// out\n    /* \"#utility.yul\":7:106   */\ntag_39:\n    /* \"#utility.yul\":59:65   */\n  0x00\n    /* \"#utility.yul\":93:98   */\n  dup2\n    /* \"#utility.yul\":87:99   */\n  mload\n    /* \"#utility.yul\":77:99   */\n  swap1\n  pop\n    /* \"#utility.yul\":7:106   */\n  swap2\n  swap1\n  pop\n  jump\t// out\n    /* \"#utility.yul\":112:292   */\ntag_40:\n    /* \"#utility.yul\":160:237   */\n  0x4e487b7100000000000000000000000000000000000000000000000000000000\n    /* \"#utility.yul\":157:158   */\n  0x00\n    /* \"#utility.yul\":150:238   */\n  mstore\n    /* \"#utility.yul\":257:261   */\n  0x41\n    /* \"#utility.yul\":254:255   */\n  0x04\n    /* \"#utility.yul\":247:262   */\n  mstore\n    /* \"#utility.yul\":281:285   */\n  0x24\n    /* \"#utility.yul\":278:279   */\n  0x00\n    /* \"#utility.yul\":271:286   */\n  revert\n    /* \"#utility.yul\":298:478   */\ntag_41:\n    /* \"#utility.yul\":346:423   */\n  0x4e487b7100000000000000000000000000000000000000000000000000000000\n    /* \"#utility.yul\":343:344   */\n  0x00\n    /* \"#utility.yul\":336:424   */\n  mstore\n    /* \"#utility.yul\":443:447   */\n  0x22\n    /* \"#utility.yul\":440:441   */\n  0x04\n    /* \"#utility.yul\":433:448   */\n  mstore\n    /* \"#utility.yul\":467:471   */\n  0x24\n    /* \"#utility.yul\":464:465   */\n  0x00\n    /* \"#utility.yul\":457:472   */\n  revert\n    /* \"#utility.yul\":484:804   */\ntag_7:\n    /* \"#utility.yul\":528:534   */\n  0x00\n    /* \"#utility.yul\":565:566   */\n  0x02\n    /* \"#utility.yul\":559:563   */\n  dup3\n    /* \"#utility.yul\":555:567   */\n  div\n    /* \"#utility.yul\":545:567   */\n  swap1\n  pop\n    /* \"#utility.yul\":612:613   */\n  0x01\n    /* \"#utility.yul\":606:610   */\n  dup3\n    /* \"#utility.yul\":602:614   */\n  and\n    /* \"#utility.yul\":633:651   */\n  dup1\n    /* \"#utility.yul\":623:704   */\n  tag_68\n  jumpi\n    /* \"#utility.yul\":689:693   */\n  0x7f\n    /* \"#utility.yul\":681:687   */\n  dup3\n    /* \"#utility.yul\":677:694   */\n  and\n    /* \"#utility.yul\":667:694   */\n  swap2\n  pop\n    /* \"#utility.yul\":623:704   */\ntag_68:\n    /* \"#utility.yul\":751:753   */\n  0x20\n    /* \"#utility.yul\":743:749   */\n  dup3\n    /* \"#utility.yul\":740:754   */\n  lt\n    /* \"#utility.yul\":720:738   */\n  dup2\n    /* \"#utility.yul\":717:755   */\n  sub\n    /* \"#utility.yul\":714:798   */\n  tag_69\n  jumpi\n    /* \"#utility.yul\":770:788   */\n  tag_70\n  tag_41\n  jump\t// in\ntag_70:\n    /* \"#utility.yul\":714:798   */\ntag_69:\n    /* \"#utility.yul\":535:804   */\n  pop\n    /* \"#utility.yul\":484:804   */\n  swap2\n  swap1\n  pop\n  jump\t// out\n    /* \"#utility.yul\":810:951   */\ntag_42:\n    /* \"#utility.yul\":859:863   */\n  0x00\n    /* \"#utility.yul\":882:885   */\n  dup2\n    /* \"#utility.yul\":874:885   */\n  swap1\n  pop\n    /* \"#utility.yul\":905:908   */\n  dup2\n    /* \"#utility.yul\":902:903   */\n  0x00\n    /* \"#utility.yul\":895:909   */\n  mstore\n    /* \"#utility.yul\":939:943   */\n  0x20\n    /* \"#utility.yul\":936:937   */\n  0x00\n    /* \"#utility.yul\":926:944   */\n  keccak256\n    /* \"#utility.yul\":918:944   */\n  swap1\n  pop\n    /* \"#utility.yul\":810:951   */\n  swap2\n  swap1\n  pop\n  jump\t// out\n    /* \"#utility.yul\":957:1050   */\ntag_43:\n    /* \"#utility.yul\":994:1000   */\n  0x00\n    /* \"#utility.yul\":1041:1043   */\n  0x20\n    /* \"#utility.yul\":1036:1038   */\n  0x1f\n    /* \"#utility.yul\":1029:1034   */\n  dup4\n    /* \"#utility.yul\":1025:1039   */\n  add\n    /* \"#utility.yul\":1021:1044   */\n  div\n    /* \"#utility.yul\":1011:1044   */\n  swap1\n  pop\n    /* \"#utility.yul\":957:1050   */\n  swap2\n  swap1\n  pop\n  jump\t// out\n    /* \"#utility.yul\":1056:1163   */\ntag_44:\n    /* \"#utility.yul\":1100:1108   */\n  0x00\n    /* \"#utility.yul\":1150:1155   */\n  dup3\n    /* \"#utility.yul\":1144:1148   */\n  dup3\n    /* \"#utility.yul\":1140:1156   */\n  shl\n    /* \"#utility.yul\":1119:1156   */\n  swap1\n  pop\n    /* \"#utility.yul\":1056:1163   */\n  swap3\n  swap2\n  pop\n  pop\n  jump\t// out\n    /* \"#utility.yul\":1169:1562   */\ntag_45:\n    /* \"#utility.yul\":1238:1244   */\n  0x00\n    /* \"#utility.yul\":1288:1289   */\n  0x08\n    /* \"#utility.yul\":1276:1286   */\n  dup4\n    /* \"#utility.yul\":1272:1290   */\n  mul\n    /* \"#utility.yul\":1311:1408   */\n  tag_75\n    /* \"#utility.yul\":1341:1407   */\n  0xffffffffffffffffffffffffffffffffffffffffffffffffffffffffffffffff\n    /* \"#utility.yul\":1330:1339   */\n  dup3\n    /* \"#utility.yul\":1311:1408   */\n  tag_44\n  jump\t// in\ntag_75:\n    /* \"#utility.yul\":1429:1468   */\n  tag_76\n    /* \"#utility.yul\":1459:1467   */\n  dup7\n    /* \"#utility.yul\":1448:1457   */\n  dup4\n    /* \"#utility.yul\":1429:1468   */\n  tag_44\n  jump\t// in\ntag_76:\n    /* \"#utility.yul\":1417:1468   */\n  swap6\n  pop\n    /* \"#utility.yul\":1501:1505   */\n  dup1\n    /* \"#utility.yul\":1497:1506   */\n  not\n    /* \"#utility.yul\":1490:1495   */\n  dup5\n    /* \"#utility.yul\":1486:1507   */\n  and\n    /* \"#utility.yul\":1477:1507   */\n  swap4\n  pop\n    /* \"#utility.yul\":1550:1554   */\n  dup1\n    /* \"#utility.yul\":1540:1548   */\n  dup7\n    /* \"#utility.yul\":1536:1555   */\n  and\n    /* \"#utility.yul\":1529:1534   */\n  dup5\n    /* \"#utility.yul\":1526:1556   */\n  or\n    /* \"#utility.yul\":1516:1556   */\n  swap3\n  pop\n    /* \"#utility.yul\":1245:1562   */\n  pop\n  pop\n    /* \"#utility.yul\":1169:1562   */\n  swap4\n  swap3\n  pop\n  pop\n  pop\n  jump\t// out\n    /* \"#utility.yul\":1568:1645   */\ntag_46:\n    /* \"#utility.yul\":1605:1612   */\n  0x00\n    /* \"#utility.yul\":1634:1639   */\n  dup2\n    /* \"#utility.yul\":1623:1639   */\n  swap1\n  pop\n    /* \"#utility.yul\":1568:1645   */\n  swap2\n  swap1\n  pop\n  jump\t// out\n    /* \"#utility.yul\":1651:1711   */\ntag_47:\n    /* \"#utility.yul\":1679:1682   */\n  0x00\n    /* \"#utility.yul\":1700:1705   */\n  dup2\n    /* \"#utility.yul\":1693:1705   */\n  swap1\n  pop\n    /* \"#utility.yul\":1651:1711   */\n  swap2\n  swap1\n  pop\n  jump\t// out\n    /* \"#utility.yul\":1717:1859   */\ntag_48:\n    /* \"#utility.yul\":1767:1776   */\n  0x00\n    /* \"#utility.yul\":1800:1853   */\n  tag_80\n    /* \"#utility.yul\":1818:1852   */\n  tag_81\n    /* \"#utility.yul\":1827:1851   */\n  tag_82\n    /* \"#utility.yul\":1845:1850   */\n  dup5\n    /* \"#utility.yul\":1827:1851   */\n  tag_46\n  jump\t// in\ntag_82:\n    /* \"#utility.yul\":1818:1852   */\n  tag_47\n  jump\t// in\ntag_81:\n    /* \"#utility.yul\":1800:1853   */\n  tag_46\n  jump\t// in\ntag_80:\n    /* \"#utility.yul\":1787:1853   */\n  swap1\n  pop\n    /* \"#utility.yul\":1717:1859   */\n  swap2\n  swap1\n  pop\n  jump\t// out\n    /* \"#utility.yul\":1865:1940   */\ntag_49:\n    /* \"#utility.yul\":1908:1911   */\n  0x00\n    /* \"#utility.yul\":1929:1934   */\n  dup2\n    /* \"#utility.yul\":1922:1934   */\n  swap1\n  pop\n    /* \"#utility.yul\":1865:1940   */\n  swap2\n  swap1\n  pop\n  jump\t// out\n    /* \"#utility.yul\":1946:2215   */\ntag_50:\n    /* \"#utility.yul\":2056:2095   */\n  tag_85\n    /* \"#utility.yul\":2087:2094   */\n  dup4\n    /* \"#utility.yul\":2056:2095   */\n  tag_48\n  jump\t// in\ntag_85:\n    /* \"#utility.yul\":2117:2208   */\n  tag_86\n    /* \"#utility.yul\":2166:2207   */\n  tag_87\n    /* \"#utility.yul\":2190:2206   */\n  dup3\n    /* \"#utility.yul\":2166:2207   */\n  tag_49\n  jump\t// in\ntag_87:\n    /* \"#utility.yul\":2158:2164   */\n  dup5\n    /* \"#utility.yul\":2151:2155   */\n  dup5\n    /* \"#utility.yul\":2145:2156   */\n  sload\n    /* \"#utility.yul\":2117:2208   */\n  tag_45\n  jump\t// in\ntag_86:\n    /* \"#utility.yul\":2111:2115   */\n  dup3\n    /* \"#utility.yul\":2104:2209   */\n  sstore\n    /* \"#utility.yul\":2022:2215   */\n  pop\n    /* \"#utility.yul\":1946:2215   */\n  pop\n  pop\n  pop\n  jump\t// out\n    /* \"#utility.yul\":2221:2294   */\ntag_51:\n    /* \"#utility.yul\":2266:2269   */\n  0x00\n    /* \"#utility.yul\":2221:2294   */\n  swap1\n  jump\t// out\n    /* \"#utility.yul\":2300:2489   */\ntag_52:\n    /* \"#utility.yul\":2377:2409   */\n  tag_90\n  tag_51\n  jump\t// in\ntag_90:\n    /* \"#utility.yul\":2418:2483   */\n  tag_91\n    /* \"#utility.yul\":2476:2482   */\n  dup2\n    /* \"#utility.yul\":2468:2474   */\n  dup5\n    /* \"#utility.yul\":2462:2466   */\n  dup5\n    /* \"#utility.yul\":2418:2483   */\n  tag_50\n  jump\t// in\ntag_91:\n    /* \"#utility.yul\":2353:2489   */\n  pop\n    /* \"#utility.yul\":2300:2489   */\n  pop\n  pop\n  jump\t// out\n    /* \"#utility.yul\":2495:2681   */\ntag_53:\n    /* \"#utility.yul\":2555:2675   */\ntag_93:\n    /* \"#utility.yul\":2572:2575   */\n  dup2\n    /* \"#utility.yul\":2565:2570   */\n  dup2\n    /* \"#utility.yul\":2562:2576   */\n  lt\n    /* \"#utility.yul\":2555:2675   */\n  iszero\n  tag_95\n  jumpi\n    /* \"#utility.yul\":2626:2665   */\n  tag_96\n    /* \"#utility.yul\":2663:2664   */\n  0x00\n    /* \"#utility.yul\":2656:2661   */\n  dup3\n    /* \"#utility.yul\":2626:2665   */\n  tag_52\n  jump\t// in\ntag_96:\n    /* \"#utility.yul\":2599:2600   */\n  0x01\n    /* \"#utility.yul\":2592:2597   */\n  dup2\n    /* \"#utility.yul\":2588:2601   */\n  add\n    /* \"#utility.yul\":2579:2601   */\n  swap1\n  pop\n    /* \"#utility.yul\":2555:2675   */\n  jump(tag_93)\ntag_95:\n    /* \"#utility.yul\":2495:2681   */\n  pop\n  pop\n  jump\t// out\n    /* \"#utility.yul\":2687:3230   */\ntag_54:\n    /* \"#utility.yul\":2788:2790   */\n  0x1f\n    /* \"#utility.yul\":2783:2786   */\n  dup3\n    /* \"#utility.yul\":2780:2791   */\n  gt\n    /* \"#utility.yul\":2777:3223   */\n  iszero\n  tag_98\n  jumpi\n    /* \"#utility.yul\":2822:2860   */\n  tag_99\n    /* \"#utility.yul\":2854:2859   */\n  dup2\n    /* \"#utility.yul\":2822:2860   */\n  tag_42\n  jump\t// in\ntag_99:\n    /* \"#utility.yul\":2906:2935   */\n  tag_100\n    /* \"#utility.yul\":2924:2934   */\n  dup5\n    /* \"#utility.yul\":2906:2935   */\n  tag_43\n  jump\t// in\ntag_100:\n    /* \"#utility.yul\":2896:2904   */\n  dup2\n    /* \"#utility.yul\":2892:2936   */\n  add\n    /* \"#utility.yul\":3089:3091   */\n  0x20\n    /* \"#utility.yul\":3077:3087   */\n  dup6\n    /* \"#utility.yul\":3074:3092   */\n  lt\n    /* \"#utility.yul\":3071:3120   */\n  iszero\n  tag_101\n  jumpi\n    /* \"#utility.yul\":3110:3118   */\n  dup2\n    /* \"#utility.yul\":3095:3118   */\n  swap1\n  pop\n    /* \"#utility.yul\":3071:3120   */\ntag_101:\n    /* \"#utility.yul\":3133:3213   */\n  tag_102\n    /* \"#utility.yul\":3189:3211   */\n  tag_103\n    /* \"#utility.yul\":3207:3210   */\n  dup6\n    /* \"#utility.yul\":3189:3211   */\n  tag_43\n  jump\t// in\ntag_103:\n    /* \"#utility.yul\":3179:3187   */\n  dup4\n    /* \"#utility.yul\":3175:3212   */\n  add\n    /* \"#utility.yul\":3162:3173   */\n  dup3\n    /* \"#utility.yul\":3133:3213   */\n  tag_53\n  jump\t// in\ntag_102:\n    /* \"#utility.yul\":2792:3223   */\n  pop\n  pop\n    /* \"#utility.yul\":2777:3223   */\ntag_98:\n    /* \"#utility.yul\":2687:3230   */\n  pop\n  pop\n  pop\n  jump\t// out\n    /* \"#utility.yul\":3236:3353   */\ntag_55:\n    /* \"#utility.yul\":3290:3298   */\n  0x00\n    /* \"#utility.yul\":3340:3345   */\n  dup3\n    /* \"#utility.yul\":3334:3338   */\n  dup3\n    /* \"#utility.yul\":3330:3346   */\n  shr\n    /* \"#utility.yul\":3309:3346   */\n  swap1\n  pop\n    /* \"#utility.yul\":3236:3353   */\n  swap3\n  swap2\n  pop\n  pop\n  jump\t// out\n    /* \"#utility.yul\":3359:3528   */\ntag_56:\n    /* \"#utility.yul\":3403:3409   */\n  0x00\n    /* \"#utility.yul\":3436:3487   */\n  tag_106\n    /* \"#utility.yul\":3484:3485   */\n  0x00\n    /* \"#utility.yul\":3480:3486   */\n  not\n    /* \"#utility.yul\":3472:3477   */\n  dup5\n    /* \"#utility.yul\":3469:3470   */\n  0x08\n    /* \"#utility.yul\":3465:3478   */\n  mul\n    /* \"#utility.yul\":3436:3487   */\n  tag_55\n  jump\t// in\ntag_106:\n    /* \"#utility.yul\":3432:3488   */\n  not\n    /* \"#utility.yul\":3517:3521   */\n  dup1\n    /* \"#utility.yul\":3511:3515   */\n  dup4\n    /* \"#utility.yul\":3507:3522   */\n  and\n    /* \"#utility.yul\":3497:3522   */\n  swap2\n  pop\n    /* \"#utility.yul\":3410:3528   */\n  pop\n    /* \"#utility.yul\":3359:3528   */\n  swap3\n  swap2\n  pop\n  pop\n  jump\t// out\n    /* \"#utility.yul\":3533:3828   */\ntag_57:\n    /* \"#utility.yul\":3609:3613   */\n  0x00\n    /* \"#utility.yul\":3755:3784   */\n  tag_108\n    /* \"#utility.yul\":3780:3783   */\n  dup4\n    /* \"#utility.yul\":3774:3778   */\n  dup4\n    /* \"#utility.yul\":3755:3784   */\n  tag_56\n  jump\t// in\ntag_108:\n    /* \"#utility.yul\":3747:3784   */\n  swap2\n  pop\n    /* \"#utility.yul\":3817:3820   */\n  dup3\n    /* \"#utility.yul\":3814:3815   */\n  0x02\n    /* \"#utility.yul\":3810:3821   */\n  mul\n    /* \"#utility.yul\":3804:3808   */\n  dup3\n    /* \"#utility.yul\":3801:3822   */\n  or\n    /* \"#utility.yul\":3793:3822   */\n  swap1\n  pop\n    /* \"#utility.yul\":3533:3828   */\n  swap3\n  swap2\n  pop\n  pop\n  jump\t// out\n    /* \"#utility.yul\":3833:5228   */\ntag_2:\n    /* \"#utility.yul\":3950:3987   */\n  tag_110\n    /* \"#utility.yul\":3983:3986   */\n  dup3\n    /* \"#utility.yul\":3950:3987   */\n  tag_39\n  jump\t// in\ntag_110:\n    /* \"#utility.yul\":4052:4070   */\n  0xffffffffffffffff\n    /* \"#utility.yul\":4044:4050   */\n  dup2\n    /* \"#utility.yul\":4041:4071   */\n  gt\n    /* \"#utility.yul\":4038:4094   */\n  iszero\n  tag_111\n  jumpi\n    /* \"#utility.yul\":4074:4092   */\n  tag_112\n  tag_40\n  jump\t// in\ntag_112:\n    /* \"#utility.yul\":4038:4094   */\ntag_111:\n    /* \"#utility.yul\":4118:4156   */\n  tag_113\n    /* \"#utility.yul\":4150:4154   */\n  dup3\n    /* \"#utility.yul\":4144:4155   */\n  sload\n    /* \"#utility.yul\":4118:4156   */\n  tag_7\n  jump\t// in\ntag_113:\n    /* \"#utility.yul\":4203:4270   */\n  tag_114\n    /* \"#utility.yul\":4263:4269   */\n  dup3\n    /* \"#utility.yul\":4255:4261   */\n  dup3\n    /* \"#utility.yul\":4249:4253   */\n  dup6\n    /* \"#utility.yul\":4203:4270   */\n  tag_54\n  jump\t// in\ntag_114:\n    /* \"#utility.yul\":4297:4298   */\n  0x00\n    /* \"#utility.yul\":4321:4325   */\n  0x20\n    /* \"#utility.yul\":4308:4325   */\n  swap1\n  pop\n    /* \"#utility.yul\":4353:4355   */\n  0x1f\n    /* \"#utility.yul\":4345:4351   */\n  dup4\n    /* \"#utility.yul\":4342:4356   */\n  gt\n    /* \"#utility.yul\":4370:4371   */\n  0x01\n    /* \"#utility.yul\":4365:4983   */\n  dup2\n  eq\n  tag_116\n  jumpi\n    /* \"#utility.yul\":5027:5028   */\n  0x00\n    /* \"#utility.yul\":5044:5050   */\n  dup5\n    /* \"#utility.yul\":5041:5118   */\n  iszero\n  tag_117\n  jumpi\n    /* \"#utility.yul\":5093:5102   */\n  dup3\n    /* \"#utility.yul\":5088:5091   */\n  dup8\n    /* \"#utility.yul\":5084:5103   */\n  add\n    /* \"#utility.yul\":5078:5104   */\n  mload\n    /* \"#utility.yul\":5069:5104   */\n  swap1\n  pop\n    /* \"#utility.yul\":5041:5118   */\ntag_117:\n    /* \"#utility.yul\":5144:5211   */\n  tag_118\n    /* \"#utility.yul\":5204:5210   */\n  dup6\n    /* \"#utility.yul\":5197:5202   */\n  dup3\n    /* \"#utility.yul\":5144:5211   */\n  tag_57\n  jump\t// in\ntag_118:\n    /* \"#utility.yul\":5138:5142   */\n  dup7\n    /* \"#utility.yul\":5131:5212   */\n  sstore\n    /* \"#utility.yul\":5000:5222   */\n  pop\n    /* \"#utility.yul\":4335:5222   */\n  jump(tag_115)\n    /* \"#utility.yul\":4365:4983   */\ntag_116:\n    /* \"#utility.yul\":4417:4421   */\n  0x1f\n    /* \"#utility.yul\":4413:4422   */\n  not\n    /* \"#utility.yul\":4405:4411   */\n  dup5\n    /* \"#utility.yul\":4401:4423   */\n  and\n    /* \"#utility.yul\":4451:4488   */\n  tag_119\n    /* \"#utility.yul\":4483:4487   */\n  dup7\n    /* \"#utility.yul\":4451:4488   */\n  tag_42\n  jump\t// in\ntag_119:\n    /* \"#utility.yul\":4510:4511   */\n  0x00\n    /* \"#utility.yul\":4524:4732   */\ntag_120:\n    /* \"#utility.yul\":4538:4545   */\n  dup3\n    /* \"#utility.yul\":4535:4536   */\n  dup2\n    /* \"#utility.yul\":4532:4546   */\n  lt\n    /* \"#utility.yul\":4524:4732   */\n  iszero\n  tag_122\n  jumpi\n    /* \"#utility.yul\":4617:4626   */\n  dup5\n    /* \"#utility.yul\":4612:4615   */\n  dup10\n    /* \"#utility.yul\":4608:4627   */\n  add\n    /* \"#utility.yul\":4602:4628   */\n  mload\n    /* \"#utility.yul\":4594:4600   */\n  dup3\n    /* \"#utility.yul\":4587:4629   */\n  sstore\n    /* \"#utility.yul\":4668:4669   */\n  0x01\n    /* \"#utility.yul\":4660:4666   */\n  dup3\n    /* \"#utility.yul\":4656:4670   */\n  add\n    /* \"#utility.yul\":4646:4670   */\n  swap2\n  pop\n    /* \"#utility.yul\":4715:4717   */\n  0x20\n    /* \"#utility.yul\":4704:4713   */\n  dup6\n    /* \"#utility.yul\":4700:4718   */\n  add\n    /* \"#utility.yul\":4687:4718   */\n  swap5\n  pop\n    /* \"#utility.yul\":4561:4565   */\n  0x20\n    /* \"#utility.yul\":4558:4559   */\n  dup2\n    /* \"#utility.yul\":4554:4566   */\n  add\n    /* \"#utility.yul\":4549:4566   */\n  swap1\n  pop\n    /* \"#utility.yul\":4524:4732   */\n  jump(tag_120)\ntag_122:\n    /* \"#utility.yul\":4760:4766   */\n  dup7\n    /* \"#utility.yul\":4751:4758   */\n  dup4\n    /* \"#utility.yul\":4748:4767   */\n  lt\n    /* \"#utility.yul\":4745:4924   */\n  iszero\n  tag_123\n  jumpi\n    /* \"#utility.yul\":4818:4827   */\n  dup5\n    /* \"#utility.yul\":4813:4816   */\n  dup10\n    /* \"#utility.yul\":4809:4828   */\n  add\n    /* \"#utility.yul\":4803:4829   */\n  mload\n    /* \"#utility.yul\":4861:4909   */\n  tag_124\n    /* \"#utility.yul\":4903:4907   */\n  0x1f\n    /* \"#utility.yul\":4895:4901   */\n  dup10\n    /* \"#utility.yul\":4891:4908   */\n  and\n    /* \"#utility.yul\":4880:4889   */\n  dup3\n    /* \"#utility.yul\":4861:4909   */\n  tag_56\n  jump\t// in\ntag_124:\n    /* \"#utility.yul\":4853:4859   */\n  dup4\n    /* \"#utility.yul\":4846:4910   */\n  sstore\n    /* \"#utility.yul\":4768:4924   */\n  pop\n    /* \"#utility.yul\":4745:4924   */\ntag_123:\n    /* \"#utility.yul\":4970:4971   */\n  0x01\n    /* \"#utility.yul\":4966:4967   */\n  0x02\n    /* \"#utility.yul\":4958:4964   */\n  dup9\n    /* \"#utility.yul\":4954:4968   */\n  mul\n    /* \"#utility.yul\":4950:4972   */\n  add\n    /* \"#utility.yul\":4944:4948   */\n  dup9\n    /* \"#utility.yul\":4937:4973   */\n  sstore\n    /* \"#utility.yul\":4372:4983   */\n  pop\n  pop\n  pop\n    /* \"#utility.yul\":4335:5222   */\ntag_115:\n  pop\n    /* \"#utility.yul\":3925:5228   */\n  pop\n  pop\n  pop\n    /* \"#utility.yul\":3833:5228   */\n  pop\n  pop\n  jump\t// out\n    /* \"#utility.yul\":5234:5403   */\ntag_58:\n    /* \"#utility.yul\":5318:5329   */\n  0x00\n    /* \"#utility.yul\":5352:5358   */\n  dup3\n    /* \"#utility.yul\":5347:5350   */\n  dup3\n    /* \"#utility.yul\":5340:5359   */\n  mstore\n    /* \"#utility.yul\":5392:5396   */\n  0x20\n    /* \"#utility.yul\":5387:5390   */\n  dup3\n    /* \"#utility.yul\":5383:5397   */\n  add\n    /* \"#utility.yul\":5368:5397   */\n  swap1\n  pop\n    /* \"#utility.yul\":5234:5403   */\n  swap3\n  swap2\n  pop\n  pop\n  jump\t// out\n    /* \"#utility.yul\":5409:5590   */\ntag_59:\n    /* \"#utility.yul\":5549:5582   */\n  0x45524332303a206d696e7420746f20746865207a65726f206164647265737300\n    /* \"#utility.yul\":5545:5546   */\n  0x00\n    /* \"#utility.yul\":5537:5543   */\n  dup3\n    /* \"#utility.yul\":5533:5547   */\n  add\n    /* \"#utility.yul\":5526:5583   */\n  mstore\n    /* \"#utility.yul\":5409:5590   */\n  pop\n  jump\t// out\n    /* \"#utility.yul\":5596:5962   */\ntag_60:\n    /* \"#utility.yul\":5738:5741   */\n  0x00\n    /* \"#utility.yul\":5759:5826   */\n  tag_128\n    /* \"#utility.yul\":5823:5825   */\n  0x1f\n    /* \"#utility.yul\":5818:5821   */\n  dup4\n    /* \"#utility.yul\":5759:5826   */\n  tag_58\n  jump\t// in\ntag_128:\n    /* \"#utility.yul\":5752:5826   */\n  swap2\n  pop\n    /* \"#utility.yul\":5835:5928   */\n  tag_129\n    /* \"#utility.yul\":5924:5927   */\n  dup3\n    /* \"#utility.yul\":5835:5928   */\n  tag_59\n  jump\t// in\ntag_129:\n    /* \"#utility.yul\":5953:5955   */\n  0x20\n    /* \"#utility.yul\":5948:5951   */\n  dup3\n    /* \"#utility.yul\":5944:5956   */\n  add\n    /* \"#utility.yul\":5937:5956   */\n  swap1\n  pop\n    /* \"#utility.yul\":5596:5962   */\n  swap2\n  swap1\n  pop\n  jump\t// out\n    /* \"#utility.yul\":5968:6387   */\ntag_28:\n    /* \"#utility.yul\":6134:6138   */\n  0x00\n    /* \"#utility.yul\":6172:6174   */\n  0x20\n    /* \"#utility.yul\":6161:6170   */\n  dup3\n    /* \"#utility.yul\":6157:6175   */\n  add\n    /* \"#utility.yul\":6149:6175   */\n  swap1\n  pop\n    /* \"#utility.yul\":6221:6230   */\n  dup2\n    /* \"#utility.yul\":6215:6219   */\n  dup2\n    /* \"#utility.yul\":6211:6231   */\n  sub\n    /* \"#utility.yul\":6207:6208   */\n  0x00\n    /* \"#utility.yul\":6196:6205   */\n  dup4\n    /* \"#utility.yul\":6192:6209   */\n  add\n    /* \"#utility.yul\":6185:6232   */\n  mstore\n    /* \"#utility.yul\":6249:6380   */\n  tag_131\n    /* \"#utility.yul\":6375:6379   */\n  dup2\n    /* \"#utility.yul\":6249:6380   */\n  tag_60\n  jump\t// in\ntag_131:\n    /* \"#utility.yul\":6241:6380   */\n  swap1\n  pop\n    /* \"#utility.yul\":5968:6387   */\n  swap2\n  swap1\n  pop\n  jump\t// out\n    /* \"#utility.yul\":6393:6573   */\ntag_61:\n    /* \"#utility.yul\":6441:6518   */\n  0x4e487b7100000000000000000000000000000000000000000000000000000000\n    /* \"#utility.yul\":6438:6439   */\n  0x00\n    /* \"#utility.yul\":6431:6519   */\n  mstore\n    /* \"#utility.yul\":6538:6542   */\n  0x11\n    /* \"#utility.yul\":6535:6536   */\n  0x04\n    /* \"#utility.yul\":6528:6543   */\n  mstore\n    /* \"#utility.yul\":6562:6566   */\n  0x24\n    /* \"#utility.yul\":6559:6560   */\n  0x00\n    /* \"#utility.yul\":6552:6567   */\n  revert\n    /* \"#utility.yul\":6579:6770   */\ntag_32:\n    /* \"#utility.yul\":6619:6622   */\n  0x00\n    /* \"#utility.yul\":6638:6658   */\n  tag_134\n    /* \"#utility.yul\":6656:6657   */\n  dup3\n    /* \"#utility.yul\":6638:6658   */\n  tag_46\n  jump\t// in\ntag_134:\n    /* \"#utility.yul\":6633:6658   */\n  swap2\n  pop\n    /* \"#utility.yul\":6672:6692   */\n  tag_135\n    /* \"#utility.yul\":6690:6691   */\n  dup4\n    /* \"#utility.yul\":6672:6692   */\n  tag_46\n  jump\t// in\ntag_135:\n    /* \"#utility.yul\":6667:6692   */\n  swap3\n  pop\n    /* \"#utility.yul\":6715:6716   */\n  dup3\n    /* \"#utility.yul\":6712:6713   */\n  dup3\n    /* \"#utility.yul\":6708:6717   */\n  add\n    /* \"#utility.yul\":6701:6717   */\n  swap1\n  pop\n    /* \"#utility.yul\":6736:6739   */\n  dup1\n    /* \"#utility.yul\":6733:6734   */\n  dup3\n    /* \"#utility.yul\":6730:6740   */\n  gt\n    /* \"#utility.yul\":6727:6763   */\n  iszero\n  tag_136\n  jumpi\n    /* \"#utility.yul\":6743:6761   */\n  tag_137\n  tag_61\n  jump\t// in\ntag_137:\n    /* \"#utility.yul\":6727:6763   */\ntag_136:\n    /* \"#utility.yul\":6579:6770   */\n  swap3\n  swap2\n  pop\n  pop\n  jump\t// out\n    /* \"#utility.yul\":6776:6894   */\ntag_62:\n    /* \"#utility.yul\":6863:6887   */\n  tag_139\n    /* \"#utility.yul\":6881:6886   */\n  dup2\n    /* \"#utility.yul\":6863:6887   */\n  tag_46\n  jump\t// in\ntag_139:\n    /* \"#utility.yul\":6858:6861   */\n  dup3\n    /* \"#utility.yul\":6851:6888   */\n  mstore\n    /* \"#utility.yul\":6776:6894   */\n  pop\n  pop\n  jump\t// out\n    /* \"#utility.yul\":6900:7122   */\ntag_34:\n    /* \"#utility.yul\":6993:6997   */\n  0x00\n    /* \"#utility.yul\":7031:7033   */\n  0x20\n    /* \"#utility.yul\":7020:7029   */\n  dup3\n    /* \"#utility.yul\":7016:7034   */\n  add\n    /* \"#utility.yul\":7008:7034   */\n  swap1\n  pop\n    /* \"#utility.yul\":7044:7115   */\n  tag_141\n    /* \"#utility.yul\":7112:7113   */\n  0x00\n    /* \"#utility.yul\":7101:7110   */\n  dup4\n    /* \"#utility.yul\":7097:7114   */\n  add\n    /* \"#utility.yul\":7088:7094   */\n  dup5\n    /* \"#utility.yul\":7044:7115   */\n  tag_62\n  jump\t// in\ntag_141:\n    /* \"#utility.yul\":6900:7122   */\n  swap3\n  swap2\n  pop\n  pop\n  jump\t// out\n    /* \"contracts/DegenToken.sol\":217:2947  contract DegenToken is ERC20 {... */\ntag_24:\n  dataSize(sub_0)\n  dup1\n  dataOffset(sub_0)\n  0x00\n  codecopy\n  0x00\n  return\nstop\n\nsub_0: assembly {\n        /* \"contracts/DegenToken.sol\":217:2947  contract DegenToken is ERC20 {... */\n      mstore(0x40, 0x80)\n      callvalue\n      dup1\n      iszero\n      tag_1\n      jumpi\n      0x00\n      dup1\n      revert\n    tag_1:\n      pop\n      jumpi(tag_2, lt(calldatasize, 0x04))\n      shr(0xe0, calldataload(0x00))\n      dup1\n      0x70a08231\n      gt\n      tag_24\n      jumpi\n      dup1\n      0xa457c2d7\n      gt\n      tag_25\n      jumpi\n      dup1\n      0xa457c2d7\n      eq\n      tag_18\n      jumpi\n      dup1\n      0xa6e158f8\n      eq\n      tag_19\n      jumpi\n      dup1\n      0xa9059cbb\n      eq\n      tag_20\n      jumpi\n      dup1\n      0xbec3fa17\n      eq\n      tag_21\n      jumpi\n      dup1\n      0xdd62ed3e\n      eq\n      tag_22\n      jumpi\n      dup1\n      0xf0dda65c\n      eq\n      tag_23\n      jumpi\n      jump(tag_2)\n    tag_25:\n      dup1\n      0x70a08231\n      eq\n      tag_13\n      jumpi\n      dup1\n      0x7b61c320\n      eq\n      tag_14\n      jumpi\n      dup1\n      0x8af8a986\n      eq\n      tag_15\n      jumpi\n      dup1\n      0x8da5cb5b\n      eq\n      tag_16\n      jumpi\n      dup1\n      0x95d89b41\n      eq\n      tag_17\n      jumpi\n      jump(tag_2)\n    tag_24:\n      dup1\n      0x313ce567\n      gt\n      tag_26\n      jumpi\n      dup1\n      0x313ce567\n      eq\n      tag_8\n      jumpi\n      dup1\n      0x39509351\n      eq\n      tag_9\n      jumpi\n      dup1\n      0x4f731087\n      eq\n      tag_10\n      jumpi\n      dup1\n      0x6c02a931\n      eq\n      tag_11\n      jumpi\n      dup1\n      0x6d1b229d\n      eq\n      tag_12\n      jumpi\n      jump(tag_2)\n    tag_26:\n      dup1\n      0x06fdde03\n      eq\n      tag_3\n      jumpi\n      dup1\n      0x08514a41\n      eq\n      tag_4\n      jumpi\n      dup1\n      0x095ea7b3\n      eq\n      tag_5\n      jumpi\n      dup1\n      0x18160ddd\n      eq\n      tag_6\n      jumpi\n      dup1\n      0x23b872dd\n      eq\n      tag_7\n      jumpi\n    tag_2:\n      0x00\n      dup1\n      revert\n        /* \"@openzeppelin/contracts/token/ERC20/ERC20.sol\":2158:2256  function name() public view virtual override returns (string memory) {... */\n    tag_3:\n      tag_27\n      tag_28\n      jump\t// in\n    tag_27:\n      mload(0x40)\n      tag_29\n      swap2\n      swap1\n      tag_30\n      jump\t// in\n    tag_29:\n      mload(0x40)\n      dup1\n      swap2\n      sub\n      swap1\n      return\n        /* \"contracts/DegenToken.sol\":953:1138  function shopItems() public pure returns(string memory) {... */\n    tag_4:\n      tag_31\n      tag_32\n      jump\t// in\n    tag_31:\n      mload(0x40)\n      tag_33\n      swap2\n      swap1\n      tag_30\n      jump\t// in\n    tag_33:\n      mload(0x40)\n      dup1\n      swap2\n      sub\n      swap1\n      return\n        /* \"@openzeppelin/contracts/token/ERC20/ERC20.sol\":4444:4641  function approve(address spender, uint256 amount) public virtual override returns (bool) {... */\n    tag_5:\n      tag_34\n      0x04\n      dup1\n      calldatasize\n      sub\n      dup2\n      add\n      swap1\n      tag_35\n      swap2\n      swap1\n      tag_36\n      jump\t// in\n    tag_35:\n      tag_37\n      jump\t// in\n    tag_34:\n      mload(0x40)\n      tag_38\n      swap2\n      swap1\n      tag_39\n      jump\t// in\n    tag_38:\n      mload(0x40)\n      dup1\n      swap2\n      sub\n      swap1\n      return\n        /* \"@openzeppelin/contracts/token/ERC20/ERC20.sol\":3255:3361  function totalSupply() public view virtual override returns (uint256) {... */\n    tag_6:\n      tag_40\n      tag_41\n      jump\t// in\n    tag_40:\n      mload(0x40)\n      tag_42\n      swap2\n      swap1\n      tag_43\n      jump\t// in\n    tag_42:\n      mload(0x40)\n      dup1\n      swap2\n      sub\n      swap1\n      return\n        /* \"@openzeppelin/contracts/token/ERC20/ERC20.sol\":5203:5459  function transferFrom(address from, address to, uint256 amount) public virtual override returns (bool) {... */\n    tag_7:\n      tag_44\n      0x04\n      dup1\n      calldatasize\n      sub\n      dup2\n      add\n      swap1\n      tag_45\n      swap2\n      swap1\n      tag_46\n      jump\t// in\n    tag_45:\n      tag_47\n      jump\t// in\n    tag_44:\n      mload(0x40)\n      tag_48\n      swap2\n      swap1\n      tag_39\n      jump\t// in\n    tag_48:\n      mload(0x40)\n      dup1\n      swap2\n      sub\n      swap1\n      return\n        /* \"@openzeppelin/contracts/token/ERC20/ERC20.sol\":3104:3195  function decimals() public view virtual override returns (uint8) {... */\n    tag_8:\n      tag_49\n      tag_50\n      jump\t// in\n    tag_49:\n      mload(0x40)\n      tag_51\n      swap2\n      swap1\n      tag_52\n      jump\t// in\n    tag_51:\n      mload(0x40)\n      dup1\n      swap2\n      sub\n      swap1\n      return\n        /* \"@openzeppelin/contracts/token/ERC20/ERC20.sol\":5854:6088  function increaseAllowance(address spender, uint256 addedValue) public virtual returns (bool) {... */\n    tag_9:\n      tag_53\n      0x04\n      dup1\n      calldatasize\n      sub\n      dup2\n      add\n      swap1\n      tag_54\n      swap2\n      swap1\n      tag_36\n      jump\t// in\n    tag_54:\n      tag_55\n      jump\t// in\n    tag_53:\n      mload(0x40)\n      tag_56\n      swap2\n      swap1\n      tag_39\n      jump\t// in\n    tag_56:\n      mload(0x40)\n      dup1\n      swap2\n      sub\n      swap1\n      return\n        /* \"contracts/DegenToken.sol\":2638:2739  function checkTokenBalance() external view returns(uint){... */\n    tag_10:\n      tag_57\n      tag_58\n      jump\t// in\n    tag_57:\n      mload(0x40)\n      tag_59\n      swap2\n      swap1\n      tag_43\n      jump\t// in\n    tag_59:\n      mload(0x40)\n      dup1\n      swap2\n      sub\n      swap1\n      return\n        /* \"contracts/DegenToken.sol\":253:295  string public tokenName = \"DEGEN VALORANT\" */\n    tag_11:\n      tag_60\n      tag_61\n      jump\t// in\n    tag_60:\n      mload(0x40)\n      tag_62\n      swap2\n      swap1\n      tag_30\n      jump\t// in\n    tag_62:\n      mload(0x40)\n      dup1\n      swap2\n      sub\n      swap1\n      return\n        /* \"contracts/DegenToken.sol\":2776:2944  function burnTokens(uint _tokens) external{... */\n    tag_12:\n      tag_63\n      0x04\n      dup1\n      calldatasize\n      sub\n      dup2\n      add\n      swap1\n      tag_64\n      swap2\n      swap1\n      tag_65\n      jump\t// in\n    tag_64:\n      tag_66\n      jump\t// in\n    tag_63:\n      stop\n        /* \"@openzeppelin/contracts/token/ERC20/ERC20.sol\":3419:3544  function balanceOf(address account) public view virtual override returns (uint256) {... */\n    tag_13:\n      tag_67\n      0x04\n      dup1\n      calldatasize\n      sub\n      dup2\n      add\n      swap1\n      tag_68\n      swap2\n      swap1\n      tag_69\n      jump\t// in\n    tag_68:\n      tag_70\n      jump\t// in\n    tag_67:\n      mload(0x40)\n      tag_71\n      swap2\n      swap1\n      tag_43\n      jump\t// in\n    tag_71:\n      mload(0x40)\n      dup1\n      swap2\n      sub\n      swap1\n      return\n        /* \"contracts/DegenToken.sol\":301:336  string public tokenSymbol = \"DGt-V\" */\n    tag_14:\n      tag_72\n      tag_73\n      jump\t// in\n    tag_72:\n      mload(0x40)\n      tag_74\n      swap2\n      swap1\n      tag_30\n      jump\t// in\n    tag_74:\n      mload(0x40)\n      dup1\n      swap2\n      sub\n      swap1\n      return\n        /* \"contracts/DegenToken.sol\":2103:2350  function myPurchases() public view returns (string[] memory, uint256){... */\n    tag_15:\n      tag_75\n      tag_76\n      jump\t// in\n    tag_75:\n      mload(0x40)\n      tag_77\n      swap3\n      swap2\n      swap1\n      tag_78\n      jump\t// in\n    tag_77:\n      mload(0x40)\n      dup1\n      swap2\n      sub\n      swap1\n      return\n        /* \"contracts/DegenToken.sol\":387:407  address public owner */\n    tag_16:\n      tag_79\n      tag_80\n      jump\t// in\n    tag_79:\n      mload(0x40)\n      tag_81\n      swap2\n      swap1\n      tag_82\n      jump\t// in\n    tag_81:\n      mload(0x40)\n      dup1\n      swap2\n      sub\n      swap1\n      return\n        /* \"@openzeppelin/contracts/token/ERC20/ERC20.sol\":2369:2471  function symbol() public view virtual override returns (string memory) {... */\n    tag_17:\n      tag_83\n      tag_84\n      jump\t// in\n    tag_83:\n      mload(0x40)\n      tag_85\n      swap2\n      swap1\n      tag_30\n      jump\t// in\n    tag_85:\n      mload(0x40)\n      dup1\n      swap2\n      sub\n      swap1\n      return\n        /* \"@openzeppelin/contracts/token/ERC20/ERC20.sol\":6575:7002  function decreaseAllowance(address spender, uint256 subtractedValue) public virtual returns (bool) {... */\n    tag_18:\n      tag_86\n      0x04\n      dup1\n      calldatasize\n      sub\n      dup2\n      add\n      swap1\n      tag_87\n      swap2\n      swap1\n      tag_36\n      jump\t// in\n    tag_87:\n      tag_88\n      jump\t// in\n    tag_86:\n      mload(0x40)\n      tag_89\n      swap2\n      swap1\n      tag_39\n      jump\t// in\n    tag_89:\n      mload(0x40)\n      dup1\n      swap2\n      sub\n      swap1\n      return\n        /* \"contracts/DegenToken.sol\":1177:2097  function redeemTokens(uint _ch) external{... */\n    tag_19:\n      tag_90\n      0x04\n      dup1\n      calldatasize\n      sub\n      dup2\n      add\n      swap1\n      tag_91\n      swap2\n      swap1\n      tag_65\n      jump\t// in\n    tag_91:\n      tag_92\n      jump\t// in\n    tag_90:\n      stop\n        /* \"@openzeppelin/contracts/token/ERC20/ERC20.sol\":3740:3929  function transfer(address to, uint256 amount) public virtual override returns (bool) {... */\n    tag_20:\n      tag_93\n      0x04\n      dup1\n      calldatasize\n      sub\n      dup2\n      add\n      swap1\n      tag_94\n      swap2\n      swap1\n      tag_36\n      jump\t// in\n    tag_94:\n      tag_95\n      jump\t// in\n    tag_93:\n      mload(0x40)\n      tag_96\n      swap2\n      swap1\n      tag_39\n      jump\t// in\n    tag_96:\n      mload(0x40)\n      dup1\n      swap2\n      sub\n      swap1\n      return\n        /* \"contracts/DegenToken.sol\":2392:2593  function transferTokens(address _reciever, uint _tokens) external{... */\n    tag_21:\n      tag_97\n      0x04\n      dup1\n      calldatasize\n      sub\n      dup2\n      add\n      swap1\n      tag_98\n      swap2\n      swap1\n      tag_36\n      jump\t// in\n    tag_98:\n      tag_99\n      jump\t// in\n    tag_97:\n      stop\n        /* \"@openzeppelin/contracts/token/ERC20/ERC20.sol\":3987:4136  function allowance(address owner, address spender) public view virtual override returns (uint256) {... */\n    tag_22:\n      tag_100\n      0x04\n      dup1\n      calldatasize\n      sub\n      dup2\n      add\n      swap1\n      tag_101\n      swap2\n      swap1\n      tag_102\n      jump\t// in\n    tag_101:\n      tag_103\n      jump\t// in\n    tag_100:\n      mload(0x40)\n      tag_104\n      swap2\n      swap1\n      tag_43\n      jump\t// in\n    tag_104:\n      mload(0x40)\n      dup1\n      swap2\n      sub\n      swap1\n      return\n        /* \"contracts/DegenToken.sol\":670:930  function mintTokens(address _receiver, uint256 _tokens) public onlyOwner{... */\n    tag_23:\n      tag_105\n      0x04\n      dup1\n      calldatasize\n      sub\n      dup2\n      add\n      swap1\n      tag_106\n      swap2\n      swap1\n      tag_36\n      jump\t// in\n    tag_106:\n      tag_107\n      jump\t// in\n    tag_105:\n      stop\n        /* \"@openzeppelin/contracts/token/ERC20/ERC20.sol\":2158:2256  function name() public view virtual override returns (string memory) {... */\n    tag_28:\n        /* \"@openzeppelin/contracts/token/ERC20/ERC20.sol\":2212:2225  string memory */\n      0x60\n        /* \"@openzeppelin/contracts/token/ERC20/ERC20.sol\":2244:2249  _name */\n      0x03\n        /* \"@openzeppelin/contracts/token/ERC20/ERC20.sol\":2237:2249  return _name */\n      dup1\n      sload\n      tag_109\n      swap1\n      tag_110\n      jump\t// in\n    tag_109:\n      dup1\n      0x1f\n      add\n      0x20\n      dup1\n      swap2\n      div\n      mul\n      0x20\n      add\n      mload(0x40)\n      swap1\n      dup2\n      add\n      0x40\n      mstore\n      dup1\n      swap3\n      swap2\n      swap1\n      dup2\n      dup2\n      mstore\n      0x20\n      add\n      dup3\n      dup1\n      sload\n      tag_111\n      swap1\n      tag_110\n      jump\t// in\n    tag_111:\n      dup1\n      iszero\n      tag_112\n      jumpi\n      dup1\n      0x1f\n      lt\n      tag_113\n      jumpi\n      0x0100\n      dup1\n      dup4\n      sload\n      div\n      mul\n      dup4\n      mstore\n      swap2\n      0x20\n      add\n      swap2\n      jump(tag_112)\n    tag_113:\n      dup3\n      add\n      swap2\n      swap1\n      0x00\n      mstore\n      keccak256(0x00, 0x20)\n      swap1\n    tag_114:\n      dup2\n      sload\n      dup2\n      mstore\n      swap1\n      0x01\n      add\n      swap1\n      0x20\n      add\n      dup1\n      dup4\n      gt\n      tag_114\n      jumpi\n      dup3\n      swap1\n      sub\n      0x1f\n      and\n      dup3\n      add\n      swap2\n    tag_112:\n      pop\n      pop\n      pop\n      pop\n      pop\n      swap1\n      pop\n        /* \"@openzeppelin/contracts/token/ERC20/ERC20.sol\":2158:2256  function name() public view virtual override returns (string memory) {... */\n      swap1\n      jump\t// out\n        /* \"contracts/DegenToken.sol\":953:1138  function shopItems() public pure returns(string memory) {... */\n    tag_32:\n        /* \"contracts/DegenToken.sol\":994:1007  string memory */\n      0x60\n        /* \"contracts/DegenToken.sol\":1019:1131  return \"1. Vandal_SKIN [800 DGN] 2. OPERATOR_SKIN [600 DGN] 3. PHANTOM_SKIN [250 DGN] 4. SHERIFF_SKIN [175 DGN]\" */\n      mload(0x40)\n      dup1\n      0xa0\n      add\n      0x40\n      mstore\n      dup1\n      0x67\n      dup2\n      mstore\n      0x20\n      add\n      data_14a49d35a228c75a72748a65b4df3c3cc414083994dd55c01a81dac137996214\n      0x67\n      swap2\n      codecopy\n      swap1\n      pop\n        /* \"contracts/DegenToken.sol\":953:1138  function shopItems() public pure returns(string memory) {... */\n      swap1\n      jump\t// out\n        /* \"@openzeppelin/contracts/token/ERC20/ERC20.sol\":4444:4641  function approve(address spender, uint256 amount) public virtual override returns (bool) {... */\n    tag_37:\n        /* \"@openzeppelin/contracts/token/ERC20/ERC20.sol\":4527:4531  bool */\n      0x00\n        /* \"@openzeppelin/contracts/token/ERC20/ERC20.sol\":4543:4556  address owner */\n      dup1\n        /* \"@openzeppelin/contracts/token/ERC20/ERC20.sol\":4559:4571  _msgSender() */\n      tag_117\n        /* \"@openzeppelin/contracts/token/ERC20/ERC20.sol\":4559:4569  _msgSender */\n      tag_118\n        /* \"@openzeppelin/contracts/token/ERC20/ERC20.sol\":4559:4571  _msgSender() */\n      jump\t// in\n    tag_117:\n        /* \"@openzeppelin/contracts/token/ERC20/ERC20.sol\":4543:4571  address owner = _msgSender() */\n      swap1\n      pop\n        /* \"@openzeppelin/contracts/token/ERC20/ERC20.sol\":4581:4613  _approve(owner, spender, amount) */\n      tag_119\n        /* \"@openzeppelin/contracts/token/ERC20/ERC20.sol\":4590:4595  owner */\n      dup2\n        /* \"@openzeppelin/contracts/token/ERC20/ERC20.sol\":4597:4604  spender */\n      dup6\n        /* \"@openzeppelin/contracts/token/ERC20/ERC20.sol\":4606:4612  amount */\n      dup6\n        /* \"@openzeppelin/contracts/token/ERC20/ERC20.sol\":4581:4589  _approve */\n      tag_120\n        /* \"@openzeppelin/contracts/token/ERC20/ERC20.sol\":4581:4613  _approve(owner, spender, amount) */\n      jump\t// in\n    tag_119:\n        /* \"@openzeppelin/contracts/token/ERC20/ERC20.sol\":4630:4634  true */\n      0x01\n        /* \"@openzeppelin/contracts/token/ERC20/ERC20.sol\":4623:4634  return true */\n      swap2\n      pop\n      pop\n        /* \"@openzeppelin/contracts/token/ERC20/ERC20.sol\":4444:4641  function approve(address spender, uint256 amount) public virtual override returns (bool) {... */\n      swap3\n      swap2\n      pop\n      pop\n      jump\t// out\n        /* \"@openzeppelin/contracts/token/ERC20/ERC20.sol\":3255:3361  function totalSupply() public view virtual override returns (uint256) {... */\n    tag_41:\n        /* \"@openzeppelin/contracts/token/ERC20/ERC20.sol\":3316:3323  uint256 */\n      0x00\n        /* \"@openzeppelin/contracts/token/ERC20/ERC20.sol\":3342:3354  _totalSupply */\n      sload(0x02)\n        /* \"@openzeppelin/contracts/token/ERC20/ERC20.sol\":3335:3354  return _totalSupply */\n      swap1\n      pop\n        /* \"@openzeppelin/contracts/token/ERC20/ERC20.sol\":3255:3361  function totalSupply() public view virtual override returns (uint256) {... */\n      swap1\n      jump\t// out\n        /* \"@openzeppelin/contracts/token/ERC20/ERC20.sol\":5203:5459  function transferFrom(address from, address to, uint256 amount) public virtual override returns (bool) {... */\n    tag_47:\n        /* \"@openzeppelin/contracts/token/ERC20/ERC20.sol\":5300:5304  bool */\n      0x00\n        /* \"@openzeppelin/contracts/token/ERC20/ERC20.sol\":5316:5331  address spender */\n      dup1\n        /* \"@openzeppelin/contracts/token/ERC20/ERC20.sol\":5334:5346  _msgSender() */\n      tag_123\n        /* \"@openzeppelin/contracts/token/ERC20/ERC20.sol\":5334:5344  _msgSender */\n      tag_118\n        /* \"@openzeppelin/contracts/token/ERC20/ERC20.sol\":5334:5346  _msgSender() */\n      jump\t// in\n    tag_123:\n        /* \"@openzeppelin/contracts/token/ERC20/ERC20.sol\":5316:5346  address spender = _msgSender() */\n      swap1\n      pop\n        /* \"@openzeppelin/contracts/token/ERC20/ERC20.sol\":5356:5394  _spendAllowance(from, spender, amount) */\n      tag_124\n        /* \"@openzeppelin/contracts/token/ERC20/ERC20.sol\":5372:5376  from */\n      dup6\n        /* \"@openzeppelin/contracts/token/ERC20/ERC20.sol\":5378:5385  spender */\n      dup3\n        /* \"@openzeppelin/contracts/token/ERC20/ERC20.sol\":5387:5393  amount */\n      dup6\n        /* \"@openzeppelin/contracts/token/ERC20/ERC20.sol\":5356:5371  _spendAllowance */\n      tag_125\n        /* \"@openzeppelin/contracts/token/ERC20/ERC20.sol\":5356:5394  _spendAllowance(from, spender, amount) */\n      jump\t// in\n    tag_124:\n        /* \"@openzeppelin/contracts/token/ERC20/ERC20.sol\":5404:5431  _transfer(from, to, amount) */\n      tag_126\n        /* \"@openzeppelin/contracts/token/ERC20/ERC20.sol\":5414:5418  from */\n      dup6\n        /* \"@openzeppelin/contracts/token/ERC20/ERC20.sol\":5420:5422  to */\n      dup6\n        /* \"@openzeppelin/contracts/token/ERC20/ERC20.sol\":5424:5430  amount */\n      dup6\n        /* \"@openzeppelin/contracts/token/ERC20/ERC20.sol\":5404:5413  _transfer */\n      tag_127\n        /* \"@openzeppelin/contracts/token/ERC20/ERC20.sol\":5404:5431  _transfer(from, to, amount) */\n      jump\t// in\n    tag_126:\n        /* \"@openzeppelin/contracts/token/ERC20/ERC20.sol\":5448:5452  true */\n      0x01\n        /* \"@openzeppelin/contracts/token/ERC20/ERC20.sol\":5441:5452  return true */\n      swap2\n      pop\n      pop\n        /* \"@openzeppelin/contracts/token/ERC20/ERC20.sol\":5203:5459  function transferFrom(address from, address to, uint256 amount) public virtual override returns (bool) {... */\n      swap4\n      swap3\n      pop\n      pop\n      pop\n      jump\t// out\n        /* \"@openzeppelin/contracts/token/ERC20/ERC20.sol\":3104:3195  function decimals() public view virtual override returns (uint8) {... */\n    tag_50:\n        /* \"@openzeppelin/contracts/token/ERC20/ERC20.sol\":3162:3167  uint8 */\n      0x00\n        /* \"@openzeppelin/contracts/token/ERC20/ERC20.sol\":3186:3188  18 */\n      0x12\n        /* \"@openzeppelin/contracts/token/ERC20/ERC20.sol\":3179:3188  return 18 */\n      swap1\n      pop\n        /* \"@openzeppelin/contracts/token/ERC20/ERC20.sol\":3104:3195  function decimals() public view virtual override returns (uint8) {... */\n      swap1\n      jump\t// out\n        /* \"@openzeppelin/contracts/token/ERC20/ERC20.sol\":5854:6088  function increaseAllowance(address spender, uint256 addedValue) public virtual returns (bool) {... */\n    tag_55:\n        /* \"@openzeppelin/contracts/token/ERC20/ERC20.sol\":5942:5946  bool */\n      0x00\n        /* \"@openzeppelin/contracts/token/ERC20/ERC20.sol\":5958:5971  address owner */\n      dup1\n        /* \"@openzeppelin/contracts/token/ERC20/ERC20.sol\":5974:5986  _msgSender() */\n      tag_130\n        /* \"@openzeppelin/contracts/token/ERC20/ERC20.sol\":5974:5984  _msgSender */\n      tag_118\n        /* \"@openzeppelin/contracts/token/ERC20/ERC20.sol\":5974:5986  _msgSender() */\n      jump\t// in\n    tag_130:\n        /* \"@openzeppelin/contracts/token/ERC20/ERC20.sol\":5958:5986  address owner = _msgSender() */\n      swap1\n      pop\n        /* \"@openzeppelin/contracts/token/ERC20/ERC20.sol\":5996:6060  _approve(owner, spender, allowance(owner, spender) + addedValue) */\n      tag_131\n        /* \"@openzeppelin/contracts/token/ERC20/ERC20.sol\":6005:6010  owner */\n      dup2\n        /* \"@openzeppelin/contracts/token/ERC20/ERC20.sol\":6012:6019  spender */\n      dup6\n        /* \"@openzeppelin/contracts/token/ERC20/ERC20.sol\":6049:6059  addedValue */\n      dup6\n        /* \"@openzeppelin/contracts/token/ERC20/ERC20.sol\":6021:6046  allowance(owner, spender) */\n      tag_132\n        /* \"@openzeppelin/contracts/token/ERC20/ERC20.sol\":6031:6036  owner */\n      dup6\n        /* \"@openzeppelin/contracts/token/ERC20/ERC20.sol\":6038:6045  spender */\n      dup10\n        /* \"@openzeppelin/contracts/token/ERC20/ERC20.sol\":6021:6030  allowance */\n      tag_103\n        /* \"@openzeppelin/contracts/token/ERC20/ERC20.sol\":6021:6046  allowance(owner, spender) */\n      jump\t// in\n    tag_132:\n        /* \"@openzeppelin/contracts/token/ERC20/ERC20.sol\":6021:6059  allowance(owner, spender) + addedValue */\n      tag_133\n      swap2\n      swap1\n      tag_134\n      jump\t// in\n    tag_133:\n        /* \"@openzeppelin/contracts/token/ERC20/ERC20.sol\":5996:6004  _approve */\n      tag_120\n        /* \"@openzeppelin/contracts/token/ERC20/ERC20.sol\":5996:6060  _approve(owner, spender, allowance(owner, spender) + addedValue) */\n      jump\t// in\n    tag_131:\n        /* \"@openzeppelin/contracts/token/ERC20/ERC20.sol\":6077:6081  true */\n      0x01\n        /* \"@openzeppelin/contracts/token/ERC20/ERC20.sol\":6070:6081  return true */\n      swap2\n      pop\n      pop\n        /* \"@openzeppelin/contracts/token/ERC20/ERC20.sol\":5854:6088  function increaseAllowance(address spender, uint256 addedValue) public virtual returns (bool) {... */\n      swap3\n      swap2\n      pop\n      pop\n      jump\t// out\n        /* \"contracts/DegenToken.sol\":2638:2739  function checkTokenBalance() external view returns(uint){... */\n    tag_58:\n        /* \"contracts/DegenToken.sol\":2689:2693  uint */\n      0x00\n        /* \"contracts/DegenToken.sol\":2711:2732  balanceOf(msg.sender) */\n      tag_136\n        /* \"contracts/DegenToken.sol\":2721:2731  msg.sender */\n      caller\n        /* \"contracts/DegenToken.sol\":2711:2720  balanceOf */\n      tag_70\n        /* \"contracts/DegenToken.sol\":2711:2732  balanceOf(msg.sender) */\n      jump\t// in\n    tag_136:\n        /* \"contracts/DegenToken.sol\":2704:2732  return balanceOf(msg.sender) */\n      swap1\n      pop\n        /* \"contracts/DegenToken.sol\":2638:2739  function checkTokenBalance() external view returns(uint){... */\n      swap1\n      jump\t// out\n        /* \"contracts/DegenToken.sol\":253:295  string public tokenName = \"DEGEN VALORANT\" */\n    tag_61:\n      0x05\n      dup1\n      sload\n      tag_137\n      swap1\n      tag_110\n      jump\t// in\n    tag_137:\n      dup1\n      0x1f\n      add\n      0x20\n      dup1\n      swap2\n      div\n      mul\n      0x20\n      add\n      mload(0x40)\n      swap1\n      dup2\n      add\n      0x40\n      mstore\n      dup1\n      swap3\n      swap2\n      swap1\n      dup2\n      dup2\n      mstore\n      0x20\n      add\n      dup3\n      dup1\n      sload\n      tag_138\n      swap1\n      tag_110\n      jump\t// in\n    tag_138:\n      dup1\n      iszero\n      tag_139\n      jumpi\n      dup1\n      0x1f\n      lt\n      tag_140\n      jumpi\n      0x0100\n      dup1\n      dup4\n      sload\n      div\n      mul\n      dup4\n      mstore\n      swap2\n      0x20\n      add\n      swap2\n      jump(tag_139)\n    tag_140:\n      dup3\n      add\n      swap2\n      swap1\n      0x00\n      mstore\n      keccak256(0x00, 0x20)\n      swap1\n    tag_141:\n      dup2\n      sload\n      dup2\n      mstore\n      swap1\n      0x01\n      add\n      swap1\n      0x20\n      add\n      dup1\n      dup4\n      gt\n      tag_141\n      jumpi\n      dup3\n      swap1\n      sub\n      0x1f\n      and\n      dup3\n      add\n      swap2\n    tag_139:\n      pop\n      pop\n      pop\n      pop\n      pop\n      dup2\n      jump\t// out\n        /* \"contracts/DegenToken.sol\":2776:2944  function burnTokens(uint _tokens) external{... */\n    tag_66:\n        /* \"contracts/DegenToken.sol\":2860:2867  _tokens */\n      dup1\n        /* \"contracts/DegenToken.sol\":2836:2857  balanceOf(msg.sender) */\n      tag_143\n        /* \"contracts/DegenToken.sol\":2846:2856  msg.sender */\n      caller\n        /* \"contracts/DegenToken.sol\":2836:2845  balanceOf */\n      tag_70\n        /* \"contracts/DegenToken.sol\":2836:2857  balanceOf(msg.sender) */\n      jump\t// in\n    tag_143:\n        /* \"contracts/DegenToken.sol\":2836:2867  balanceOf(msg.sender)>= _tokens */\n      lt\n      iszero\n        /* \"contracts/DegenToken.sol\":2828:2901  require(balanceOf(msg.sender)>= _tokens, \"You don't have enough tokens!\") */\n      tag_144\n      jumpi\n      mload(0x40)\n      0x08c379a000000000000000000000000000000000000000000000000000000000\n      dup2\n      mstore\n      0x04\n      add\n      tag_145\n      swap1\n      tag_146\n      jump\t// in\n    tag_145:\n      mload(0x40)\n      dup1\n      swap2\n      sub\n      swap1\n      revert\n    tag_144:\n        /* \"contracts/DegenToken.sol\":2911:2937  _burn(msg.sender, _tokens) */\n      tag_147\n        /* \"contracts/DegenToken.sol\":2917:2927  msg.sender */\n      caller\n        /* \"contracts/DegenToken.sol\":2929:2936  _tokens */\n      dup3\n        /* \"contracts/DegenToken.sol\":2911:2916  _burn */\n      tag_148\n        /* \"contracts/DegenToken.sol\":2911:2937  _burn(msg.sender, _tokens) */\n      jump\t// in\n    tag_147:\n        /* \"contracts/DegenToken.sol\":2776:2944  function burnTokens(uint _tokens) external{... */\n      pop\n      jump\t// out\n        /* \"@openzeppelin/contracts/token/ERC20/ERC20.sol\":3419:3544  function balanceOf(address account) public view virtual override returns (uint256) {... */\n    tag_70:\n        /* \"@openzeppelin/contracts/token/ERC20/ERC20.sol\":3493:3500  uint256 */\n      0x00\n        /* \"@openzeppelin/contracts/token/ERC20/ERC20.sol\":3519:3528  _balances */\n      dup1\n        /* \"@openzeppelin/contracts/token/ERC20/ERC20.sol\":3519:3537  _balances[account] */\n      0x00\n        /* \"@openzeppelin/contracts/token/ERC20/ERC20.sol\":3529:3536  account */\n      dup4\n        /* \"@openzeppelin/contracts/token/ERC20/ERC20.sol\":3519:3537  _balances[account] */\n      0xffffffffffffffffffffffffffffffffffffffff\n      and\n      0xffffffffffffffffffffffffffffffffffffffff\n      and\n      dup2\n      mstore\n      0x20\n      add\n      swap1\n      dup2\n      mstore\n      0x20\n      add\n      0x00\n      keccak256\n      sload\n        /* \"@openzeppelin/contracts/token/ERC20/ERC20.sol\":3512:3537  return _balances[account] */\n      swap1\n      pop\n        /* \"@openzeppelin/contracts/token/ERC20/ERC20.sol\":3419:3544  function balanceOf(address account) public view virtual override returns (uint256) {... */\n      swap2\n      swap1\n      pop\n      jump\t// out\n        /* \"contracts/DegenToken.sol\":301:336  string public tokenSymbol = \"DGt-V\" */\n    tag_73:\n      0x06\n      dup1\n      sload\n      tag_150\n      swap1\n      tag_110\n      jump\t// in\n    tag_150:\n      dup1\n      0x1f\n      add\n      0x20\n      dup1\n      swap2\n      div\n      mul\n      0x20\n      add\n      mload(0x40)\n      swap1\n      dup2\n      add\n      0x40\n      mstore\n      dup1\n      swap3\n      swap2\n      swap1\n      dup2\n      dup2\n      mstore\n      0x20\n      add\n      dup3\n      dup1\n      sload\n      tag_151\n      swap1\n      tag_110\n      jump\t// in\n    tag_151:\n      dup1\n      iszero\n      tag_152\n      jumpi\n      dup1\n      0x1f\n      lt\n      tag_153\n      jumpi\n      0x0100\n      dup1\n      dup4\n      sload\n      div\n      mul\n      dup4\n      mstore\n      swap2\n      0x20\n      add\n      swap2\n      jump(tag_152)\n    tag_153:\n      dup3\n      add\n      swap2\n      swap1\n      0x00\n      mstore\n      keccak256(0x00, 0x20)\n      swap1\n    tag_154:\n      dup2\n      sload\n      dup2\n      mstore\n      swap1\n      0x01\n      add\n      swap1\n      0x20\n      add\n      dup1\n      dup4\n      gt\n      tag_154\n      jumpi\n      dup3\n      swap1\n      sub\n      0x1f\n      and\n      dup3\n      add\n      swap2\n    tag_152:\n      pop\n      pop\n      pop\n      pop\n      pop\n      dup2\n      jump\t// out\n        /* \"contracts/DegenToken.sol\":2103:2350  function myPurchases() public view returns (string[] memory, uint256){... */\n    tag_76:\n        /* \"contracts/DegenToken.sol\":2147:2162  string[] memory */\n      0x60\n        /* \"contracts/DegenToken.sol\":2164:2171  uint256 */\n      0x00\n        /* \"contracts/DegenToken.sol\":2182:2196  uint256 length */\n      dup1\n        /* \"contracts/DegenToken.sol\":2199:2208  purchases */\n      0x07\n        /* \"contracts/DegenToken.sol\":2199:2220  purchases[msg.sender] */\n      0x00\n        /* \"contracts/DegenToken.sol\":2209:2219  msg.sender */\n      caller\n        /* \"contracts/DegenToken.sol\":2199:2220  purchases[msg.sender] */\n      0xffffffffffffffffffffffffffffffffffffffff\n      and\n      0xffffffffffffffffffffffffffffffffffffffff\n      and\n      dup2\n      mstore\n      0x20\n      add\n      swap1\n      dup2\n      mstore\n      0x20\n      add\n      0x00\n      keccak256\n        /* \"contracts/DegenToken.sol\":2199:2227  purchases[msg.sender].length */\n      dup1\n      sload\n      swap1\n      pop\n        /* \"contracts/DegenToken.sol\":2182:2227  uint256 length = purchases[msg.sender].length */\n      swap1\n      pop\n        /* \"contracts/DegenToken.sol\":2254:2255  0 */\n      0x00\n        /* \"contracts/DegenToken.sol\":2245:2251  length */\n      dup2\n        /* \"contracts/DegenToken.sol\":2245:2255  length > 0 */\n      gt\n        /* \"contracts/DegenToken.sol\":2237:2295  require(length > 0, \"No purchases found for this address\") */\n      tag_156\n      jumpi\n      mload(0x40)\n      0x08c379a000000000000000000000000000000000000000000000000000000000\n      dup2\n      mstore\n      0x04\n      add\n      tag_157\n      swap1\n      tag_158\n      jump\t// in\n    tag_157:\n      mload(0x40)\n      dup1\n      swap2\n      sub\n      swap1\n      revert\n    tag_156:\n        /* \"contracts/DegenToken.sol\":2313:2322  purchases */\n      0x07\n        /* \"contracts/DegenToken.sol\":2313:2334  purchases[msg.sender] */\n      0x00\n        /* \"contracts/DegenToken.sol\":2323:2333  msg.sender */\n      caller\n        /* \"contracts/DegenToken.sol\":2313:2334  purchases[msg.sender] */\n      0xffffffffffffffffffffffffffffffffffffffff\n      and\n      0xffffffffffffffffffffffffffffffffffffffff\n      and\n      dup2\n      mstore\n      0x20\n      add\n      swap1\n      dup2\n      mstore\n      0x20\n      add\n      0x00\n      keccak256\n        /* \"contracts/DegenToken.sol\":2336:2342  length */\n      dup2\n        /* \"contracts/DegenToken.sol\":2305:2343  return (purchases[msg.sender], length) */\n      dup2\n      dup1\n      sload\n      dup1\n      0x20\n      mul\n      0x20\n      add\n      mload(0x40)\n      swap1\n      dup2\n      add\n      0x40\n      mstore\n      dup1\n      swap3\n      swap2\n      swap1\n      dup2\n      dup2\n      mstore\n      0x20\n      add\n      0x00\n      swap1\n    tag_159:\n      dup3\n      dup3\n      lt\n      iszero\n      tag_160\n      jumpi\n      dup4\n      dup3\n      swap1\n      0x00\n      mstore\n      keccak256(0x00, 0x20)\n      add\n      dup1\n      sload\n      tag_162\n      swap1\n      tag_110\n      jump\t// in\n    tag_162:\n      dup1\n      0x1f\n      add\n      0x20\n      dup1\n      swap2\n      div\n      mul\n      0x20\n      add\n      mload(0x40)\n      swap1\n      dup2\n      add\n      0x40\n      mstore\n      dup1\n      swap3\n      swap2\n      swap1\n      dup2\n      dup2\n      mstore\n      0x20\n      add\n      dup3\n      dup1\n      sload\n      tag_163\n      swap1\n      tag_110\n      jump\t// in\n    tag_163:\n      dup1\n      iszero\n      tag_164\n      jumpi\n      dup1\n      0x1f\n      lt\n      tag_165\n      jumpi\n      0x0100\n      dup1\n      dup4\n      sload\n      div\n      mul\n      dup4\n      mstore\n      swap2\n      0x20\n      add\n      swap2\n      jump(tag_164)\n    tag_165:\n      dup3\n      add\n      swap2\n      swap1\n      0x00\n      mstore\n      keccak256(0x00, 0x20)\n      swap1\n    tag_166:\n      dup2\n      sload\n      dup2\n      mstore\n      swap1\n      0x01\n      add\n      swap1\n      0x20\n      add\n      dup1\n      dup4\n      gt\n      tag_166\n      jumpi\n      dup3\n      swap1\n      sub\n      0x1f\n      and\n      dup3\n      add\n      swap2\n    tag_164:\n      pop\n      pop\n      pop\n      pop\n      pop\n      dup2\n      mstore\n      0x20\n      add\n      swap1\n      0x01\n      add\n      swap1\n      jump(tag_159)\n    tag_160:\n      pop\n      pop\n      pop\n      pop\n      swap2\n      pop\n      swap3\n      pop\n      swap3\n      pop\n      pop\n        /* \"contracts/DegenToken.sol\":2103:2350  function myPurchases() public view returns (string[] memory, uint256){... */\n      swap1\n      swap2\n      jump\t// out\n        /* \"contracts/DegenToken.sol\":387:407  address public owner */\n    tag_80:\n      0x08\n      0x00\n      swap1\n      sload\n      swap1\n      0x0100\n      exp\n      swap1\n      div\n      0xffffffffffffffffffffffffffffffffffffffff\n      and\n      dup2\n      jump\t// out\n        /* \"@openzeppelin/contracts/token/ERC20/ERC20.sol\":2369:2471  function symbol() public view virtual override returns (string memory) {... */\n    tag_84:\n        /* \"@openzeppelin/contracts/token/ERC20/ERC20.sol\":2425:2438  string memory */\n      0x60\n        /* \"@openzeppelin/contracts/token/ERC20/ERC20.sol\":2457:2464  _symbol */\n      0x04\n        /* \"@openzeppelin/contracts/token/ERC20/ERC20.sol\":2450:2464  return _symbol */\n      dup1\n      sload\n      tag_168\n      swap1\n      tag_110\n      jump\t// in\n    tag_168:\n      dup1\n      0x1f\n      add\n      0x20\n      dup1\n      swap2\n      div\n      mul\n      0x20\n      add\n      mload(0x40)\n      swap1\n      dup2\n      add\n      0x40\n      mstore\n      dup1\n      swap3\n      swap2\n      swap1\n      dup2\n      dup2\n      mstore\n      0x20\n      add\n      dup3\n      dup1\n      sload\n      tag_169\n      swap1\n      tag_110\n      jump\t// in\n    tag_169:\n      dup1\n      iszero\n      tag_170\n      jumpi\n      dup1\n      0x1f\n      lt\n      tag_171\n      jumpi\n      0x0100\n      dup1\n      dup4\n      sload\n      div\n      mul\n      dup4\n      mstore\n      swap2\n      0x20\n      add\n      swap2\n      jump(tag_170)\n    tag_171:\n      dup3\n      add\n      swap2\n      swap1\n      0x00\n      mstore\n      keccak256(0x00, 0x20)\n      swap1\n    tag_172:\n      dup2\n      sload\n      dup2\n      mstore\n      swap1\n      0x01\n      add\n      swap1\n      0x20\n      add\n      dup1\n      dup4\n      gt\n      tag_172\n      jumpi\n      dup3\n      swap1\n      sub\n      0x1f\n      and\n      dup3\n      add\n      swap2\n    tag_170:\n      pop\n      pop\n      pop\n      pop\n      pop\n      swap1\n      pop\n        /* \"@openzeppelin/contracts/token/ERC20/ERC20.sol\":2369:2471  function symbol() public view virtual override returns (string memory) {... */\n      swap1\n      jump\t// out\n        /* \"@openzeppelin/contracts/token/ERC20/ERC20.sol\":6575:7002  function decreaseAllowance(address spender, uint256 subtractedValue) public virtual returns (bool) {... */\n    tag_88:\n        /* \"@openzeppelin/contracts/token/ERC20/ERC20.sol\":6668:6672  bool */\n      0x00\n        /* \"@openzeppelin/contracts/token/ERC20/ERC20.sol\":6684:6697  address owner */\n      dup1\n        /* \"@openzeppelin/contracts/token/ERC20/ERC20.sol\":6700:6712  _msgSender() */\n      tag_174\n        /* \"@openzeppelin/contracts/token/ERC20/ERC20.sol\":6700:6710  _msgSender */\n      tag_118\n        /* \"@openzeppelin/contracts/token/ERC20/ERC20.sol\":6700:6712  _msgSender() */\n      jump\t// in\n    tag_174:\n        /* \"@openzeppelin/contracts/token/ERC20/ERC20.sol\":6684:6712  address owner = _msgSender() */\n      swap1\n      pop\n        /* \"@openzeppelin/contracts/token/ERC20/ERC20.sol\":6722:6746  uint256 currentAllowance */\n      0x00\n        /* \"@openzeppelin/contracts/token/ERC20/ERC20.sol\":6749:6774  allowance(owner, spender) */\n      tag_175\n        /* \"@openzeppelin/contracts/token/ERC20/ERC20.sol\":6759:6764  owner */\n      dup3\n        /* \"@openzeppelin/contracts/token/ERC20/ERC20.sol\":6766:6773  spender */\n      dup7\n        /* \"@openzeppelin/contracts/token/ERC20/ERC20.sol\":6749:6758  allowance */\n      tag_103\n        /* \"@openzeppelin/contracts/token/ERC20/ERC20.sol\":6749:6774  allowance(owner, spender) */\n      jump\t// in\n    tag_175:\n        /* \"@openzeppelin/contracts/token/ERC20/ERC20.sol\":6722:6774  uint256 currentAllowance = allowance(owner, spender) */\n      swap1\n      pop\n        /* \"@openzeppelin/contracts/token/ERC20/ERC20.sol\":6812:6827  subtractedValue */\n      dup4\n        /* \"@openzeppelin/contracts/token/ERC20/ERC20.sol\":6792:6808  currentAllowance */\n      dup2\n        /* \"@openzeppelin/contracts/token/ERC20/ERC20.sol\":6792:6827  currentAllowance >= subtractedValue */\n      lt\n      iszero\n        /* \"@openzeppelin/contracts/token/ERC20/ERC20.sol\":6784:6869  require(currentAllowance >= subtractedValue, \"ERC20: decreased allowance below zero\") */\n      tag_176\n      jumpi\n      mload(0x40)\n      0x08c379a000000000000000000000000000000000000000000000000000000000\n      dup2\n      mstore\n      0x04\n      add\n      tag_177\n      swap1\n      tag_178\n      jump\t// in\n    tag_177:\n      mload(0x40)\n      dup1\n      swap2\n      sub\n      swap1\n      revert\n    tag_176:\n        /* \"@openzeppelin/contracts/token/ERC20/ERC20.sol\":6903:6963  _approve(owner, spender, currentAllowance - subtractedValue) */\n      tag_179\n        /* \"@openzeppelin/contracts/token/ERC20/ERC20.sol\":6912:6917  owner */\n      dup3\n        /* \"@openzeppelin/contracts/token/ERC20/ERC20.sol\":6919:6926  spender */\n      dup7\n        /* \"@openzeppelin/contracts/token/ERC20/ERC20.sol\":6947:6962  subtractedValue */\n      dup7\n        /* \"@openzeppelin/contracts/token/ERC20/ERC20.sol\":6928:6944  currentAllowance */\n      dup5\n        /* \"@openzeppelin/contracts/token/ERC20/ERC20.sol\":6928:6962  currentAllowance - subtractedValue */\n      sub\n        /* \"@openzeppelin/contracts/token/ERC20/ERC20.sol\":6903:6911  _approve */\n      tag_120\n        /* \"@openzeppelin/contracts/token/ERC20/ERC20.sol\":6903:6963  _approve(owner, spender, currentAllowance - subtractedValue) */\n      jump\t// in\n    tag_179:\n        /* \"@openzeppelin/contracts/token/ERC20/ERC20.sol\":6991:6995  true */\n      0x01\n        /* \"@openzeppelin/contracts/token/ERC20/ERC20.sol\":6984:6995  return true */\n      swap3\n      pop\n      pop\n      pop\n        /* \"@openzeppelin/contracts/token/ERC20/ERC20.sol\":6575:7002  function decreaseAllowance(address spender, uint256 subtractedValue) public virtual returns (bool) {... */\n      swap3\n      swap2\n      pop\n      pop\n      jump\t// out\n        /* \"contracts/DegenToken.sol\":1177:2097  function redeemTokens(uint _ch) external{... */\n    tag_92:\n        /* \"contracts/DegenToken.sol\":1242:1243  4 */\n      0x04\n        /* \"contracts/DegenToken.sol\":1235:1238  _ch */\n      dup2\n        /* \"contracts/DegenToken.sol\":1235:1243  _ch <= 4 */\n      gt\n      iszero\n        /* \"contracts/DegenToken.sol\":1227:1269  require(_ch <= 4,\"Wrong option selected!\") */\n      tag_181\n      jumpi\n      mload(0x40)\n      0x08c379a000000000000000000000000000000000000000000000000000000000\n      dup2\n      mstore\n      0x04\n      add\n      tag_182\n      swap1\n      tag_183\n      jump\t// in\n    tag_182:\n      mload(0x40)\n      dup1\n      swap2\n      sub\n      swap1\n      revert\n    tag_181:\n        /* \"contracts/DegenToken.sol\":1290:1291  1 */\n      0x01\n        /* \"contracts/DegenToken.sol\":1283:1286  _ch */\n      dup2\n        /* \"contracts/DegenToken.sol\":1283:1291  _ch == 1 */\n      sub\n        /* \"contracts/DegenToken.sol\":1280:2090  if(_ch == 1){... */\n      tag_184\n      jumpi\n        /* \"contracts/DegenToken.sol\":1337:1340  800 */\n      0x0320\n        /* \"contracts/DegenToken.sol\":1314:1335  balanceOf(msg.sender) */\n      tag_185\n        /* \"contracts/DegenToken.sol\":1324:1334  msg.sender */\n      caller\n        /* \"contracts/DegenToken.sol\":1314:1323  balanceOf */\n      tag_70\n        /* \"contracts/DegenToken.sol\":1314:1335  balanceOf(msg.sender) */\n      jump\t// in\n    tag_185:\n        /* \"contracts/DegenToken.sol\":1314:1340  balanceOf(msg.sender)>=800 */\n      lt\n      iszero\n        /* \"contracts/DegenToken.sol\":1306:1370  require(balanceOf(msg.sender)>=800, \"Oops! Insufficient Tokens\") */\n      tag_186\n      jumpi\n      mload(0x40)\n      0x08c379a000000000000000000000000000000000000000000000000000000000\n      dup2\n      mstore\n      0x04\n      add\n      tag_187\n      swap1\n      tag_188\n      jump\t// in\n    tag_187:\n      mload(0x40)\n      dup1\n      swap2\n      sub\n      swap1\n      revert\n    tag_186:\n        /* \"contracts/DegenToken.sol\":1384:1406  _burn(msg.sender, 800) */\n      tag_189\n        /* \"contracts/DegenToken.sol\":1390:1400  msg.sender */\n      caller\n        /* \"contracts/DegenToken.sol\":1402:1405  800 */\n      0x0320\n        /* \"contracts/DegenToken.sol\":1384:1389  _burn */\n      tag_148\n        /* \"contracts/DegenToken.sol\":1384:1406  _burn(msg.sender, 800) */\n      jump\t// in\n    tag_189:\n        /* \"contracts/DegenToken.sol\":1420:1429  purchases */\n      0x07\n        /* \"contracts/DegenToken.sol\":1420:1441  purchases[msg.sender] */\n      0x00\n        /* \"contracts/DegenToken.sol\":1430:1440  msg.sender */\n      caller\n        /* \"contracts/DegenToken.sol\":1420:1441  purchases[msg.sender] */\n      0xffffffffffffffffffffffffffffffffffffffff\n      and\n      0xffffffffffffffffffffffffffffffffffffffff\n      and\n      dup2\n      mstore\n      0x20\n      add\n      swap1\n      dup2\n      mstore\n      0x20\n      add\n      0x00\n      keccak256\n        /* \"contracts/DegenToken.sol\":1420:1461  purchases[msg.sender].push(\"VANDAL_SKIN\") */\n      dup1\n      0x01\n      dup2\n      sload\n      add\n      dup1\n      dup3\n      sstore\n      dup1\n      swap2\n      pop\n      pop\n      0x01\n      swap1\n      sub\n      swap1\n      0x00\n      mstore\n      keccak256(0x00, 0x20)\n      add\n      0x00\n      mload(0x40)\n      dup1\n      0x40\n      add\n      0x40\n      mstore\n      dup1\n      0x0b\n      dup2\n      mstore\n      0x20\n      add\n      0x56414e44414c5f534b494e000000000000000000000000000000000000000000\n      dup2\n      mstore\n      pop\n      swap1\n      swap2\n      swap1\n      swap2\n      pop\n      swap1\n      dup2\n      tag_191\n      swap2\n      swap1\n      tag_192\n      jump\t// in\n    tag_191:\n      pop\n        /* \"contracts/DegenToken.sol\":1280:2090  if(_ch == 1){... */\n      jump(tag_193)\n    tag_184:\n        /* \"contracts/DegenToken.sol\":1496:1497  2 */\n      0x02\n        /* \"contracts/DegenToken.sol\":1490:1493  _ch */\n      dup2\n        /* \"contracts/DegenToken.sol\":1490:1497  _ch ==2 */\n      sub\n        /* \"contracts/DegenToken.sol\":1487:2090  if(_ch ==2){... */\n      tag_194\n      jumpi\n        /* \"contracts/DegenToken.sol\":1545:1548  600 */\n      0x0258\n        /* \"contracts/DegenToken.sol\":1520:1541  balanceOf(msg.sender) */\n      tag_195\n        /* \"contracts/DegenToken.sol\":1530:1540  msg.sender */\n      caller\n        /* \"contracts/DegenToken.sol\":1520:1529  balanceOf */\n      tag_70\n        /* \"contracts/DegenToken.sol\":1520:1541  balanceOf(msg.sender) */\n      jump\t// in\n    tag_195:\n        /* \"contracts/DegenToken.sol\":1520:1548  balanceOf(msg.sender) >= 600 */\n      lt\n      iszero\n        /* \"contracts/DegenToken.sol\":1512:1578  require(balanceOf(msg.sender) >= 600, \"Oops! Insufficient Tokens\") */\n      tag_196\n      jumpi\n      mload(0x40)\n      0x08c379a000000000000000000000000000000000000000000000000000000000\n      dup2\n      mstore\n      0x04\n      add\n      tag_197\n      swap1\n      tag_188\n      jump\t// in\n    tag_197:\n      mload(0x40)\n      dup1\n      swap2\n      sub\n      swap1\n      revert\n    tag_196:\n        /* \"contracts/DegenToken.sol\":1592:1614  _burn(msg.sender, 600) */\n      tag_198\n        /* \"contracts/DegenToken.sol\":1598:1608  msg.sender */\n      caller\n        /* \"contracts/DegenToken.sol\":1610:1613  600 */\n      0x0258\n        /* \"contracts/DegenToken.sol\":1592:1597  _burn */\n      tag_148\n        /* \"contracts/DegenToken.sol\":1592:1614  _burn(msg.sender, 600) */\n      jump\t// in\n    tag_198:\n        /* \"contracts/DegenToken.sol\":1628:1637  purchases */\n      0x07\n        /* \"contracts/DegenToken.sol\":1628:1649  purchases[msg.sender] */\n      0x00\n        /* \"contracts/DegenToken.sol\":1638:1648  msg.sender */\n      caller\n        /* \"contracts/DegenToken.sol\":1628:1649  purchases[msg.sender] */\n      0xffffffffffffffffffffffffffffffffffffffff\n      and\n      0xffffffffffffffffffffffffffffffffffffffff\n      and\n      dup2\n      mstore\n      0x20\n      add\n      swap1\n      dup2\n      mstore\n      0x20\n      add\n      0x00\n      keccak256\n        /* \"contracts/DegenToken.sol\":1628:1671  purchases[msg.sender].push(\"OPERATOR_SKIN\") */\n      dup1\n      0x01\n      dup2\n      sload\n      add\n      dup1\n      dup3\n      sstore\n      dup1\n      swap2\n      pop\n      pop\n      0x01\n      swap1\n      sub\n      swap1\n      0x00\n      mstore\n      keccak256(0x00, 0x20)\n      add\n      0x00\n      mload(0x40)\n      dup1\n      0x40\n      add\n      0x40\n      mstore\n      dup1\n      0x0d\n      dup2\n      mstore\n      0x20\n      add\n      0x4f50455241544f525f534b494e00000000000000000000000000000000000000\n      dup2\n      mstore\n      pop\n      swap1\n      swap2\n      swap1\n      swap2\n      pop\n      swap1\n      dup2\n      tag_200\n      swap2\n      swap1\n      tag_192\n      jump\t// in\n    tag_200:\n      pop\n        /* \"contracts/DegenToken.sol\":1487:2090  if(_ch ==2){... */\n      jump(tag_201)\n    tag_194:\n        /* \"contracts/DegenToken.sol\":1707:1708  3 */\n      0x03\n        /* \"contracts/DegenToken.sol\":1700:1703  _ch */\n      dup2\n        /* \"contracts/DegenToken.sol\":1700:1708  _ch == 3 */\n      sub\n        /* \"contracts/DegenToken.sol\":1697:2090  if(_ch == 3){... */\n      tag_202\n      jumpi\n        /* \"contracts/DegenToken.sol\":1756:1759  250 */\n      0xfa\n        /* \"contracts/DegenToken.sol\":1731:1752  balanceOf(msg.sender) */\n      tag_203\n        /* \"contracts/DegenToken.sol\":1741:1751  msg.sender */\n      caller\n        /* \"contracts/DegenToken.sol\":1731:1740  balanceOf */\n      tag_70\n        /* \"contracts/DegenToken.sol\":1731:1752  balanceOf(msg.sender) */\n      jump\t// in\n    tag_203:\n        /* \"contracts/DegenToken.sol\":1731:1759  balanceOf(msg.sender) >= 250 */\n      lt\n      iszero\n        /* \"contracts/DegenToken.sol\":1723:1789  require(balanceOf(msg.sender) >= 250, \"Oops! Insufficient Tokens\") */\n      tag_204\n      jumpi\n      mload(0x40)\n      0x08c379a000000000000000000000000000000000000000000000000000000000\n      dup2\n      mstore\n      0x04\n      add\n      tag_205\n      swap1\n      tag_188\n      jump\t// in\n    tag_205:\n      mload(0x40)\n      dup1\n      swap2\n      sub\n      swap1\n      revert\n    tag_204:\n        /* \"contracts/DegenToken.sol\":1803:1825  _burn(msg.sender, 250) */\n      tag_206\n        /* \"contracts/DegenToken.sol\":1809:1819  msg.sender */\n      caller\n        /* \"contracts/DegenToken.sol\":1821:1824  250 */\n      0xfa\n        /* \"contracts/DegenToken.sol\":1803:1808  _burn */\n      tag_148\n        /* \"contracts/DegenToken.sol\":1803:1825  _burn(msg.sender, 250) */\n      jump\t// in\n    tag_206:\n        /* \"contracts/DegenToken.sol\":1839:1848  purchases */\n      0x07\n        /* \"contracts/DegenToken.sol\":1839:1860  purchases[msg.sender] */\n      0x00\n        /* \"contracts/DegenToken.sol\":1849:1859  msg.sender */\n      caller\n        /* \"contracts/DegenToken.sol\":1839:1860  purchases[msg.sender] */\n      0xffffffffffffffffffffffffffffffffffffffff\n      and\n      0xffffffffffffffffffffffffffffffffffffffff\n      and\n      dup2\n      mstore\n      0x20\n      add\n      swap1\n      dup2\n      mstore\n      0x20\n      add\n      0x00\n      keccak256\n        /* \"contracts/DegenToken.sol\":1839:1882  purchases[msg.sender].push(\"PHANTOM_SKIN \") */\n      dup1\n      0x01\n      dup2\n      sload\n      add\n      dup1\n      dup3\n      sstore\n      dup1\n      swap2\n      pop\n      pop\n      0x01\n      swap1\n      sub\n      swap1\n      0x00\n      mstore\n      keccak256(0x00, 0x20)\n      add\n      0x00\n      mload(0x40)\n      dup1\n      0x40\n      add\n      0x40\n      mstore\n      dup1\n      0x0d\n      dup2\n      mstore\n      0x20\n      add\n      0x5048414e544f4d5f534b494e2000000000000000000000000000000000000000\n      dup2\n      mstore\n      pop\n      swap1\n      swap2\n      swap1\n      swap2\n      pop\n      swap1\n      dup2\n      tag_208\n      swap2\n      swap1\n      tag_192\n      jump\t// in\n    tag_208:\n      pop\n        /* \"contracts/DegenToken.sol\":1697:2090  if(_ch == 3){... */\n      jump(tag_209)\n    tag_202:\n        /* \"contracts/DegenToken.sol\":1954:1957  175 */\n      0xaf\n        /* \"contracts/DegenToken.sol\":1929:1950  balanceOf(msg.sender) */\n      tag_210\n        /* \"contracts/DegenToken.sol\":1939:1949  msg.sender */\n      caller\n        /* \"contracts/DegenToken.sol\":1929:1938  balanceOf */\n      tag_70\n        /* \"contracts/DegenToken.sol\":1929:1950  balanceOf(msg.sender) */\n      jump\t// in\n    tag_210:\n        /* \"contracts/DegenToken.sol\":1929:1957  balanceOf(msg.sender) >= 175 */\n      lt\n      iszero\n        /* \"contracts/DegenToken.sol\":1921:1987  require(balanceOf(msg.sender) >= 175, \"Oops! Insufficient Tokens\") */\n      tag_211\n      jumpi\n      mload(0x40)\n      0x08c379a000000000000000000000000000000000000000000000000000000000\n      dup2\n      mstore\n      0x04\n      add\n      tag_212\n      swap1\n      tag_188\n      jump\t// in\n    tag_212:\n      mload(0x40)\n      dup1\n      swap2\n      sub\n      swap1\n      revert\n    tag_211:\n        /* \"contracts/DegenToken.sol\":2001:2023  _burn(msg.sender, 175) */\n      tag_213\n        /* \"contracts/DegenToken.sol\":2007:2017  msg.sender */\n      caller\n        /* \"contracts/DegenToken.sol\":2019:2022  175 */\n      0xaf\n        /* \"contracts/DegenToken.sol\":2001:2006  _burn */\n      tag_148\n        /* \"contracts/DegenToken.sol\":2001:2023  _burn(msg.sender, 175) */\n      jump\t// in\n    tag_213:\n        /* \"contracts/DegenToken.sol\":2037:2046  purchases */\n      0x07\n        /* \"contracts/DegenToken.sol\":2037:2058  purchases[msg.sender] */\n      0x00\n        /* \"contracts/DegenToken.sol\":2047:2057  msg.sender */\n      caller\n        /* \"contracts/DegenToken.sol\":2037:2058  purchases[msg.sender] */\n      0xffffffffffffffffffffffffffffffffffffffff\n      and\n      0xffffffffffffffffffffffffffffffffffffffff\n      and\n      dup2\n      mstore\n      0x20\n      add\n      swap1\n      dup2\n      mstore\n      0x20\n      add\n      0x00\n      keccak256\n        /* \"contracts/DegenToken.sol\":2037:2079  purchases[msg.sender].push(\"SHERIFF_SKIN\") */\n      dup1\n      0x01\n      dup2\n      sload\n      add\n      dup1\n      dup3\n      sstore\n      dup1\n      swap2\n      pop\n      pop\n      0x01\n      swap1\n      sub\n      swap1\n      0x00\n      mstore\n      keccak256(0x00, 0x20)\n      add\n      0x00\n      mload(0x40)\n      dup1\n      0x40\n      add\n      0x40\n      mstore\n      dup1\n      0x0c\n      dup2\n      mstore\n      0x20\n      add\n      0x534845524946465f534b494e0000000000000000000000000000000000000000\n      dup2\n      mstore\n      pop\n      swap1\n      swap2\n      swap1\n      swap2\n      pop\n      swap1\n      dup2\n      tag_215\n      swap2\n      swap1\n      tag_192\n      jump\t// in\n    tag_215:\n      pop\n        /* \"contracts/DegenToken.sol\":1697:2090  if(_ch == 3){... */\n    tag_209:\n        /* \"contracts/DegenToken.sol\":1487:2090  if(_ch ==2){... */\n    tag_201:\n        /* \"contracts/DegenToken.sol\":1280:2090  if(_ch == 1){... */\n    tag_193:\n        /* \"contracts/DegenToken.sol\":1177:2097  function redeemTokens(uint _ch) external{... */\n      pop\n      jump\t// out\n        /* \"@openzeppelin/contracts/token/ERC20/ERC20.sol\":3740:3929  function transfer(address to, uint256 amount) public virtual override returns (bool) {... */\n    tag_95:\n        /* \"@openzeppelin/contracts/token/ERC20/ERC20.sol\":3819:3823  bool */\n      0x00\n        /* \"@openzeppelin/contracts/token/ERC20/ERC20.sol\":3835:3848  address owner */\n      dup1\n        /* \"@openzeppelin/contracts/token/ERC20/ERC20.sol\":3851:3863  _msgSender() */\n      tag_217\n        /* \"@openzeppelin/contracts/token/ERC20/ERC20.sol\":3851:3861  _msgSender */\n      tag_118\n        /* \"@openzeppelin/contracts/token/ERC20/ERC20.sol\":3851:3863  _msgSender() */\n      jump\t// in\n    tag_217:\n        /* \"@openzeppelin/contracts/token/ERC20/ERC20.sol\":3835:3863  address owner = _msgSender() */\n      swap1\n      pop\n        /* \"@openzeppelin/contracts/token/ERC20/ERC20.sol\":3873:3901  _transfer(owner, to, amount) */\n      tag_218\n        /* \"@openzeppelin/contracts/token/ERC20/ERC20.sol\":3883:3888  owner */\n      dup2\n        /* \"@openzeppelin/contracts/token/ERC20/ERC20.sol\":3890:3892  to */\n      dup6\n        /* \"@openzeppelin/contracts/token/ERC20/ERC20.sol\":3894:3900  amount */\n      dup6\n        /* \"@openzeppelin/contracts/token/ERC20/ERC20.sol\":3873:3882  _transfer */\n      tag_127\n        /* \"@openzeppelin/contracts/token/ERC20/ERC20.sol\":3873:3901  _transfer(owner, to, amount) */\n      jump\t// in\n    tag_218:\n        /* \"@openzeppelin/contracts/token/ERC20/ERC20.sol\":3918:3922  true */\n      0x01\n        /* \"@openzeppelin/contracts/token/ERC20/ERC20.sol\":3911:3922  return true */\n      swap2\n      pop\n      pop\n        /* \"@openzeppelin/contracts/token/ERC20/ERC20.sol\":3740:3929  function transfer(address to, uint256 amount) public virtual override returns (bool) {... */\n      swap3\n      swap2\n      pop\n      pop\n      jump\t// out\n        /* \"contracts/DegenToken.sol\":2392:2593  function transferTokens(address _reciever, uint _tokens) external{... */\n    tag_99:\n        /* \"contracts/DegenToken.sol\":2500:2507  _tokens */\n      dup1\n        /* \"contracts/DegenToken.sol\":2475:2496  balanceOf(msg.sender) */\n      tag_220\n        /* \"contracts/DegenToken.sol\":2485:2495  msg.sender */\n      caller\n        /* \"contracts/DegenToken.sol\":2475:2484  balanceOf */\n      tag_70\n        /* \"contracts/DegenToken.sol\":2475:2496  balanceOf(msg.sender) */\n      jump\t// in\n    tag_220:\n        /* \"contracts/DegenToken.sol\":2475:2507  balanceOf(msg.sender) >= _tokens */\n      lt\n      iszero\n        /* \"contracts/DegenToken.sol\":2467:2548  require(balanceOf(msg.sender) >= _tokens, \"Sorry, not enough balance in wallet.\") */\n      tag_221\n      jumpi\n      mload(0x40)\n      0x08c379a000000000000000000000000000000000000000000000000000000000\n      dup2\n      mstore\n      0x04\n      add\n      tag_222\n      swap1\n      tag_223\n      jump\t// in\n    tag_222:\n      mload(0x40)\n      dup1\n      swap2\n      sub\n      swap1\n      revert\n    tag_221:\n        /* \"contracts/DegenToken.sol\":2558:2586  transfer(_reciever, _tokens) */\n      tag_224\n        /* \"contracts/DegenToken.sol\":2567:2576  _reciever */\n      dup3\n        /* \"contracts/DegenToken.sol\":2578:2585  _tokens */\n      dup3\n        /* \"contracts/DegenToken.sol\":2558:2566  transfer */\n      tag_95\n        /* \"contracts/DegenToken.sol\":2558:2586  transfer(_reciever, _tokens) */\n      jump\t// in\n    tag_224:\n      pop\n        /* \"contracts/DegenToken.sol\":2392:2593  function transferTokens(address _reciever, uint _tokens) external{... */\n      pop\n      pop\n      jump\t// out\n        /* \"@openzeppelin/contracts/token/ERC20/ERC20.sol\":3987:4136  function allowance(address owner, address spender) public view virtual override returns (uint256) {... */\n    tag_103:\n        /* \"@openzeppelin/contracts/token/ERC20/ERC20.sol\":4076:4083  uint256 */\n      0x00\n        /* \"@openzeppelin/contracts/token/ERC20/ERC20.sol\":4102:4113  _allowances */\n      0x01\n        /* \"@openzeppelin/contracts/token/ERC20/ERC20.sol\":4102:4120  _allowances[owner] */\n      0x00\n        /* \"@openzeppelin/contracts/token/ERC20/ERC20.sol\":4114:4119  owner */\n      dup5\n        /* \"@openzeppelin/contracts/token/ERC20/ERC20.sol\":4102:4120  _allowances[owner] */\n      0xffffffffffffffffffffffffffffffffffffffff\n      and\n      0xffffffffffffffffffffffffffffffffffffffff\n      and\n      dup2\n      mstore\n      0x20\n      add\n      swap1\n      dup2\n      mstore\n      0x20\n      add\n      0x00\n      keccak256\n        /* \"@openzeppelin/contracts/token/ERC20/ERC20.sol\":4102:4129  _allowances[owner][spender] */\n      0x00\n        /* \"@openzeppelin/contracts/token/ERC20/ERC20.sol\":4121:4128  spender */\n      dup4\n        /* \"@openzeppelin/contracts/token/ERC20/ERC20.sol\":4102:4129  _allowances[owner][spender] */\n      0xffffffffffffffffffffffffffffffffffffffff\n      and\n      0xffffffffffffffffffffffffffffffffffffffff\n      and\n      dup2\n      mstore\n      0x20\n      add\n      swap1\n      dup2\n      mstore\n      0x20\n      add\n      0x00\n      keccak256\n      sload\n        /* \"@openzeppelin/contracts/token/ERC20/ERC20.sol\":4095:4129  return _allowances[owner][spender] */\n      swap1\n      pop\n        /* \"@openzeppelin/contracts/token/ERC20/ERC20.sol\":3987:4136  function allowance(address owner, address spender) public view virtual override returns (uint256) {... */\n      swap3\n      swap2\n      pop\n      pop\n      jump\t// out\n        /* \"contracts/DegenToken.sol\":670:930  function mintTokens(address _receiver, uint256 _tokens) public onlyOwner{... */\n    tag_107:\n        /* \"contracts/DegenToken.sol\":583:588  owner */\n      0x08\n      0x00\n      swap1\n      sload\n      swap1\n      0x0100\n      exp\n      swap1\n      div\n      0xffffffffffffffffffffffffffffffffffffffff\n      and\n        /* \"contracts/DegenToken.sol\":569:588  msg.sender == owner */\n      0xffffffffffffffffffffffffffffffffffffffff\n      and\n        /* \"contracts/DegenToken.sol\":569:579  msg.sender */\n      caller\n        /* \"contracts/DegenToken.sol\":569:588  msg.sender == owner */\n      0xffffffffffffffffffffffffffffffffffffffff\n      and\n      eq\n        /* \"contracts/DegenToken.sol\":561:625  require(msg.sender == owner, \"Only, owner can mint the tokens!\") */\n      tag_227\n      jumpi\n      mload(0x40)\n      0x08c379a000000000000000000000000000000000000000000000000000000000\n      dup2\n      mstore\n      0x04\n      add\n      tag_228\n      swap1\n      tag_229\n      jump\t// in\n    tag_228:\n      mload(0x40)\n      dup1\n      swap2\n      sub\n      swap1\n      revert\n    tag_227:\n        /* \"contracts/DegenToken.sol\":781:782  0 */\n      0x00\n        /* \"contracts/DegenToken.sol\":760:783  _receiver != address(0) */\n      0xffffffffffffffffffffffffffffffffffffffff\n      and\n        /* \"contracts/DegenToken.sol\":760:769  _receiver */\n      dup3\n        /* \"contracts/DegenToken.sol\":760:783  _receiver != address(0) */\n      0xffffffffffffffffffffffffffffffffffffffff\n      and\n      sub\n        /* \"contracts/DegenToken.sol\":752:814  require(_receiver != address(0), \"This address doesn't exist\") */\n      tag_231\n      jumpi\n      mload(0x40)\n      0x08c379a000000000000000000000000000000000000000000000000000000000\n      dup2\n      mstore\n      0x04\n      add\n      tag_232\n      swap1\n      tag_233\n      jump\t// in\n    tag_232:\n      mload(0x40)\n      dup1\n      swap2\n      sub\n      swap1\n      revert\n    tag_231:\n        /* \"contracts/DegenToken.sol\":842:843  0 */\n      0x00\n        /* \"contracts/DegenToken.sol\":832:839  _tokens */\n      dup2\n        /* \"contracts/DegenToken.sol\":832:843  _tokens > 0 */\n      gt\n        /* \"contracts/DegenToken.sol\":824:888  require(_tokens > 0, \"You can't mint negative number of tokens\") */\n      tag_234\n      jumpi\n      mload(0x40)\n      0x08c379a000000000000000000000000000000000000000000000000000000000\n      dup2\n      mstore\n      0x04\n      add\n      tag_235\n      swap1\n      tag_236\n      jump\t// in\n    tag_235:\n      mload(0x40)\n      dup1\n      swap2\n      sub\n      swap1\n      revert\n    tag_234:\n        /* \"contracts/DegenToken.sol\":898:923  _mint(_receiver, _tokens) */\n      tag_237\n        /* \"contracts/DegenToken.sol\":904:913  _receiver */\n      dup3\n        /* \"contracts/DegenToken.sol\":915:922  _tokens */\n      dup3\n        /* \"contracts/DegenToken.sol\":898:903  _mint */\n      tag_238\n        /* \"contracts/DegenToken.sol\":898:923  _mint(_receiver, _tokens) */\n      jump\t// in\n    tag_237:\n        /* \"contracts/DegenToken.sol\":670:930  function mintTokens(address _receiver, uint256 _tokens) public onlyOwner{... */\n      pop\n      pop\n      jump\t// out\n        /* \"@openzeppelin/contracts/utils/Context.sol\":640:736  function _msgSender() internal view virtual returns (address) {... */\n    tag_118:\n        /* \"@openzeppelin/contracts/utils/Context.sol\":693:700  address */\n      0x00\n        /* \"@openzeppelin/contracts/utils/Context.sol\":719:729  msg.sender */\n      caller\n        /* \"@openzeppelin/contracts/utils/Context.sol\":712:729  return msg.sender */\n      swap1\n      pop\n        /* \"@openzeppelin/contracts/utils/Context.sol\":640:736  function _msgSender() internal view virtual returns (address) {... */\n      swap1\n      jump\t// out\n        /* \"@openzeppelin/contracts/token/ERC20/ERC20.sol\":10457:10797  function _approve(address owner, address spender, uint256 amount) internal virtual {... */\n    tag_120:\n        /* \"@openzeppelin/contracts/token/ERC20/ERC20.sol\":10575:10576  0 */\n      0x00\n        /* \"@openzeppelin/contracts/token/ERC20/ERC20.sol\":10558:10577  owner != address(0) */\n      0xffffffffffffffffffffffffffffffffffffffff\n      and\n        /* \"@openzeppelin/contracts/token/ERC20/ERC20.sol\":10558:10563  owner */\n      dup4\n        /* \"@openzeppelin/contracts/token/ERC20/ERC20.sol\":10558:10577  owner != address(0) */\n      0xffffffffffffffffffffffffffffffffffffffff\n      and\n      sub\n        /* \"@openzeppelin/contracts/token/ERC20/ERC20.sol\":10550:10618  require(owner != address(0), \"ERC20: approve from the zero address\") */\n      tag_241\n      jumpi\n      mload(0x40)\n      0x08c379a000000000000000000000000000000000000000000000000000000000\n      dup2\n      mstore\n      0x04\n      add\n      tag_242\n      swap1\n      tag_243\n      jump\t// in\n    tag_242:\n      mload(0x40)\n      dup1\n      swap2\n      sub\n      swap1\n      revert\n    tag_241:\n        /* \"@openzeppelin/contracts/token/ERC20/ERC20.sol\":10655:10656  0 */\n      0x00\n        /* \"@openzeppelin/contracts/token/ERC20/ERC20.sol\":10636:10657  spender != address(0) */\n      0xffffffffffffffffffffffffffffffffffffffff\n      and\n        /* \"@openzeppelin/contracts/token/ERC20/ERC20.sol\":10636:10643  spender */\n      dup3\n        /* \"@openzeppelin/contracts/token/ERC20/ERC20.sol\":10636:10657  spender != address(0) */\n      0xffffffffffffffffffffffffffffffffffffffff\n      and\n      sub\n        /* \"@openzeppelin/contracts/token/ERC20/ERC20.sol\":10628:10696  require(spender != address(0), \"ERC20: approve to the zero address\") */\n      tag_244\n      jumpi\n      mload(0x40)\n      0x08c379a000000000000000000000000000000000000000000000000000000000\n      dup2\n      mstore\n      0x04\n      add\n      tag_245\n      swap1\n      tag_246\n      jump\t// in\n    tag_245:\n      mload(0x40)\n      dup1\n      swap2\n      sub\n      swap1\n      revert\n    tag_244:\n        /* \"@openzeppelin/contracts/token/ERC20/ERC20.sol\":10737:10743  amount */\n      dup1\n        /* \"@openzeppelin/contracts/token/ERC20/ERC20.sol\":10707:10718  _allowances */\n      0x01\n        /* \"@openzeppelin/contracts/token/ERC20/ERC20.sol\":10707:10725  _allowances[owner] */\n      0x00\n        /* \"@openzeppelin/contracts/token/ERC20/ERC20.sol\":10719:10724  owner */\n      dup6\n        /* \"@openzeppelin/contracts/token/ERC20/ERC20.sol\":10707:10725  _allowances[owner] */\n      0xffffffffffffffffffffffffffffffffffffffff\n      and\n      0xffffffffffffffffffffffffffffffffffffffff\n      and\n      dup2\n      mstore\n      0x20\n      add\n      swap1\n      dup2\n      mstore\n      0x20\n      add\n      0x00\n      keccak256\n        /* \"@openzeppelin/contracts/token/ERC20/ERC20.sol\":10707:10734  _allowances[owner][spender] */\n      0x00\n        /* \"@openzeppelin/contracts/token/ERC20/ERC20.sol\":10726:10733  spender */\n      dup5\n        /* \"@openzeppelin/contracts/token/ERC20/ERC20.sol\":10707:10734  _allowances[owner][spender] */\n      0xffffffffffffffffffffffffffffffffffffffff\n      and\n      0xffffffffffffffffffffffffffffffffffffffff\n      and\n      dup2\n      mstore\n      0x20\n      add\n      swap1\n      dup2\n      mstore\n      0x20\n      add\n      0x00\n      keccak256\n        /* \"@openzeppelin/contracts/token/ERC20/ERC20.sol\":10707:10743  _allowances[owner][spender] = amount */\n      dup2\n      swap1\n      sstore\n      pop\n        /* \"@openzeppelin/contracts/token/ERC20/ERC20.sol\":10774:10781  spender */\n      dup2\n        /* \"@openzeppelin/contracts/token/ERC20/ERC20.sol\":10758:10790  Approval(owner, spender, amount) */\n      0xffffffffffffffffffffffffffffffffffffffff\n      and\n        /* \"@openzeppelin/contracts/token/ERC20/ERC20.sol\":10767:10772  owner */\n      dup4\n        /* \"@openzeppelin/contracts/token/ERC20/ERC20.sol\":10758:10790  Approval(owner, spender, amount) */\n      0xffffffffffffffffffffffffffffffffffffffff\n      and\n      0x8c5be1e5ebec7d5bd14f71427d1e84f3dd0314c0f7b2291e5b200ac8c7c3b925\n        /* \"@openzeppelin/contracts/token/ERC20/ERC20.sol\":10783:10789  amount */\n      dup4\n        /* \"@openzeppelin/contracts/token/ERC20/ERC20.sol\":10758:10790  Approval(owner, spender, amount) */\n      mload(0x40)\n      tag_247\n      swap2\n      swap1\n      tag_43\n      jump\t// in\n    tag_247:\n      mload(0x40)\n      dup1\n      swap2\n      sub\n      swap1\n      log3\n        /* \"@openzeppelin/contracts/token/ERC20/ERC20.sol\":10457:10797  function _approve(address owner, address spender, uint256 amount) internal virtual {... */\n      pop\n      pop\n      pop\n      jump\t// out\n        /* \"@openzeppelin/contracts/token/ERC20/ERC20.sol\":11078:11489  function _spendAllowance(address owner, address spender, uint256 amount) internal virtual {... */\n    tag_125:\n        /* \"@openzeppelin/contracts/token/ERC20/ERC20.sol\":11178:11202  uint256 currentAllowance */\n      0x00\n        /* \"@openzeppelin/contracts/token/ERC20/ERC20.sol\":11205:11230  allowance(owner, spender) */\n      tag_249\n        /* \"@openzeppelin/contracts/token/ERC20/ERC20.sol\":11215:11220  owner */\n      dup5\n        /* \"@openzeppelin/contracts/token/ERC20/ERC20.sol\":11222:11229  spender */\n      dup5\n        /* \"@openzeppelin/contracts/token/ERC20/ERC20.sol\":11205:11214  allowance */\n      tag_103\n        /* \"@openzeppelin/contracts/token/ERC20/ERC20.sol\":11205:11230  allowance(owner, spender) */\n      jump\t// in\n    tag_249:\n        /* \"@openzeppelin/contracts/token/ERC20/ERC20.sol\":11178:11230  uint256 currentAllowance = allowance(owner, spender) */\n      swap1\n      pop\n        /* \"@openzeppelin/contracts/token/ERC20/ERC20.sol\":11264:11281  type(uint256).max */\n      0xffffffffffffffffffffffffffffffffffffffffffffffffffffffffffffffff\n        /* \"@openzeppelin/contracts/token/ERC20/ERC20.sol\":11244:11260  currentAllowance */\n      dup2\n        /* \"@openzeppelin/contracts/token/ERC20/ERC20.sol\":11244:11281  currentAllowance != type(uint256).max */\n      eq\n        /* \"@openzeppelin/contracts/token/ERC20/ERC20.sol\":11240:11483  if (currentAllowance != type(uint256).max) {... */\n      tag_250\n      jumpi\n        /* \"@openzeppelin/contracts/token/ERC20/ERC20.sol\":11325:11331  amount */\n      dup2\n        /* \"@openzeppelin/contracts/token/ERC20/ERC20.sol\":11305:11321  currentAllowance */\n      dup2\n        /* \"@openzeppelin/contracts/token/ERC20/ERC20.sol\":11305:11331  currentAllowance >= amount */\n      lt\n      iszero\n        /* \"@openzeppelin/contracts/token/ERC20/ERC20.sol\":11297:11365  require(currentAllowance >= amount, \"ERC20: insufficient allowance\") */\n      tag_251\n      jumpi\n      mload(0x40)\n      0x08c379a000000000000000000000000000000000000000000000000000000000\n      dup2\n      mstore\n      0x04\n      add\n      tag_252\n      swap1\n      tag_253\n      jump\t// in\n    tag_252:\n      mload(0x40)\n      dup1\n      swap2\n      sub\n      swap1\n      revert\n    tag_251:\n        /* \"@openzeppelin/contracts/token/ERC20/ERC20.sol\":11407:11458  _approve(owner, spender, currentAllowance - amount) */\n      tag_254\n        /* \"@openzeppelin/contracts/token/ERC20/ERC20.sol\":11416:11421  owner */\n      dup5\n        /* \"@openzeppelin/contracts/token/ERC20/ERC20.sol\":11423:11430  spender */\n      dup5\n        /* \"@openzeppelin/contracts/token/ERC20/ERC20.sol\":11451:11457  amount */\n      dup5\n        /* \"@openzeppelin/contracts/token/ERC20/ERC20.sol\":11432:11448  currentAllowance */\n      dup5\n        /* \"@openzeppelin/contracts/token/ERC20/ERC20.sol\":11432:11457  currentAllowance - amount */\n      sub\n        /* \"@openzeppelin/contracts/token/ERC20/ERC20.sol\":11407:11415  _approve */\n      tag_120\n        /* \"@openzeppelin/contracts/token/ERC20/ERC20.sol\":11407:11458  _approve(owner, spender, currentAllowance - amount) */\n      jump\t// in\n    tag_254:\n        /* \"@openzeppelin/contracts/token/ERC20/ERC20.sol\":11240:11483  if (currentAllowance != type(uint256).max) {... */\n    tag_250:\n        /* \"@openzeppelin/contracts/token/ERC20/ERC20.sol\":11168:11489  {... */\n      pop\n        /* \"@openzeppelin/contracts/token/ERC20/ERC20.sol\":11078:11489  function _spendAllowance(address owner, address spender, uint256 amount) internal virtual {... */\n      pop\n      pop\n      pop\n      jump\t// out\n        /* \"@openzeppelin/contracts/token/ERC20/ERC20.sol\":7456:8244  function _transfer(address from, address to, uint256 amount) internal virtual {... */\n    tag_127:\n        /* \"@openzeppelin/contracts/token/ERC20/ERC20.sol\":7568:7569  0 */\n      0x00\n        /* \"@openzeppelin/contracts/token/ERC20/ERC20.sol\":7552:7570  from != address(0) */\n      0xffffffffffffffffffffffffffffffffffffffff\n      and\n        /* \"@openzeppelin/contracts/token/ERC20/ERC20.sol\":7552:7556  from */\n      dup4\n        /* \"@openzeppelin/contracts/token/ERC20/ERC20.sol\":7552:7570  from != address(0) */\n      0xffffffffffffffffffffffffffffffffffffffff\n      and\n      sub\n        /* \"@openzeppelin/contracts/token/ERC20/ERC20.sol\":7544:7612  require(from != address(0), \"ERC20: transfer from the zero address\") */\n      tag_256\n      jumpi\n      mload(0x40)\n      0x08c379a000000000000000000000000000000000000000000000000000000000\n      dup2\n      mstore\n      0x04\n      add\n      tag_257\n      swap1\n      tag_258\n      jump\t// in\n    tag_257:\n      mload(0x40)\n      dup1\n      swap2\n      sub\n      swap1\n      revert\n    tag_256:\n        /* \"@openzeppelin/contracts/token/ERC20/ERC20.sol\":7644:7645  0 */\n      0x00\n        /* \"@openzeppelin/contracts/token/ERC20/ERC20.sol\":7630:7646  to != address(0) */\n      0xffffffffffffffffffffffffffffffffffffffff\n      and\n        /* \"@openzeppelin/contracts/token/ERC20/ERC20.sol\":7630:7632  to */\n      dup3\n        /* \"@openzeppelin/contracts/token/ERC20/ERC20.sol\":7630:7646  to != address(0) */\n      0xffffffffffffffffffffffffffffffffffffffff\n      and\n      sub\n        /* \"@openzeppelin/contracts/token/ERC20/ERC20.sol\":7622:7686  require(to != address(0), \"ERC20: transfer to the zero address\") */\n      tag_259\n      jumpi\n      mload(0x40)\n      0x08c379a000000000000000000000000000000000000000000000000000000000\n      dup2\n      mstore\n      0x04\n      add\n      tag_260\n      swap1\n      tag_261\n      jump\t// in\n    tag_260:\n      mload(0x40)\n      dup1\n      swap2\n      sub\n      swap1\n      revert\n    tag_259:\n        /* \"@openzeppelin/contracts/token/ERC20/ERC20.sol\":7697:7735  _beforeTokenTransfer(from, to, amount) */\n      tag_262\n        /* \"@openzeppelin/contracts/token/ERC20/ERC20.sol\":7718:7722  from */\n      dup4\n        /* \"@openzeppelin/contracts/token/ERC20/ERC20.sol\":7724:7726  to */\n      dup4\n        /* \"@openzeppelin/contracts/token/ERC20/ERC20.sol\":7728:7734  amount */\n      dup4\n        /* \"@openzeppelin/contracts/token/ERC20/ERC20.sol\":7697:7717  _beforeTokenTransfer */\n      tag_263\n        /* \"@openzeppelin/contracts/token/ERC20/ERC20.sol\":7697:7735  _beforeTokenTransfer(from, to, amount) */\n      jump\t// in\n    tag_262:\n        /* \"@openzeppelin/contracts/token/ERC20/ERC20.sol\":7746:7765  uint256 fromBalance */\n      0x00\n        /* \"@openzeppelin/contracts/token/ERC20/ERC20.sol\":7768:7777  _balances */\n      dup1\n        /* \"@openzeppelin/contracts/token/ERC20/ERC20.sol\":7768:7783  _balances[from] */\n      0x00\n        /* \"@openzeppelin/contracts/token/ERC20/ERC20.sol\":7778:7782  from */\n      dup6\n        /* \"@openzeppelin/contracts/token/ERC20/ERC20.sol\":7768:7783  _balances[from] */\n      0xffffffffffffffffffffffffffffffffffffffff\n      and\n      0xffffffffffffffffffffffffffffffffffffffff\n      and\n      dup2\n      mstore\n      0x20\n      add\n      swap1\n      dup2\n      mstore\n      0x20\n      add\n      0x00\n      keccak256\n      sload\n        /* \"@openzeppelin/contracts/token/ERC20/ERC20.sol\":7746:7783  uint256 fromBalance = _balances[from] */\n      swap1\n      pop\n        /* \"@openzeppelin/contracts/token/ERC20/ERC20.sol\":7816:7822  amount */\n      dup2\n        /* \"@openzeppelin/contracts/token/ERC20/ERC20.sol\":7801:7812  fromBalance */\n      dup2\n        /* \"@openzeppelin/contracts/token/ERC20/ERC20.sol\":7801:7822  fromBalance >= amount */\n      lt\n      iszero\n        /* \"@openzeppelin/contracts/token/ERC20/ERC20.sol\":7793:7865  require(fromBalance >= amount, \"ERC20: transfer amount exceeds balance\") */\n      tag_264\n      jumpi\n      mload(0x40)\n      0x08c379a000000000000000000000000000000000000000000000000000000000\n      dup2\n      mstore\n      0x04\n      add\n      tag_265\n      swap1\n      tag_266\n      jump\t// in\n    tag_265:\n      mload(0x40)\n      dup1\n      swap2\n      sub\n      swap1\n      revert\n    tag_264:\n        /* \"@openzeppelin/contracts/token/ERC20/ERC20.sol\":7931:7937  amount */\n      dup2\n        /* \"@openzeppelin/contracts/token/ERC20/ERC20.sol\":7917:7928  fromBalance */\n      dup2\n        /* \"@openzeppelin/contracts/token/ERC20/ERC20.sol\":7917:7937  fromBalance - amount */\n      sub\n        /* \"@openzeppelin/contracts/token/ERC20/ERC20.sol\":7899:7908  _balances */\n      0x00\n        /* \"@openzeppelin/contracts/token/ERC20/ERC20.sol\":7899:7914  _balances[from] */\n      dup1\n        /* \"@openzeppelin/contracts/token/ERC20/ERC20.sol\":7909:7913  from */\n      dup7\n        /* \"@openzeppelin/contracts/token/ERC20/ERC20.sol\":7899:7914  _balances[from] */\n      0xffffffffffffffffffffffffffffffffffffffff\n      and\n      0xffffffffffffffffffffffffffffffffffffffff\n      and\n      dup2\n      mstore\n      0x20\n      add\n      swap1\n      dup2\n      mstore\n      0x20\n      add\n      0x00\n      keccak256\n        /* \"@openzeppelin/contracts/token/ERC20/ERC20.sol\":7899:7937  _balances[from] = fromBalance - amount */\n      dup2\n      swap1\n      sstore\n      pop\n        /* \"@openzeppelin/contracts/token/ERC20/ERC20.sol\":8131:8137  amount */\n      dup2\n        /* \"@openzeppelin/contracts/token/ERC20/ERC20.sol\":8114:8123  _balances */\n      0x00\n        /* \"@openzeppelin/contracts/token/ERC20/ERC20.sol\":8114:8127  _balances[to] */\n      dup1\n        /* \"@openzeppelin/contracts/token/ERC20/ERC20.sol\":8124:8126  to */\n      dup6\n        /* \"@openzeppelin/contracts/token/ERC20/ERC20.sol\":8114:8127  _balances[to] */\n      0xffffffffffffffffffffffffffffffffffffffff\n      and\n      0xffffffffffffffffffffffffffffffffffffffff\n      and\n      dup2\n      mstore\n      0x20\n      add\n      swap1\n      dup2\n      mstore\n      0x20\n      add\n      0x00\n      keccak256\n      0x00\n        /* \"@openzeppelin/contracts/token/ERC20/ERC20.sol\":8114:8137  _balances[to] += amount */\n      dup3\n      dup3\n      sload\n      add\n      swap3\n      pop\n      pop\n      dup2\n      swap1\n      sstore\n      pop\n        /* \"@openzeppelin/contracts/token/ERC20/ERC20.sol\":8178:8180  to */\n      dup3\n        /* \"@openzeppelin/contracts/token/ERC20/ERC20.sol\":8163:8189  Transfer(from, to, amount) */\n      0xffffffffffffffffffffffffffffffffffffffff\n      and\n        /* \"@openzeppelin/contracts/token/ERC20/ERC20.sol\":8172:8176  from */\n      dup5\n        /* \"@openzeppelin/contracts/token/ERC20/ERC20.sol\":8163:8189  Transfer(from, to, amount) */\n      0xffffffffffffffffffffffffffffffffffffffff\n      and\n      0xddf252ad1be2c89b69c2b068fc378daa952ba7f163c4a11628f55a4df523b3ef\n        /* \"@openzeppelin/contracts/token/ERC20/ERC20.sol\":8182:8188  amount */\n      dup5\n        /* \"@openzeppelin/contracts/token/ERC20/ERC20.sol\":8163:8189  Transfer(from, to, amount) */\n      mload(0x40)\n      tag_267\n      swap2\n      swap1\n      tag_43\n      jump\t// in\n    tag_267:\n      mload(0x40)\n      dup1\n      swap2\n      sub\n      swap1\n      log3\n        /* \"@openzeppelin/contracts/token/ERC20/ERC20.sol\":8200:8237  _afterTokenTransfer(from, to, amount) */\n      tag_268\n        /* \"@openzeppelin/contracts/token/ERC20/ERC20.sol\":8220:8224  from */\n      dup5\n        /* \"@openzeppelin/contracts/token/ERC20/ERC20.sol\":8226:8228  to */\n      dup5\n        /* \"@openzeppelin/contracts/token/ERC20/ERC20.sol\":8230:8236  amount */\n      dup5\n        /* \"@openzeppelin/contracts/token/ERC20/ERC20.sol\":8200:8219  _afterTokenTransfer */\n      tag_269\n        /* \"@openzeppelin/contracts/token/ERC20/ERC20.sol\":8200:8237  _afterTokenTransfer(from, to, amount) */\n      jump\t// in\n    tag_268:\n        /* \"@openzeppelin/contracts/token/ERC20/ERC20.sol\":7534:8244  {... */\n      pop\n        /* \"@openzeppelin/contracts/token/ERC20/ERC20.sol\":7456:8244  function _transfer(address from, address to, uint256 amount) internal virtual {... */\n      pop\n      pop\n      pop\n      jump\t// out\n        /* \"@openzeppelin/contracts/token/ERC20/ERC20.sol\":9375:10034  function _burn(address account, uint256 amount) internal virtual {... */\n    tag_148:\n        /* \"@openzeppelin/contracts/token/ERC20/ERC20.sol\":9477:9478  0 */\n      0x00\n        /* \"@openzeppelin/contracts/token/ERC20/ERC20.sol\":9458:9479  account != address(0) */\n      0xffffffffffffffffffffffffffffffffffffffff\n      and\n        /* \"@openzeppelin/contracts/token/ERC20/ERC20.sol\":9458:9465  account */\n      dup3\n        /* \"@openzeppelin/contracts/token/ERC20/ERC20.sol\":9458:9479  account != address(0) */\n      0xffffffffffffffffffffffffffffffffffffffff\n      and\n      sub\n        /* \"@openzeppelin/contracts/token/ERC20/ERC20.sol\":9450:9517  require(account != address(0), \"ERC20: burn from the zero address\") */\n      tag_271\n      jumpi\n      mload(0x40)\n      0x08c379a000000000000000000000000000000000000000000000000000000000\n      dup2\n      mstore\n      0x04\n      add\n      tag_272\n      swap1\n      tag_273\n      jump\t// in\n    tag_272:\n      mload(0x40)\n      dup1\n      swap2\n      sub\n      swap1\n      revert\n    tag_271:\n        /* \"@openzeppelin/contracts/token/ERC20/ERC20.sol\":9528:9577  _beforeTokenTransfer(account, address(0), amount) */\n      tag_274\n        /* \"@openzeppelin/contracts/token/ERC20/ERC20.sol\":9549:9556  account */\n      dup3\n        /* \"@openzeppelin/contracts/token/ERC20/ERC20.sol\":9566:9567  0 */\n      0x00\n        /* \"@openzeppelin/contracts/token/ERC20/ERC20.sol\":9570:9576  amount */\n      dup4\n        /* \"@openzeppelin/contracts/token/ERC20/ERC20.sol\":9528:9548  _beforeTokenTransfer */\n      tag_263\n        /* \"@openzeppelin/contracts/token/ERC20/ERC20.sol\":9528:9577  _beforeTokenTransfer(account, address(0), amount) */\n      jump\t// in\n    tag_274:\n        /* \"@openzeppelin/contracts/token/ERC20/ERC20.sol\":9588:9610  uint256 accountBalance */\n      0x00\n        /* \"@openzeppelin/contracts/token/ERC20/ERC20.sol\":9613:9622  _balances */\n      dup1\n        /* \"@openzeppelin/contracts/token/ERC20/ERC20.sol\":9613:9631  _balances[account] */\n      0x00\n        /* \"@openzeppelin/contracts/token/ERC20/ERC20.sol\":9623:9630  account */\n      dup5\n        /* \"@openzeppelin/contracts/token/ERC20/ERC20.sol\":9613:9631  _balances[account] */\n      0xffffffffffffffffffffffffffffffffffffffff\n      and\n      0xffffffffffffffffffffffffffffffffffffffff\n      and\n      dup2\n      mstore\n      0x20\n      add\n      swap1\n      dup2\n      mstore\n      0x20\n      add\n      0x00\n      keccak256\n      sload\n        /* \"@openzeppelin/contracts/token/ERC20/ERC20.sol\":9588:9631  uint256 accountBalance = _balances[account] */\n      swap1\n      pop\n        /* \"@openzeppelin/contracts/token/ERC20/ERC20.sol\":9667:9673  amount */\n      dup2\n        /* \"@openzeppelin/contracts/token/ERC20/ERC20.sol\":9649:9663  accountBalance */\n      dup2\n        /* \"@openzeppelin/contracts/token/ERC20/ERC20.sol\":9649:9673  accountBalance >= amount */\n      lt\n      iszero\n        /* \"@openzeppelin/contracts/token/ERC20/ERC20.sol\":9641:9712  require(accountBalance >= amount, \"ERC20: burn amount exceeds balance\") */\n      tag_275\n      jumpi\n      mload(0x40)\n      0x08c379a000000000000000000000000000000000000000000000000000000000\n      dup2\n      mstore\n      0x04\n      add\n      tag_276\n      swap1\n      tag_277\n      jump\t// in\n    tag_276:\n      mload(0x40)\n      dup1\n      swap2\n      sub\n      swap1\n      revert\n    tag_275:\n        /* \"@openzeppelin/contracts/token/ERC20/ERC20.sol\":9784:9790  amount */\n      dup2\n        /* \"@openzeppelin/contracts/token/ERC20/ERC20.sol\":9767:9781  accountBalance */\n      dup2\n        /* \"@openzeppelin/contracts/token/ERC20/ERC20.sol\":9767:9790  accountBalance - amount */\n      sub\n        /* \"@openzeppelin/contracts/token/ERC20/ERC20.sol\":9746:9755  _balances */\n      0x00\n        /* \"@openzeppelin/contracts/token/ERC20/ERC20.sol\":9746:9764  _balances[account] */\n      dup1\n        /* \"@openzeppelin/contracts/token/ERC20/ERC20.sol\":9756:9763  account */\n      dup6\n        /* \"@openzeppelin/contracts/token/ERC20/ERC20.sol\":9746:9764  _balances[account] */\n      0xffffffffffffffffffffffffffffffffffffffff\n      and\n      0xffffffffffffffffffffffffffffffffffffffff\n      and\n      dup2\n      mstore\n      0x20\n      add\n      swap1\n      dup2\n      mstore\n      0x20\n      add\n      0x00\n      keccak256\n        /* \"@openzeppelin/contracts/token/ERC20/ERC20.sol\":9746:9790  _balances[account] = accountBalance - amount */\n      dup2\n      swap1\n      sstore\n      pop\n        /* \"@openzeppelin/contracts/token/ERC20/ERC20.sol\":9899:9905  amount */\n      dup2\n        /* \"@openzeppelin/contracts/token/ERC20/ERC20.sol\":9883:9895  _totalSupply */\n      0x02\n      0x00\n        /* \"@openzeppelin/contracts/token/ERC20/ERC20.sol\":9883:9905  _totalSupply -= amount */\n      dup3\n      dup3\n      sload\n      sub\n      swap3\n      pop\n      pop\n      dup2\n      swap1\n      sstore\n      pop\n        /* \"@openzeppelin/contracts/token/ERC20/ERC20.sol\":9957:9958  0 */\n      0x00\n        /* \"@openzeppelin/contracts/token/ERC20/ERC20.sol\":9931:9968  Transfer(account, address(0), amount) */\n      0xffffffffffffffffffffffffffffffffffffffff\n      and\n        /* \"@openzeppelin/contracts/token/ERC20/ERC20.sol\":9940:9947  account */\n      dup4\n        /* \"@openzeppelin/contracts/token/ERC20/ERC20.sol\":9931:9968  Transfer(account, address(0), amount) */\n      0xffffffffffffffffffffffffffffffffffffffff\n      and\n      0xddf252ad1be2c89b69c2b068fc378daa952ba7f163c4a11628f55a4df523b3ef\n        /* \"@openzeppelin/contracts/token/ERC20/ERC20.sol\":9961:9967  amount */\n      dup5\n        /* \"@openzeppelin/contracts/token/ERC20/ERC20.sol\":9931:9968  Transfer(account, address(0), amount) */\n      mload(0x40)\n      tag_278\n      swap2\n      swap1\n      tag_43\n      jump\t// in\n    tag_278:\n      mload(0x40)\n      dup1\n      swap2\n      sub\n      swap1\n      log3\n        /* \"@openzeppelin/contracts/token/ERC20/ERC20.sol\":9979:10027  _afterTokenTransfer(account, address(0), amount) */\n      tag_279\n        /* \"@openzeppelin/contracts/token/ERC20/ERC20.sol\":9999:10006  account */\n      dup4\n        /* \"@openzeppelin/contracts/token/ERC20/ERC20.sol\":10016:10017  0 */\n      0x00\n        /* \"@openzeppelin/contracts/token/ERC20/ERC20.sol\":10020:10026  amount */\n      dup5\n        /* \"@openzeppelin/contracts/token/ERC20/ERC20.sol\":9979:9998  _afterTokenTransfer */\n      tag_269\n        /* \"@openzeppelin/contracts/token/ERC20/ERC20.sol\":9979:10027  _afterTokenTransfer(account, address(0), amount) */\n      jump\t// in\n    tag_279:\n        /* \"@openzeppelin/contracts/token/ERC20/ERC20.sol\":9440:10034  {... */\n      pop\n        /* \"@openzeppelin/contracts/token/ERC20/ERC20.sol\":9375:10034  function _burn(address account, uint256 amount) internal virtual {... */\n      pop\n      pop\n      jump\t// out\n        /* \"@openzeppelin/contracts/token/ERC20/ERC20.sol\":8520:9055  function _mint(address account, uint256 amount) internal virtual {... */\n    tag_238:\n        /* \"@openzeppelin/contracts/token/ERC20/ERC20.sol\":8622:8623  0 */\n      0x00\n        /* \"@openzeppelin/contracts/token/ERC20/ERC20.sol\":8603:8624  account != address(0) */\n      0xffffffffffffffffffffffffffffffffffffffff\n      and\n        /* \"@openzeppelin/contracts/token/ERC20/ERC20.sol\":8603:8610  account */\n      dup3\n        /* \"@openzeppelin/contracts/token/ERC20/ERC20.sol\":8603:8624  account != address(0) */\n      0xffffffffffffffffffffffffffffffffffffffff\n      and\n      sub\n        /* \"@openzeppelin/contracts/token/ERC20/ERC20.sol\":8595:8660  require(account != address(0), \"ERC20: mint to the zero address\") */\n      tag_281\n      jumpi\n      mload(0x40)\n      0x08c379a000000000000000000000000000000000000000000000000000000000\n      dup2\n      mstore\n      0x04\n      add\n      tag_282\n      swap1\n      tag_283\n      jump\t// in\n    tag_282:\n      mload(0x40)\n      dup1\n      swap2\n      sub\n      swap1\n      revert\n    tag_281:\n        /* \"@openzeppelin/contracts/token/ERC20/ERC20.sol\":8671:8720  _beforeTokenTransfer(address(0), account, amount) */\n      tag_284\n        /* \"@openzeppelin/contracts/token/ERC20/ERC20.sol\":8700:8701  0 */\n      0x00\n        /* \"@openzeppelin/contracts/token/ERC20/ERC20.sol\":8704:8711  account */\n      dup4\n        /* \"@openzeppelin/contracts/token/ERC20/ERC20.sol\":8713:8719  amount */\n      dup4\n        /* \"@openzeppelin/contracts/token/ERC20/ERC20.sol\":8671:8691  _beforeTokenTransfer */\n      tag_263\n        /* \"@openzeppelin/contracts/token/ERC20/ERC20.sol\":8671:8720  _beforeTokenTransfer(address(0), account, amount) */\n      jump\t// in\n    tag_284:\n        /* \"@openzeppelin/contracts/token/ERC20/ERC20.sol\":8747:8753  amount */\n      dup1\n        /* \"@openzeppelin/contracts/token/ERC20/ERC20.sol\":8731:8743  _totalSupply */\n      0x02\n      0x00\n        /* \"@openzeppelin/contracts/token/ERC20/ERC20.sol\":8731:8753  _totalSupply += amount */\n      dup3\n      dup3\n      sload\n      tag_285\n      swap2\n      swap1\n      tag_134\n      jump\t// in\n    tag_285:\n      swap3\n      pop\n      pop\n      dup2\n      swap1\n      sstore\n      pop\n        /* \"@openzeppelin/contracts/token/ERC20/ERC20.sol\":8921:8927  amount */\n      dup1\n        /* \"@openzeppelin/contracts/token/ERC20/ERC20.sol\":8899:8908  _balances */\n      0x00\n        /* \"@openzeppelin/contracts/token/ERC20/ERC20.sol\":8899:8917  _balances[account] */\n      dup1\n        /* \"@openzeppelin/contracts/token/ERC20/ERC20.sol\":8909:8916  account */\n      dup5\n        /* \"@openzeppelin/contracts/token/ERC20/ERC20.sol\":8899:8917  _balances[account] */\n      0xffffffffffffffffffffffffffffffffffffffff\n      and\n      0xffffffffffffffffffffffffffffffffffffffff\n      and\n      dup2\n      mstore\n      0x20\n      add\n      swap1\n      dup2\n      mstore\n      0x20\n      add\n      0x00\n      keccak256\n      0x00\n        /* \"@openzeppelin/contracts/token/ERC20/ERC20.sol\":8899:8927  _balances[account] += amount */\n      dup3\n      dup3\n      sload\n      add\n      swap3\n      pop\n      pop\n      dup2\n      swap1\n      sstore\n      pop\n        /* \"@openzeppelin/contracts/token/ERC20/ERC20.sol\":8973:8980  account */\n      dup2\n        /* \"@openzeppelin/contracts/token/ERC20/ERC20.sol\":8952:8989  Transfer(address(0), account, amount) */\n      0xffffffffffffffffffffffffffffffffffffffff\n      and\n        /* \"@openzeppelin/contracts/token/ERC20/ERC20.sol\":8969:8970  0 */\n      0x00\n        /* \"@openzeppelin/contracts/token/ERC20/ERC20.sol\":8952:8989  Transfer(address(0), account, amount) */\n      0xffffffffffffffffffffffffffffffffffffffff\n      and\n      0xddf252ad1be2c89b69c2b068fc378daa952ba7f163c4a11628f55a4df523b3ef\n        /* \"@openzeppelin/contracts/token/ERC20/ERC20.sol\":8982:8988  amount */\n      dup4\n        /* \"@openzeppelin/contracts/token/ERC20/ERC20.sol\":8952:8989  Transfer(address(0), account, amount) */\n      mload(0x40)\n      tag_286\n      swap2\n      swap1\n      tag_43\n      jump\t// in\n    tag_286:\n      mload(0x40)\n      dup1\n      swap2\n      sub\n      swap1\n      log3\n        /* \"@openzeppelin/contracts/token/ERC20/ERC20.sol\":9000:9048  _afterTokenTransfer(address(0), account, amount) */\n      tag_287\n        /* \"@openzeppelin/contracts/token/ERC20/ERC20.sol\":9028:9029  0 */\n      0x00\n        /* \"@openzeppelin/contracts/token/ERC20/ERC20.sol\":9032:9039  account */\n      dup4\n        /* \"@openzeppelin/contracts/token/ERC20/ERC20.sol\":9041:9047  amount */\n      dup4\n        /* \"@openzeppelin/contracts/token/ERC20/ERC20.sol\":9000:9019  _afterTokenTransfer */\n      tag_269\n        /* \"@openzeppelin/contracts/token/ERC20/ERC20.sol\":9000:9048  _afterTokenTransfer(address(0), account, amount) */\n      jump\t// in\n    tag_287:\n        /* \"@openzeppelin/contracts/token/ERC20/ERC20.sol\":8520:9055  function _mint(address account, uint256 amount) internal virtual {... */\n      pop\n      pop\n      jump\t// out\n        /* \"@openzeppelin/contracts/token/ERC20/ERC20.sol\":12073:12164  function _beforeTokenTransfer(address from, address to, uint256 amount) internal virtual {} */\n    tag_263:\n      pop\n      pop\n      pop\n      jump\t// out\n        /* \"@openzeppelin/contracts/token/ERC20/ERC20.sol\":12752:12842  function _afterTokenTransfer(address from, address to, uint256 amount) internal virtual {} */\n    tag_269:\n      pop\n      pop\n      pop\n      jump\t// out\n        /* \"#utility.yul\":7:106   */\n    tag_290:\n        /* \"#utility.yul\":59:65   */\n      0x00\n        /* \"#utility.yul\":93:98   */\n      dup2\n        /* \"#utility.yul\":87:99   */\n      mload\n        /* \"#utility.yul\":77:99   */\n      swap1\n      pop\n        /* \"#utility.yul\":7:106   */\n      swap2\n      swap1\n      pop\n      jump\t// out\n        /* \"#utility.yul\":112:281   */\n    tag_291:\n        /* \"#utility.yul\":196:207   */\n      0x00\n        /* \"#utility.yul\":230:236   */\n      dup3\n        /* \"#utility.yul\":225:228   */\n      dup3\n        /* \"#utility.yul\":218:237   */\n      mstore\n        /* \"#utility.yul\":270:274   */\n      0x20\n        /* \"#utility.yul\":265:268   */\n      dup3\n        /* \"#utility.yul\":261:275   */\n      add\n        /* \"#utility.yul\":246:275   */\n      swap1\n      pop\n        /* \"#utility.yul\":112:281   */\n      swap3\n      swap2\n      pop\n      pop\n      jump\t// out\n        /* \"#utility.yul\":287:533   */\n    tag_292:\n        /* \"#utility.yul\":368:369   */\n      0x00\n        /* \"#utility.yul\":378:491   */\n    tag_377:\n        /* \"#utility.yul\":392:398   */\n      dup4\n        /* \"#utility.yul\":389:390   */\n      dup2\n        /* \"#utility.yul\":386:399   */\n      lt\n        /* \"#utility.yul\":378:491   */\n      iszero\n      tag_379\n      jumpi\n        /* \"#utility.yul\":477:478   */\n      dup1\n        /* \"#utility.yul\":472:475   */\n      dup3\n        /* \"#utility.yul\":468:479   */\n      add\n        /* \"#utility.yul\":462:480   */\n      mload\n        /* \"#utility.yul\":458:459   */\n      dup2\n        /* \"#utility.yul\":453:456   */\n      dup5\n        /* \"#utility.yul\":449:460   */\n      add\n        /* \"#utility.yul\":442:481   */\n      mstore\n        /* \"#utility.yul\":414:416   */\n      0x20\n        /* \"#utility.yul\":411:412   */\n      dup2\n        /* \"#utility.yul\":407:417   */\n      add\n        /* \"#utility.yul\":402:417   */\n      swap1\n      pop\n        /* \"#utility.yul\":378:491   */\n      jump(tag_377)\n    tag_379:\n        /* \"#utility.yul\":525:526   */\n      0x00\n        /* \"#utility.yul\":516:522   */\n      dup5\n        /* \"#utility.yul\":511:514   */\n      dup5\n        /* \"#utility.yul\":507:523   */\n      add\n        /* \"#utility.yul\":500:527   */\n      mstore\n        /* \"#utility.yul\":349:533   */\n      pop\n        /* \"#utility.yul\":287:533   */\n      pop\n      pop\n      pop\n      jump\t// out\n        /* \"#utility.yul\":539:641   */\n    tag_293:\n        /* \"#utility.yul\":580:586   */\n      0x00\n        /* \"#utility.yul\":631:633   */\n      0x1f\n        /* \"#utility.yul\":627:634   */\n      not\n        /* \"#utility.yul\":622:624   */\n      0x1f\n        /* \"#utility.yul\":615:620   */\n      dup4\n        /* \"#utility.yul\":611:625   */\n      add\n        /* \"#utility.yul\":607:635   */\n      and\n        /* \"#utility.yul\":597:635   */\n      swap1\n      pop\n        /* \"#utility.yul\":539:641   */\n      swap2\n      swap1\n      pop\n      jump\t// out\n        /* \"#utility.yul\":647:1024   */\n    tag_294:\n        /* \"#utility.yul\":735:738   */\n      0x00\n        /* \"#utility.yul\":763:802   */\n      tag_382\n        /* \"#utility.yul\":796:801   */\n      dup3\n        /* \"#utility.yul\":763:802   */\n      tag_290\n      jump\t// in\n    tag_382:\n        /* \"#utility.yul\":818:889   */\n      tag_383\n        /* \"#utility.yul\":882:888   */\n      dup2\n        /* \"#utility.yul\":877:880   */\n      dup6\n        /* \"#utility.yul\":818:889   */\n      tag_291\n      jump\t// in\n    tag_383:\n        /* \"#utility.yul\":811:889   */\n      swap4\n      pop\n        /* \"#utility.yul\":898:963   */\n      tag_384\n        /* \"#utility.yul\":956:962   */\n      dup2\n        /* \"#utility.yul\":951:954   */\n      dup6\n        /* \"#utility.yul\":944:948   */\n      0x20\n        /* \"#utility.yul\":937:942   */\n      dup7\n        /* \"#utility.yul\":933:949   */\n      add\n        /* \"#utility.yul\":898:963   */\n      tag_292\n      jump\t// in\n    tag_384:\n        /* \"#utility.yul\":988:1017   */\n      tag_385\n        /* \"#utility.yul\":1010:1016   */\n      dup2\n        /* \"#utility.yul\":988:1017   */\n      tag_293\n      jump\t// in\n    tag_385:\n        /* \"#utility.yul\":983:986   */\n      dup5\n        /* \"#utility.yul\":979:1018   */\n      add\n        /* \"#utility.yul\":972:1018   */\n      swap2\n      pop\n        /* \"#utility.yul\":739:1024   */\n      pop\n        /* \"#utility.yul\":647:1024   */\n      swap3\n      swap2\n      pop\n      pop\n      jump\t// out\n        /* \"#utility.yul\":1030:1343   */\n    tag_30:\n        /* \"#utility.yul\":1143:1147   */\n      0x00\n        /* \"#utility.yul\":1181:1183   */\n      0x20\n        /* \"#utility.yul\":1170:1179   */\n      dup3\n        /* \"#utility.yul\":1166:1184   */\n      add\n        /* \"#utility.yul\":1158:1184   */\n      swap1\n      pop\n        /* \"#utility.yul\":1230:1239   */\n      dup2\n        /* \"#utility.yul\":1224:1228   */\n      dup2\n        /* \"#utility.yul\":1220:1240   */\n      sub\n        /* \"#utility.yul\":1216:1217   */\n      0x00\n        /* \"#utility.yul\":1205:1214   */\n      dup4\n        /* \"#utility.yul\":1201:1218   */\n      add\n        /* \"#utility.yul\":1194:1241   */\n      mstore\n        /* \"#utility.yul\":1258:1336   */\n      tag_387\n        /* \"#utility.yul\":1331:1335   */\n      dup2\n        /* \"#utility.yul\":1322:1328   */\n      dup5\n        /* \"#utility.yul\":1258:1336   */\n      tag_294\n      jump\t// in\n    tag_387:\n        /* \"#utility.yul\":1250:1336   */\n      swap1\n      pop\n        /* \"#utility.yul\":1030:1343   */\n      swap3\n      swap2\n      pop\n      pop\n      jump\t// out\n        /* \"#utility.yul\":1430:1547   */\n    tag_296:\n        /* \"#utility.yul\":1539:1540   */\n      0x00\n        /* \"#utility.yul\":1536:1537   */\n      dup1\n        /* \"#utility.yul\":1529:1541   */\n      revert\n        /* \"#utility.yul\":1676:1802   */\n    tag_298:\n        /* \"#utility.yul\":1713:1720   */\n      0x00\n        /* \"#utility.yul\":1753:1795   */\n      0xffffffffffffffffffffffffffffffffffffffff\n        /* \"#utility.yul\":1746:1751   */\n      dup3\n        /* \"#utility.yul\":1742:1796   */\n      and\n        /* \"#utility.yul\":1731:1796   */\n      swap1\n      pop\n        /* \"#utility.yul\":1676:1802   */\n      swap2\n      swap1\n      pop\n      jump\t// out\n        /* \"#utility.yul\":1808:1904   */\n    tag_299:\n        /* \"#utility.yul\":1845:1852   */\n      0x00\n        /* \"#utility.yul\":1874:1898   */\n      tag_393\n        /* \"#utility.yul\":1892:1897   */\n      dup3\n        /* \"#utility.yul\":1874:1898   */\n      tag_298\n      jump\t// in\n    tag_393:\n        /* \"#utility.yul\":1863:1898   */\n      swap1\n      pop\n        /* \"#utility.yul\":1808:1904   */\n      swap2\n      swap1\n      pop\n      jump\t// out\n        /* \"#utility.yul\":1910:2032   */\n    tag_300:\n        /* \"#utility.yul\":1983:2007   */\n      tag_395\n        /* \"#utility.yul\":2001:2006   */\n      dup2\n        /* \"#utility.yul\":1983:2007   */\n      tag_299\n      jump\t// in\n    tag_395:\n        /* \"#utility.yul\":1976:1981   */\n      dup2\n        /* \"#utility.yul\":1973:2008   */\n      eq\n        /* \"#utility.yul\":1963:2026   */\n      tag_396\n      jumpi\n        /* \"#utility.yul\":2022:2023   */\n      0x00\n        /* \"#utility.yul\":2019:2020   */\n      dup1\n        /* \"#utility.yul\":2012:2024   */\n      revert\n        /* \"#utility.yul\":1963:2026   */\n    tag_396:\n        /* \"#utility.yul\":1910:2032   */\n      pop\n      jump\t// out\n        /* \"#utility.yul\":2038:2177   */\n    tag_301:\n        /* \"#utility.yul\":2084:2089   */\n      0x00\n        /* \"#utility.yul\":2122:2128   */\n      dup2\n        /* \"#utility.yul\":2109:2129   */\n      calldataload\n        /* \"#utility.yul\":2100:2129   */\n      swap1\n      pop\n        /* \"#utility.yul\":2138:2171   */\n      tag_398\n        /* \"#utility.yul\":2165:2170   */\n      dup2\n        /* \"#utility.yul\":2138:2171   */\n      tag_300\n      jump\t// in\n    tag_398:\n        /* \"#utility.yul\":2038:2177   */\n      swap3\n      swap2\n      pop\n      pop\n      jump\t// out\n        /* \"#utility.yul\":2183:2260   */\n    tag_302:\n        /* \"#utility.yul\":2220:2227   */\n      0x00\n        /* \"#utility.yul\":2249:2254   */\n      dup2\n        /* \"#utility.yul\":2238:2254   */\n      swap1\n      pop\n        /* \"#utility.yul\":2183:2260   */\n      swap2\n      swap1\n      pop\n      jump\t// out\n        /* \"#utility.yul\":2266:2388   */\n    tag_303:\n        /* \"#utility.yul\":2339:2363   */\n      tag_401\n        /* \"#utility.yul\":2357:2362   */\n      dup2\n        /* \"#utility.yul\":2339:2363   */\n      tag_302\n      jump\t// in\n    tag_401:\n        /* \"#utility.yul\":2332:2337   */\n      dup2\n        /* \"#utility.yul\":2329:2364   */\n      eq\n        /* \"#utility.yul\":2319:2382   */\n      tag_402\n      jumpi\n        /* \"#utility.yul\":2378:2379   */\n      0x00\n        /* \"#utility.yul\":2375:2376   */\n      dup1\n        /* \"#utility.yul\":2368:2380   */\n      revert\n        /* \"#utility.yul\":2319:2382   */\n    tag_402:\n        /* \"#utility.yul\":2266:2388   */\n      pop\n      jump\t// out\n        /* \"#utility.yul\":2394:2533   */\n    tag_304:\n        /* \"#utility.yul\":2440:2445   */\n      0x00\n        /* \"#utility.yul\":2478:2484   */\n      dup2\n        /* \"#utility.yul\":2465:2485   */\n      calldataload\n        /* \"#utility.yul\":2456:2485   */\n      swap1\n      pop\n        /* \"#utility.yul\":2494:2527   */\n      tag_404\n        /* \"#utility.yul\":2521:2526   */\n      dup2\n        /* \"#utility.yul\":2494:2527   */\n      tag_303\n      jump\t// in\n    tag_404:\n        /* \"#utility.yul\":2394:2533   */\n      swap3\n      swap2\n      pop\n      pop\n      jump\t// out\n        /* \"#utility.yul\":2539:3013   */\n    tag_36:\n        /* \"#utility.yul\":2607:2613   */\n      0x00\n        /* \"#utility.yul\":2615:2621   */\n      dup1\n        /* \"#utility.yul\":2664:2666   */\n      0x40\n        /* \"#utility.yul\":2652:2661   */\n      dup4\n        /* \"#utility.yul\":2643:2650   */\n      dup6\n        /* \"#utility.yul\":2639:2662   */\n      sub\n        /* \"#utility.yul\":2635:2667   */\n      slt\n        /* \"#utility.yul\":2632:2751   */\n      iszero\n      tag_406\n      jumpi\n        /* \"#utility.yul\":2670:2749   */\n      tag_407\n      tag_296\n      jump\t// in\n    tag_407:\n        /* \"#utility.yul\":2632:2751   */\n    tag_406:\n        /* \"#utility.yul\":2790:2791   */\n      0x00\n        /* \"#utility.yul\":2815:2868   */\n      tag_408\n        /* \"#utility.yul\":2860:2867   */\n      dup6\n        /* \"#utility.yul\":2851:2857   */\n      dup3\n        /* \"#utility.yul\":2840:2849   */\n      dup7\n        /* \"#utility.yul\":2836:2858   */\n      add\n        /* \"#utility.yul\":2815:2868   */\n      tag_301\n      jump\t// in\n    tag_408:\n        /* \"#utility.yul\":2805:2868   */\n      swap3\n      pop\n        /* \"#utility.yul\":2761:2878   */\n      pop\n        /* \"#utility.yul\":2917:2919   */\n      0x20\n        /* \"#utility.yul\":2943:2996   */\n      tag_409\n        /* \"#utility.yul\":2988:2995   */\n      dup6\n        /* \"#utility.yul\":2979:2985   */\n      dup3\n        /* \"#utility.yul\":2968:2977   */\n      dup7\n        /* \"#utility.yul\":2964:2986   */\n      add\n        /* \"#utility.yul\":2943:2996   */\n      tag_304\n      jump\t// in\n    tag_409:\n        /* \"#utility.yul\":2933:2996   */\n      swap2\n      pop\n        /* \"#utility.yul\":2888:3006   */\n      pop\n        /* \"#utility.yul\":2539:3013   */\n      swap3\n      pop\n      swap3\n      swap1\n      pop\n      jump\t// out\n        /* \"#utility.yul\":3019:3109   */\n    tag_305:\n        /* \"#utility.yul\":3053:3060   */\n      0x00\n        /* \"#utility.yul\":3096:3101   */\n      dup2\n        /* \"#utility.yul\":3089:3102   */\n      iszero\n        /* \"#utility.yul\":3082:3103   */\n      iszero\n        /* \"#utility.yul\":3071:3103   */\n      swap1\n      pop\n        /* \"#utility.yul\":3019:3109   */\n      swap2\n      swap1\n      pop\n      jump\t// out\n        /* \"#utility.yul\":3115:3224   */\n    tag_306:\n        /* \"#utility.yul\":3196:3217   */\n      tag_412\n        /* \"#utility.yul\":3211:3216   */\n      dup2\n        /* \"#utility.yul\":3196:3217   */\n      tag_305\n      jump\t// in\n    tag_412:\n        /* \"#utility.yul\":3191:3194   */\n      dup3\n        /* \"#utility.yul\":3184:3218   */\n      mstore\n        /* \"#utility.yul\":3115:3224   */\n      pop\n      pop\n      jump\t// out\n        /* \"#utility.yul\":3230:3440   */\n    tag_39:\n        /* \"#utility.yul\":3317:3321   */\n      0x00\n        /* \"#utility.yul\":3355:3357   */\n      0x20\n        /* \"#utility.yul\":3344:3353   */\n      dup3\n        /* \"#utility.yul\":3340:3358   */\n      add\n        /* \"#utility.yul\":3332:3358   */\n      swap1\n      pop\n        /* \"#utility.yul\":3368:3433   */\n      tag_414\n        /* \"#utility.yul\":3430:3431   */\n      0x00\n        /* \"#utility.yul\":3419:3428   */\n      dup4\n        /* \"#utility.yul\":3415:3432   */\n      add\n        /* \"#utility.yul\":3406:3412   */\n      dup5\n        /* \"#utility.yul\":3368:3433   */\n      tag_306\n      jump\t// in\n    tag_414:\n        /* \"#utility.yul\":3230:3440   */\n      swap3\n      swap2\n      pop\n      pop\n      jump\t// out\n        /* \"#utility.yul\":3446:3564   */\n    tag_307:\n        /* \"#utility.yul\":3533:3557   */\n      tag_416\n        /* \"#utility.yul\":3551:3556   */\n      dup2\n        /* \"#utility.yul\":3533:3557   */\n      tag_302\n      jump\t// in\n    tag_416:\n        /* \"#utility.yul\":3528:3531   */\n      dup3\n        /* \"#utility.yul\":3521:3558   */\n      mstore\n        /* \"#utility.yul\":3446:3564   */\n      pop\n      pop\n      jump\t// out\n        /* \"#utility.yul\":3570:3792   */\n    tag_43:\n        /* \"#utility.yul\":3663:3667   */\n      0x00\n        /* \"#utility.yul\":3701:3703   */\n      0x20\n        /* \"#utility.yul\":3690:3699   */\n      dup3\n        /* \"#utility.yul\":3686:3704   */\n      add\n        /* \"#utility.yul\":3678:3704   */\n      swap1\n      pop\n        /* \"#utility.yul\":3714:3785   */\n      tag_418\n        /* \"#utility.yul\":3782:3783   */\n      0x00\n        /* \"#utility.yul\":3771:3780   */\n      dup4\n        /* \"#utility.yul\":3767:3784   */\n      add\n        /* \"#utility.yul\":3758:3764   */\n      dup5\n        /* \"#utility.yul\":3714:3785   */\n      tag_307\n      jump\t// in\n    tag_418:\n        /* \"#utility.yul\":3570:3792   */\n      swap3\n      swap2\n      pop\n      pop\n      jump\t// out\n        /* \"#utility.yul\":3798:4417   */\n    tag_46:\n        /* \"#utility.yul\":3875:3881   */\n      0x00\n        /* \"#utility.yul\":3883:3889   */\n      dup1\n        /* \"#utility.yul\":3891:3897   */\n      0x00\n        /* \"#utility.yul\":3940:3942   */\n      0x60\n        /* \"#utility.yul\":3928:3937   */\n      dup5\n        /* \"#utility.yul\":3919:3926   */\n      dup7\n        /* \"#utility.yul\":3915:3938   */\n      sub\n        /* \"#utility.yul\":3911:3943   */\n      slt\n        /* \"#utility.yul\":3908:4027   */\n      iszero\n      tag_420\n      jumpi\n        /* \"#utility.yul\":3946:4025   */\n      tag_421\n      tag_296\n      jump\t// in\n    tag_421:\n        /* \"#utility.yul\":3908:4027   */\n    tag_420:\n        /* \"#utility.yul\":4066:4067   */\n      0x00\n        /* \"#utility.yul\":4091:4144   */\n      tag_422\n        /* \"#utility.yul\":4136:4143   */\n      dup7\n        /* \"#utility.yul\":4127:4133   */\n      dup3\n        /* \"#utility.yul\":4116:4125   */\n      dup8\n        /* \"#utility.yul\":4112:4134   */\n      add\n        /* \"#utility.yul\":4091:4144   */\n      tag_301\n      jump\t// in\n    tag_422:\n        /* \"#utility.yul\":4081:4144   */\n      swap4\n      pop\n        /* \"#utility.yul\":4037:4154   */\n      pop\n        /* \"#utility.yul\":4193:4195   */\n      0x20\n        /* \"#utility.yul\":4219:4272   */\n      tag_423\n        /* \"#utility.yul\":4264:4271   */\n      dup7\n        /* \"#utility.yul\":4255:4261   */\n      dup3\n        /* \"#utility.yul\":4244:4253   */\n      dup8\n        /* \"#utility.yul\":4240:4262   */\n      add\n        /* \"#utility.yul\":4219:4272   */\n      tag_301\n      jump\t// in\n    tag_423:\n        /* \"#utility.yul\":4209:4272   */\n      swap3\n      pop\n        /* \"#utility.yul\":4164:4282   */\n      pop\n        /* \"#utility.yul\":4321:4323   */\n      0x40\n        /* \"#utility.yul\":4347:4400   */\n      tag_424\n        /* \"#utility.yul\":4392:4399   */\n      dup7\n        /* \"#utility.yul\":4383:4389   */\n      dup3\n        /* \"#utility.yul\":4372:4381   */\n      dup8\n        /* \"#utility.yul\":4368:4390   */\n      add\n        /* \"#utility.yul\":4347:4400   */\n      tag_304\n      jump\t// in\n    tag_424:\n        /* \"#utility.yul\":4337:4400   */\n      swap2\n      pop\n        /* \"#utility.yul\":4292:4410   */\n      pop\n        /* \"#utility.yul\":3798:4417   */\n      swap3\n      pop\n      swap3\n      pop\n      swap3\n      jump\t// out\n        /* \"#utility.yul\":4423:4509   */\n    tag_308:\n        /* \"#utility.yul\":4458:4465   */\n      0x00\n        /* \"#utility.yul\":4498:4502   */\n      0xff\n        /* \"#utility.yul\":4491:4496   */\n      dup3\n        /* \"#utility.yul\":4487:4503   */\n      and\n        /* \"#utility.yul\":4476:4503   */\n      swap1\n      pop\n        /* \"#utility.yul\":4423:4509   */\n      swap2\n      swap1\n      pop\n      jump\t// out\n        /* \"#utility.yul\":4515:4627   */\n    tag_309:\n        /* \"#utility.yul\":4598:4620   */\n      tag_427\n        /* \"#utility.yul\":4614:4619   */\n      dup2\n        /* \"#utility.yul\":4598:4620   */\n      tag_308\n      jump\t// in\n    tag_427:\n        /* \"#utility.yul\":4593:4596   */\n      dup3\n        /* \"#utility.yul\":4586:4621   */\n      mstore\n        /* \"#utility.yul\":4515:4627   */\n      pop\n      pop\n      jump\t// out\n        /* \"#utility.yul\":4633:4847   */\n    tag_52:\n        /* \"#utility.yul\":4722:4726   */\n      0x00\n        /* \"#utility.yul\":4760:4762   */\n      0x20\n        /* \"#utility.yul\":4749:4758   */\n      dup3\n        /* \"#utility.yul\":4745:4763   */\n      add\n        /* \"#utility.yul\":4737:4763   */\n      swap1\n      pop\n        /* \"#utility.yul\":4773:4840   */\n      tag_429\n        /* \"#utility.yul\":4837:4838   */\n      0x00\n        /* \"#utility.yul\":4826:4835   */\n      dup4\n        /* \"#utility.yul\":4822:4839   */\n      add\n        /* \"#utility.yul\":4813:4819   */\n      dup5\n        /* \"#utility.yul\":4773:4840   */\n      tag_309\n      jump\t// in\n    tag_429:\n        /* \"#utility.yul\":4633:4847   */\n      swap3\n      swap2\n      pop\n      pop\n      jump\t// out\n        /* \"#utility.yul\":4853:5182   */\n    tag_65:\n        /* \"#utility.yul\":4912:4918   */\n      0x00\n        /* \"#utility.yul\":4961:4963   */\n      0x20\n        /* \"#utility.yul\":4949:4958   */\n      dup3\n        /* \"#utility.yul\":4940:4947   */\n      dup5\n        /* \"#utility.yul\":4936:4959   */\n      sub\n        /* \"#utility.yul\":4932:4964   */\n      slt\n        /* \"#utility.yul\":4929:5048   */\n      iszero\n      tag_431\n      jumpi\n        /* \"#utility.yul\":4967:5046   */\n      tag_432\n      tag_296\n      jump\t// in\n    tag_432:\n        /* \"#utility.yul\":4929:5048   */\n    tag_431:\n        /* \"#utility.yul\":5087:5088   */\n      0x00\n        /* \"#utility.yul\":5112:5165   */\n      tag_433\n        /* \"#utility.yul\":5157:5164   */\n      dup5\n        /* \"#utility.yul\":5148:5154   */\n      dup3\n        /* \"#utility.yul\":5137:5146   */\n      dup6\n        /* \"#utility.yul\":5133:5155   */\n      add\n        /* \"#utility.yul\":5112:5165   */\n      tag_304\n      jump\t// in\n    tag_433:\n        /* \"#utility.yul\":5102:5165   */\n      swap2\n      pop\n        /* \"#utility.yul\":5058:5175   */\n      pop\n        /* \"#utility.yul\":4853:5182   */\n      swap3\n      swap2\n      pop\n      pop\n      jump\t// out\n        /* \"#utility.yul\":5188:5517   */\n    tag_69:\n        /* \"#utility.yul\":5247:5253   */\n      0x00\n        /* \"#utility.yul\":5296:5298   */\n      0x20\n        /* \"#utility.yul\":5284:5293   */\n      dup3\n        /* \"#utility.yul\":5275:5282   */\n      dup5\n        /* \"#utility.yul\":5271:5294   */\n      sub\n        /* \"#utility.yul\":5267:5299   */\n      slt\n        /* \"#utility.yul\":5264:5383   */\n      iszero\n      tag_435\n      jumpi\n        /* \"#utility.yul\":5302:5381   */\n      tag_436\n      tag_296\n      jump\t// in\n    tag_436:\n        /* \"#utility.yul\":5264:5383   */\n    tag_435:\n        /* \"#utility.yul\":5422:5423   */\n      0x00\n        /* \"#utility.yul\":5447:5500   */\n      tag_437\n        /* \"#utility.yul\":5492:5499   */\n      dup5\n        /* \"#utility.yul\":5483:5489   */\n      dup3\n        /* \"#utility.yul\":5472:5481   */\n      dup6\n        /* \"#utility.yul\":5468:5490   */\n      add\n        /* \"#utility.yul\":5447:5500   */\n      tag_301\n      jump\t// in\n    tag_437:\n        /* \"#utility.yul\":5437:5500   */\n      swap2\n      pop\n        /* \"#utility.yul\":5393:5510   */\n      pop\n        /* \"#utility.yul\":5188:5517   */\n      swap3\n      swap2\n      pop\n      pop\n      jump\t// out\n        /* \"#utility.yul\":5523:5647   */\n    tag_310:\n        /* \"#utility.yul\":5600:5606   */\n      0x00\n        /* \"#utility.yul\":5634:5639   */\n      dup2\n        /* \"#utility.yul\":5628:5640   */\n      mload\n        /* \"#utility.yul\":5618:5640   */\n      swap1\n      pop\n        /* \"#utility.yul\":5523:5647   */\n      swap2\n      swap1\n      pop\n      jump\t// out\n        /* \"#utility.yul\":5653:5847   */\n    tag_311:\n        /* \"#utility.yul\":5762:5773   */\n      0x00\n        /* \"#utility.yul\":5796:5802   */\n      dup3\n        /* \"#utility.yul\":5791:5794   */\n      dup3\n        /* \"#utility.yul\":5784:5803   */\n      mstore\n        /* \"#utility.yul\":5836:5840   */\n      0x20\n        /* \"#utility.yul\":5831:5834   */\n      dup3\n        /* \"#utility.yul\":5827:5841   */\n      add\n        /* \"#utility.yul\":5812:5841   */\n      swap1\n      pop\n        /* \"#utility.yul\":5653:5847   */\n      swap3\n      swap2\n      pop\n      pop\n      jump\t// out\n        /* \"#utility.yul\":5853:5995   */\n    tag_312:\n        /* \"#utility.yul\":5930:5934   */\n      0x00\n        /* \"#utility.yul\":5953:5956   */\n      dup2\n        /* \"#utility.yul\":5945:5956   */\n      swap1\n      pop\n        /* \"#utility.yul\":5983:5987   */\n      0x20\n        /* \"#utility.yul\":5978:5981   */\n      dup3\n        /* \"#utility.yul\":5974:5988   */\n      add\n        /* \"#utility.yul\":5966:5988   */\n      swap1\n      pop\n        /* \"#utility.yul\":5853:5995   */\n      swap2\n      swap1\n      pop\n      jump\t// out\n        /* \"#utility.yul\":6001:6160   */\n    tag_313:\n        /* \"#utility.yul\":6075:6086   */\n      0x00\n        /* \"#utility.yul\":6109:6115   */\n      dup3\n        /* \"#utility.yul\":6104:6107   */\n      dup3\n        /* \"#utility.yul\":6097:6116   */\n      mstore\n        /* \"#utility.yul\":6149:6153   */\n      0x20\n        /* \"#utility.yul\":6144:6147   */\n      dup3\n        /* \"#utility.yul\":6140:6154   */\n      add\n        /* \"#utility.yul\":6125:6154   */\n      swap1\n      pop\n        /* \"#utility.yul\":6001:6160   */\n      swap3\n      swap2\n      pop\n      pop\n      jump\t// out\n        /* \"#utility.yul\":6166:6523   */\n    tag_314:\n        /* \"#utility.yul\":6244:6247   */\n      0x00\n        /* \"#utility.yul\":6272:6311   */\n      tag_443\n        /* \"#utility.yul\":6305:6310   */\n      dup3\n        /* \"#utility.yul\":6272:6311   */\n      tag_290\n      jump\t// in\n    tag_443:\n        /* \"#utility.yul\":6327:6388   */\n      tag_444\n        /* \"#utility.yul\":6381:6387   */\n      dup2\n        /* \"#utility.yul\":6376:6379   */\n      dup6\n        /* \"#utility.yul\":6327:6388   */\n      tag_313\n      jump\t// in\n    tag_444:\n        /* \"#utility.yul\":6320:6388   */\n      swap4\n      pop\n        /* \"#utility.yul\":6397:6462   */\n      tag_445\n        /* \"#utility.yul\":6455:6461   */\n      dup2\n        /* \"#utility.yul\":6450:6453   */\n      dup6\n        /* \"#utility.yul\":6443:6447   */\n      0x20\n        /* \"#utility.yul\":6436:6441   */\n      dup7\n        /* \"#utility.yul\":6432:6448   */\n      add\n        /* \"#utility.yul\":6397:6462   */\n      tag_292\n      jump\t// in\n    tag_445:\n        /* \"#utility.yul\":6487:6516   */\n      tag_446\n        /* \"#utility.yul\":6509:6515   */\n      dup2\n        /* \"#utility.yul\":6487:6516   */\n      tag_293\n      jump\t// in\n    tag_446:\n        /* \"#utility.yul\":6482:6485   */\n      dup5\n        /* \"#utility.yul\":6478:6517   */\n      add\n        /* \"#utility.yul\":6471:6517   */\n      swap2\n      pop\n        /* \"#utility.yul\":6248:6523   */\n      pop\n        /* \"#utility.yul\":6166:6523   */\n      swap3\n      swap2\n      pop\n      pop\n      jump\t// out\n        /* \"#utility.yul\":6529:6725   */\n    tag_315:\n        /* \"#utility.yul\":6618:6628   */\n      0x00\n        /* \"#utility.yul\":6653:6719   */\n      tag_448\n        /* \"#utility.yul\":6715:6718   */\n      dup4\n        /* \"#utility.yul\":6707:6713   */\n      dup4\n        /* \"#utility.yul\":6653:6719   */\n      tag_314\n      jump\t// in\n    tag_448:\n        /* \"#utility.yul\":6639:6719   */\n      swap1\n      pop\n        /* \"#utility.yul\":6529:6725   */\n      swap3\n      swap2\n      pop\n      pop\n      jump\t// out\n        /* \"#utility.yul\":6731:6854   */\n    tag_316:\n        /* \"#utility.yul\":6811:6815   */\n      0x00\n        /* \"#utility.yul\":6843:6847   */\n      0x20\n        /* \"#utility.yul\":6838:6841   */\n      dup3\n        /* \"#utility.yul\":6834:6848   */\n      add\n        /* \"#utility.yul\":6826:6848   */\n      swap1\n      pop\n        /* \"#utility.yul\":6731:6854   */\n      swap2\n      swap1\n      pop\n      jump\t// out\n        /* \"#utility.yul\":6888:7879   */\n    tag_317:\n        /* \"#utility.yul\":7027:7030   */\n      0x00\n        /* \"#utility.yul\":7056:7120   */\n      tag_451\n        /* \"#utility.yul\":7114:7119   */\n      dup3\n        /* \"#utility.yul\":7056:7120   */\n      tag_310\n      jump\t// in\n    tag_451:\n        /* \"#utility.yul\":7136:7232   */\n      tag_452\n        /* \"#utility.yul\":7225:7231   */\n      dup2\n        /* \"#utility.yul\":7220:7223   */\n      dup6\n        /* \"#utility.yul\":7136:7232   */\n      tag_311\n      jump\t// in\n    tag_452:\n        /* \"#utility.yul\":7129:7232   */\n      swap4\n      pop\n        /* \"#utility.yul\":7258:7261   */\n      dup4\n        /* \"#utility.yul\":7303:7307   */\n      0x20\n        /* \"#utility.yul\":7295:7301   */\n      dup3\n        /* \"#utility.yul\":7291:7308   */\n      mul\n        /* \"#utility.yul\":7286:7289   */\n      dup6\n        /* \"#utility.yul\":7282:7309   */\n      add\n        /* \"#utility.yul\":7333:7399   */\n      tag_453\n        /* \"#utility.yul\":7393:7398   */\n      dup6\n        /* \"#utility.yul\":7333:7399   */\n      tag_312\n      jump\t// in\n    tag_453:\n        /* \"#utility.yul\":7422:7429   */\n      dup1\n        /* \"#utility.yul\":7453:7454   */\n      0x00\n        /* \"#utility.yul\":7438:7834   */\n    tag_454:\n        /* \"#utility.yul\":7463:7469   */\n      dup6\n        /* \"#utility.yul\":7460:7461   */\n      dup2\n        /* \"#utility.yul\":7457:7470   */\n      lt\n        /* \"#utility.yul\":7438:7834   */\n      iszero\n      tag_456\n      jumpi\n        /* \"#utility.yul\":7534:7543   */\n      dup5\n        /* \"#utility.yul\":7528:7532   */\n      dup5\n        /* \"#utility.yul\":7524:7544   */\n      sub\n        /* \"#utility.yul\":7519:7522   */\n      dup10\n        /* \"#utility.yul\":7512:7545   */\n      mstore\n        /* \"#utility.yul\":7585:7591   */\n      dup2\n        /* \"#utility.yul\":7579:7592   */\n      mload\n        /* \"#utility.yul\":7613:7697   */\n      tag_457\n        /* \"#utility.yul\":7692:7696   */\n      dup6\n        /* \"#utility.yul\":7677:7690   */\n      dup3\n        /* \"#utility.yul\":7613:7697   */\n      tag_315\n      jump\t// in\n    tag_457:\n        /* \"#utility.yul\":7605:7697   */\n      swap5\n      pop\n        /* \"#utility.yul\":7720:7790   */\n      tag_458\n        /* \"#utility.yul\":7783:7789   */\n      dup4\n        /* \"#utility.yul\":7720:7790   */\n      tag_316\n      jump\t// in\n    tag_458:\n        /* \"#utility.yul\":7710:7790   */\n      swap3\n      pop\n        /* \"#utility.yul\":7819:7823   */\n      0x20\n        /* \"#utility.yul\":7814:7817   */\n      dup11\n        /* \"#utility.yul\":7810:7824   */\n      add\n        /* \"#utility.yul\":7803:7824   */\n      swap10\n      pop\n        /* \"#utility.yul\":7498:7834   */\n      pop\n        /* \"#utility.yul\":7485:7486   */\n      0x01\n        /* \"#utility.yul\":7482:7483   */\n      dup2\n        /* \"#utility.yul\":7478:7487   */\n      add\n        /* \"#utility.yul\":7473:7487   */\n      swap1\n      pop\n        /* \"#utility.yul\":7438:7834   */\n      jump(tag_454)\n    tag_456:\n        /* \"#utility.yul\":7442:7456   */\n      pop\n        /* \"#utility.yul\":7850:7854   */\n      dup3\n        /* \"#utility.yul\":7843:7854   */\n      swap8\n      pop\n        /* \"#utility.yul\":7870:7873   */\n      dup8\n        /* \"#utility.yul\":7863:7873   */\n      swap6\n      pop\n        /* \"#utility.yul\":7032:7879   */\n      pop\n      pop\n      pop\n      pop\n      pop\n        /* \"#utility.yul\":6888:7879   */\n      swap3\n      swap2\n      pop\n      pop\n      jump\t// out\n        /* \"#utility.yul\":7885:8408   */\n    tag_78:\n        /* \"#utility.yul\":8076:8080   */\n      0x00\n        /* \"#utility.yul\":8114:8116   */\n      0x40\n        /* \"#utility.yul\":8103:8112   */\n      dup3\n        /* \"#utility.yul\":8099:8117   */\n      add\n        /* \"#utility.yul\":8091:8117   */\n      swap1\n      pop\n        /* \"#utility.yul\":8163:8172   */\n      dup2\n        /* \"#utility.yul\":8157:8161   */\n      dup2\n        /* \"#utility.yul\":8153:8173   */\n      sub\n        /* \"#utility.yul\":8149:8150   */\n      0x00\n        /* \"#utility.yul\":8138:8147   */\n      dup4\n        /* \"#utility.yul\":8134:8151   */\n      add\n        /* \"#utility.yul\":8127:8174   */\n      mstore\n        /* \"#utility.yul\":8191:8319   */\n      tag_460\n        /* \"#utility.yul\":8314:8318   */\n      dup2\n        /* \"#utility.yul\":8305:8311   */\n      dup6\n        /* \"#utility.yul\":8191:8319   */\n      tag_317\n      jump\t// in\n    tag_460:\n        /* \"#utility.yul\":8183:8319   */\n      swap1\n      pop\n        /* \"#utility.yul\":8329:8401   */\n      tag_461\n        /* \"#utility.yul\":8397:8399   */\n      0x20\n        /* \"#utility.yul\":8386:8395   */\n      dup4\n        /* \"#utility.yul\":8382:8400   */\n      add\n        /* \"#utility.yul\":8373:8379   */\n      dup5\n        /* \"#utility.yul\":8329:8401   */\n      tag_307\n      jump\t// in\n    tag_461:\n        /* \"#utility.yul\":7885:8408   */\n      swap4\n      swap3\n      pop\n      pop\n      pop\n      jump\t// out\n        /* \"#utility.yul\":8414:8532   */\n    tag_318:\n        /* \"#utility.yul\":8501:8525   */\n      tag_463\n        /* \"#utility.yul\":8519:8524   */\n      dup2\n        /* \"#utility.yul\":8501:8525   */\n      tag_299\n      jump\t// in\n    tag_463:\n        /* \"#utility.yul\":8496:8499   */\n      dup3\n        /* \"#utility.yul\":8489:8526   */\n      mstore\n        /* \"#utility.yul\":8414:8532   */\n      pop\n      pop\n      jump\t// out\n        /* \"#utility.yul\":8538:8760   */\n    tag_82:\n        /* \"#utility.yul\":8631:8635   */\n      0x00\n        /* \"#utility.yul\":8669:8671   */\n      0x20\n        /* \"#utility.yul\":8658:8667   */\n      dup3\n        /* \"#utility.yul\":8654:8672   */\n      add\n        /* \"#utility.yul\":8646:8672   */\n      swap1\n      pop\n        /* \"#utility.yul\":8682:8753   */\n      tag_465\n        /* \"#utility.yul\":8750:8751   */\n      0x00\n        /* \"#utility.yul\":8739:8748   */\n      dup4\n        /* \"#utility.yul\":8735:8752   */\n      add\n        /* \"#utility.yul\":8726:8732   */\n      dup5\n        /* \"#utility.yul\":8682:8753   */\n      tag_318\n      jump\t// in\n    tag_465:\n        /* \"#utility.yul\":8538:8760   */\n      swap3\n      swap2\n      pop\n      pop\n      jump\t// out\n        /* \"#utility.yul\":8766:9240   */\n    tag_102:\n        /* \"#utility.yul\":8834:8840   */\n      0x00\n        /* \"#utility.yul\":8842:8848   */\n      dup1\n        /* \"#utility.yul\":8891:8893   */\n      0x40\n        /* \"#utility.yul\":8879:8888   */\n      dup4\n        /* \"#utility.yul\":8870:8877   */\n      dup6\n        /* \"#utility.yul\":8866:8889   */\n      sub\n        /* \"#utility.yul\":8862:8894   */\n      slt\n        /* \"#utility.yul\":8859:8978   */\n      iszero\n      tag_467\n      jumpi\n        /* \"#utility.yul\":8897:8976   */\n      tag_468\n      tag_296\n      jump\t// in\n    tag_468:\n        /* \"#utility.yul\":8859:8978   */\n    tag_467:\n        /* \"#utility.yul\":9017:9018   */\n      0x00\n        /* \"#utility.yul\":9042:9095   */\n      tag_469\n        /* \"#utility.yul\":9087:9094   */\n      dup6\n        /* \"#utility.yul\":9078:9084   */\n      dup3\n        /* \"#utility.yul\":9067:9076   */\n      dup7\n        /* \"#utility.yul\":9063:9085   */\n      add\n        /* \"#utility.yul\":9042:9095   */\n      tag_301\n      jump\t// in\n    tag_469:\n        /* \"#utility.yul\":9032:9095   */\n      swap3\n      pop\n        /* \"#utility.yul\":8988:9105   */\n      pop\n        /* \"#utility.yul\":9144:9146   */\n      0x20\n        /* \"#utility.yul\":9170:9223   */\n      tag_470\n        /* \"#utility.yul\":9215:9222   */\n      dup6\n        /* \"#utility.yul\":9206:9212   */\n      dup3\n        /* \"#utility.yul\":9195:9204   */\n      dup7\n        /* \"#utility.yul\":9191:9213   */\n      add\n        /* \"#utility.yul\":9170:9223   */\n      tag_301\n      jump\t// in\n    tag_470:\n        /* \"#utility.yul\":9160:9223   */\n      swap2\n      pop\n        /* \"#utility.yul\":9115:9233   */\n      pop\n        /* \"#utility.yul\":8766:9240   */\n      swap3\n      pop\n      swap3\n      swap1\n      pop\n      jump\t// out\n        /* \"#utility.yul\":9246:9426   */\n    tag_319:\n        /* \"#utility.yul\":9294:9371   */\n      0x4e487b7100000000000000000000000000000000000000000000000000000000\n        /* \"#utility.yul\":9291:9292   */\n      0x00\n        /* \"#utility.yul\":9284:9372   */\n      mstore\n        /* \"#utility.yul\":9391:9395   */\n      0x22\n        /* \"#utility.yul\":9388:9389   */\n      0x04\n        /* \"#utility.yul\":9381:9396   */\n      mstore\n        /* \"#utility.yul\":9415:9419   */\n      0x24\n        /* \"#utility.yul\":9412:9413   */\n      0x00\n        /* \"#utility.yul\":9405:9420   */\n      revert\n        /* \"#utility.yul\":9432:9752   */\n    tag_110:\n        /* \"#utility.yul\":9476:9482   */\n      0x00\n        /* \"#utility.yul\":9513:9514   */\n      0x02\n        /* \"#utility.yul\":9507:9511   */\n      dup3\n        /* \"#utility.yul\":9503:9515   */\n      div\n        /* \"#utility.yul\":9493:9515   */\n      swap1\n      pop\n        /* \"#utility.yul\":9560:9561   */\n      0x01\n        /* \"#utility.yul\":9554:9558   */\n      dup3\n        /* \"#utility.yul\":9550:9562   */\n      and\n        /* \"#utility.yul\":9581:9599   */\n      dup1\n        /* \"#utility.yul\":9571:9652   */\n      tag_473\n      jumpi\n        /* \"#utility.yul\":9637:9641   */\n      0x7f\n        /* \"#utility.yul\":9629:9635   */\n      dup3\n        /* \"#utility.yul\":9625:9642   */\n      and\n        /* \"#utility.yul\":9615:9642   */\n      swap2\n      pop\n        /* \"#utility.yul\":9571:9652   */\n    tag_473:\n        /* \"#utility.yul\":9699:9701   */\n      0x20\n        /* \"#utility.yul\":9691:9697   */\n      dup3\n        /* \"#utility.yul\":9688:9702   */\n      lt\n        /* \"#utility.yul\":9668:9686   */\n      dup2\n        /* \"#utility.yul\":9665:9703   */\n      sub\n        /* \"#utility.yul\":9662:9746   */\n      tag_474\n      jumpi\n        /* \"#utility.yul\":9718:9736   */\n      tag_475\n      tag_319\n      jump\t// in\n    tag_475:\n        /* \"#utility.yul\":9662:9746   */\n    tag_474:\n        /* \"#utility.yul\":9483:9752   */\n      pop\n        /* \"#utility.yul\":9432:9752   */\n      swap2\n      swap1\n      pop\n      jump\t// out\n        /* \"#utility.yul\":9758:9938   */\n    tag_320:\n        /* \"#utility.yul\":9806:9883   */\n      0x4e487b7100000000000000000000000000000000000000000000000000000000\n        /* \"#utility.yul\":9803:9804   */\n      0x00\n        /* \"#utility.yul\":9796:9884   */\n      mstore\n        /* \"#utility.yul\":9903:9907   */\n      0x11\n        /* \"#utility.yul\":9900:9901   */\n      0x04\n        /* \"#utility.yul\":9893:9908   */\n      mstore\n        /* \"#utility.yul\":9927:9931   */\n      0x24\n        /* \"#utility.yul\":9924:9925   */\n      0x00\n        /* \"#utility.yul\":9917:9932   */\n      revert\n        /* \"#utility.yul\":9944:10135   */\n    tag_134:\n        /* \"#utility.yul\":9984:9987   */\n      0x00\n        /* \"#utility.yul\":10003:10023   */\n      tag_478\n        /* \"#utility.yul\":10021:10022   */\n      dup3\n        /* \"#utility.yul\":10003:10023   */\n      tag_302\n      jump\t// in\n    tag_478:\n        /* \"#utility.yul\":9998:10023   */\n      swap2\n      pop\n        /* \"#utility.yul\":10037:10057   */\n      tag_479\n        /* \"#utility.yul\":10055:10056   */\n      dup4\n        /* \"#utility.yul\":10037:10057   */\n      tag_302\n      jump\t// in\n    tag_479:\n        /* \"#utility.yul\":10032:10057   */\n      swap3\n      pop\n        /* \"#utility.yul\":10080:10081   */\n      dup3\n        /* \"#utility.yul\":10077:10078   */\n      dup3\n        /* \"#utility.yul\":10073:10082   */\n      add\n        /* \"#utility.yul\":10066:10082   */\n      swap1\n      pop\n        /* \"#utility.yul\":10101:10104   */\n      dup1\n        /* \"#utility.yul\":10098:10099   */\n      dup3\n        /* \"#utility.yul\":10095:10105   */\n      gt\n        /* \"#utility.yul\":10092:10128   */\n      iszero\n      tag_480\n      jumpi\n        /* \"#utility.yul\":10108:10126   */\n      tag_481\n      tag_320\n      jump\t// in\n    tag_481:\n        /* \"#utility.yul\":10092:10128   */\n    tag_480:\n        /* \"#utility.yul\":9944:10135   */\n      swap3\n      swap2\n      pop\n      pop\n      jump\t// out\n        /* \"#utility.yul\":10141:10320   */\n    tag_321:\n        /* \"#utility.yul\":10281:10312   */\n      0x596f7520646f6e2774206861766520656e6f75676820746f6b656e7321000000\n        /* \"#utility.yul\":10277:10278   */\n      0x00\n        /* \"#utility.yul\":10269:10275   */\n      dup3\n        /* \"#utility.yul\":10265:10279   */\n      add\n        /* \"#utility.yul\":10258:10313   */\n      mstore\n        /* \"#utility.yul\":10141:10320   */\n      pop\n      jump\t// out\n        /* \"#utility.yul\":10326:10692   */\n    tag_322:\n        /* \"#utility.yul\":10468:10471   */\n      0x00\n        /* \"#utility.yul\":10489:10556   */\n      tag_484\n        /* \"#utility.yul\":10553:10555   */\n      0x1d\n        /* \"#utility.yul\":10548:10551   */\n      dup4\n        /* \"#utility.yul\":10489:10556   */\n      tag_291\n      jump\t// in\n    tag_484:\n        /* \"#utility.yul\":10482:10556   */\n      swap2\n      pop\n        /* \"#utility.yul\":10565:10658   */\n      tag_485\n        /* \"#utility.yul\":10654:10657   */\n      dup3\n        /* \"#utility.yul\":10565:10658   */\n      tag_321\n      jump\t// in\n    tag_485:\n        /* \"#utility.yul\":10683:10685   */\n      0x20\n        /* \"#utility.yul\":10678:10681   */\n      dup3\n        /* \"#utility.yul\":10674:10686   */\n      add\n        /* \"#utility.yul\":10667:10686   */\n      swap1\n      pop\n        /* \"#utility.yul\":10326:10692   */\n      swap2\n      swap1\n      pop\n      jump\t// out\n        /* \"#utility.yul\":10698:11117   */\n    tag_146:\n        /* \"#utility.yul\":10864:10868   */\n      0x00\n        /* \"#utility.yul\":10902:10904   */\n      0x20\n        /* \"#utility.yul\":10891:10900   */\n      dup3\n        /* \"#utility.yul\":10887:10905   */\n      add\n        /* \"#utility.yul\":10879:10905   */\n      swap1\n      pop\n        /* \"#utility.yul\":10951:10960   */\n      dup2\n        /* \"#utility.yul\":10945:10949   */\n      dup2\n        /* \"#utility.yul\":10941:10961   */\n      sub\n        /* \"#utility.yul\":10937:10938   */\n      0x00\n        /* \"#utility.yul\":10926:10935   */\n      dup4\n        /* \"#utility.yul\":10922:10939   */\n      add\n        /* \"#utility.yul\":10915:10962   */\n      mstore\n        /* \"#utility.yul\":10979:11110   */\n      tag_487\n        /* \"#utility.yul\":11105:11109   */\n      dup2\n        /* \"#utility.yul\":10979:11110   */\n      tag_322\n      jump\t// in\n    tag_487:\n        /* \"#utility.yul\":10971:11110   */\n      swap1\n      pop\n        /* \"#utility.yul\":10698:11117   */\n      swap2\n      swap1\n      pop\n      jump\t// out\n        /* \"#utility.yul\":11123:11345   */\n    tag_323:\n        /* \"#utility.yul\":11263:11297   */\n      0x4e6f2070757263686173657320666f756e6420666f7220746869732061646472\n        /* \"#utility.yul\":11259:11260   */\n      0x00\n        /* \"#utility.yul\":11251:11257   */\n      dup3\n        /* \"#utility.yul\":11247:11261   */\n      add\n        /* \"#utility.yul\":11240:11298   */\n      mstore\n        /* \"#utility.yul\":11332:11337   */\n      0x6573730000000000000000000000000000000000000000000000000000000000\n        /* \"#utility.yul\":11327:11329   */\n      0x20\n        /* \"#utility.yul\":11319:11325   */\n      dup3\n        /* \"#utility.yul\":11315:11330   */\n      add\n        /* \"#utility.yul\":11308:11338   */\n      mstore\n        /* \"#utility.yul\":11123:11345   */\n      pop\n      jump\t// out\n        /* \"#utility.yul\":11351:11717   */\n    tag_324:\n        /* \"#utility.yul\":11493:11496   */\n      0x00\n        /* \"#utility.yul\":11514:11581   */\n      tag_490\n        /* \"#utility.yul\":11578:11580   */\n      0x23\n        /* \"#utility.yul\":11573:11576   */\n      dup4\n        /* \"#utility.yul\":11514:11581   */\n      tag_291\n      jump\t// in\n    tag_490:\n        /* \"#utility.yul\":11507:11581   */\n      swap2\n      pop\n        /* \"#utility.yul\":11590:11683   */\n      tag_491\n        /* \"#utility.yul\":11679:11682   */\n      dup3\n        /* \"#utility.yul\":11590:11683   */\n      tag_323\n      jump\t// in\n    tag_491:\n        /* \"#utility.yul\":11708:11710   */\n      0x40\n        /* \"#utility.yul\":11703:11706   */\n      dup3\n        /* \"#utility.yul\":11699:11711   */\n      add\n        /* \"#utility.yul\":11692:11711   */\n      swap1\n      pop\n        /* \"#utility.yul\":11351:11717   */\n      swap2\n      swap1\n      pop\n      jump\t// out\n        /* \"#utility.yul\":11723:12142   */\n    tag_158:\n        /* \"#utility.yul\":11889:11893   */\n      0x00\n        /* \"#utility.yul\":11927:11929   */\n      0x20\n        /* \"#utility.yul\":11916:11925   */\n      dup3\n        /* \"#utility.yul\":11912:11930   */\n      add\n        /* \"#utility.yul\":11904:11930   */\n      swap1\n      pop\n        /* \"#utility.yul\":11976:11985   */\n      dup2\n        /* \"#utility.yul\":11970:11974   */\n      dup2\n        /* \"#utility.yul\":11966:11986   */\n      sub\n        /* \"#utility.yul\":11962:11963   */\n      0x00\n        /* \"#utility.yul\":11951:11960   */\n      dup4\n        /* \"#utility.yul\":11947:11964   */\n      add\n        /* \"#utility.yul\":11940:11987   */\n      mstore\n        /* \"#utility.yul\":12004:12135   */\n      tag_493\n        /* \"#utility.yul\":12130:12134   */\n      dup2\n        /* \"#utility.yul\":12004:12135   */\n      tag_324\n      jump\t// in\n    tag_493:\n        /* \"#utility.yul\":11996:12135   */\n      swap1\n      pop\n        /* \"#utility.yul\":11723:12142   */\n      swap2\n      swap1\n      pop\n      jump\t// out\n        /* \"#utility.yul\":12148:12372   */\n    tag_325:\n        /* \"#utility.yul\":12288:12322   */\n      0x45524332303a2064656372656173656420616c6c6f77616e63652062656c6f77\n        /* \"#utility.yul\":12284:12285   */\n      0x00\n        /* \"#utility.yul\":12276:12282   */\n      dup3\n        /* \"#utility.yul\":12272:12286   */\n      add\n        /* \"#utility.yul\":12265:12323   */\n      mstore\n        /* \"#utility.yul\":12357:12364   */\n      0x207a65726f000000000000000000000000000000000000000000000000000000\n        /* \"#utility.yul\":12352:12354   */\n      0x20\n        /* \"#utility.yul\":12344:12350   */\n      dup3\n        /* \"#utility.yul\":12340:12355   */\n      add\n        /* \"#utility.yul\":12333:12365   */\n      mstore\n        /* \"#utility.yul\":12148:12372   */\n      pop\n      jump\t// out\n        /* \"#utility.yul\":12378:12744   */\n    tag_326:\n        /* \"#utility.yul\":12520:12523   */\n      0x00\n        /* \"#utility.yul\":12541:12608   */\n      tag_496\n        /* \"#utility.yul\":12605:12607   */\n      0x25\n        /* \"#utility.yul\":12600:12603   */\n      dup4\n        /* \"#utility.yul\":12541:12608   */\n      tag_291\n      jump\t// in\n    tag_496:\n        /* \"#utility.yul\":12534:12608   */\n      swap2\n      pop\n        /* \"#utility.yul\":12617:12710   */\n      tag_497\n        /* \"#utility.yul\":12706:12709   */\n      dup3\n        /* \"#utility.yul\":12617:12710   */\n      tag_325\n      jump\t// in\n    tag_497:\n        /* \"#utility.yul\":12735:12737   */\n      0x40\n        /* \"#utility.yul\":12730:12733   */\n      dup3\n        /* \"#utility.yul\":12726:12738   */\n      add\n        /* \"#utility.yul\":12719:12738   */\n      swap1\n      pop\n        /* \"#utility.yul\":12378:12744   */\n      swap2\n      swap1\n      pop\n      jump\t// out\n        /* \"#utility.yul\":12750:13169   */\n    tag_178:\n        /* \"#utility.yul\":12916:12920   */\n      0x00\n        /* \"#utility.yul\":12954:12956   */\n      0x20\n        /* \"#utility.yul\":12943:12952   */\n      dup3\n        /* \"#utility.yul\":12939:12957   */\n      add\n        /* \"#utility.yul\":12931:12957   */\n      swap1\n      pop\n        /* \"#utility.yul\":13003:13012   */\n      dup2\n        /* \"#utility.yul\":12997:13001   */\n      dup2\n        /* \"#utility.yul\":12993:13013   */\n      sub\n        /* \"#utility.yul\":12989:12990   */\n      0x00\n        /* \"#utility.yul\":12978:12987   */\n      dup4\n        /* \"#utility.yul\":12974:12991   */\n      add\n        /* \"#utility.yul\":12967:13014   */\n      mstore\n        /* \"#utility.yul\":13031:13162   */\n      tag_499\n        /* \"#utility.yul\":13157:13161   */\n      dup2\n        /* \"#utility.yul\":13031:13162   */\n      tag_326\n      jump\t// in\n    tag_499:\n        /* \"#utility.yul\":13023:13162   */\n      swap1\n      pop\n        /* \"#utility.yul\":12750:13169   */\n      swap2\n      swap1\n      pop\n      jump\t// out\n        /* \"#utility.yul\":13175:13347   */\n    tag_327:\n        /* \"#utility.yul\":13315:13339   */\n      0x57726f6e67206f7074696f6e2073656c65637465642100000000000000000000\n        /* \"#utility.yul\":13311:13312   */\n      0x00\n        /* \"#utility.yul\":13303:13309   */\n      dup3\n        /* \"#utility.yul\":13299:13313   */\n      add\n        /* \"#utility.yul\":13292:13340   */\n      mstore\n        /* \"#utility.yul\":13175:13347   */\n      pop\n      jump\t// out\n        /* \"#utility.yul\":13353:13719   */\n    tag_328:\n        /* \"#utility.yul\":13495:13498   */\n      0x00\n        /* \"#utility.yul\":13516:13583   */\n      tag_502\n        /* \"#utility.yul\":13580:13582   */\n      0x16\n        /* \"#utility.yul\":13575:13578   */\n      dup4\n        /* \"#utility.yul\":13516:13583   */\n      tag_291\n      jump\t// in\n    tag_502:\n        /* \"#utility.yul\":13509:13583   */\n      swap2\n      pop\n        /* \"#utility.yul\":13592:13685   */\n      tag_503\n        /* \"#utility.yul\":13681:13684   */\n      dup3\n        /* \"#utility.yul\":13592:13685   */\n      tag_327\n      jump\t// in\n    tag_503:\n        /* \"#utility.yul\":13710:13712   */\n      0x20\n        /* \"#utility.yul\":13705:13708   */\n      dup3\n        /* \"#utility.yul\":13701:13713   */\n      add\n        /* \"#utility.yul\":13694:13713   */\n      swap1\n      pop\n        /* \"#utility.yul\":13353:13719   */\n      swap2\n      swap1\n      pop\n      jump\t// out\n        /* \"#utility.yul\":13725:14144   */\n    tag_183:\n        /* \"#utility.yul\":13891:13895   */\n      0x00\n        /* \"#utility.yul\":13929:13931   */\n      0x20\n        /* \"#utility.yul\":13918:13927   */\n      dup3\n        /* \"#utility.yul\":13914:13932   */\n      add\n        /* \"#utility.yul\":13906:13932   */\n      swap1\n      pop\n        /* \"#utility.yul\":13978:13987   */\n      dup2\n        /* \"#utility.yul\":13972:13976   */\n      dup2\n        /* \"#utility.yul\":13968:13988   */\n      sub\n        /* \"#utility.yul\":13964:13965   */\n      0x00\n        /* \"#utility.yul\":13953:13962   */\n      dup4\n        /* \"#utility.yul\":13949:13966   */\n      add\n        /* \"#utility.yul\":13942:13989   */\n      mstore\n        /* \"#utility.yul\":14006:14137   */\n      tag_505\n        /* \"#utility.yul\":14132:14136   */\n      dup2\n        /* \"#utility.yul\":14006:14137   */\n      tag_328\n      jump\t// in\n    tag_505:\n        /* \"#utility.yul\":13998:14137   */\n      swap1\n      pop\n        /* \"#utility.yul\":13725:14144   */\n      swap2\n      swap1\n      pop\n      jump\t// out\n        /* \"#utility.yul\":14150:14325   */\n    tag_329:\n        /* \"#utility.yul\":14290:14317   */\n      0x4f6f70732120496e73756666696369656e7420546f6b656e7300000000000000\n        /* \"#utility.yul\":14286:14287   */\n      0x00\n        /* \"#utility.yul\":14278:14284   */\n      dup3\n        /* \"#utility.yul\":14274:14288   */\n      add\n        /* \"#utility.yul\":14267:14318   */\n      mstore\n        /* \"#utility.yul\":14150:14325   */\n      pop\n      jump\t// out\n        /* \"#utility.yul\":14331:14697   */\n    tag_330:\n        /* \"#utility.yul\":14473:14476   */\n      0x00\n        /* \"#utility.yul\":14494:14561   */\n      tag_508\n        /* \"#utility.yul\":14558:14560   */\n      0x19\n        /* \"#utility.yul\":14553:14556   */\n      dup4\n        /* \"#utility.yul\":14494:14561   */\n      tag_291\n      jump\t// in\n    tag_508:\n        /* \"#utility.yul\":14487:14561   */\n      swap2\n      pop\n        /* \"#utility.yul\":14570:14663   */\n      tag_509\n        /* \"#utility.yul\":14659:14662   */\n      dup3\n        /* \"#utility.yul\":14570:14663   */\n      tag_329\n      jump\t// in\n    tag_509:\n        /* \"#utility.yul\":14688:14690   */\n      0x20\n        /* \"#utility.yul\":14683:14686   */\n      dup3\n        /* \"#utility.yul\":14679:14691   */\n      add\n        /* \"#utility.yul\":14672:14691   */\n      swap1\n      pop\n        /* \"#utility.yul\":14331:14697   */\n      swap2\n      swap1\n      pop\n      jump\t// out\n        /* \"#utility.yul\":14703:15122   */\n    tag_188:\n        /* \"#utility.yul\":14869:14873   */\n      0x00\n        /* \"#utility.yul\":14907:14909   */\n      0x20\n        /* \"#utility.yul\":14896:14905   */\n      dup3\n        /* \"#utility.yul\":14892:14910   */\n      add\n        /* \"#utility.yul\":14884:14910   */\n      swap1\n      pop\n        /* \"#utility.yul\":14956:14965   */\n      dup2\n        /* \"#utility.yul\":14950:14954   */\n      dup2\n        /* \"#utility.yul\":14946:14966   */\n      sub\n        /* \"#utility.yul\":14942:14943   */\n      0x00\n        /* \"#utility.yul\":14931:14940   */\n      dup4\n        /* \"#utility.yul\":14927:14944   */\n      add\n        /* \"#utility.yul\":14920:14967   */\n      mstore\n        /* \"#utility.yul\":14984:15115   */\n      tag_511\n        /* \"#utility.yul\":15110:15114   */\n      dup2\n        /* \"#utility.yul\":14984:15115   */\n      tag_330\n      jump\t// in\n    tag_511:\n        /* \"#utility.yul\":14976:15115   */\n      swap1\n      pop\n        /* \"#utility.yul\":14703:15122   */\n      swap2\n      swap1\n      pop\n      jump\t// out\n        /* \"#utility.yul\":15128:15308   */\n    tag_331:\n        /* \"#utility.yul\":15176:15253   */\n      0x4e487b7100000000000000000000000000000000000000000000000000000000\n        /* \"#utility.yul\":15173:15174   */\n      0x00\n        /* \"#utility.yul\":15166:15254   */\n      mstore\n        /* \"#utility.yul\":15273:15277   */\n      0x41\n        /* \"#utility.yul\":15270:15271   */\n      0x04\n        /* \"#utility.yul\":15263:15278   */\n      mstore\n        /* \"#utility.yul\":15297:15301   */\n      0x24\n        /* \"#utility.yul\":15294:15295   */\n      0x00\n        /* \"#utility.yul\":15287:15302   */\n      revert\n        /* \"#utility.yul\":15314:15455   */\n    tag_332:\n        /* \"#utility.yul\":15363:15367   */\n      0x00\n        /* \"#utility.yul\":15386:15389   */\n      dup2\n        /* \"#utility.yul\":15378:15389   */\n      swap1\n      pop\n        /* \"#utility.yul\":15409:15412   */\n      dup2\n        /* \"#utility.yul\":15406:15407   */\n      0x00\n        /* \"#utility.yul\":15399:15413   */\n      mstore\n        /* \"#utility.yul\":15443:15447   */\n      0x20\n        /* \"#utility.yul\":15440:15441   */\n      0x00\n        /* \"#utility.yul\":15430:15448   */\n      keccak256\n        /* \"#utility.yul\":15422:15448   */\n      swap1\n      pop\n        /* \"#utility.yul\":15314:15455   */\n      swap2\n      swap1\n      pop\n      jump\t// out\n        /* \"#utility.yul\":15461:15554   */\n    tag_333:\n        /* \"#utility.yul\":15498:15504   */\n      0x00\n        /* \"#utility.yul\":15545:15547   */\n      0x20\n        /* \"#utility.yul\":15540:15542   */\n      0x1f\n        /* \"#utility.yul\":15533:15538   */\n      dup4\n        /* \"#utility.yul\":15529:15543   */\n      add\n        /* \"#utility.yul\":15525:15548   */\n      div\n        /* \"#utility.yul\":15515:15548   */\n      swap1\n      pop\n        /* \"#utility.yul\":15461:15554   */\n      swap2\n      swap1\n      pop\n      jump\t// out\n        /* \"#utility.yul\":15560:15667   */\n    tag_334:\n        /* \"#utility.yul\":15604:15612   */\n      0x00\n        /* \"#utility.yul\":15654:15659   */\n      dup3\n        /* \"#utility.yul\":15648:15652   */\n      dup3\n        /* \"#utility.yul\":15644:15660   */\n      shl\n        /* \"#utility.yul\":15623:15660   */\n      swap1\n      pop\n        /* \"#utility.yul\":15560:15667   */\n      swap3\n      swap2\n      pop\n      pop\n      jump\t// out\n        /* \"#utility.yul\":15673:16066   */\n    tag_335:\n        /* \"#utility.yul\":15742:15748   */\n      0x00\n        /* \"#utility.yul\":15792:15793   */\n      0x08\n        /* \"#utility.yul\":15780:15790   */\n      dup4\n        /* \"#utility.yul\":15776:15794   */\n      mul\n        /* \"#utility.yul\":15815:15912   */\n      tag_517\n        /* \"#utility.yul\":15845:15911   */\n      0xffffffffffffffffffffffffffffffffffffffffffffffffffffffffffffffff\n        /* \"#utility.yul\":15834:15843   */\n      dup3\n        /* \"#utility.yul\":15815:15912   */\n      tag_334\n      jump\t// in\n    tag_517:\n        /* \"#utility.yul\":15933:15972   */\n      tag_518\n        /* \"#utility.yul\":15963:15971   */\n      dup7\n        /* \"#utility.yul\":15952:15961   */\n      dup4\n        /* \"#utility.yul\":15933:15972   */\n      tag_334\n      jump\t// in\n    tag_518:\n        /* \"#utility.yul\":15921:15972   */\n      swap6\n      pop\n        /* \"#utility.yul\":16005:16009   */\n      dup1\n        /* \"#utility.yul\":16001:16010   */\n      not\n        /* \"#utility.yul\":15994:15999   */\n      dup5\n        /* \"#utility.yul\":15990:16011   */\n      and\n        /* \"#utility.yul\":15981:16011   */\n      swap4\n      pop\n        /* \"#utility.yul\":16054:16058   */\n      dup1\n        /* \"#utility.yul\":16044:16052   */\n      dup7\n        /* \"#utility.yul\":16040:16059   */\n      and\n        /* \"#utility.yul\":16033:16038   */\n      dup5\n        /* \"#utility.yul\":16030:16060   */\n      or\n        /* \"#utility.yul\":16020:16060   */\n      swap3\n      pop\n        /* \"#utility.yul\":15749:16066   */\n      pop\n      pop\n        /* \"#utility.yul\":15673:16066   */\n      swap4\n      swap3\n      pop\n      pop\n      pop\n      jump\t// out\n        /* \"#utility.yul\":16072:16132   */\n    tag_336:\n        /* \"#utility.yul\":16100:16103   */\n      0x00\n        /* \"#utility.yul\":16121:16126   */\n      dup2\n        /* \"#utility.yul\":16114:16126   */\n      swap1\n      pop\n        /* \"#utility.yul\":16072:16132   */\n      swap2\n      swap1\n      pop\n      jump\t// out\n        /* \"#utility.yul\":16138:16280   */\n    tag_337:\n        /* \"#utility.yul\":16188:16197   */\n      0x00\n        /* \"#utility.yul\":16221:16274   */\n      tag_521\n        /* \"#utility.yul\":16239:16273   */\n      tag_522\n        /* \"#utility.yul\":16248:16272   */\n      tag_523\n        /* \"#utility.yul\":16266:16271   */\n      dup5\n        /* \"#utility.yul\":16248:16272   */\n      tag_302\n      jump\t// in\n    tag_523:\n        /* \"#utility.yul\":16239:16273   */\n      tag_336\n      jump\t// in\n    tag_522:\n        /* \"#utility.yul\":16221:16274   */\n      tag_302\n      jump\t// in\n    tag_521:\n        /* \"#utility.yul\":16208:16274   */\n      swap1\n      pop\n        /* \"#utility.yul\":16138:16280   */\n      swap2\n      swap1\n      pop\n      jump\t// out\n        /* \"#utility.yul\":16286:16361   */\n    tag_338:\n        /* \"#utility.yul\":16329:16332   */\n      0x00\n        /* \"#utility.yul\":16350:16355   */\n      dup2\n        /* \"#utility.yul\":16343:16355   */\n      swap1\n      pop\n        /* \"#utility.yul\":16286:16361   */\n      swap2\n      swap1\n      pop\n      jump\t// out\n        /* \"#utility.yul\":16367:16636   */\n    tag_339:\n        /* \"#utility.yul\":16477:16516   */\n      tag_526\n        /* \"#utility.yul\":16508:16515   */\n      dup4\n        /* \"#utility.yul\":16477:16516   */\n      tag_337\n      jump\t// in\n    tag_526:\n        /* \"#utility.yul\":16538:16629   */\n      tag_527\n        /* \"#utility.yul\":16587:16628   */\n      tag_528\n        /* \"#utility.yul\":16611:16627   */\n      dup3\n        /* \"#utility.yul\":16587:16628   */\n      tag_338\n      jump\t// in\n    tag_528:\n        /* \"#utility.yul\":16579:16585   */\n      dup5\n        /* \"#utility.yul\":16572:16576   */\n      dup5\n        /* \"#utility.yul\":16566:16577   */\n      sload\n        /* \"#utility.yul\":16538:16629   */\n      tag_335\n      jump\t// in\n    tag_527:\n        /* \"#utility.yul\":16532:16536   */\n      dup3\n        /* \"#utility.yul\":16525:16630   */\n      sstore\n        /* \"#utility.yul\":16443:16636   */\n      pop\n        /* \"#utility.yul\":16367:16636   */\n      pop\n      pop\n      pop\n      jump\t// out\n        /* \"#utility.yul\":16642:16715   */\n    tag_340:\n        /* \"#utility.yul\":16687:16690   */\n      0x00\n        /* \"#utility.yul\":16642:16715   */\n      swap1\n      jump\t// out\n        /* \"#utility.yul\":16721:16910   */\n    tag_341:\n        /* \"#utility.yul\":16798:16830   */\n      tag_531\n      tag_340\n      jump\t// in\n    tag_531:\n        /* \"#utility.yul\":16839:16904   */\n      tag_532\n        /* \"#utility.yul\":16897:16903   */\n      dup2\n        /* \"#utility.yul\":16889:16895   */\n      dup5\n        /* \"#utility.yul\":16883:16887   */\n      dup5\n        /* \"#utility.yul\":16839:16904   */\n      tag_339\n      jump\t// in\n    tag_532:\n        /* \"#utility.yul\":16774:16910   */\n      pop\n        /* \"#utility.yul\":16721:16910   */\n      pop\n      pop\n      jump\t// out\n        /* \"#utility.yul\":16916:17102   */\n    tag_342:\n        /* \"#utility.yul\":16976:17096   */\n    tag_534:\n        /* \"#utility.yul\":16993:16996   */\n      dup2\n        /* \"#utility.yul\":16986:16991   */\n      dup2\n        /* \"#utility.yul\":16983:16997   */\n      lt\n        /* \"#utility.yul\":16976:17096   */\n      iszero\n      tag_536\n      jumpi\n        /* \"#utility.yul\":17047:17086   */\n      tag_537\n        /* \"#utility.yul\":17084:17085   */\n      0x00\n        /* \"#utility.yul\":17077:17082   */\n      dup3\n        /* \"#utility.yul\":17047:17086   */\n      tag_341\n      jump\t// in\n    tag_537:\n        /* \"#utility.yul\":17020:17021   */\n      0x01\n        /* \"#utility.yul\":17013:17018   */\n      dup2\n        /* \"#utility.yul\":17009:17022   */\n      add\n        /* \"#utility.yul\":17000:17022   */\n      swap1\n      pop\n        /* \"#utility.yul\":16976:17096   */\n      jump(tag_534)\n    tag_536:\n        /* \"#utility.yul\":16916:17102   */\n      pop\n      pop\n      jump\t// out\n        /* \"#utility.yul\":17108:17651   */\n    tag_343:\n        /* \"#utility.yul\":17209:17211   */\n      0x1f\n        /* \"#utility.yul\":17204:17207   */\n      dup3\n        /* \"#utility.yul\":17201:17212   */\n      gt\n        /* \"#utility.yul\":17198:17644   */\n      iszero\n      tag_539\n      jumpi\n        /* \"#utility.yul\":17243:17281   */\n      tag_540\n        /* \"#utility.yul\":17275:17280   */\n      dup2\n        /* \"#utility.yul\":17243:17281   */\n      tag_332\n      jump\t// in\n    tag_540:\n        /* \"#utility.yul\":17327:17356   */\n      tag_541\n        /* \"#utility.yul\":17345:17355   */\n      dup5\n        /* \"#utility.yul\":17327:17356   */\n      tag_333\n      jump\t// in\n    tag_541:\n        /* \"#utility.yul\":17317:17325   */\n      dup2\n        /* \"#utility.yul\":17313:17357   */\n      add\n        /* \"#utility.yul\":17510:17512   */\n      0x20\n        /* \"#utility.yul\":17498:17508   */\n      dup6\n        /* \"#utility.yul\":17495:17513   */\n      lt\n        /* \"#utility.yul\":17492:17541   */\n      iszero\n      tag_542\n      jumpi\n        /* \"#utility.yul\":17531:17539   */\n      dup2\n        /* \"#utility.yul\":17516:17539   */\n      swap1\n      pop\n        /* \"#utility.yul\":17492:17541   */\n    tag_542:\n        /* \"#utility.yul\":17554:17634   */\n      tag_543\n        /* \"#utility.yul\":17610:17632   */\n      tag_544\n        /* \"#utility.yul\":17628:17631   */\n      dup6\n        /* \"#utility.yul\":17610:17632   */\n      tag_333\n      jump\t// in\n    tag_544:\n        /* \"#utility.yul\":17600:17608   */\n      dup4\n        /* \"#utility.yul\":17596:17633   */\n      add\n        /* \"#utility.yul\":17583:17594   */\n      dup3\n        /* \"#utility.yul\":17554:17634   */\n      tag_342\n      jump\t// in\n    tag_543:\n        /* \"#utility.yul\":17213:17644   */\n      pop\n      pop\n        /* \"#utility.yul\":17198:17644   */\n    tag_539:\n        /* \"#utility.yul\":17108:17651   */\n      pop\n      pop\n      pop\n      jump\t// out\n        /* \"#utility.yul\":17657:17774   */\n    tag_344:\n        /* \"#utility.yul\":17711:17719   */\n      0x00\n        /* \"#utility.yul\":17761:17766   */\n      dup3\n        /* \"#utility.yul\":17755:17759   */\n      dup3\n        /* \"#utility.yul\":17751:17767   */\n      shr\n        /* \"#utility.yul\":17730:17767   */\n      swap1\n      pop\n        /* \"#utility.yul\":17657:17774   */\n      swap3\n      swap2\n      pop\n      pop\n      jump\t// out\n        /* \"#utility.yul\":17780:17949   */\n    tag_345:\n        /* \"#utility.yul\":17824:17830   */\n      0x00\n        /* \"#utility.yul\":17857:17908   */\n      tag_547\n        /* \"#utility.yul\":17905:17906   */\n      0x00\n        /* \"#utility.yul\":17901:17907   */\n      not\n        /* \"#utility.yul\":17893:17898   */\n      dup5\n        /* \"#utility.yul\":17890:17891   */\n      0x08\n        /* \"#utility.yul\":17886:17899   */\n      mul\n        /* \"#utility.yul\":17857:17908   */\n      tag_344\n      jump\t// in\n    tag_547:\n        /* \"#utility.yul\":17853:17909   */\n      not\n        /* \"#utility.yul\":17938:17942   */\n      dup1\n        /* \"#utility.yul\":17932:17936   */\n      dup4\n        /* \"#utility.yul\":17928:17943   */\n      and\n        /* \"#utility.yul\":17918:17943   */\n      swap2\n      pop\n        /* \"#utility.yul\":17831:17949   */\n      pop\n        /* \"#utility.yul\":17780:17949   */\n      swap3\n      swap2\n      pop\n      pop\n      jump\t// out\n        /* \"#utility.yul\":17954:18249   */\n    tag_346:\n        /* \"#utility.yul\":18030:18034   */\n      0x00\n        /* \"#utility.yul\":18176:18205   */\n      tag_549\n        /* \"#utility.yul\":18201:18204   */\n      dup4\n        /* \"#utility.yul\":18195:18199   */\n      dup4\n        /* \"#utility.yul\":18176:18205   */\n      tag_345\n      jump\t// in\n    tag_549:\n        /* \"#utility.yul\":18168:18205   */\n      swap2\n      pop\n        /* \"#utility.yul\":18238:18241   */\n      dup3\n        /* \"#utility.yul\":18235:18236   */\n      0x02\n        /* \"#utility.yul\":18231:18242   */\n      mul\n        /* \"#utility.yul\":18225:18229   */\n      dup3\n        /* \"#utility.yul\":18222:18243   */\n      or\n        /* \"#utility.yul\":18214:18243   */\n      swap1\n      pop\n        /* \"#utility.yul\":17954:18249   */\n      swap3\n      swap2\n      pop\n      pop\n      jump\t// out\n        /* \"#utility.yul\":18254:19649   */\n    tag_192:\n        /* \"#utility.yul\":18371:18408   */\n      tag_551\n        /* \"#utility.yul\":18404:18407   */\n      dup3\n        /* \"#utility.yul\":18371:18408   */\n      tag_290\n      jump\t// in\n    tag_551:\n        /* \"#utility.yul\":18473:18491   */\n      0xffffffffffffffff\n        /* \"#utility.yul\":18465:18471   */\n      dup2\n        /* \"#utility.yul\":18462:18492   */\n      gt\n        /* \"#utility.yul\":18459:18515   */\n      iszero\n      tag_552\n      jumpi\n        /* \"#utility.yul\":18495:18513   */\n      tag_553\n      tag_331\n      jump\t// in\n    tag_553:\n        /* \"#utility.yul\":18459:18515   */\n    tag_552:\n        /* \"#utility.yul\":18539:18577   */\n      tag_554\n        /* \"#utility.yul\":18571:18575   */\n      dup3\n        /* \"#utility.yul\":18565:18576   */\n      sload\n        /* \"#utility.yul\":18539:18577   */\n      tag_110\n      jump\t// in\n    tag_554:\n        /* \"#utility.yul\":18624:18691   */\n      tag_555\n        /* \"#utility.yul\":18684:18690   */\n      dup3\n        /* \"#utility.yul\":18676:18682   */\n      dup3\n        /* \"#utility.yul\":18670:18674   */\n      dup6\n        /* \"#utility.yul\":18624:18691   */\n      tag_343\n      jump\t// in\n    tag_555:\n        /* \"#utility.yul\":18718:18719   */\n      0x00\n        /* \"#utility.yul\":18742:18746   */\n      0x20\n        /* \"#utility.yul\":18729:18746   */\n      swap1\n      pop\n        /* \"#utility.yul\":18774:18776   */\n      0x1f\n        /* \"#utility.yul\":18766:18772   */\n      dup4\n        /* \"#utility.yul\":18763:18777   */\n      gt\n        /* \"#utility.yul\":18791:18792   */\n      0x01\n        /* \"#utility.yul\":18786:19404   */\n      dup2\n      eq\n      tag_557\n      jumpi\n        /* \"#utility.yul\":19448:19449   */\n      0x00\n        /* \"#utility.yul\":19465:19471   */\n      dup5\n        /* \"#utility.yul\":19462:19539   */\n      iszero\n      tag_558\n      jumpi\n        /* \"#utility.yul\":19514:19523   */\n      dup3\n        /* \"#utility.yul\":19509:19512   */\n      dup8\n        /* \"#utility.yul\":19505:19524   */\n      add\n        /* \"#utility.yul\":19499:19525   */\n      mload\n        /* \"#utility.yul\":19490:19525   */\n      swap1\n      pop\n        /* \"#utility.yul\":19462:19539   */\n    tag_558:\n        /* \"#utility.yul\":19565:19632   */\n      tag_559\n        /* \"#utility.yul\":19625:19631   */\n      dup6\n        /* \"#utility.yul\":19618:19623   */\n      dup3\n        /* \"#utility.yul\":19565:19632   */\n      tag_346\n      jump\t// in\n    tag_559:\n        /* \"#utility.yul\":19559:19563   */\n      dup7\n        /* \"#utility.yul\":19552:19633   */\n      sstore\n        /* \"#utility.yul\":19421:19643   */\n      pop\n        /* \"#utility.yul\":18756:19643   */\n      jump(tag_556)\n        /* \"#utility.yul\":18786:19404   */\n    tag_557:\n        /* \"#utility.yul\":18838:18842   */\n      0x1f\n        /* \"#utility.yul\":18834:18843   */\n      not\n        /* \"#utility.yul\":18826:18832   */\n      dup5\n        /* \"#utility.yul\":18822:18844   */\n      and\n        /* \"#utility.yul\":18872:18909   */\n      tag_560\n        /* \"#utility.yul\":18904:18908   */\n      dup7\n        /* \"#utility.yul\":18872:18909   */\n      tag_332\n      jump\t// in\n    tag_560:\n        /* \"#utility.yul\":18931:18932   */\n      0x00\n        /* \"#utility.yul\":18945:19153   */\n    tag_561:\n        /* \"#utility.yul\":18959:18966   */\n      dup3\n        /* \"#utility.yul\":18956:18957   */\n      dup2\n        /* \"#utility.yul\":18953:18967   */\n      lt\n        /* \"#utility.yul\":18945:19153   */\n      iszero\n      tag_563\n      jumpi\n        /* \"#utility.yul\":19038:19047   */\n      dup5\n        /* \"#utility.yul\":19033:19036   */\n      dup10\n        /* \"#utility.yul\":19029:19048   */\n      add\n        /* \"#utility.yul\":19023:19049   */\n      mload\n        /* \"#utility.yul\":19015:19021   */\n      dup3\n        /* \"#utility.yul\":19008:19050   */\n      sstore\n        /* \"#utility.yul\":19089:19090   */\n      0x01\n        /* \"#utility.yul\":19081:19087   */\n      dup3\n        /* \"#utility.yul\":19077:19091   */\n      add\n        /* \"#utility.yul\":19067:19091   */\n      swap2\n      pop\n        /* \"#utility.yul\":19136:19138   */\n      0x20\n        /* \"#utility.yul\":19125:19134   */\n      dup6\n        /* \"#utility.yul\":19121:19139   */\n      add\n        /* \"#utility.yul\":19108:19139   */\n      swap5\n      pop\n        /* \"#utility.yul\":18982:18986   */\n      0x20\n        /* \"#utility.yul\":18979:18980   */\n      dup2\n        /* \"#utility.yul\":18975:18987   */\n      add\n        /* \"#utility.yul\":18970:18987   */\n      swap1\n      pop\n        /* \"#utility.yul\":18945:19153   */\n      jump(tag_561)\n    tag_563:\n        /* \"#utility.yul\":19181:19187   */\n      dup7\n        /* \"#utility.yul\":19172:19179   */\n      dup4\n        /* \"#utility.yul\":19169:19188   */\n      lt\n        /* \"#utility.yul\":19166:19345   */\n      iszero\n      tag_564\n      jumpi\n        /* \"#utility.yul\":19239:19248   */\n      dup5\n        /* \"#utility.yul\":19234:19237   */\n      dup10\n        /* \"#utility.yul\":19230:19249   */\n      add\n        /* \"#utility.yul\":19224:19250   */\n      mload\n        /* \"#utility.yul\":19282:19330   */\n      tag_565\n        /* \"#utility.yul\":19324:19328   */\n      0x1f\n        /* \"#utility.yul\":19316:19322   */\n      dup10\n        /* \"#utility.yul\":19312:19329   */\n      and\n        /* \"#utility.yul\":19301:19310   */\n      dup3\n        /* \"#utility.yul\":19282:19330   */\n      tag_345\n      jump\t// in\n    tag_565:\n        /* \"#utility.yul\":19274:19280   */\n      dup4\n        /* \"#utility.yul\":19267:19331   */\n      sstore\n        /* \"#utility.yul\":19189:19345   */\n      pop\n        /* \"#utility.yul\":19166:19345   */\n    tag_564:\n        /* \"#utility.yul\":19391:19392   */\n      0x01\n        /* \"#utility.yul\":19387:19388   */\n      0x02\n        /* \"#utility.yul\":19379:19385   */\n      dup9\n        /* \"#utility.yul\":19375:19389   */\n      mul\n        /* \"#utility.yul\":19371:19393   */\n      add\n        /* \"#utility.yul\":19365:19369   */\n      dup9\n        /* \"#utility.yul\":19358:19394   */\n      sstore\n        /* \"#utility.yul\":18793:19404   */\n      pop\n      pop\n      pop\n        /* \"#utility.yul\":18756:19643   */\n    tag_556:\n      pop\n        /* \"#utility.yul\":18346:19649   */\n      pop\n      pop\n      pop\n        /* \"#utility.yul\":18254:19649   */\n      pop\n      pop\n      jump\t// out\n        /* \"#utility.yul\":19655:19878   */\n    tag_347:\n        /* \"#utility.yul\":19795:19829   */\n      0x536f7272792c206e6f7420656e6f7567682062616c616e636520696e2077616c\n        /* \"#utility.yul\":19791:19792   */\n      0x00\n        /* \"#utility.yul\":19783:19789   */\n      dup3\n        /* \"#utility.yul\":19779:19793   */\n      add\n        /* \"#utility.yul\":19772:19830   */\n      mstore\n        /* \"#utility.yul\":19864:19870   */\n      0x6c65742e00000000000000000000000000000000000000000000000000000000\n        /* \"#utility.yul\":19859:19861   */\n      0x20\n        /* \"#utility.yul\":19851:19857   */\n      dup3\n        /* \"#utility.yul\":19847:19862   */\n      add\n        /* \"#utility.yul\":19840:19871   */\n      mstore\n        /* \"#utility.yul\":19655:19878   */\n      pop\n      jump\t// out\n        /* \"#utility.yul\":19884:20250   */\n    tag_348:\n        /* \"#utility.yul\":20026:20029   */\n      0x00\n        /* \"#utility.yul\":20047:20114   */\n      tag_568\n        /* \"#utility.yul\":20111:20113   */\n      0x24\n        /* \"#utility.yul\":20106:20109   */\n      dup4\n        /* \"#utility.yul\":20047:20114   */\n      tag_291\n      jump\t// in\n    tag_568:\n        /* \"#utility.yul\":20040:20114   */\n      swap2\n      pop\n        /* \"#utility.yul\":20123:20216   */\n      tag_569\n        /* \"#utility.yul\":20212:20215   */\n      dup3\n        /* \"#utility.yul\":20123:20216   */\n      tag_347\n      jump\t// in\n    tag_569:\n        /* \"#utility.yul\":20241:20243   */\n      0x40\n        /* \"#utility.yul\":20236:20239   */\n      dup3\n        /* \"#utility.yul\":20232:20244   */\n      add\n        /* \"#utility.yul\":20225:20244   */\n      swap1\n      pop\n        /* \"#utility.yul\":19884:20250   */\n      swap2\n      swap1\n      pop\n      jump\t// out\n        /* \"#utility.yul\":20256:20675   */\n    tag_223:\n        /* \"#utility.yul\":20422:20426   */\n      0x00\n        /* \"#utility.yul\":20460:20462   */\n      0x20\n        /* \"#utility.yul\":20449:20458   */\n      dup3\n        /* \"#utility.yul\":20445:20463   */\n      add\n        /* \"#utility.yul\":20437:20463   */\n      swap1\n      pop\n        /* \"#utility.yul\":20509:20518   */\n      dup2\n        /* \"#utility.yul\":20503:20507   */\n      dup2\n        /* \"#utility.yul\":20499:20519   */\n      sub\n        /* \"#utility.yul\":20495:20496   */\n      0x00\n        /* \"#utility.yul\":20484:20493   */\n      dup4\n        /* \"#utility.yul\":20480:20497   */\n      add\n        /* \"#utility.yul\":20473:20520   */\n      mstore\n        /* \"#utility.yul\":20537:20668   */\n      tag_571\n        /* \"#utility.yul\":20663:20667   */\n      dup2\n        /* \"#utility.yul\":20537:20668   */\n      tag_348\n      jump\t// in\n    tag_571:\n        /* \"#utility.yul\":20529:20668   */\n      swap1\n      pop\n        /* \"#utility.yul\":20256:20675   */\n      swap2\n      swap1\n      pop\n      jump\t// out\n        /* \"#utility.yul\":20681:20863   */\n    tag_349:\n        /* \"#utility.yul\":20821:20855   */\n      0x4f6e6c792c206f776e65722063616e206d696e742074686520746f6b656e7321\n        /* \"#utility.yul\":20817:20818   */\n      0x00\n        /* \"#utility.yul\":20809:20815   */\n      dup3\n        /* \"#utility.yul\":20805:20819   */\n      add\n        /* \"#utility.yul\":20798:20856   */\n      mstore\n        /* \"#utility.yul\":20681:20863   */\n      pop\n      jump\t// out\n        /* \"#utility.yul\":20869:21235   */\n    tag_350:\n        /* \"#utility.yul\":21011:21014   */\n      0x00\n        /* \"#utility.yul\":21032:21099   */\n      tag_574\n        /* \"#utility.yul\":21096:21098   */\n      0x20\n        /* \"#utility.yul\":21091:21094   */\n      dup4\n        /* \"#utility.yul\":21032:21099   */\n      tag_291\n      jump\t// in\n    tag_574:\n        /* \"#utility.yul\":21025:21099   */\n      swap2\n      pop\n        /* \"#utility.yul\":21108:21201   */\n      tag_575\n        /* \"#utility.yul\":21197:21200   */\n      dup3\n        /* \"#utility.yul\":21108:21201   */\n      tag_349\n      jump\t// in\n    tag_575:\n        /* \"#utility.yul\":21226:21228   */\n      0x20\n        /* \"#utility.yul\":21221:21224   */\n      dup3\n        /* \"#utility.yul\":21217:21229   */\n      add\n        /* \"#utility.yul\":21210:21229   */\n      swap1\n      pop\n        /* \"#utility.yul\":20869:21235   */\n      swap2\n      swap1\n      pop\n      jump\t// out\n        /* \"#utility.yul\":21241:21660   */\n    tag_229:\n        /* \"#utility.yul\":21407:21411   */\n      0x00\n        /* \"#utility.yul\":21445:21447   */\n      0x20\n        /* \"#utility.yul\":21434:21443   */\n      dup3\n        /* \"#utility.yul\":21430:21448   */\n      add\n        /* \"#utility.yul\":21422:21448   */\n      swap1\n      pop\n        /* \"#utility.yul\":21494:21503   */\n      dup2\n        /* \"#utility.yul\":21488:21492   */\n      dup2\n        /* \"#utility.yul\":21484:21504   */\n      sub\n        /* \"#utility.yul\":21480:21481   */\n      0x00\n        /* \"#utility.yul\":21469:21478   */\n      dup4\n        /* \"#utility.yul\":21465:21482   */\n      add\n        /* \"#utility.yul\":21458:21505   */\n      mstore\n        /* \"#utility.yul\":21522:21653   */\n      tag_577\n        /* \"#utility.yul\":21648:21652   */\n      dup2\n        /* \"#utility.yul\":21522:21653   */\n      tag_350\n      jump\t// in\n    tag_577:\n        /* \"#utility.yul\":21514:21653   */\n      swap1\n      pop\n        /* \"#utility.yul\":21241:21660   */\n      swap2\n      swap1\n      pop\n      jump\t// out\n        /* \"#utility.yul\":21666:21842   */\n    tag_351:\n        /* \"#utility.yul\":21806:21834   */\n      0x54686973206164647265737320646f65736e2774206578697374000000000000\n        /* \"#utility.yul\":21802:21803   */\n      0x00\n        /* \"#utility.yul\":21794:21800   */\n      dup3\n        /* \"#utility.yul\":21790:21804   */\n      add\n        /* \"#utility.yul\":21783:21835   */\n      mstore\n        /* \"#utility.yul\":21666:21842   */\n      pop\n      jump\t// out\n        /* \"#utility.yul\":21848:22214   */\n    tag_352:\n        /* \"#utility.yul\":21990:21993   */\n      0x00\n        /* \"#utility.yul\":22011:22078   */\n      tag_580\n        /* \"#utility.yul\":22075:22077   */\n      0x1a\n        /* \"#utility.yul\":22070:22073   */\n      dup4\n        /* \"#utility.yul\":22011:22078   */\n      tag_291\n      jump\t// in\n    tag_580:\n        /* \"#utility.yul\":22004:22078   */\n      swap2\n      pop\n        /* \"#utility.yul\":22087:22180   */\n      tag_581\n        /* \"#utility.yul\":22176:22179   */\n      dup3\n        /* \"#utility.yul\":22087:22180   */\n      tag_351\n      jump\t// in\n    tag_581:\n        /* \"#utility.yul\":22205:22207   */\n      0x20\n        /* \"#utility.yul\":22200:22203   */\n      dup3\n        /* \"#utility.yul\":22196:22208   */\n      add\n        /* \"#utility.yul\":22189:22208   */\n      swap1\n      pop\n        /* \"#utility.yul\":21848:22214   */\n      swap2\n      swap1\n      pop\n      jump\t// out\n        /* \"#utility.yul\":22220:22639   */\n    tag_233:\n        /* \"#utility.yul\":22386:22390   */\n      0x00\n        /* \"#utility.yul\":22424:22426   */\n      0x20\n        /* \"#utility.yul\":22413:22422   */\n      dup3\n        /* \"#utility.yul\":22409:22427   */\n      add\n        /* \"#utility.yul\":22401:22427   */\n      swap1\n      pop\n        /* \"#utility.yul\":22473:22482   */\n      dup2\n        /* \"#utility.yul\":22467:22471   */\n      dup2\n        /* \"#utility.yul\":22463:22483   */\n      sub\n        /* \"#utility.yul\":22459:22460   */\n      0x00\n        /* \"#utility.yul\":22448:22457   */\n      dup4\n        /* \"#utility.yul\":22444:22461   */\n      add\n        /* \"#utility.yul\":22437:22484   */\n      mstore\n        /* \"#utility.yul\":22501:22632   */\n      tag_583\n        /* \"#utility.yul\":22627:22631   */\n      dup2\n        /* \"#utility.yul\":22501:22632   */\n      tag_352\n      jump\t// in\n    tag_583:\n        /* \"#utility.yul\":22493:22632   */\n      swap1\n      pop\n        /* \"#utility.yul\":22220:22639   */\n      swap2\n      swap1\n      pop\n      jump\t// out\n        /* \"#utility.yul\":22645:22872   */\n    tag_353:\n        /* \"#utility.yul\":22785:22819   */\n      0x596f752063616e2774206d696e74206e65676174697665206e756d626572206f\n        /* \"#utility.yul\":22781:22782   */\n      0x00\n        /* \"#utility.yul\":22773:22779   */\n      dup3\n        /* \"#utility.yul\":22769:22783   */\n      add\n        /* \"#utility.yul\":22762:22820   */\n      mstore\n        /* \"#utility.yul\":22854:22864   */\n      0x6620746f6b656e73000000000000000000000000000000000000000000000000\n        /* \"#utility.yul\":22849:22851   */\n      0x20\n        /* \"#utility.yul\":22841:22847   */\n      dup3\n        /* \"#utility.yul\":22837:22852   */\n      add\n        /* \"#utility.yul\":22830:22865   */\n      mstore\n        /* \"#utility.yul\":22645:22872   */\n      pop\n      jump\t// out\n        /* \"#utility.yul\":22878:23244   */\n    tag_354:\n        /* \"#utility.yul\":23020:23023   */\n      0x00\n        /* \"#utility.yul\":23041:23108   */\n      tag_586\n        /* \"#utility.yul\":23105:23107   */\n      0x28\n        /* \"#utility.yul\":23100:23103   */\n      dup4\n        /* \"#utility.yul\":23041:23108   */\n      tag_291\n      jump\t// in\n    tag_586:\n        /* \"#utility.yul\":23034:23108   */\n      swap2\n      pop\n        /* \"#utility.yul\":23117:23210   */\n      tag_587\n        /* \"#utility.yul\":23206:23209   */\n      dup3\n        /* \"#utility.yul\":23117:23210   */\n      tag_353\n      jump\t// in\n    tag_587:\n        /* \"#utility.yul\":23235:23237   */\n      0x40\n        /* \"#utility.yul\":23230:23233   */\n      dup3\n        /* \"#utility.yul\":23226:23238   */\n      add\n        /* \"#utility.yul\":23219:23238   */\n      swap1\n      pop\n        /* \"#utility.yul\":22878:23244   */\n      swap2\n      swap1\n      pop\n      jump\t// out\n        /* \"#utility.yul\":23250:23669   */\n    tag_236:\n        /* \"#utility.yul\":23416:23420   */\n      0x00\n        /* \"#utility.yul\":23454:23456   */\n      0x20\n        /* \"#utility.yul\":23443:23452   */\n      dup3\n        /* \"#utility.yul\":23439:23457   */\n      add\n        /* \"#utility.yul\":23431:23457   */\n      swap1\n      pop\n        /* \"#utility.yul\":23503:23512   */\n      dup2\n        /* \"#utility.yul\":23497:23501   */\n      dup2\n        /* \"#utility.yul\":23493:23513   */\n      sub\n        /* \"#utility.yul\":23489:23490   */\n      0x00\n        /* \"#utility.yul\":23478:23487   */\n      dup4\n        /* \"#utility.yul\":23474:23491   */\n      add\n        /* \"#utility.yul\":23467:23514   */\n      mstore\n        /* \"#utility.yul\":23531:23662   */\n      tag_589\n        /* \"#utility.yul\":23657:23661   */\n      dup2\n        /* \"#utility.yul\":23531:23662   */\n      tag_354\n      jump\t// in\n    tag_589:\n        /* \"#utility.yul\":23523:23662   */\n      swap1\n      pop\n        /* \"#utility.yul\":23250:23669   */\n      swap2\n      swap1\n      pop\n      jump\t// out\n        /* \"#utility.yul\":23675:23898   */\n    tag_355:\n        /* \"#utility.yul\":23815:23849   */\n      0x45524332303a20617070726f76652066726f6d20746865207a65726f20616464\n        /* \"#utility.yul\":23811:23812   */\n      0x00\n        /* \"#utility.yul\":23803:23809   */\n      dup3\n        /* \"#utility.yul\":23799:23813   */\n      add\n        /* \"#utility.yul\":23792:23850   */\n      mstore\n        /* \"#utility.yul\":23884:23890   */\n      0x7265737300000000000000000000000000000000000000000000000000000000\n        /* \"#utility.yul\":23879:23881   */\n      0x20\n        /* \"#utility.yul\":23871:23877   */\n      dup3\n        /* \"#utility.yul\":23867:23882   */\n      add\n        /* \"#utility.yul\":23860:23891   */\n      mstore\n        /* \"#utility.yul\":23675:23898   */\n      pop\n      jump\t// out\n        /* \"#utility.yul\":23904:24270   */\n    tag_356:\n        /* \"#utility.yul\":24046:24049   */\n      0x00\n        /* \"#utility.yul\":24067:24134   */\n      tag_592\n        /* \"#utility.yul\":24131:24133   */\n      0x24\n        /* \"#utility.yul\":24126:24129   */\n      dup4\n        /* \"#utility.yul\":24067:24134   */\n      tag_291\n      jump\t// in\n    tag_592:\n        /* \"#utility.yul\":24060:24134   */\n      swap2\n      pop\n        /* \"#utility.yul\":24143:24236   */\n      tag_593\n        /* \"#utility.yul\":24232:24235   */\n      dup3\n        /* \"#utility.yul\":24143:24236   */\n      tag_355\n      jump\t// in\n    tag_593:\n        /* \"#utility.yul\":24261:24263   */\n      0x40\n        /* \"#utility.yul\":24256:24259   */\n      dup3\n        /* \"#utility.yul\":24252:24264   */\n      add\n        /* \"#utility.yul\":24245:24264   */\n      swap1\n      pop\n        /* \"#utility.yul\":23904:24270   */\n      swap2\n      swap1\n      pop\n      jump\t// out\n        /* \"#utility.yul\":24276:24695   */\n    tag_243:\n        /* \"#utility.yul\":24442:24446   */\n      0x00\n        /* \"#utility.yul\":24480:24482   */\n      0x20\n        /* \"#utility.yul\":24469:24478   */\n      dup3\n        /* \"#utility.yul\":24465:24483   */\n      add\n        /* \"#utility.yul\":24457:24483   */\n      swap1\n      pop\n        /* \"#utility.yul\":24529:24538   */\n      dup2\n        /* \"#utility.yul\":24523:24527   */\n      dup2\n        /* \"#utility.yul\":24519:24539   */\n      sub\n        /* \"#utility.yul\":24515:24516   */\n      0x00\n        /* \"#utility.yul\":24504:24513   */\n      dup4\n        /* \"#utility.yul\":24500:24517   */\n      add\n        /* \"#utility.yul\":24493:24540   */\n      mstore\n        /* \"#utility.yul\":24557:24688   */\n      tag_595\n        /* \"#utility.yul\":24683:24687   */\n      dup2\n        /* \"#utility.yul\":24557:24688   */\n      tag_356\n      jump\t// in\n    tag_595:\n        /* \"#utility.yul\":24549:24688   */\n      swap1\n      pop\n        /* \"#utility.yul\":24276:24695   */\n      swap2\n      swap1\n      pop\n      jump\t// out\n        /* \"#utility.yul\":24701:24922   */\n    tag_357:\n        /* \"#utility.yul\":24841:24875   */\n      0x45524332303a20617070726f766520746f20746865207a65726f206164647265\n        /* \"#utility.yul\":24837:24838   */\n      0x00\n        /* \"#utility.yul\":24829:24835   */\n      dup3\n        /* \"#utility.yul\":24825:24839   */\n      add\n        /* \"#utility.yul\":24818:24876   */\n      mstore\n        /* \"#utility.yul\":24910:24914   */\n      0x7373000000000000000000000000000000000000000000000000000000000000\n        /* \"#utility.yul\":24905:24907   */\n      0x20\n        /* \"#utility.yul\":24897:24903   */\n      dup3\n        /* \"#utility.yul\":24893:24908   */\n      add\n        /* \"#utility.yul\":24886:24915   */\n      mstore\n        /* \"#utility.yul\":24701:24922   */\n      pop\n      jump\t// out\n        /* \"#utility.yul\":24928:25294   */\n    tag_358:\n        /* \"#utility.yul\":25070:25073   */\n      0x00\n        /* \"#utility.yul\":25091:25158   */\n      tag_598\n        /* \"#utility.yul\":25155:25157   */\n      0x22\n        /* \"#utility.yul\":25150:25153   */\n      dup4\n        /* \"#utility.yul\":25091:25158   */\n      tag_291\n      jump\t// in\n    tag_598:\n        /* \"#utility.yul\":25084:25158   */\n      swap2\n      pop\n        /* \"#utility.yul\":25167:25260   */\n      tag_599\n        /* \"#utility.yul\":25256:25259   */\n      dup3\n        /* \"#utility.yul\":25167:25260   */\n      tag_357\n      jump\t// in\n    tag_599:\n        /* \"#utility.yul\":25285:25287   */\n      0x40\n        /* \"#utility.yul\":25280:25283   */\n      dup3\n        /* \"#utility.yul\":25276:25288   */\n      add\n        /* \"#utility.yul\":25269:25288   */\n      swap1\n      pop\n        /* \"#utility.yul\":24928:25294   */\n      swap2\n      swap1\n      pop\n      jump\t// out\n        /* \"#utility.yul\":25300:25719   */\n    tag_246:\n        /* \"#utility.yul\":25466:25470   */\n      0x00\n        /* \"#utility.yul\":25504:25506   */\n      0x20\n        /* \"#utility.yul\":25493:25502   */\n      dup3\n        /* \"#utility.yul\":25489:25507   */\n      add\n        /* \"#utility.yul\":25481:25507   */\n      swap1\n      pop\n        /* \"#utility.yul\":25553:25562   */\n      dup2\n        /* \"#utility.yul\":25547:25551   */\n      dup2\n        /* \"#utility.yul\":25543:25563   */\n      sub\n        /* \"#utility.yul\":25539:25540   */\n      0x00\n        /* \"#utility.yul\":25528:25537   */\n      dup4\n        /* \"#utility.yul\":25524:25541   */\n      add\n        /* \"#utility.yul\":25517:25564   */\n      mstore\n        /* \"#utility.yul\":25581:25712   */\n      tag_601\n        /* \"#utility.yul\":25707:25711   */\n      dup2\n        /* \"#utility.yul\":25581:25712   */\n      tag_358\n      jump\t// in\n    tag_601:\n        /* \"#utility.yul\":25573:25712   */\n      swap1\n      pop\n        /* \"#utility.yul\":25300:25719   */\n      swap2\n      swap1\n      pop\n      jump\t// out\n        /* \"#utility.yul\":25725:25904   */\n    tag_359:\n        /* \"#utility.yul\":25865:25896   */\n      0x45524332303a20696e73756666696369656e7420616c6c6f77616e6365000000\n        /* \"#utility.yul\":25861:25862   */\n      0x00\n        /* \"#utility.yul\":25853:25859   */\n      dup3\n        /* \"#utility.yul\":25849:25863   */\n      add\n        /* \"#utility.yul\":25842:25897   */\n      mstore\n        /* \"#utility.yul\":25725:25904   */\n      pop\n      jump\t// out\n        /* \"#utility.yul\":25910:26276   */\n    tag_360:\n        /* \"#utility.yul\":26052:26055   */\n      0x00\n        /* \"#utility.yul\":26073:26140   */\n      tag_604\n        /* \"#utility.yul\":26137:26139   */\n      0x1d\n        /* \"#utility.yul\":26132:26135   */\n      dup4\n        /* \"#utility.yul\":26073:26140   */\n      tag_291\n      jump\t// in\n    tag_604:\n        /* \"#utility.yul\":26066:26140   */\n      swap2\n      pop\n        /* \"#utility.yul\":26149:26242   */\n      tag_605\n        /* \"#utility.yul\":26238:26241   */\n      dup3\n        /* \"#utility.yul\":26149:26242   */\n      tag_359\n      jump\t// in\n    tag_605:\n        /* \"#utility.yul\":26267:26269   */\n      0x20\n        /* \"#utility.yul\":26262:26265   */\n      dup3\n        /* \"#utility.yul\":26258:26270   */\n      add\n        /* \"#utility.yul\":26251:26270   */\n      swap1\n      pop\n        /* \"#utility.yul\":25910:26276   */\n      swap2\n      swap1\n      pop\n      jump\t// out\n        /* \"#utility.yul\":26282:26701   */\n    tag_253:\n        /* \"#utility.yul\":26448:26452   */\n      0x00\n        /* \"#utility.yul\":26486:26488   */\n      0x20\n        /* \"#utility.yul\":26475:26484   */\n      dup3\n        /* \"#utility.yul\":26471:26489   */\n      add\n        /* \"#utility.yul\":26463:26489   */\n      swap1\n      pop\n        /* \"#utility.yul\":26535:26544   */\n      dup2\n        /* \"#utility.yul\":26529:26533   */\n      dup2\n        /* \"#utility.yul\":26525:26545   */\n      sub\n        /* \"#utility.yul\":26521:26522   */\n      0x00\n        /* \"#utility.yul\":26510:26519   */\n      dup4\n        /* \"#utility.yul\":26506:26523   */\n      add\n        /* \"#utility.yul\":26499:26546   */\n      mstore\n        /* \"#utility.yul\":26563:26694   */\n      tag_607\n        /* \"#utility.yul\":26689:26693   */\n      dup2\n        /* \"#utility.yul\":26563:26694   */\n      tag_360\n      jump\t// in\n    tag_607:\n        /* \"#utility.yul\":26555:26694   */\n      swap1\n      pop\n        /* \"#utility.yul\":26282:26701   */\n      swap2\n      swap1\n      pop\n      jump\t// out\n        /* \"#utility.yul\":26707:26931   */\n    tag_361:\n        /* \"#utility.yul\":26847:26881   */\n      0x45524332303a207472616e736665722066726f6d20746865207a65726f206164\n        /* \"#utility.yul\":26843:26844   */\n      0x00\n        /* \"#utility.yul\":26835:26841   */\n      dup3\n        /* \"#utility.yul\":26831:26845   */\n      add\n        /* \"#utility.yul\":26824:26882   */\n      mstore\n        /* \"#utility.yul\":26916:26923   */\n      0x6472657373000000000000000000000000000000000000000000000000000000\n        /* \"#utility.yul\":26911:26913   */\n      0x20\n        /* \"#utility.yul\":26903:26909   */\n      dup3\n        /* \"#utility.yul\":26899:26914   */\n      add\n        /* \"#utility.yul\":26892:26924   */\n      mstore\n        /* \"#utility.yul\":26707:26931   */\n      pop\n      jump\t// out\n        /* \"#utility.yul\":26937:27303   */\n    tag_362:\n        /* \"#utility.yul\":27079:27082   */\n      0x00\n        /* \"#utility.yul\":27100:27167   */\n      tag_610\n        /* \"#utility.yul\":27164:27166   */\n      0x25\n        /* \"#utility.yul\":27159:27162   */\n      dup4\n        /* \"#utility.yul\":27100:27167   */\n      tag_291\n      jump\t// in\n    tag_610:\n        /* \"#utility.yul\":27093:27167   */\n      swap2\n      pop\n        /* \"#utility.yul\":27176:27269   */\n      tag_611\n        /* \"#utility.yul\":27265:27268   */\n      dup3\n        /* \"#utility.yul\":27176:27269   */\n      tag_361\n      jump\t// in\n    tag_611:\n        /* \"#utility.yul\":27294:27296   */\n      0x40\n        /* \"#utility.yul\":27289:27292   */\n      dup3\n        /* \"#utility.yul\":27285:27297   */\n      add\n        /* \"#utility.yul\":27278:27297   */\n      swap1\n      pop\n        /* \"#utility.yul\":26937:27303   */\n      swap2\n      swap1\n      pop\n      jump\t// out\n        /* \"#utility.yul\":27309:27728   */\n    tag_258:\n        /* \"#utility.yul\":27475:27479   */\n      0x00\n        /* \"#utility.yul\":27513:27515   */\n      0x20\n        /* \"#utility.yul\":27502:27511   */\n      dup3\n        /* \"#utility.yul\":27498:27516   */\n      add\n        /* \"#utility.yul\":27490:27516   */\n      swap1\n      pop\n        /* \"#utility.yul\":27562:27571   */\n      dup2\n        /* \"#utility.yul\":27556:27560   */\n      dup2\n        /* \"#utility.yul\":27552:27572   */\n      sub\n        /* \"#utility.yul\":27548:27549   */\n      0x00\n        /* \"#utility.yul\":27537:27546   */\n      dup4\n        /* \"#utility.yul\":27533:27550   */\n      add\n        /* \"#utility.yul\":27526:27573   */\n      mstore\n        /* \"#utility.yul\":27590:27721   */\n      tag_613\n        /* \"#utility.yul\":27716:27720   */\n      dup2\n        /* \"#utility.yul\":27590:27721   */\n      tag_362\n      jump\t// in\n    tag_613:\n        /* \"#utility.yul\":27582:27721   */\n      swap1\n      pop\n        /* \"#utility.yul\":27309:27728   */\n      swap2\n      swap1\n      pop\n      jump\t// out\n        /* \"#utility.yul\":27734:27956   */\n    tag_363:\n        /* \"#utility.yul\":27874:27908   */\n      0x45524332303a207472616e7366657220746f20746865207a65726f2061646472\n        /* \"#utility.yul\":27870:27871   */\n      0x00\n        /* \"#utility.yul\":27862:27868   */\n      dup3\n        /* \"#utility.yul\":27858:27872   */\n      add\n        /* \"#utility.yul\":27851:27909   */\n      mstore\n        /* \"#utility.yul\":27943:27948   */\n      0x6573730000000000000000000000000000000000000000000000000000000000\n        /* \"#utility.yul\":27938:27940   */\n      0x20\n        /* \"#utility.yul\":27930:27936   */\n      dup3\n        /* \"#utility.yul\":27926:27941   */\n      add\n        /* \"#utility.yul\":27919:27949   */\n      mstore\n        /* \"#utility.yul\":27734:27956   */\n      pop\n      jump\t// out\n        /* \"#utility.yul\":27962:28328   */\n    tag_364:\n        /* \"#utility.yul\":28104:28107   */\n      0x00\n        /* \"#utility.yul\":28125:28192   */\n      tag_616\n        /* \"#utility.yul\":28189:28191   */\n      0x23\n        /* \"#utility.yul\":28184:28187   */\n      dup4\n        /* \"#utility.yul\":28125:28192   */\n      tag_291\n      jump\t// in\n    tag_616:\n        /* \"#utility.yul\":28118:28192   */\n      swap2\n      pop\n        /* \"#utility.yul\":28201:28294   */\n      tag_617\n        /* \"#utility.yul\":28290:28293   */\n      dup3\n        /* \"#utility.yul\":28201:28294   */\n      tag_363\n      jump\t// in\n    tag_617:\n        /* \"#utility.yul\":28319:28321   */\n      0x40\n        /* \"#utility.yul\":28314:28317   */\n      dup3\n        /* \"#utility.yul\":28310:28322   */\n      add\n        /* \"#utility.yul\":28303:28322   */\n      swap1\n      pop\n        /* \"#utility.yul\":27962:28328   */\n      swap2\n      swap1\n      pop\n      jump\t// out\n        /* \"#utility.yul\":28334:28753   */\n    tag_261:\n        /* \"#utility.yul\":28500:28504   */\n      0x00\n        /* \"#utility.yul\":28538:28540   */\n      0x20\n        /* \"#utility.yul\":28527:28536   */\n      dup3\n        /* \"#utility.yul\":28523:28541   */\n      add\n        /* \"#utility.yul\":28515:28541   */\n      swap1\n      pop\n        /* \"#utility.yul\":28587:28596   */\n      dup2\n        /* \"#utility.yul\":28581:28585   */\n      dup2\n        /* \"#utility.yul\":28577:28597   */\n      sub\n        /* \"#utility.yul\":28573:28574   */\n      0x00\n        /* \"#utility.yul\":28562:28571   */\n      dup4\n        /* \"#utility.yul\":28558:28575   */\n      add\n        /* \"#utility.yul\":28551:28598   */\n      mstore\n        /* \"#utility.yul\":28615:28746   */\n      tag_619\n        /* \"#utility.yul\":28741:28745   */\n      dup2\n        /* \"#utility.yul\":28615:28746   */\n      tag_364\n      jump\t// in\n    tag_619:\n        /* \"#utility.yul\":28607:28746   */\n      swap1\n      pop\n        /* \"#utility.yul\":28334:28753   */\n      swap2\n      swap1\n      pop\n      jump\t// out\n        /* \"#utility.yul\":28759:28984   */\n    tag_365:\n        /* \"#utility.yul\":28899:28933   */\n      0x45524332303a207472616e7366657220616d6f756e7420657863656564732062\n        /* \"#utility.yul\":28895:28896   */\n      0x00\n        /* \"#utility.yul\":28887:28893   */\n      dup3\n        /* \"#utility.yul\":28883:28897   */\n      add\n        /* \"#utility.yul\":28876:28934   */\n      mstore\n        /* \"#utility.yul\":28968:28976   */\n      0x616c616e63650000000000000000000000000000000000000000000000000000\n        /* \"#utility.yul\":28963:28965   */\n      0x20\n        /* \"#utility.yul\":28955:28961   */\n      dup3\n        /* \"#utility.yul\":28951:28966   */\n      add\n        /* \"#utility.yul\":28944:28977   */\n      mstore\n        /* \"#utility.yul\":28759:28984   */\n      pop\n      jump\t// out\n        /* \"#utility.yul\":28990:29356   */\n    tag_366:\n        /* \"#utility.yul\":29132:29135   */\n      0x00\n        /* \"#utility.yul\":29153:29220   */\n      tag_622\n        /* \"#utility.yul\":29217:29219   */\n      0x26\n        /* \"#utility.yul\":29212:29215   */\n      dup4\n        /* \"#utility.yul\":29153:29220   */\n      tag_291\n      jump\t// in\n    tag_622:\n        /* \"#utility.yul\":29146:29220   */\n      swap2\n      pop\n        /* \"#utility.yul\":29229:29322   */\n      tag_623\n        /* \"#utility.yul\":29318:29321   */\n      dup3\n        /* \"#utility.yul\":29229:29322   */\n      tag_365\n      jump\t// in\n    tag_623:\n        /* \"#utility.yul\":29347:29349   */\n      0x40\n        /* \"#utility.yul\":29342:29345   */\n      dup3\n        /* \"#utility.yul\":29338:29350   */\n      add\n        /* \"#utility.yul\":29331:29350   */\n      swap1\n      pop\n        /* \"#utility.yul\":28990:29356   */\n      swap2\n      swap1\n      pop\n      jump\t// out\n        /* \"#utility.yul\":29362:29781   */\n    tag_266:\n        /* \"#utility.yul\":29528:29532   */\n      0x00\n        /* \"#utility.yul\":29566:29568   */\n      0x20\n        /* \"#utility.yul\":29555:29564   */\n      dup3\n        /* \"#utility.yul\":29551:29569   */\n      add\n        /* \"#utility.yul\":29543:29569   */\n      swap1\n      pop\n        /* \"#utility.yul\":29615:29624   */\n      dup2\n        /* \"#utility.yul\":29609:29613   */\n      dup2\n        /* \"#utility.yul\":29605:29625   */\n      sub\n        /* \"#utility.yul\":29601:29602   */\n      0x00\n        /* \"#utility.yul\":29590:29599   */\n      dup4\n        /* \"#utility.yul\":29586:29603   */\n      add\n        /* \"#utility.yul\":29579:29626   */\n      mstore\n        /* \"#utility.yul\":29643:29774   */\n      tag_625\n        /* \"#utility.yul\":29769:29773   */\n      dup2\n        /* \"#utility.yul\":29643:29774   */\n      tag_366\n      jump\t// in\n    tag_625:\n        /* \"#utility.yul\":29635:29774   */\n      swap1\n      pop\n        /* \"#utility.yul\":29362:29781   */\n      swap2\n      swap1\n      pop\n      jump\t// out\n        /* \"#utility.yul\":29787:30007   */\n    tag_367:\n        /* \"#utility.yul\":29927:29961   */\n      0x45524332303a206275726e2066726f6d20746865207a65726f20616464726573\n        /* \"#utility.yul\":29923:29924   */\n      0x00\n        /* \"#utility.yul\":29915:29921   */\n      dup3\n        /* \"#utility.yul\":29911:29925   */\n      add\n        /* \"#utility.yul\":29904:29962   */\n      mstore\n        /* \"#utility.yul\":29996:29999   */\n      0x7300000000000000000000000000000000000000000000000000000000000000\n        /* \"#utility.yul\":29991:29993   */\n      0x20\n        /* \"#utility.yul\":29983:29989   */\n      dup3\n        /* \"#utility.yul\":29979:29994   */\n      add\n        /* \"#utility.yul\":29972:30000   */\n      mstore\n        /* \"#utility.yul\":29787:30007   */\n      pop\n      jump\t// out\n        /* \"#utility.yul\":30013:30379   */\n    tag_368:\n        /* \"#utility.yul\":30155:30158   */\n      0x00\n        /* \"#utility.yul\":30176:30243   */\n      tag_628\n        /* \"#utility.yul\":30240:30242   */\n      0x21\n        /* \"#utility.yul\":30235:30238   */\n      dup4\n        /* \"#utility.yul\":30176:30243   */\n      tag_291\n      jump\t// in\n    tag_628:\n        /* \"#utility.yul\":30169:30243   */\n      swap2\n      pop\n        /* \"#utility.yul\":30252:30345   */\n      tag_629\n        /* \"#utility.yul\":30341:30344   */\n      dup3\n        /* \"#utility.yul\":30252:30345   */\n      tag_367\n      jump\t// in\n    tag_629:\n        /* \"#utility.yul\":30370:30372   */\n      0x40\n        /* \"#utility.yul\":30365:30368   */\n      dup3\n        /* \"#utility.yul\":30361:30373   */\n      add\n        /* \"#utility.yul\":30354:30373   */\n      swap1\n      pop\n        /* \"#utility.yul\":30013:30379   */\n      swap2\n      swap1\n      pop\n      jump\t// out\n        /* \"#utility.yul\":30385:30804   */\n    tag_273:\n        /* \"#utility.yul\":30551:30555   */\n      0x00\n        /* \"#utility.yul\":30589:30591   */\n      0x20\n        /* \"#utility.yul\":30578:30587   */\n      dup3\n        /* \"#utility.yul\":30574:30592   */\n      add\n        /* \"#utility.yul\":30566:30592   */\n      swap1\n      pop\n        /* \"#utility.yul\":30638:30647   */\n      dup2\n        /* \"#utility.yul\":30632:30636   */\n      dup2\n        /* \"#utility.yul\":30628:30648   */\n      sub\n        /* \"#utility.yul\":30624:30625   */\n      0x00\n        /* \"#utility.yul\":30613:30622   */\n      dup4\n        /* \"#utility.yul\":30609:30626   */\n      add\n        /* \"#utility.yul\":30602:30649   */\n      mstore\n        /* \"#utility.yul\":30666:30797   */\n      tag_631\n        /* \"#utility.yul\":30792:30796   */\n      dup2\n        /* \"#utility.yul\":30666:30797   */\n      tag_368\n      jump\t// in\n    tag_631:\n        /* \"#utility.yul\":30658:30797   */\n      swap1\n      pop\n        /* \"#utility.yul\":30385:30804   */\n      swap2\n      swap1\n      pop\n      jump\t// out\n        /* \"#utility.yul\":30810:31031   */\n    tag_369:\n        /* \"#utility.yul\":30950:30984   */\n      0x45524332303a206275726e20616d6f756e7420657863656564732062616c616e\n        /* \"#utility.yul\":30946:30947   */\n      0x00\n        /* \"#utility.yul\":30938:30944   */\n      dup3\n        /* \"#utility.yul\":30934:30948   */\n      add\n        /* \"#utility.yul\":30927:30985   */\n      mstore\n        /* \"#utility.yul\":31019:31023   */\n      0x6365000000000000000000000000000000000000000000000000000000000000\n        /* \"#utility.yul\":31014:31016   */\n      0x20\n        /* \"#utility.yul\":31006:31012   */\n      dup3\n        /* \"#utility.yul\":31002:31017   */\n      add\n        /* \"#utility.yul\":30995:31024   */\n      mstore\n        /* \"#utility.yul\":30810:31031   */\n      pop\n      jump\t// out\n        /* \"#utility.yul\":31037:31403   */\n    tag_370:\n        /* \"#utility.yul\":31179:31182   */\n      0x00\n        /* \"#utility.yul\":31200:31267   */\n      tag_634\n        /* \"#utility.yul\":31264:31266   */\n      0x22\n        /* \"#utility.yul\":31259:31262   */\n      dup4\n        /* \"#utility.yul\":31200:31267   */\n      tag_291\n      jump\t// in\n    tag_634:\n        /* \"#utility.yul\":31193:31267   */\n      swap2\n      pop\n        /* \"#utility.yul\":31276:31369   */\n      tag_635\n        /* \"#utility.yul\":31365:31368   */\n      dup3\n        /* \"#utility.yul\":31276:31369   */\n      tag_369\n      jump\t// in\n    tag_635:\n        /* \"#utility.yul\":31394:31396   */\n      0x40\n        /* \"#utility.yul\":31389:31392   */\n      dup3\n        /* \"#utility.yul\":31385:31397   */\n      add\n        /* \"#utility.yul\":31378:31397   */\n      swap1\n      pop\n        /* \"#utility.yul\":31037:31403   */\n      swap2\n      swap1\n      pop\n      jump\t// out\n        /* \"#utility.yul\":31409:31828   */\n    tag_277:\n        /* \"#utility.yul\":31575:31579   */\n      0x00\n        /* \"#utility.yul\":31613:31615   */\n      0x20\n        /* \"#utility.yul\":31602:31611   */\n      dup3\n        /* \"#utility.yul\":31598:31616   */\n      add\n        /* \"#utility.yul\":31590:31616   */\n      swap1\n      pop\n        /* \"#utility.yul\":31662:31671   */\n      dup2\n        /* \"#utility.yul\":31656:31660   */\n      dup2\n        /* \"#utility.yul\":31652:31672   */\n      sub\n        /* \"#utility.yul\":31648:31649   */\n      0x00\n        /* \"#utility.yul\":31637:31646   */\n      dup4\n        /* \"#utility.yul\":31633:31650   */\n      add\n        /* \"#utility.yul\":31626:31673   */\n      mstore\n        /* \"#utility.yul\":31690:31821   */\n      tag_637\n        /* \"#utility.yul\":31816:31820   */\n      dup2\n        /* \"#utility.yul\":31690:31821   */\n      tag_370\n      jump\t// in\n    tag_637:\n        /* \"#utility.yul\":31682:31821   */\n      swap1\n      pop\n        /* \"#utility.yul\":31409:31828   */\n      swap2\n      swap1\n      pop\n      jump\t// out\n        /* \"#utility.yul\":31834:32015   */\n    tag_371:\n        /* \"#utility.yul\":31974:32007   */\n      0x45524332303a206d696e7420746f20746865207a65726f206164647265737300\n        /* \"#utility.yul\":31970:31971   */\n      0x00\n        /* \"#utility.yul\":31962:31968   */\n      dup3\n        /* \"#utility.yul\":31958:31972   */\n      add\n        /* \"#utility.yul\":31951:32008   */\n      mstore\n        /* \"#utility.yul\":31834:32015   */\n      pop\n      jump\t// out\n        /* \"#utility.yul\":32021:32387   */\n    tag_372:\n        /* \"#utility.yul\":32163:32166   */\n      0x00\n        /* \"#utility.yul\":32184:32251   */\n      tag_640\n        /* \"#utility.yul\":32248:32250   */\n      0x1f\n        /* \"#utility.yul\":32243:32246   */\n      dup4\n        /* \"#utility.yul\":32184:32251   */\n      tag_291\n      jump\t// in\n    tag_640:\n        /* \"#utility.yul\":32177:32251   */\n      swap2\n      pop\n        /* \"#utility.yul\":32260:32353   */\n      tag_641\n        /* \"#utility.yul\":32349:32352   */\n      dup3\n        /* \"#utility.yul\":32260:32353   */\n      tag_371\n      jump\t// in\n    tag_641:\n        /* \"#utility.yul\":32378:32380   */\n      0x20\n        /* \"#utility.yul\":32373:32376   */\n      dup3\n        /* \"#utility.yul\":32369:32381   */\n      add\n        /* \"#utility.yul\":32362:32381   */\n      swap1\n      pop\n        /* \"#utility.yul\":32021:32387   */\n      swap2\n      swap1\n      pop\n      jump\t// out\n        /* \"#utility.yul\":32393:32812   */\n    tag_283:\n        /* \"#utility.yul\":32559:32563   */\n      0x00\n        /* \"#utility.yul\":32597:32599   */\n      0x20\n        /* \"#utility.yul\":32586:32595   */\n      dup3\n        /* \"#utility.yul\":32582:32600   */\n      add\n        /* \"#utility.yul\":32574:32600   */\n      swap1\n      pop\n        /* \"#utility.yul\":32646:32655   */\n      dup2\n        /* \"#utility.yul\":32640:32644   */\n      dup2\n        /* \"#utility.yul\":32636:32656   */\n      sub\n        /* \"#utility.yul\":32632:32633   */\n      0x00\n        /* \"#utility.yul\":32621:32630   */\n      dup4\n        /* \"#utility.yul\":32617:32634   */\n      add\n        /* \"#utility.yul\":32610:32657   */\n      mstore\n        /* \"#utility.yul\":32674:32805   */\n      tag_643\n        /* \"#utility.yul\":32800:32804   */\n      dup2\n        /* \"#utility.yul\":32674:32805   */\n      tag_372\n      jump\t// in\n    tag_643:\n        /* \"#utility.yul\":32666:32805   */\n      swap1\n      pop\n        /* \"#utility.yul\":32393:32812   */\n      swap2\n      swap1\n      pop\n      jump\t// out\n    stop\n    data_14a49d35a228c75a72748a65b4df3c3cc414083994dd55c01a81dac137996214 312e2056616e64616c5f534b494e205b3830302044474e5d20322e204f50455241544f525f534b494e205b3630302044474e5d20332e205048414e544f4d5f534b494e205b3235302044474e5d20342e20534845524946465f534b494e205b3137352044474e5d\n\n    auxdata: 0xa2646970667358221220448cc31613d6a1456fa5f821bd6e2a3b62b0f736a64c59ed7d6b88c4d72f2ae064736f6c63430008120033\n}\n",
				"bytecode": {
					"linkReferences": {},
					"object": "60806040526040518060400160405280600e81526020017f444547454e2056414c4f52414e54000000000000000000000000000000000000815250600590816200004a919062000638565b506040518060400160405280600581526020017f4447742d560000000000000000000000000000000000000000000000000000008152506006908162000091919062000638565b503480156200009f57600080fd5b5060058054620000af9062000427565b80601f0160208091040260200160405190810160405280929190818152602001828054620000dd9062000427565b80156200012e5780601f1062000102576101008083540402835291602001916200012e565b820191906000526020600020905b8154815290600101906020018083116200011057829003601f168201915b505050505060068054620001429062000427565b80601f0160208091040260200160405190810160405280929190818152602001828054620001709062000427565b8015620001c15780601f106200019557610100808354040283529160200191620001c1565b820191906000526020600020905b815481529060010190602001808311620001a357829003601f168201915b50505050508160039081620001d7919062000638565b508060049081620001e9919062000638565b50505062000200336127106200024760201b60201c565b33600860006101000a81548173ffffffffffffffffffffffffffffffffffffffff021916908373ffffffffffffffffffffffffffffffffffffffff1602179055506200083a565b600073ffffffffffffffffffffffffffffffffffffffff168273ffffffffffffffffffffffffffffffffffffffff1603620002b9576040517f08c379a0000000000000000000000000000000000000000000000000000000008152600401620002b09062000780565b60405180910390fd5b620002cd60008383620003b460201b60201c565b8060026000828254620002e19190620007d1565b92505081905550806000808473ffffffffffffffffffffffffffffffffffffffff1673ffffffffffffffffffffffffffffffffffffffff168152602001908152602001600020600082825401925050819055508173ffffffffffffffffffffffffffffffffffffffff16600073ffffffffffffffffffffffffffffffffffffffff167fddf252ad1be2c89b69c2b068fc378daa952ba7f163c4a11628f55a4df523b3ef836040516200039491906200081d565b60405180910390a3620003b060008383620003b960201b60201c565b5050565b505050565b505050565b600081519050919050565b7f4e487b7100000000000000000000000000000000000000000000000000000000600052604160045260246000fd5b7f4e487b7100000000000000000000000000000000000000000000000000000000600052602260045260246000fd5b600060028204905060018216806200044057607f821691505b602082108103620004565762000455620003f8565b5b50919050565b60008190508160005260206000209050919050565b60006020601f8301049050919050565b600082821b905092915050565b600060088302620004c07fffffffffffffffffffffffffffffffffffffffffffffffffffffffffffffffff8262000481565b620004cc868362000481565b95508019841693508086168417925050509392505050565b6000819050919050565b6000819050919050565b600062000519620005136200050d84620004e4565b620004ee565b620004e4565b9050919050565b6000819050919050565b6200053583620004f8565b6200054d620005448262000520565b8484546200048e565b825550505050565b600090565b6200056462000555565b620005718184846200052a565b505050565b5b8181101562000599576200058d6000826200055a565b60018101905062000577565b5050565b601f821115620005e857620005b2816200045c565b620005bd8462000471565b81016020851015620005cd578190505b620005e5620005dc8562000471565b83018262000576565b50505b505050565b600082821c905092915050565b60006200060d60001984600802620005ed565b1980831691505092915050565b6000620006288383620005fa565b9150826002028217905092915050565b6200064382620003be565b67ffffffffffffffff8111156200065f576200065e620003c9565b5b6200066b825462000427565b620006788282856200059d565b600060209050601f831160018114620006b057600084156200069b578287015190505b620006a785826200061a565b86555062000717565b601f198416620006c0866200045c565b60005b82811015620006ea57848901518255600182019150602085019450602081019050620006c3565b868310156200070a578489015162000706601f891682620005fa565b8355505b6001600288020188555050505b505050505050565b600082825260208201905092915050565b7f45524332303a206d696e7420746f20746865207a65726f206164647265737300600082015250565b600062000768601f836200071f565b9150620007758262000730565b602082019050919050565b600060208201905081810360008301526200079b8162000759565b9050919050565b7f4e487b7100000000000000000000000000000000000000000000000000000000600052601160045260246000fd5b6000620007de82620004e4565b9150620007eb83620004e4565b9250828201905080821115620008065762000805620007a2565b5b92915050565b6200081781620004e4565b82525050565b60006020820190506200083460008301846200080c565b92915050565b612a8c806200084a6000396000f3fe608060405234801561001057600080fd5b50600436106101375760003560e01c806370a08231116100b8578063a457c2d71161007c578063a457c2d714610345578063a6e158f814610375578063a9059cbb14610391578063bec3fa17146103c1578063dd62ed3e146103dd578063f0dda65c1461040d57610137565b806370a082311461029c5780637b61c320146102cc5780638af8a986146102ea5780638da5cb5b1461030957806395d89b411461032757610137565b8063313ce567116100ff578063313ce567146101f657806339509351146102145780634f731087146102445780636c02a931146102625780636d1b229d1461028057610137565b806306fdde031461013c57806308514a411461015a578063095ea7b31461017857806318160ddd146101a857806323b872dd146101c6575b600080fd5b610144610429565b6040516101519190611960565b60405180910390f35b6101626104bb565b60405161016f9190611960565b60405180910390f35b610192600480360381019061018d9190611a1b565b6104db565b60405161019f9190611a76565b60405180910390f35b6101b06104fe565b6040516101bd9190611aa0565b60405180910390f35b6101e060048036038101906101db9190611abb565b610508565b6040516101ed9190611a76565b60405180910390f35b6101fe610537565b60405161020b9190611b2a565b60405180910390f35b61022e60048036038101906102299190611a1b565b610540565b60405161023b9190611a76565b60405180910390f35b61024c610577565b6040516102599190611aa0565b60405180910390f35b61026a610587565b6040516102779190611960565b60405180910390f35b61029a60048036038101906102959190611b45565b610615565b005b6102b660048036038101906102b19190611b72565b61066d565b6040516102c39190611aa0565b60405180910390f35b6102d46106b5565b6040516102e19190611960565b60405180910390f35b6102f2610743565b604051610300929190611cab565b60405180910390f35b6103116108ec565b60405161031e9190611cea565b60405180910390f35b61032f610912565b60405161033c9190611960565b60405180910390f35b61035f600480360381019061035a9190611a1b565b6109a4565b60405161036c9190611a76565b60405180910390f35b61038f600480360381019061038a9190611b45565b610a1b565b005b6103ab60048036038101906103a69190611a1b565b610e7c565b6040516103b89190611a76565b60405180910390f35b6103db60048036038101906103d69190611a1b565b610e9f565b005b6103f760048036038101906103f29190611d05565b610ef9565b6040516104049190611aa0565b60405180910390f35b61042760048036038101906104229190611a1b565b610f80565b005b60606003805461043890611d74565b80601f016020809104026020016040519081016040528092919081815260200182805461046490611d74565b80156104b15780601f10610486576101008083540402835291602001916104b1565b820191906000526020600020905b81548152906001019060200180831161049457829003601f168201915b5050505050905090565b60606040518060a00160405280606781526020016129f060679139905090565b6000806104e66110d0565b90506104f38185856110d8565b600191505092915050565b6000600254905090565b6000806105136110d0565b90506105208582856112a1565b61052b85858561132d565b60019150509392505050565b60006012905090565b60008061054b6110d0565b905061056c81858561055d8589610ef9565b6105679190611dd4565b6110d8565b600191505092915050565b60006105823361066d565b905090565b6005805461059490611d74565b80601f01602080910402602001604051908101604052809291908181526020018280546105c090611d74565b801561060d5780601f106105e25761010080835404028352916020019161060d565b820191906000526020600020905b8154815290600101906020018083116105f057829003601f168201915b505050505081565b8061061f3361066d565b1015610660576040517f08c379a000000000000000000000000000000000000000000000000000000000815260040161065790611e54565b60405180910390fd5b61066a33826115a3565b50565b60008060008373ffffffffffffffffffffffffffffffffffffffff1673ffffffffffffffffffffffffffffffffffffffff168152602001908152602001600020549050919050565b600680546106c290611d74565b80601f01602080910402602001604051908101604052809291908181526020018280546106ee90611d74565b801561073b5780601f106107105761010080835404028352916020019161073b565b820191906000526020600020905b81548152906001019060200180831161071e57829003601f168201915b505050505081565b6060600080600760003373ffffffffffffffffffffffffffffffffffffffff1673ffffffffffffffffffffffffffffffffffffffff168152602001908152602001600020805490509050600081116107d0576040517f08c379a00000000000000000000000000000000000000000000000000000000081526004016107c790611ee6565b60405180910390fd5b600760003373ffffffffffffffffffffffffffffffffffffffff1673ffffffffffffffffffffffffffffffffffffffff1681526020019081526020016000208181805480602002602001604051908101604052809291908181526020016000905b828210156108dd57838290600052602060002001805461085090611d74565b80601f016020809104026020016040519081016040528092919081815260200182805461087c90611d74565b80156108c95780601f1061089e576101008083540402835291602001916108c9565b820191906000526020600020905b8154815290600101906020018083116108ac57829003601f168201915b505050505081526020019060010190610831565b50505050915092509250509091565b600860009054906101000a900473ffffffffffffffffffffffffffffffffffffffff1681565b60606004805461092190611d74565b80601f016020809104026020016040519081016040528092919081815260200182805461094d90611d74565b801561099a5780601f1061096f5761010080835404028352916020019161099a565b820191906000526020600020905b81548152906001019060200180831161097d57829003601f168201915b5050505050905090565b6000806109af6110d0565b905060006109bd8286610ef9565b905083811015610a02576040517f08c379a00000000000000000000000000000000000000000000000000000000081526004016109f990611f78565b60405180910390fd5b610a0f82868684036110d8565b60019250505092915050565b6004811115610a5f576040517f08c379a0000000000000000000000000000000000000000000000000000000008152600401610a5690611fe4565b60405180910390fd5b60018103610b6957610320610a733361066d565b1015610ab4576040517f08c379a0000000000000000000000000000000000000000000000000000000008152600401610aab90612050565b60405180910390fd5b610ac0336103206115a3565b600760003373ffffffffffffffffffffffffffffffffffffffff1673ffffffffffffffffffffffffffffffffffffffff16815260200190815260200160002080600181540180825580915050600190039060005260206000200160006040518060400160405280600b81526020017f56414e44414c5f534b494e00000000000000000000000000000000000000000081525090919091509081610b63919061224b565b50610e79565b60028103610c7357610258610b7d3361066d565b1015610bbe576040517f08c379a0000000000000000000000000000000000000000000000000000000008152600401610bb590612050565b60405180910390fd5b610bca336102586115a3565b600760003373ffffffffffffffffffffffffffffffffffffffff1673ffffffffffffffffffffffffffffffffffffffff16815260200190815260200160002080600181540180825580915050600190039060005260206000200160006040518060400160405280600d81526020017f4f50455241544f525f534b494e0000000000000000000000000000000000000081525090919091509081610c6d919061224b565b50610e78565b60038103610d7b5760fa610c863361066d565b1015610cc7576040517f08c379a0000000000000000000000000000000000000000000000000000000008152600401610cbe90612050565b60405180910390fd5b610cd23360fa6115a3565b600760003373ffffffffffffffffffffffffffffffffffffffff1673ffffffffffffffffffffffffffffffffffffffff16815260200190815260200160002080600181540180825580915050600190039060005260206000200160006040518060400160405280600d81526020017f5048414e544f4d5f534b494e200000000000000000000000000000000000000081525090919091509081610d75919061224b565b50610e77565b60af610d863361066d565b1015610dc7576040517f08c379a0000000000000000000000000000000000000000000000000000000008152600401610dbe90612050565b60405180910390fd5b610dd23360af6115a3565b600760003373ffffffffffffffffffffffffffffffffffffffff1673ffffffffffffffffffffffffffffffffffffffff16815260200190815260200160002080600181540180825580915050600190039060005260206000200160006040518060400160405280600c81526020017f534845524946465f534b494e000000000000000000000000000000000000000081525090919091509081610e75919061224b565b505b5b5b50565b600080610e876110d0565b9050610e9481858561132d565b600191505092915050565b80610ea93361066d565b1015610eea576040517f08c379a0000000000000000000000000000000000000000000000000000000008152600401610ee19061238f565b60405180910390fd5b610ef48282610e7c565b505050565b6000600160008473ffffffffffffffffffffffffffffffffffffffff1673ffffffffffffffffffffffffffffffffffffffff16815260200190815260200160002060008373ffffffffffffffffffffffffffffffffffffffff1673ffffffffffffffffffffffffffffffffffffffff16815260200190815260200160002054905092915050565b600860009054906101000a900473ffffffffffffffffffffffffffffffffffffffff1673ffffffffffffffffffffffffffffffffffffffff163373ffffffffffffffffffffffffffffffffffffffff1614611010576040517f08c379a0000000000000000000000000000000000000000000000000000000008152600401611007906123fb565b60405180910390fd5b600073ffffffffffffffffffffffffffffffffffffffff168273ffffffffffffffffffffffffffffffffffffffff160361107f576040517f08c379a000000000000000000000000000000000000000000000000000000000815260040161107690612467565b60405180910390fd5b600081116110c2576040517f08c379a00000000000000000000000000000000000000000000000000000000081526004016110b9906124f9565b60405180910390fd5b6110cc8282611770565b5050565b600033905090565b600073ffffffffffffffffffffffffffffffffffffffff168373ffffffffffffffffffffffffffffffffffffffff1603611147576040517f08c379a000000000000000000000000000000000000000000000000000000000815260040161113e9061258b565b60405180910390fd5b600073ffffffffffffffffffffffffffffffffffffffff168273ffffffffffffffffffffffffffffffffffffffff16036111b6576040517f08c379a00000000000000000000000000000000000000000000000000000000081526004016111ad9061261d565b60405180910390fd5b80600160008573ffffffffffffffffffffffffffffffffffffffff1673ffffffffffffffffffffffffffffffffffffffff16815260200190815260200160002060008473ffffffffffffffffffffffffffffffffffffffff1673ffffffffffffffffffffffffffffffffffffffff168152602001908152602001600020819055508173ffffffffffffffffffffffffffffffffffffffff168373ffffffffffffffffffffffffffffffffffffffff167f8c5be1e5ebec7d5bd14f71427d1e84f3dd0314c0f7b2291e5b200ac8c7c3b925836040516112949190611aa0565b60405180910390a3505050565b60006112ad8484610ef9565b90507fffffffffffffffffffffffffffffffffffffffffffffffffffffffffffffffff81146113275781811015611319576040517f08c379a000000000000000000000000000000000000000000000000000000000815260040161131090612689565b60405180910390fd5b61132684848484036110d8565b5b50505050565b600073ffffffffffffffffffffffffffffffffffffffff168373ffffffffffffffffffffffffffffffffffffffff160361139c576040517f08c379a00000000000000000000000000000000000000000000000000000000081526004016113939061271b565b60405180910390fd5b600073ffffffffffffffffffffffffffffffffffffffff168273ffffffffffffffffffffffffffffffffffffffff160361140b576040517f08c379a0000000000000000000000000000000000000000000000000000000008152600401611402906127ad565b60405180910390fd5b6114168383836118c6565b60008060008573ffffffffffffffffffffffffffffffffffffffff1673ffffffffffffffffffffffffffffffffffffffff1681526020019081526020016000205490508181101561149c576040517f08c379a00000000000000000000000000000000000000000000000000000000081526004016114939061283f565b60405180910390fd5b8181036000808673ffffffffffffffffffffffffffffffffffffffff1673ffffffffffffffffffffffffffffffffffffffff16815260200190815260200160002081905550816000808573ffffffffffffffffffffffffffffffffffffffff1673ffffffffffffffffffffffffffffffffffffffff168152602001908152602001600020600082825401925050819055508273ffffffffffffffffffffffffffffffffffffffff168473ffffffffffffffffffffffffffffffffffffffff167fddf252ad1be2c89b69c2b068fc378daa952ba7f163c4a11628f55a4df523b3ef8460405161158a9190611aa0565b60405180910390a361159d8484846118cb565b50505050565b600073ffffffffffffffffffffffffffffffffffffffff168273ffffffffffffffffffffffffffffffffffffffff1603611612576040517f08c379a0000000000000000000000000000000000000000000000000000000008152600401611609906128d1565b60405180910390fd5b61161e826000836118c6565b60008060008473ffffffffffffffffffffffffffffffffffffffff1673ffffffffffffffffffffffffffffffffffffffff168152602001908152602001600020549050818110156116a4576040517f08c379a000000000000000000000000000000000000000000000000000000000815260040161169b90612963565b60405180910390fd5b8181036000808573ffffffffffffffffffffffffffffffffffffffff1673ffffffffffffffffffffffffffffffffffffffff1681526020019081526020016000208190555081600260008282540392505081905550600073ffffffffffffffffffffffffffffffffffffffff168373ffffffffffffffffffffffffffffffffffffffff167fddf252ad1be2c89b69c2b068fc378daa952ba7f163c4a11628f55a4df523b3ef846040516117579190611aa0565b60405180910390a361176b836000846118cb565b505050565b600073ffffffffffffffffffffffffffffffffffffffff168273ffffffffffffffffffffffffffffffffffffffff16036117df576040517f08c379a00000000000000000000000000000000000000000000000000000000081526004016117d6906129cf565b60405180910390fd5b6117eb600083836118c6565b80600260008282546117fd9190611dd4565b92505081905550806000808473ffffffffffffffffffffffffffffffffffffffff1673ffffffffffffffffffffffffffffffffffffffff168152602001908152602001600020600082825401925050819055508173ffffffffffffffffffffffffffffffffffffffff16600073ffffffffffffffffffffffffffffffffffffffff167fddf252ad1be2c89b69c2b068fc378daa952ba7f163c4a11628f55a4df523b3ef836040516118ae9190611aa0565b60405180910390a36118c2600083836118cb565b5050565b505050565b505050565b600081519050919050565b600082825260208201905092915050565b60005b8381101561190a5780820151818401526020810190506118ef565b60008484015250505050565b6000601f19601f8301169050919050565b6000611932826118d0565b61193c81856118db565b935061194c8185602086016118ec565b61195581611916565b840191505092915050565b6000602082019050818103600083015261197a8184611927565b905092915050565b600080fd5b600073ffffffffffffffffffffffffffffffffffffffff82169050919050565b60006119b282611987565b9050919050565b6119c2816119a7565b81146119cd57600080fd5b50565b6000813590506119df816119b9565b92915050565b6000819050919050565b6119f8816119e5565b8114611a0357600080fd5b50565b600081359050611a15816119ef565b92915050565b60008060408385031215611a3257611a31611982565b5b6000611a40858286016119d0565b9250506020611a5185828601611a06565b9150509250929050565b60008115159050919050565b611a7081611a5b565b82525050565b6000602082019050611a8b6000830184611a67565b92915050565b611a9a816119e5565b82525050565b6000602082019050611ab56000830184611a91565b92915050565b600080600060608486031215611ad457611ad3611982565b5b6000611ae2868287016119d0565b9350506020611af3868287016119d0565b9250506040611b0486828701611a06565b9150509250925092565b600060ff82169050919050565b611b2481611b0e565b82525050565b6000602082019050611b3f6000830184611b1b565b92915050565b600060208284031215611b5b57611b5a611982565b5b6000611b6984828501611a06565b91505092915050565b600060208284031215611b8857611b87611982565b5b6000611b96848285016119d0565b91505092915050565b600081519050919050565b600082825260208201905092915050565b6000819050602082019050919050565b600082825260208201905092915050565b6000611be7826118d0565b611bf18185611bcb565b9350611c018185602086016118ec565b611c0a81611916565b840191505092915050565b6000611c218383611bdc565b905092915050565b6000602082019050919050565b6000611c4182611b9f565b611c4b8185611baa565b935083602082028501611c5d85611bbb565b8060005b85811015611c995784840389528151611c7a8582611c15565b9450611c8583611c29565b925060208a01995050600181019050611c61565b50829750879550505050505092915050565b60006040820190508181036000830152611cc58185611c36565b9050611cd46020830184611a91565b9392505050565b611ce4816119a7565b82525050565b6000602082019050611cff6000830184611cdb565b92915050565b60008060408385031215611d1c57611d1b611982565b5b6000611d2a858286016119d0565b9250506020611d3b858286016119d0565b9150509250929050565b7f4e487b7100000000000000000000000000000000000000000000000000000000600052602260045260246000fd5b60006002820490506001821680611d8c57607f821691505b602082108103611d9f57611d9e611d45565b5b50919050565b7f4e487b7100000000000000000000000000000000000000000000000000000000600052601160045260246000fd5b6000611ddf826119e5565b9150611dea836119e5565b9250828201905080821115611e0257611e01611da5565b5b92915050565b7f596f7520646f6e2774206861766520656e6f75676820746f6b656e7321000000600082015250565b6000611e3e601d836118db565b9150611e4982611e08565b602082019050919050565b60006020820190508181036000830152611e6d81611e31565b9050919050565b7f4e6f2070757263686173657320666f756e6420666f722074686973206164647260008201527f6573730000000000000000000000000000000000000000000000000000000000602082015250565b6000611ed06023836118db565b9150611edb82611e74565b604082019050919050565b60006020820190508181036000830152611eff81611ec3565b9050919050565b7f45524332303a2064656372656173656420616c6c6f77616e63652062656c6f7760008201527f207a65726f000000000000000000000000000000000000000000000000000000602082015250565b6000611f626025836118db565b9150611f6d82611f06565b604082019050919050565b60006020820190508181036000830152611f9181611f55565b9050919050565b7f57726f6e67206f7074696f6e2073656c65637465642100000000000000000000600082015250565b6000611fce6016836118db565b9150611fd982611f98565b602082019050919050565b60006020820190508181036000830152611ffd81611fc1565b9050919050565b7f4f6f70732120496e73756666696369656e7420546f6b656e7300000000000000600082015250565b600061203a6019836118db565b915061204582612004565b602082019050919050565b600060208201905081810360008301526120698161202d565b9050919050565b7f4e487b7100000000000000000000000000000000000000000000000000000000600052604160045260246000fd5b60008190508160005260206000209050919050565b60006020601f8301049050919050565b600082821b905092915050565b6000600883026121017fffffffffffffffffffffffffffffffffffffffffffffffffffffffffffffffff826120c4565b61210b86836120c4565b95508019841693508086168417925050509392505050565b6000819050919050565b600061214861214361213e846119e5565b612123565b6119e5565b9050919050565b6000819050919050565b6121628361212d565b61217661216e8261214f565b8484546120d1565b825550505050565b600090565b61218b61217e565b612196818484612159565b505050565b5b818110156121ba576121af600082612183565b60018101905061219c565b5050565b601f8211156121ff576121d08161209f565b6121d9846120b4565b810160208510156121e8578190505b6121fc6121f4856120b4565b83018261219b565b50505b505050565b600082821c905092915050565b600061222260001984600802612204565b1980831691505092915050565b600061223b8383612211565b9150826002028217905092915050565b612254826118d0565b67ffffffffffffffff81111561226d5761226c612070565b5b6122778254611d74565b6122828282856121be565b600060209050601f8311600181146122b557600084156122a3578287015190505b6122ad858261222f565b865550612315565b601f1984166122c38661209f565b60005b828110156122eb578489015182556001820191506020850194506020810190506122c6565b868310156123085784890151612304601f891682612211565b8355505b6001600288020188555050505b505050505050565b7f536f7272792c206e6f7420656e6f7567682062616c616e636520696e2077616c60008201527f6c65742e00000000000000000000000000000000000000000000000000000000602082015250565b60006123796024836118db565b91506123848261231d565b604082019050919050565b600060208201905081810360008301526123a88161236c565b9050919050565b7f4f6e6c792c206f776e65722063616e206d696e742074686520746f6b656e7321600082015250565b60006123e56020836118db565b91506123f0826123af565b602082019050919050565b60006020820190508181036000830152612414816123d8565b9050919050565b7f54686973206164647265737320646f65736e2774206578697374000000000000600082015250565b6000612451601a836118db565b915061245c8261241b565b602082019050919050565b6000602082019050818103600083015261248081612444565b9050919050565b7f596f752063616e2774206d696e74206e65676174697665206e756d626572206f60008201527f6620746f6b656e73000000000000000000000000000000000000000000000000602082015250565b60006124e36028836118db565b91506124ee82612487565b604082019050919050565b60006020820190508181036000830152612512816124d6565b9050919050565b7f45524332303a20617070726f76652066726f6d20746865207a65726f2061646460008201527f7265737300000000000000000000000000000000000000000000000000000000602082015250565b60006125756024836118db565b915061258082612519565b604082019050919050565b600060208201905081810360008301526125a481612568565b9050919050565b7f45524332303a20617070726f766520746f20746865207a65726f20616464726560008201527f7373000000000000000000000000000000000000000000000000000000000000602082015250565b60006126076022836118db565b9150612612826125ab565b604082019050919050565b60006020820190508181036000830152612636816125fa565b9050919050565b7f45524332303a20696e73756666696369656e7420616c6c6f77616e6365000000600082015250565b6000612673601d836118db565b915061267e8261263d565b602082019050919050565b600060208201905081810360008301526126a281612666565b9050919050565b7f45524332303a207472616e736665722066726f6d20746865207a65726f20616460008201527f6472657373000000000000000000000000000000000000000000000000000000602082015250565b60006127056025836118db565b9150612710826126a9565b604082019050919050565b60006020820190508181036000830152612734816126f8565b9050919050565b7f45524332303a207472616e7366657220746f20746865207a65726f206164647260008201527f6573730000000000000000000000000000000000000000000000000000000000602082015250565b60006127976023836118db565b91506127a28261273b565b604082019050919050565b600060208201905081810360008301526127c68161278a565b9050919050565b7f45524332303a207472616e7366657220616d6f756e742065786365656473206260008201527f616c616e63650000000000000000000000000000000000000000000000000000602082015250565b60006128296026836118db565b9150612834826127cd565b604082019050919050565b600060208201905081810360008301526128588161281c565b9050919050565b7f45524332303a206275726e2066726f6d20746865207a65726f2061646472657360008201527f7300000000000000000000000000000000000000000000000000000000000000602082015250565b60006128bb6021836118db565b91506128c68261285f565b604082019050919050565b600060208201905081810360008301526128ea816128ae565b9050919050565b7f45524332303a206275726e20616d6f756e7420657863656564732062616c616e60008201527f6365000000000000000000000000000000000000000000000000000000000000602082015250565b600061294d6022836118db565b9150612958826128f1565b604082019050919050565b6000602082019050818103600083015261297c81612940565b9050919050565b7f45524332303a206d696e7420746f20746865207a65726f206164647265737300600082015250565b60006129b9601f836118db565b91506129c482612983565b602082019050919050565b600060208201905081810360008301526129e8816129ac565b905091905056fe312e2056616e64616c5f534b494e205b3830302044474e5d20322e204f50455241544f525f534b494e205b3630302044474e5d20332e205048414e544f4d5f534b494e205b3235302044474e5d20342e20534845524946465f534b494e205b3137352044474e5da2646970667358221220448cc31613d6a1456fa5f821bd6e2a3b62b0f736a64c59ed7d6b88c4d72f2ae064736f6c63430008120033",
					"opcodes": "PUSH1 0x80 PUSH1 0x40 MSTORE PUSH1 0x40 MLOAD DUP1 PUSH1 0x40 ADD PUSH1 0x40 MSTORE DUP1 PUSH1 0xE DUP2 MSTORE PUSH1 0x20 ADD PUSH32 0x444547454E2056414C4F52414E54000000000000000000000000000000000000 DUP2 MSTORE POP PUSH1 0x5 SWAP1 DUP2 PUSH3 0x4A SWAP2 SWAP1 PUSH3 0x638 JUMP JUMPDEST POP PUSH1 0x40 MLOAD DUP1 PUSH1 0x40 ADD PUSH1 0x40 MSTORE DUP1 PUSH1 0x5 DUP2 MSTORE PUSH1 0x20 ADD PUSH32 0x4447742D56000000000000000000000000000000000000000000000000000000 DUP2 MSTORE POP PUSH1 0x6 SWAP1 DUP2 PUSH3 0x91 SWAP2 SWAP1 PUSH3 0x638 JUMP JUMPDEST POP CALLVALUE DUP1 ISZERO PUSH3 0x9F JUMPI PUSH1 0x0 DUP1 REVERT JUMPDEST POP PUSH1 0x5 DUP1 SLOAD PUSH3 0xAF SWAP1 PUSH3 0x427 JUMP JUMPDEST DUP1 PUSH1 0x1F ADD PUSH1 0x20 DUP1 SWAP2 DIV MUL PUSH1 0x20 ADD PUSH1 0x40 MLOAD SWAP1 DUP2 ADD PUSH1 0x40 MSTORE DUP1 SWAP3 SWAP2 SWAP1 DUP2 DUP2 MSTORE PUSH1 0x20 ADD DUP3 DUP1 SLOAD PUSH3 0xDD SWAP1 PUSH3 0x427 JUMP JUMPDEST DUP1 ISZERO PUSH3 0x12E JUMPI DUP1 PUSH1 0x1F LT PUSH3 0x102 JUMPI PUSH2 0x100 DUP1 DUP4 SLOAD DIV MUL DUP4 MSTORE SWAP2 PUSH1 0x20 ADD SWAP2 PUSH3 0x12E JUMP JUMPDEST DUP3 ADD SWAP2 SWAP1 PUSH1 0x0 MSTORE PUSH1 0x20 PUSH1 0x0 KECCAK256 SWAP1 JUMPDEST DUP2 SLOAD DUP2 MSTORE SWAP1 PUSH1 0x1 ADD SWAP1 PUSH1 0x20 ADD DUP1 DUP4 GT PUSH3 0x110 JUMPI DUP3 SWAP1 SUB PUSH1 0x1F AND DUP3 ADD SWAP2 JUMPDEST POP POP POP POP POP PUSH1 0x6 DUP1 SLOAD PUSH3 0x142 SWAP1 PUSH3 0x427 JUMP JUMPDEST DUP1 PUSH1 0x1F ADD PUSH1 0x20 DUP1 SWAP2 DIV MUL PUSH1 0x20 ADD PUSH1 0x40 MLOAD SWAP1 DUP2 ADD PUSH1 0x40 MSTORE DUP1 SWAP3 SWAP2 SWAP1 DUP2 DUP2 MSTORE PUSH1 0x20 ADD DUP3 DUP1 SLOAD PUSH3 0x170 SWAP1 PUSH3 0x427 JUMP JUMPDEST DUP1 ISZERO PUSH3 0x1C1 JUMPI DUP1 PUSH1 0x1F LT PUSH3 0x195 JUMPI PUSH2 0x100 DUP1 DUP4 SLOAD DIV MUL DUP4 MSTORE SWAP2 PUSH1 0x20 ADD SWAP2 PUSH3 0x1C1 JUMP JUMPDEST DUP3 ADD SWAP2 SWAP1 PUSH1 0x0 MSTORE PUSH1 0x20 PUSH1 0x0 KECCAK256 SWAP1 JUMPDEST DUP2 SLOAD DUP2 MSTORE SWAP1 PUSH1 0x1 ADD SWAP1 PUSH1 0x20 ADD DUP1 DUP4 GT PUSH3 0x1A3 JUMPI DUP3 SWAP1 SUB PUSH1 0x1F AND DUP3 ADD SWAP2 JUMPDEST POP POP POP POP POP DUP2 PUSH1 0x3 SWAP1 DUP2 PUSH3 0x1D7 SWAP2 SWAP1 PUSH3 0x638 JUMP JUMPDEST POP DUP1 PUSH1 0x4 SWAP1 DUP2 PUSH3 0x1E9 SWAP2 SWAP1 PUSH3 0x638 JUMP JUMPDEST POP POP POP PUSH3 0x200 CALLER PUSH2 0x2710 PUSH3 0x247 PUSH1 0x20 SHL PUSH1 0x20 SHR JUMP JUMPDEST CALLER PUSH1 0x8 PUSH1 0x0 PUSH2 0x100 EXP DUP2 SLOAD DUP2 PUSH20 0xFFFFFFFFFFFFFFFFFFFFFFFFFFFFFFFFFFFFFFFF MUL NOT AND SWAP1 DUP4 PUSH20 0xFFFFFFFFFFFFFFFFFFFFFFFFFFFFFFFFFFFFFFFF AND MUL OR SWAP1 SSTORE POP PUSH3 0x83A JUMP JUMPDEST PUSH1 0x0 PUSH20 0xFFFFFFFFFFFFFFFFFFFFFFFFFFFFFFFFFFFFFFFF AND DUP3 PUSH20 0xFFFFFFFFFFFFFFFFFFFFFFFFFFFFFFFFFFFFFFFF AND SUB PUSH3 0x2B9 JUMPI PUSH1 0x40 MLOAD PUSH32 0x8C379A000000000000000000000000000000000000000000000000000000000 DUP2 MSTORE PUSH1 0x4 ADD PUSH3 0x2B0 SWAP1 PUSH3 0x780 JUMP JUMPDEST PUSH1 0x40 MLOAD DUP1 SWAP2 SUB SWAP1 REVERT JUMPDEST PUSH3 0x2CD PUSH1 0x0 DUP4 DUP4 PUSH3 0x3B4 PUSH1 0x20 SHL PUSH1 0x20 SHR JUMP JUMPDEST DUP1 PUSH1 0x2 PUSH1 0x0 DUP3 DUP3 SLOAD PUSH3 0x2E1 SWAP2 SWAP1 PUSH3 0x7D1 JUMP JUMPDEST SWAP3 POP POP DUP2 SWAP1 SSTORE POP DUP1 PUSH1 0x0 DUP1 DUP5 PUSH20 0xFFFFFFFFFFFFFFFFFFFFFFFFFFFFFFFFFFFFFFFF AND PUSH20 0xFFFFFFFFFFFFFFFFFFFFFFFFFFFFFFFFFFFFFFFF AND DUP2 MSTORE PUSH1 0x20 ADD SWAP1 DUP2 MSTORE PUSH1 0x20 ADD PUSH1 0x0 KECCAK256 PUSH1 0x0 DUP3 DUP3 SLOAD ADD SWAP3 POP POP DUP2 SWAP1 SSTORE POP DUP2 PUSH20 0xFFFFFFFFFFFFFFFFFFFFFFFFFFFFFFFFFFFFFFFF AND PUSH1 0x0 PUSH20 0xFFFFFFFFFFFFFFFFFFFFFFFFFFFFFFFFFFFFFFFF AND PUSH32 0xDDF252AD1BE2C89B69C2B068FC378DAA952BA7F163C4A11628F55A4DF523B3EF DUP4 PUSH1 0x40 MLOAD PUSH3 0x394 SWAP2 SWAP1 PUSH3 0x81D JUMP JUMPDEST PUSH1 0x40 MLOAD DUP1 SWAP2 SUB SWAP1 LOG3 PUSH3 0x3B0 PUSH1 0x0 DUP4 DUP4 PUSH3 0x3B9 PUSH1 0x20 SHL PUSH1 0x20 SHR JUMP JUMPDEST POP POP JUMP JUMPDEST POP POP POP JUMP JUMPDEST POP POP POP JUMP JUMPDEST PUSH1 0x0 DUP2 MLOAD SWAP1 POP SWAP2 SWAP1 POP JUMP JUMPDEST PUSH32 0x4E487B7100000000000000000000000000000000000000000000000000000000 PUSH1 0x0 MSTORE PUSH1 0x41 PUSH1 0x4 MSTORE PUSH1 0x24 PUSH1 0x0 REVERT JUMPDEST PUSH32 0x4E487B7100000000000000000000000000000000000000000000000000000000 PUSH1 0x0 MSTORE PUSH1 0x22 PUSH1 0x4 MSTORE PUSH1 0x24 PUSH1 0x0 REVERT JUMPDEST PUSH1 0x0 PUSH1 0x2 DUP3 DIV SWAP1 POP PUSH1 0x1 DUP3 AND DUP1 PUSH3 0x440 JUMPI PUSH1 0x7F DUP3 AND SWAP2 POP JUMPDEST PUSH1 0x20 DUP3 LT DUP2 SUB PUSH3 0x456 JUMPI PUSH3 0x455 PUSH3 0x3F8 JUMP JUMPDEST JUMPDEST POP SWAP2 SWAP1 POP JUMP JUMPDEST PUSH1 0x0 DUP2 SWAP1 POP DUP2 PUSH1 0x0 MSTORE PUSH1 0x20 PUSH1 0x0 KECCAK256 SWAP1 POP SWAP2 SWAP1 POP JUMP JUMPDEST PUSH1 0x0 PUSH1 0x20 PUSH1 0x1F DUP4 ADD DIV SWAP1 POP SWAP2 SWAP1 POP JUMP JUMPDEST PUSH1 0x0 DUP3 DUP3 SHL SWAP1 POP SWAP3 SWAP2 POP POP JUMP JUMPDEST PUSH1 0x0 PUSH1 0x8 DUP4 MUL PUSH3 0x4C0 PUSH32 0xFFFFFFFFFFFFFFFFFFFFFFFFFFFFFFFFFFFFFFFFFFFFFFFFFFFFFFFFFFFFFFFF DUP3 PUSH3 0x481 JUMP JUMPDEST PUSH3 0x4CC DUP7 DUP4 PUSH3 0x481 JUMP JUMPDEST SWAP6 POP DUP1 NOT DUP5 AND SWAP4 POP DUP1 DUP7 AND DUP5 OR SWAP3 POP POP POP SWAP4 SWAP3 POP POP POP JUMP JUMPDEST PUSH1 0x0 DUP2 SWAP1 POP SWAP2 SWAP1 POP JUMP JUMPDEST PUSH1 0x0 DUP2 SWAP1 POP SWAP2 SWAP1 POP JUMP JUMPDEST PUSH1 0x0 PUSH3 0x519 PUSH3 0x513 PUSH3 0x50D DUP5 PUSH3 0x4E4 JUMP JUMPDEST PUSH3 0x4EE JUMP JUMPDEST PUSH3 0x4E4 JUMP JUMPDEST SWAP1 POP SWAP2 SWAP1 POP JUMP JUMPDEST PUSH1 0x0 DUP2 SWAP1 POP SWAP2 SWAP1 POP JUMP JUMPDEST PUSH3 0x535 DUP4 PUSH3 0x4F8 JUMP JUMPDEST PUSH3 0x54D PUSH3 0x544 DUP3 PUSH3 0x520 JUMP JUMPDEST DUP5 DUP5 SLOAD PUSH3 0x48E JUMP JUMPDEST DUP3 SSTORE POP POP POP POP JUMP JUMPDEST PUSH1 0x0 SWAP1 JUMP JUMPDEST PUSH3 0x564 PUSH3 0x555 JUMP JUMPDEST PUSH3 0x571 DUP2 DUP5 DUP5 PUSH3 0x52A JUMP JUMPDEST POP POP POP JUMP JUMPDEST JUMPDEST DUP2 DUP2 LT ISZERO PUSH3 0x599 JUMPI PUSH3 0x58D PUSH1 0x0 DUP3 PUSH3 0x55A JUMP JUMPDEST PUSH1 0x1 DUP2 ADD SWAP1 POP PUSH3 0x577 JUMP JUMPDEST POP POP JUMP JUMPDEST PUSH1 0x1F DUP3 GT ISZERO PUSH3 0x5E8 JUMPI PUSH3 0x5B2 DUP2 PUSH3 0x45C JUMP JUMPDEST PUSH3 0x5BD DUP5 PUSH3 0x471 JUMP JUMPDEST DUP2 ADD PUSH1 0x20 DUP6 LT ISZERO PUSH3 0x5CD JUMPI DUP2 SWAP1 POP JUMPDEST PUSH3 0x5E5 PUSH3 0x5DC DUP6 PUSH3 0x471 JUMP JUMPDEST DUP4 ADD DUP3 PUSH3 0x576 JUMP JUMPDEST POP POP JUMPDEST POP POP POP JUMP JUMPDEST PUSH1 0x0 DUP3 DUP3 SHR SWAP1 POP SWAP3 SWAP2 POP POP JUMP JUMPDEST PUSH1 0x0 PUSH3 0x60D PUSH1 0x0 NOT DUP5 PUSH1 0x8 MUL PUSH3 0x5ED JUMP JUMPDEST NOT DUP1 DUP4 AND SWAP2 POP POP SWAP3 SWAP2 POP POP JUMP JUMPDEST PUSH1 0x0 PUSH3 0x628 DUP4 DUP4 PUSH3 0x5FA JUMP JUMPDEST SWAP2 POP DUP3 PUSH1 0x2 MUL DUP3 OR SWAP1 POP SWAP3 SWAP2 POP POP JUMP JUMPDEST PUSH3 0x643 DUP3 PUSH3 0x3BE JUMP JUMPDEST PUSH8 0xFFFFFFFFFFFFFFFF DUP2 GT ISZERO PUSH3 0x65F JUMPI PUSH3 0x65E PUSH3 0x3C9 JUMP JUMPDEST JUMPDEST PUSH3 0x66B DUP3 SLOAD PUSH3 0x427 JUMP JUMPDEST PUSH3 0x678 DUP3 DUP3 DUP6 PUSH3 0x59D JUMP JUMPDEST PUSH1 0x0 PUSH1 0x20 SWAP1 POP PUSH1 0x1F DUP4 GT PUSH1 0x1 DUP2 EQ PUSH3 0x6B0 JUMPI PUSH1 0x0 DUP5 ISZERO PUSH3 0x69B JUMPI DUP3 DUP8 ADD MLOAD SWAP1 POP JUMPDEST PUSH3 0x6A7 DUP6 DUP3 PUSH3 0x61A JUMP JUMPDEST DUP7 SSTORE POP PUSH3 0x717 JUMP JUMPDEST PUSH1 0x1F NOT DUP5 AND PUSH3 0x6C0 DUP7 PUSH3 0x45C JUMP JUMPDEST PUSH1 0x0 JUMPDEST DUP3 DUP2 LT ISZERO PUSH3 0x6EA JUMPI DUP5 DUP10 ADD MLOAD DUP3 SSTORE PUSH1 0x1 DUP3 ADD SWAP2 POP PUSH1 0x20 DUP6 ADD SWAP5 POP PUSH1 0x20 DUP2 ADD SWAP1 POP PUSH3 0x6C3 JUMP JUMPDEST DUP7 DUP4 LT ISZERO PUSH3 0x70A JUMPI DUP5 DUP10 ADD MLOAD PUSH3 0x706 PUSH1 0x1F DUP10 AND DUP3 PUSH3 0x5FA JUMP JUMPDEST DUP4 SSTORE POP JUMPDEST PUSH1 0x1 PUSH1 0x2 DUP9 MUL ADD DUP9 SSTORE POP POP POP JUMPDEST POP POP POP POP POP POP JUMP JUMPDEST PUSH1 0x0 DUP3 DUP3 MSTORE PUSH1 0x20 DUP3 ADD SWAP1 POP SWAP3 SWAP2 POP POP JUMP JUMPDEST PUSH32 0x45524332303A206D696E7420746F20746865207A65726F206164647265737300 PUSH1 0x0 DUP3 ADD MSTORE POP JUMP JUMPDEST PUSH1 0x0 PUSH3 0x768 PUSH1 0x1F DUP4 PUSH3 0x71F JUMP JUMPDEST SWAP2 POP PUSH3 0x775 DUP3 PUSH3 0x730 JUMP JUMPDEST PUSH1 0x20 DUP3 ADD SWAP1 POP SWAP2 SWAP1 POP JUMP JUMPDEST PUSH1 0x0 PUSH1 0x20 DUP3 ADD SWAP1 POP DUP2 DUP2 SUB PUSH1 0x0 DUP4 ADD MSTORE PUSH3 0x79B DUP2 PUSH3 0x759 JUMP JUMPDEST SWAP1 POP SWAP2 SWAP1 POP JUMP JUMPDEST PUSH32 0x4E487B7100000000000000000000000000000000000000000000000000000000 PUSH1 0x0 MSTORE PUSH1 0x11 PUSH1 0x4 MSTORE PUSH1 0x24 PUSH1 0x0 REVERT JUMPDEST PUSH1 0x0 PUSH3 0x7DE DUP3 PUSH3 0x4E4 JUMP JUMPDEST SWAP2 POP PUSH3 0x7EB DUP4 PUSH3 0x4E4 JUMP JUMPDEST SWAP3 POP DUP3 DUP3 ADD SWAP1 POP DUP1 DUP3 GT ISZERO PUSH3 0x806 JUMPI PUSH3 0x805 PUSH3 0x7A2 JUMP JUMPDEST JUMPDEST SWAP3 SWAP2 POP POP JUMP JUMPDEST PUSH3 0x817 DUP2 PUSH3 0x4E4 JUMP JUMPDEST DUP3 MSTORE POP POP JUMP JUMPDEST PUSH1 0x0 PUSH1 0x20 DUP3 ADD SWAP1 POP PUSH3 0x834 PUSH1 0x0 DUP4 ADD DUP5 PUSH3 0x80C JUMP JUMPDEST SWAP3 SWAP2 POP POP JUMP JUMPDEST PUSH2 0x2A8C DUP1 PUSH3 0x84A PUSH1 0x0 CODECOPY PUSH1 0x0 RETURN INVALID PUSH1 0x80 PUSH1 0x40 MSTORE CALLVALUE DUP1 ISZERO PUSH2 0x10 JUMPI PUSH1 0x0 DUP1 REVERT JUMPDEST POP PUSH1 0x4 CALLDATASIZE LT PUSH2 0x137 JUMPI PUSH1 0x0 CALLDATALOAD PUSH1 0xE0 SHR DUP1 PUSH4 0x70A08231 GT PUSH2 0xB8 JUMPI DUP1 PUSH4 0xA457C2D7 GT PUSH2 0x7C JUMPI DUP1 PUSH4 0xA457C2D7 EQ PUSH2 0x345 JUMPI DUP1 PUSH4 0xA6E158F8 EQ PUSH2 0x375 JUMPI DUP1 PUSH4 0xA9059CBB EQ PUSH2 0x391 JUMPI DUP1 PUSH4 0xBEC3FA17 EQ PUSH2 0x3C1 JUMPI DUP1 PUSH4 0xDD62ED3E EQ PUSH2 0x3DD JUMPI DUP1 PUSH4 0xF0DDA65C EQ PUSH2 0x40D JUMPI PUSH2 0x137 JUMP JUMPDEST DUP1 PUSH4 0x70A08231 EQ PUSH2 0x29C JUMPI DUP1 PUSH4 0x7B61C320 EQ PUSH2 0x2CC JUMPI DUP1 PUSH4 0x8AF8A986 EQ PUSH2 0x2EA JUMPI DUP1 PUSH4 0x8DA5CB5B EQ PUSH2 0x309 JUMPI DUP1 PUSH4 0x95D89B41 EQ PUSH2 0x327 JUMPI PUSH2 0x137 JUMP JUMPDEST DUP1 PUSH4 0x313CE567 GT PUSH2 0xFF JUMPI DUP1 PUSH4 0x313CE567 EQ PUSH2 0x1F6 JUMPI DUP1 PUSH4 0x39509351 EQ PUSH2 0x214 JUMPI DUP1 PUSH4 0x4F731087 EQ PUSH2 0x244 JUMPI DUP1 PUSH4 0x6C02A931 EQ PUSH2 0x262 JUMPI DUP1 PUSH4 0x6D1B229D EQ PUSH2 0x280 JUMPI PUSH2 0x137 JUMP JUMPDEST DUP1 PUSH4 0x6FDDE03 EQ PUSH2 0x13C JUMPI DUP1 PUSH4 0x8514A41 EQ PUSH2 0x15A JUMPI DUP1 PUSH4 0x95EA7B3 EQ PUSH2 0x178 JUMPI DUP1 PUSH4 0x18160DDD EQ PUSH2 0x1A8 JUMPI DUP1 PUSH4 0x23B872DD EQ PUSH2 0x1C6 JUMPI JUMPDEST PUSH1 0x0 DUP1 REVERT JUMPDEST PUSH2 0x144 PUSH2 0x429 JUMP JUMPDEST PUSH1 0x40 MLOAD PUSH2 0x151 SWAP2 SWAP1 PUSH2 0x1960 JUMP JUMPDEST PUSH1 0x40 MLOAD DUP1 SWAP2 SUB SWAP1 RETURN JUMPDEST PUSH2 0x162 PUSH2 0x4BB JUMP JUMPDEST PUSH1 0x40 MLOAD PUSH2 0x16F SWAP2 SWAP1 PUSH2 0x1960 JUMP JUMPDEST PUSH1 0x40 MLOAD DUP1 SWAP2 SUB SWAP1 RETURN JUMPDEST PUSH2 0x192 PUSH1 0x4 DUP1 CALLDATASIZE SUB DUP2 ADD SWAP1 PUSH2 0x18D SWAP2 SWAP1 PUSH2 0x1A1B JUMP JUMPDEST PUSH2 0x4DB JUMP JUMPDEST PUSH1 0x40 MLOAD PUSH2 0x19F SWAP2 SWAP1 PUSH2 0x1A76 JUMP JUMPDEST PUSH1 0x40 MLOAD DUP1 SWAP2 SUB SWAP1 RETURN JUMPDEST PUSH2 0x1B0 PUSH2 0x4FE JUMP JUMPDEST PUSH1 0x40 MLOAD PUSH2 0x1BD SWAP2 SWAP1 PUSH2 0x1AA0 JUMP JUMPDEST PUSH1 0x40 MLOAD DUP1 SWAP2 SUB SWAP1 RETURN JUMPDEST PUSH2 0x1E0 PUSH1 0x4 DUP1 CALLDATASIZE SUB DUP2 ADD SWAP1 PUSH2 0x1DB SWAP2 SWAP1 PUSH2 0x1ABB JUMP JUMPDEST PUSH2 0x508 JUMP JUMPDEST PUSH1 0x40 MLOAD PUSH2 0x1ED SWAP2 SWAP1 PUSH2 0x1A76 JUMP JUMPDEST PUSH1 0x40 MLOAD DUP1 SWAP2 SUB SWAP1 RETURN JUMPDEST PUSH2 0x1FE PUSH2 0x537 JUMP JUMPDEST PUSH1 0x40 MLOAD PUSH2 0x20B SWAP2 SWAP1 PUSH2 0x1B2A JUMP JUMPDEST PUSH1 0x40 MLOAD DUP1 SWAP2 SUB SWAP1 RETURN JUMPDEST PUSH2 0x22E PUSH1 0x4 DUP1 CALLDATASIZE SUB DUP2 ADD SWAP1 PUSH2 0x229 SWAP2 SWAP1 PUSH2 0x1A1B JUMP JUMPDEST PUSH2 0x540 JUMP JUMPDEST PUSH1 0x40 MLOAD PUSH2 0x23B SWAP2 SWAP1 PUSH2 0x1A76 JUMP JUMPDEST PUSH1 0x40 MLOAD DUP1 SWAP2 SUB SWAP1 RETURN JUMPDEST PUSH2 0x24C PUSH2 0x577 JUMP JUMPDEST PUSH1 0x40 MLOAD PUSH2 0x259 SWAP2 SWAP1 PUSH2 0x1AA0 JUMP JUMPDEST PUSH1 0x40 MLOAD DUP1 SWAP2 SUB SWAP1 RETURN JUMPDEST PUSH2 0x26A PUSH2 0x587 JUMP JUMPDEST PUSH1 0x40 MLOAD PUSH2 0x277 SWAP2 SWAP1 PUSH2 0x1960 JUMP JUMPDEST PUSH1 0x40 MLOAD DUP1 SWAP2 SUB SWAP1 RETURN JUMPDEST PUSH2 0x29A PUSH1 0x4 DUP1 CALLDATASIZE SUB DUP2 ADD SWAP1 PUSH2 0x295 SWAP2 SWAP1 PUSH2 0x1B45 JUMP JUMPDEST PUSH2 0x615 JUMP JUMPDEST STOP JUMPDEST PUSH2 0x2B6 PUSH1 0x4 DUP1 CALLDATASIZE SUB DUP2 ADD SWAP1 PUSH2 0x2B1 SWAP2 SWAP1 PUSH2 0x1B72 JUMP JUMPDEST PUSH2 0x66D JUMP JUMPDEST PUSH1 0x40 MLOAD PUSH2 0x2C3 SWAP2 SWAP1 PUSH2 0x1AA0 JUMP JUMPDEST PUSH1 0x40 MLOAD DUP1 SWAP2 SUB SWAP1 RETURN JUMPDEST PUSH2 0x2D4 PUSH2 0x6B5 JUMP JUMPDEST PUSH1 0x40 MLOAD PUSH2 0x2E1 SWAP2 SWAP1 PUSH2 0x1960 JUMP JUMPDEST PUSH1 0x40 MLOAD DUP1 SWAP2 SUB SWAP1 RETURN JUMPDEST PUSH2 0x2F2 PUSH2 0x743 JUMP JUMPDEST PUSH1 0x40 MLOAD PUSH2 0x300 SWAP3 SWAP2 SWAP1 PUSH2 0x1CAB JUMP JUMPDEST PUSH1 0x40 MLOAD DUP1 SWAP2 SUB SWAP1 RETURN JUMPDEST PUSH2 0x311 PUSH2 0x8EC JUMP JUMPDEST PUSH1 0x40 MLOAD PUSH2 0x31E SWAP2 SWAP1 PUSH2 0x1CEA JUMP JUMPDEST PUSH1 0x40 MLOAD DUP1 SWAP2 SUB SWAP1 RETURN JUMPDEST PUSH2 0x32F PUSH2 0x912 JUMP JUMPDEST PUSH1 0x40 MLOAD PUSH2 0x33C SWAP2 SWAP1 PUSH2 0x1960 JUMP JUMPDEST PUSH1 0x40 MLOAD DUP1 SWAP2 SUB SWAP1 RETURN JUMPDEST PUSH2 0x35F PUSH1 0x4 DUP1 CALLDATASIZE SUB DUP2 ADD SWAP1 PUSH2 0x35A SWAP2 SWAP1 PUSH2 0x1A1B JUMP JUMPDEST PUSH2 0x9A4 JUMP JUMPDEST PUSH1 0x40 MLOAD PUSH2 0x36C SWAP2 SWAP1 PUSH2 0x1A76 JUMP JUMPDEST PUSH1 0x40 MLOAD DUP1 SWAP2 SUB SWAP1 RETURN JUMPDEST PUSH2 0x38F PUSH1 0x4 DUP1 CALLDATASIZE SUB DUP2 ADD SWAP1 PUSH2 0x38A SWAP2 SWAP1 PUSH2 0x1B45 JUMP JUMPDEST PUSH2 0xA1B JUMP JUMPDEST STOP JUMPDEST PUSH2 0x3AB PUSH1 0x4 DUP1 CALLDATASIZE SUB DUP2 ADD SWAP1 PUSH2 0x3A6 SWAP2 SWAP1 PUSH2 0x1A1B JUMP JUMPDEST PUSH2 0xE7C JUMP JUMPDEST PUSH1 0x40 MLOAD PUSH2 0x3B8 SWAP2 SWAP1 PUSH2 0x1A76 JUMP JUMPDEST PUSH1 0x40 MLOAD DUP1 SWAP2 SUB SWAP1 RETURN JUMPDEST PUSH2 0x3DB PUSH1 0x4 DUP1 CALLDATASIZE SUB DUP2 ADD SWAP1 PUSH2 0x3D6 SWAP2 SWAP1 PUSH2 0x1A1B JUMP JUMPDEST PUSH2 0xE9F JUMP JUMPDEST STOP JUMPDEST PUSH2 0x3F7 PUSH1 0x4 DUP1 CALLDATASIZE SUB DUP2 ADD SWAP1 PUSH2 0x3F2 SWAP2 SWAP1 PUSH2 0x1D05 JUMP JUMPDEST PUSH2 0xEF9 JUMP JUMPDEST PUSH1 0x40 MLOAD PUSH2 0x404 SWAP2 SWAP1 PUSH2 0x1AA0 JUMP JUMPDEST PUSH1 0x40 MLOAD DUP1 SWAP2 SUB SWAP1 RETURN JUMPDEST PUSH2 0x427 PUSH1 0x4 DUP1 CALLDATASIZE SUB DUP2 ADD SWAP1 PUSH2 0x422 SWAP2 SWAP1 PUSH2 0x1A1B JUMP JUMPDEST PUSH2 0xF80 JUMP JUMPDEST STOP JUMPDEST PUSH1 0x60 PUSH1 0x3 DUP1 SLOAD PUSH2 0x438 SWAP1 PUSH2 0x1D74 JUMP JUMPDEST DUP1 PUSH1 0x1F ADD PUSH1 0x20 DUP1 SWAP2 DIV MUL PUSH1 0x20 ADD PUSH1 0x40 MLOAD SWAP1 DUP2 ADD PUSH1 0x40 MSTORE DUP1 SWAP3 SWAP2 SWAP1 DUP2 DUP2 MSTORE PUSH1 0x20 ADD DUP3 DUP1 SLOAD PUSH2 0x464 SWAP1 PUSH2 0x1D74 JUMP JUMPDEST DUP1 ISZERO PUSH2 0x4B1 JUMPI DUP1 PUSH1 0x1F LT PUSH2 0x486 JUMPI PUSH2 0x100 DUP1 DUP4 SLOAD DIV MUL DUP4 MSTORE SWAP2 PUSH1 0x20 ADD SWAP2 PUSH2 0x4B1 JUMP JUMPDEST DUP3 ADD SWAP2 SWAP1 PUSH1 0x0 MSTORE PUSH1 0x20 PUSH1 0x0 KECCAK256 SWAP1 JUMPDEST DUP2 SLOAD DUP2 MSTORE SWAP1 PUSH1 0x1 ADD SWAP1 PUSH1 0x20 ADD DUP1 DUP4 GT PUSH2 0x494 JUMPI DUP3 SWAP1 SUB PUSH1 0x1F AND DUP3 ADD SWAP2 JUMPDEST POP POP POP POP POP SWAP1 POP SWAP1 JUMP JUMPDEST PUSH1 0x60 PUSH1 0x40 MLOAD DUP1 PUSH1 0xA0 ADD PUSH1 0x40 MSTORE DUP1 PUSH1 0x67 DUP2 MSTORE PUSH1 0x20 ADD PUSH2 0x29F0 PUSH1 0x67 SWAP2 CODECOPY SWAP1 POP SWAP1 JUMP JUMPDEST PUSH1 0x0 DUP1 PUSH2 0x4E6 PUSH2 0x10D0 JUMP JUMPDEST SWAP1 POP PUSH2 0x4F3 DUP2 DUP6 DUP6 PUSH2 0x10D8 JUMP JUMPDEST PUSH1 0x1 SWAP2 POP POP SWAP3 SWAP2 POP POP JUMP JUMPDEST PUSH1 0x0 PUSH1 0x2 SLOAD SWAP1 POP SWAP1 JUMP JUMPDEST PUSH1 0x0 DUP1 PUSH2 0x513 PUSH2 0x10D0 JUMP JUMPDEST SWAP1 POP PUSH2 0x520 DUP6 DUP3 DUP6 PUSH2 0x12A1 JUMP JUMPDEST PUSH2 0x52B DUP6 DUP6 DUP6 PUSH2 0x132D JUMP JUMPDEST PUSH1 0x1 SWAP2 POP POP SWAP4 SWAP3 POP POP POP JUMP JUMPDEST PUSH1 0x0 PUSH1 0x12 SWAP1 POP SWAP1 JUMP JUMPDEST PUSH1 0x0 DUP1 PUSH2 0x54B PUSH2 0x10D0 JUMP JUMPDEST SWAP1 POP PUSH2 0x56C DUP2 DUP6 DUP6 PUSH2 0x55D DUP6 DUP10 PUSH2 0xEF9 JUMP JUMPDEST PUSH2 0x567 SWAP2 SWAP1 PUSH2 0x1DD4 JUMP JUMPDEST PUSH2 0x10D8 JUMP JUMPDEST PUSH1 0x1 SWAP2 POP POP SWAP3 SWAP2 POP POP JUMP JUMPDEST PUSH1 0x0 PUSH2 0x582 CALLER PUSH2 0x66D JUMP JUMPDEST SWAP1 POP SWAP1 JUMP JUMPDEST PUSH1 0x5 DUP1 SLOAD PUSH2 0x594 SWAP1 PUSH2 0x1D74 JUMP JUMPDEST DUP1 PUSH1 0x1F ADD PUSH1 0x20 DUP1 SWAP2 DIV MUL PUSH1 0x20 ADD PUSH1 0x40 MLOAD SWAP1 DUP2 ADD PUSH1 0x40 MSTORE DUP1 SWAP3 SWAP2 SWAP1 DUP2 DUP2 MSTORE PUSH1 0x20 ADD DUP3 DUP1 SLOAD PUSH2 0x5C0 SWAP1 PUSH2 0x1D74 JUMP JUMPDEST DUP1 ISZERO PUSH2 0x60D JUMPI DUP1 PUSH1 0x1F LT PUSH2 0x5E2 JUMPI PUSH2 0x100 DUP1 DUP4 SLOAD DIV MUL DUP4 MSTORE SWAP2 PUSH1 0x20 ADD SWAP2 PUSH2 0x60D JUMP JUMPDEST DUP3 ADD SWAP2 SWAP1 PUSH1 0x0 MSTORE PUSH1 0x20 PUSH1 0x0 KECCAK256 SWAP1 JUMPDEST DUP2 SLOAD DUP2 MSTORE SWAP1 PUSH1 0x1 ADD SWAP1 PUSH1 0x20 ADD DUP1 DUP4 GT PUSH2 0x5F0 JUMPI DUP3 SWAP1 SUB PUSH1 0x1F AND DUP3 ADD SWAP2 JUMPDEST POP POP POP POP POP DUP2 JUMP JUMPDEST DUP1 PUSH2 0x61F CALLER PUSH2 0x66D JUMP JUMPDEST LT ISZERO PUSH2 0x660 JUMPI PUSH1 0x40 MLOAD PUSH32 0x8C379A000000000000000000000000000000000000000000000000000000000 DUP2 MSTORE PUSH1 0x4 ADD PUSH2 0x657 SWAP1 PUSH2 0x1E54 JUMP JUMPDEST PUSH1 0x40 MLOAD DUP1 SWAP2 SUB SWAP1 REVERT JUMPDEST PUSH2 0x66A CALLER DUP3 PUSH2 0x15A3 JUMP JUMPDEST POP JUMP JUMPDEST PUSH1 0x0 DUP1 PUSH1 0x0 DUP4 PUSH20 0xFFFFFFFFFFFFFFFFFFFFFFFFFFFFFFFFFFFFFFFF AND PUSH20 0xFFFFFFFFFFFFFFFFFFFFFFFFFFFFFFFFFFFFFFFF AND DUP2 MSTORE PUSH1 0x20 ADD SWAP1 DUP2 MSTORE PUSH1 0x20 ADD PUSH1 0x0 KECCAK256 SLOAD SWAP1 POP SWAP2 SWAP1 POP JUMP JUMPDEST PUSH1 0x6 DUP1 SLOAD PUSH2 0x6C2 SWAP1 PUSH2 0x1D74 JUMP JUMPDEST DUP1 PUSH1 0x1F ADD PUSH1 0x20 DUP1 SWAP2 DIV MUL PUSH1 0x20 ADD PUSH1 0x40 MLOAD SWAP1 DUP2 ADD PUSH1 0x40 MSTORE DUP1 SWAP3 SWAP2 SWAP1 DUP2 DUP2 MSTORE PUSH1 0x20 ADD DUP3 DUP1 SLOAD PUSH2 0x6EE SWAP1 PUSH2 0x1D74 JUMP JUMPDEST DUP1 ISZERO PUSH2 0x73B JUMPI DUP1 PUSH1 0x1F LT PUSH2 0x710 JUMPI PUSH2 0x100 DUP1 DUP4 SLOAD DIV MUL DUP4 MSTORE SWAP2 PUSH1 0x20 ADD SWAP2 PUSH2 0x73B JUMP JUMPDEST DUP3 ADD SWAP2 SWAP1 PUSH1 0x0 MSTORE PUSH1 0x20 PUSH1 0x0 KECCAK256 SWAP1 JUMPDEST DUP2 SLOAD DUP2 MSTORE SWAP1 PUSH1 0x1 ADD SWAP1 PUSH1 0x20 ADD DUP1 DUP4 GT PUSH2 0x71E JUMPI DUP3 SWAP1 SUB PUSH1 0x1F AND DUP3 ADD SWAP2 JUMPDEST POP POP POP POP POP DUP2 JUMP JUMPDEST PUSH1 0x60 PUSH1 0x0 DUP1 PUSH1 0x7 PUSH1 0x0 CALLER PUSH20 0xFFFFFFFFFFFFFFFFFFFFFFFFFFFFFFFFFFFFFFFF AND PUSH20 0xFFFFFFFFFFFFFFFFFFFFFFFFFFFFFFFFFFFFFFFF AND DUP2 MSTORE PUSH1 0x20 ADD SWAP1 DUP2 MSTORE PUSH1 0x20 ADD PUSH1 0x0 KECCAK256 DUP1 SLOAD SWAP1 POP SWAP1 POP PUSH1 0x0 DUP2 GT PUSH2 0x7D0 JUMPI PUSH1 0x40 MLOAD PUSH32 0x8C379A000000000000000000000000000000000000000000000000000000000 DUP2 MSTORE PUSH1 0x4 ADD PUSH2 0x7C7 SWAP1 PUSH2 0x1EE6 JUMP JUMPDEST PUSH1 0x40 MLOAD DUP1 SWAP2 SUB SWAP1 REVERT JUMPDEST PUSH1 0x7 PUSH1 0x0 CALLER PUSH20 0xFFFFFFFFFFFFFFFFFFFFFFFFFFFFFFFFFFFFFFFF AND PUSH20 0xFFFFFFFFFFFFFFFFFFFFFFFFFFFFFFFFFFFFFFFF AND DUP2 MSTORE PUSH1 0x20 ADD SWAP1 DUP2 MSTORE PUSH1 0x20 ADD PUSH1 0x0 KECCAK256 DUP2 DUP2 DUP1 SLOAD DUP1 PUSH1 0x20 MUL PUSH1 0x20 ADD PUSH1 0x40 MLOAD SWAP1 DUP2 ADD PUSH1 0x40 MSTORE DUP1 SWAP3 SWAP2 SWAP1 DUP2 DUP2 MSTORE PUSH1 0x20 ADD PUSH1 0x0 SWAP1 JUMPDEST DUP3 DUP3 LT ISZERO PUSH2 0x8DD JUMPI DUP4 DUP3 SWAP1 PUSH1 0x0 MSTORE PUSH1 0x20 PUSH1 0x0 KECCAK256 ADD DUP1 SLOAD PUSH2 0x850 SWAP1 PUSH2 0x1D74 JUMP JUMPDEST DUP1 PUSH1 0x1F ADD PUSH1 0x20 DUP1 SWAP2 DIV MUL PUSH1 0x20 ADD PUSH1 0x40 MLOAD SWAP1 DUP2 ADD PUSH1 0x40 MSTORE DUP1 SWAP3 SWAP2 SWAP1 DUP2 DUP2 MSTORE PUSH1 0x20 ADD DUP3 DUP1 SLOAD PUSH2 0x87C SWAP1 PUSH2 0x1D74 JUMP JUMPDEST DUP1 ISZERO PUSH2 0x8C9 JUMPI DUP1 PUSH1 0x1F LT PUSH2 0x89E JUMPI PUSH2 0x100 DUP1 DUP4 SLOAD DIV MUL DUP4 MSTORE SWAP2 PUSH1 0x20 ADD SWAP2 PUSH2 0x8C9 JUMP JUMPDEST DUP3 ADD SWAP2 SWAP1 PUSH1 0x0 MSTORE PUSH1 0x20 PUSH1 0x0 KECCAK256 SWAP1 JUMPDEST DUP2 SLOAD DUP2 MSTORE SWAP1 PUSH1 0x1 ADD SWAP1 PUSH1 0x20 ADD DUP1 DUP4 GT PUSH2 0x8AC JUMPI DUP3 SWAP1 SUB PUSH1 0x1F AND DUP3 ADD SWAP2 JUMPDEST POP POP POP POP POP DUP2 MSTORE PUSH1 0x20 ADD SWAP1 PUSH1 0x1 ADD SWAP1 PUSH2 0x831 JUMP JUMPDEST POP POP POP POP SWAP2 POP SWAP3 POP SWAP3 POP POP SWAP1 SWAP2 JUMP JUMPDEST PUSH1 0x8 PUSH1 0x0 SWAP1 SLOAD SWAP1 PUSH2 0x100 EXP SWAP1 DIV PUSH20 0xFFFFFFFFFFFFFFFFFFFFFFFFFFFFFFFFFFFFFFFF AND DUP2 JUMP JUMPDEST PUSH1 0x60 PUSH1 0x4 DUP1 SLOAD PUSH2 0x921 SWAP1 PUSH2 0x1D74 JUMP JUMPDEST DUP1 PUSH1 0x1F ADD PUSH1 0x20 DUP1 SWAP2 DIV MUL PUSH1 0x20 ADD PUSH1 0x40 MLOAD SWAP1 DUP2 ADD PUSH1 0x40 MSTORE DUP1 SWAP3 SWAP2 SWAP1 DUP2 DUP2 MSTORE PUSH1 0x20 ADD DUP3 DUP1 SLOAD PUSH2 0x94D SWAP1 PUSH2 0x1D74 JUMP JUMPDEST DUP1 ISZERO PUSH2 0x99A JUMPI DUP1 PUSH1 0x1F LT PUSH2 0x96F JUMPI PUSH2 0x100 DUP1 DUP4 SLOAD DIV MUL DUP4 MSTORE SWAP2 PUSH1 0x20 ADD SWAP2 PUSH2 0x99A JUMP JUMPDEST DUP3 ADD SWAP2 SWAP1 PUSH1 0x0 MSTORE PUSH1 0x20 PUSH1 0x0 KECCAK256 SWAP1 JUMPDEST DUP2 SLOAD DUP2 MSTORE SWAP1 PUSH1 0x1 ADD SWAP1 PUSH1 0x20 ADD DUP1 DUP4 GT PUSH2 0x97D JUMPI DUP3 SWAP1 SUB PUSH1 0x1F AND DUP3 ADD SWAP2 JUMPDEST POP POP POP POP POP SWAP1 POP SWAP1 JUMP JUMPDEST PUSH1 0x0 DUP1 PUSH2 0x9AF PUSH2 0x10D0 JUMP JUMPDEST SWAP1 POP PUSH1 0x0 PUSH2 0x9BD DUP3 DUP7 PUSH2 0xEF9 JUMP JUMPDEST SWAP1 POP DUP4 DUP2 LT ISZERO PUSH2 0xA02 JUMPI PUSH1 0x40 MLOAD PUSH32 0x8C379A000000000000000000000000000000000000000000000000000000000 DUP2 MSTORE PUSH1 0x4 ADD PUSH2 0x9F9 SWAP1 PUSH2 0x1F78 JUMP JUMPDEST PUSH1 0x40 MLOAD DUP1 SWAP2 SUB SWAP1 REVERT JUMPDEST PUSH2 0xA0F DUP3 DUP7 DUP7 DUP5 SUB PUSH2 0x10D8 JUMP JUMPDEST PUSH1 0x1 SWAP3 POP POP POP SWAP3 SWAP2 POP POP JUMP JUMPDEST PUSH1 0x4 DUP2 GT ISZERO PUSH2 0xA5F JUMPI PUSH1 0x40 MLOAD PUSH32 0x8C379A000000000000000000000000000000000000000000000000000000000 DUP2 MSTORE PUSH1 0x4 ADD PUSH2 0xA56 SWAP1 PUSH2 0x1FE4 JUMP JUMPDEST PUSH1 0x40 MLOAD DUP1 SWAP2 SUB SWAP1 REVERT JUMPDEST PUSH1 0x1 DUP2 SUB PUSH2 0xB69 JUMPI PUSH2 0x320 PUSH2 0xA73 CALLER PUSH2 0x66D JUMP JUMPDEST LT ISZERO PUSH2 0xAB4 JUMPI PUSH1 0x40 MLOAD PUSH32 0x8C379A000000000000000000000000000000000000000000000000000000000 DUP2 MSTORE PUSH1 0x4 ADD PUSH2 0xAAB SWAP1 PUSH2 0x2050 JUMP JUMPDEST PUSH1 0x40 MLOAD DUP1 SWAP2 SUB SWAP1 REVERT JUMPDEST PUSH2 0xAC0 CALLER PUSH2 0x320 PUSH2 0x15A3 JUMP JUMPDEST PUSH1 0x7 PUSH1 0x0 CALLER PUSH20 0xFFFFFFFFFFFFFFFFFFFFFFFFFFFFFFFFFFFFFFFF AND PUSH20 0xFFFFFFFFFFFFFFFFFFFFFFFFFFFFFFFFFFFFFFFF AND DUP2 MSTORE PUSH1 0x20 ADD SWAP1 DUP2 MSTORE PUSH1 0x20 ADD PUSH1 0x0 KECCAK256 DUP1 PUSH1 0x1 DUP2 SLOAD ADD DUP1 DUP3 SSTORE DUP1 SWAP2 POP POP PUSH1 0x1 SWAP1 SUB SWAP1 PUSH1 0x0 MSTORE PUSH1 0x20 PUSH1 0x0 KECCAK256 ADD PUSH1 0x0 PUSH1 0x40 MLOAD DUP1 PUSH1 0x40 ADD PUSH1 0x40 MSTORE DUP1 PUSH1 0xB DUP2 MSTORE PUSH1 0x20 ADD PUSH32 0x56414E44414C5F534B494E000000000000000000000000000000000000000000 DUP2 MSTORE POP SWAP1 SWAP2 SWAP1 SWAP2 POP SWAP1 DUP2 PUSH2 0xB63 SWAP2 SWAP1 PUSH2 0x224B JUMP JUMPDEST POP PUSH2 0xE79 JUMP JUMPDEST PUSH1 0x2 DUP2 SUB PUSH2 0xC73 JUMPI PUSH2 0x258 PUSH2 0xB7D CALLER PUSH2 0x66D JUMP JUMPDEST LT ISZERO PUSH2 0xBBE JUMPI PUSH1 0x40 MLOAD PUSH32 0x8C379A000000000000000000000000000000000000000000000000000000000 DUP2 MSTORE PUSH1 0x4 ADD PUSH2 0xBB5 SWAP1 PUSH2 0x2050 JUMP JUMPDEST PUSH1 0x40 MLOAD DUP1 SWAP2 SUB SWAP1 REVERT JUMPDEST PUSH2 0xBCA CALLER PUSH2 0x258 PUSH2 0x15A3 JUMP JUMPDEST PUSH1 0x7 PUSH1 0x0 CALLER PUSH20 0xFFFFFFFFFFFFFFFFFFFFFFFFFFFFFFFFFFFFFFFF AND PUSH20 0xFFFFFFFFFFFFFFFFFFFFFFFFFFFFFFFFFFFFFFFF AND DUP2 MSTORE PUSH1 0x20 ADD SWAP1 DUP2 MSTORE PUSH1 0x20 ADD PUSH1 0x0 KECCAK256 DUP1 PUSH1 0x1 DUP2 SLOAD ADD DUP1 DUP3 SSTORE DUP1 SWAP2 POP POP PUSH1 0x1 SWAP1 SUB SWAP1 PUSH1 0x0 MSTORE PUSH1 0x20 PUSH1 0x0 KECCAK256 ADD PUSH1 0x0 PUSH1 0x40 MLOAD DUP1 PUSH1 0x40 ADD PUSH1 0x40 MSTORE DUP1 PUSH1 0xD DUP2 MSTORE PUSH1 0x20 ADD PUSH32 0x4F50455241544F525F534B494E00000000000000000000000000000000000000 DUP2 MSTORE POP SWAP1 SWAP2 SWAP1 SWAP2 POP SWAP1 DUP2 PUSH2 0xC6D SWAP2 SWAP1 PUSH2 0x224B JUMP JUMPDEST POP PUSH2 0xE78 JUMP JUMPDEST PUSH1 0x3 DUP2 SUB PUSH2 0xD7B JUMPI PUSH1 0xFA PUSH2 0xC86 CALLER PUSH2 0x66D JUMP JUMPDEST LT ISZERO PUSH2 0xCC7 JUMPI PUSH1 0x40 MLOAD PUSH32 0x8C379A000000000000000000000000000000000000000000000000000000000 DUP2 MSTORE PUSH1 0x4 ADD PUSH2 0xCBE SWAP1 PUSH2 0x2050 JUMP JUMPDEST PUSH1 0x40 MLOAD DUP1 SWAP2 SUB SWAP1 REVERT JUMPDEST PUSH2 0xCD2 CALLER PUSH1 0xFA PUSH2 0x15A3 JUMP JUMPDEST PUSH1 0x7 PUSH1 0x0 CALLER PUSH20 0xFFFFFFFFFFFFFFFFFFFFFFFFFFFFFFFFFFFFFFFF AND PUSH20 0xFFFFFFFFFFFFFFFFFFFFFFFFFFFFFFFFFFFFFFFF AND DUP2 MSTORE PUSH1 0x20 ADD SWAP1 DUP2 MSTORE PUSH1 0x20 ADD PUSH1 0x0 KECCAK256 DUP1 PUSH1 0x1 DUP2 SLOAD ADD DUP1 DUP3 SSTORE DUP1 SWAP2 POP POP PUSH1 0x1 SWAP1 SUB SWAP1 PUSH1 0x0 MSTORE PUSH1 0x20 PUSH1 0x0 KECCAK256 ADD PUSH1 0x0 PUSH1 0x40 MLOAD DUP1 PUSH1 0x40 ADD PUSH1 0x40 MSTORE DUP1 PUSH1 0xD DUP2 MSTORE PUSH1 0x20 ADD PUSH32 0x5048414E544F4D5F534B494E2000000000000000000000000000000000000000 DUP2 MSTORE POP SWAP1 SWAP2 SWAP1 SWAP2 POP SWAP1 DUP2 PUSH2 0xD75 SWAP2 SWAP1 PUSH2 0x224B JUMP JUMPDEST POP PUSH2 0xE77 JUMP JUMPDEST PUSH1 0xAF PUSH2 0xD86 CALLER PUSH2 0x66D JUMP JUMPDEST LT ISZERO PUSH2 0xDC7 JUMPI PUSH1 0x40 MLOAD PUSH32 0x8C379A000000000000000000000000000000000000000000000000000000000 DUP2 MSTORE PUSH1 0x4 ADD PUSH2 0xDBE SWAP1 PUSH2 0x2050 JUMP JUMPDEST PUSH1 0x40 MLOAD DUP1 SWAP2 SUB SWAP1 REVERT JUMPDEST PUSH2 0xDD2 CALLER PUSH1 0xAF PUSH2 0x15A3 JUMP JUMPDEST PUSH1 0x7 PUSH1 0x0 CALLER PUSH20 0xFFFFFFFFFFFFFFFFFFFFFFFFFFFFFFFFFFFFFFFF AND PUSH20 0xFFFFFFFFFFFFFFFFFFFFFFFFFFFFFFFFFFFFFFFF AND DUP2 MSTORE PUSH1 0x20 ADD SWAP1 DUP2 MSTORE PUSH1 0x20 ADD PUSH1 0x0 KECCAK256 DUP1 PUSH1 0x1 DUP2 SLOAD ADD DUP1 DUP3 SSTORE DUP1 SWAP2 POP POP PUSH1 0x1 SWAP1 SUB SWAP1 PUSH1 0x0 MSTORE PUSH1 0x20 PUSH1 0x0 KECCAK256 ADD PUSH1 0x0 PUSH1 0x40 MLOAD DUP1 PUSH1 0x40 ADD PUSH1 0x40 MSTORE DUP1 PUSH1 0xC DUP2 MSTORE PUSH1 0x20 ADD PUSH32 0x534845524946465F534B494E0000000000000000000000000000000000000000 DUP2 MSTORE POP SWAP1 SWAP2 SWAP1 SWAP2 POP SWAP1 DUP2 PUSH2 0xE75 SWAP2 SWAP1 PUSH2 0x224B JUMP JUMPDEST POP JUMPDEST JUMPDEST JUMPDEST POP JUMP JUMPDEST PUSH1 0x0 DUP1 PUSH2 0xE87 PUSH2 0x10D0 JUMP JUMPDEST SWAP1 POP PUSH2 0xE94 DUP2 DUP6 DUP6 PUSH2 0x132D JUMP JUMPDEST PUSH1 0x1 SWAP2 POP POP SWAP3 SWAP2 POP POP JUMP JUMPDEST DUP1 PUSH2 0xEA9 CALLER PUSH2 0x66D JUMP JUMPDEST LT ISZERO PUSH2 0xEEA JUMPI PUSH1 0x40 MLOAD PUSH32 0x8C379A000000000000000000000000000000000000000000000000000000000 DUP2 MSTORE PUSH1 0x4 ADD PUSH2 0xEE1 SWAP1 PUSH2 0x238F JUMP JUMPDEST PUSH1 0x40 MLOAD DUP1 SWAP2 SUB SWAP1 REVERT JUMPDEST PUSH2 0xEF4 DUP3 DUP3 PUSH2 0xE7C JUMP JUMPDEST POP POP POP JUMP JUMPDEST PUSH1 0x0 PUSH1 0x1 PUSH1 0x0 DUP5 PUSH20 0xFFFFFFFFFFFFFFFFFFFFFFFFFFFFFFFFFFFFFFFF AND PUSH20 0xFFFFFFFFFFFFFFFFFFFFFFFFFFFFFFFFFFFFFFFF AND DUP2 MSTORE PUSH1 0x20 ADD SWAP1 DUP2 MSTORE PUSH1 0x20 ADD PUSH1 0x0 KECCAK256 PUSH1 0x0 DUP4 PUSH20 0xFFFFFFFFFFFFFFFFFFFFFFFFFFFFFFFFFFFFFFFF AND PUSH20 0xFFFFFFFFFFFFFFFFFFFFFFFFFFFFFFFFFFFFFFFF AND DUP2 MSTORE PUSH1 0x20 ADD SWAP1 DUP2 MSTORE PUSH1 0x20 ADD PUSH1 0x0 KECCAK256 SLOAD SWAP1 POP SWAP3 SWAP2 POP POP JUMP JUMPDEST PUSH1 0x8 PUSH1 0x0 SWAP1 SLOAD SWAP1 PUSH2 0x100 EXP SWAP1 DIV PUSH20 0xFFFFFFFFFFFFFFFFFFFFFFFFFFFFFFFFFFFFFFFF AND PUSH20 0xFFFFFFFFFFFFFFFFFFFFFFFFFFFFFFFFFFFFFFFF AND CALLER PUSH20 0xFFFFFFFFFFFFFFFFFFFFFFFFFFFFFFFFFFFFFFFF AND EQ PUSH2 0x1010 JUMPI PUSH1 0x40 MLOAD PUSH32 0x8C379A000000000000000000000000000000000000000000000000000000000 DUP2 MSTORE PUSH1 0x4 ADD PUSH2 0x1007 SWAP1 PUSH2 0x23FB JUMP JUMPDEST PUSH1 0x40 MLOAD DUP1 SWAP2 SUB SWAP1 REVERT JUMPDEST PUSH1 0x0 PUSH20 0xFFFFFFFFFFFFFFFFFFFFFFFFFFFFFFFFFFFFFFFF AND DUP3 PUSH20 0xFFFFFFFFFFFFFFFFFFFFFFFFFFFFFFFFFFFFFFFF AND SUB PUSH2 0x107F JUMPI PUSH1 0x40 MLOAD PUSH32 0x8C379A000000000000000000000000000000000000000000000000000000000 DUP2 MSTORE PUSH1 0x4 ADD PUSH2 0x1076 SWAP1 PUSH2 0x2467 JUMP JUMPDEST PUSH1 0x40 MLOAD DUP1 SWAP2 SUB SWAP1 REVERT JUMPDEST PUSH1 0x0 DUP2 GT PUSH2 0x10C2 JUMPI PUSH1 0x40 MLOAD PUSH32 0x8C379A000000000000000000000000000000000000000000000000000000000 DUP2 MSTORE PUSH1 0x4 ADD PUSH2 0x10B9 SWAP1 PUSH2 0x24F9 JUMP JUMPDEST PUSH1 0x40 MLOAD DUP1 SWAP2 SUB SWAP1 REVERT JUMPDEST PUSH2 0x10CC DUP3 DUP3 PUSH2 0x1770 JUMP JUMPDEST POP POP JUMP JUMPDEST PUSH1 0x0 CALLER SWAP1 POP SWAP1 JUMP JUMPDEST PUSH1 0x0 PUSH20 0xFFFFFFFFFFFFFFFFFFFFFFFFFFFFFFFFFFFFFFFF AND DUP4 PUSH20 0xFFFFFFFFFFFFFFFFFFFFFFFFFFFFFFFFFFFFFFFF AND SUB PUSH2 0x1147 JUMPI PUSH1 0x40 MLOAD PUSH32 0x8C379A000000000000000000000000000000000000000000000000000000000 DUP2 MSTORE PUSH1 0x4 ADD PUSH2 0x113E SWAP1 PUSH2 0x258B JUMP JUMPDEST PUSH1 0x40 MLOAD DUP1 SWAP2 SUB SWAP1 REVERT JUMPDEST PUSH1 0x0 PUSH20 0xFFFFFFFFFFFFFFFFFFFFFFFFFFFFFFFFFFFFFFFF AND DUP3 PUSH20 0xFFFFFFFFFFFFFFFFFFFFFFFFFFFFFFFFFFFFFFFF AND SUB PUSH2 0x11B6 JUMPI PUSH1 0x40 MLOAD PUSH32 0x8C379A000000000000000000000000000000000000000000000000000000000 DUP2 MSTORE PUSH1 0x4 ADD PUSH2 0x11AD SWAP1 PUSH2 0x261D JUMP JUMPDEST PUSH1 0x40 MLOAD DUP1 SWAP2 SUB SWAP1 REVERT JUMPDEST DUP1 PUSH1 0x1 PUSH1 0x0 DUP6 PUSH20 0xFFFFFFFFFFFFFFFFFFFFFFFFFFFFFFFFFFFFFFFF AND PUSH20 0xFFFFFFFFFFFFFFFFFFFFFFFFFFFFFFFFFFFFFFFF AND DUP2 MSTORE PUSH1 0x20 ADD SWAP1 DUP2 MSTORE PUSH1 0x20 ADD PUSH1 0x0 KECCAK256 PUSH1 0x0 DUP5 PUSH20 0xFFFFFFFFFFFFFFFFFFFFFFFFFFFFFFFFFFFFFFFF AND PUSH20 0xFFFFFFFFFFFFFFFFFFFFFFFFFFFFFFFFFFFFFFFF AND DUP2 MSTORE PUSH1 0x20 ADD SWAP1 DUP2 MSTORE PUSH1 0x20 ADD PUSH1 0x0 KECCAK256 DUP2 SWAP1 SSTORE POP DUP2 PUSH20 0xFFFFFFFFFFFFFFFFFFFFFFFFFFFFFFFFFFFFFFFF AND DUP4 PUSH20 0xFFFFFFFFFFFFFFFFFFFFFFFFFFFFFFFFFFFFFFFF AND PUSH32 0x8C5BE1E5EBEC7D5BD14F71427D1E84F3DD0314C0F7B2291E5B200AC8C7C3B925 DUP4 PUSH1 0x40 MLOAD PUSH2 0x1294 SWAP2 SWAP1 PUSH2 0x1AA0 JUMP JUMPDEST PUSH1 0x40 MLOAD DUP1 SWAP2 SUB SWAP1 LOG3 POP POP POP JUMP JUMPDEST PUSH1 0x0 PUSH2 0x12AD DUP5 DUP5 PUSH2 0xEF9 JUMP JUMPDEST SWAP1 POP PUSH32 0xFFFFFFFFFFFFFFFFFFFFFFFFFFFFFFFFFFFFFFFFFFFFFFFFFFFFFFFFFFFFFFFF DUP2 EQ PUSH2 0x1327 JUMPI DUP2 DUP2 LT ISZERO PUSH2 0x1319 JUMPI PUSH1 0x40 MLOAD PUSH32 0x8C379A000000000000000000000000000000000000000000000000000000000 DUP2 MSTORE PUSH1 0x4 ADD PUSH2 0x1310 SWAP1 PUSH2 0x2689 JUMP JUMPDEST PUSH1 0x40 MLOAD DUP1 SWAP2 SUB SWAP1 REVERT JUMPDEST PUSH2 0x1326 DUP5 DUP5 DUP5 DUP5 SUB PUSH2 0x10D8 JUMP JUMPDEST JUMPDEST POP POP POP POP JUMP JUMPDEST PUSH1 0x0 PUSH20 0xFFFFFFFFFFFFFFFFFFFFFFFFFFFFFFFFFFFFFFFF AND DUP4 PUSH20 0xFFFFFFFFFFFFFFFFFFFFFFFFFFFFFFFFFFFFFFFF AND SUB PUSH2 0x139C JUMPI PUSH1 0x40 MLOAD PUSH32 0x8C379A000000000000000000000000000000000000000000000000000000000 DUP2 MSTORE PUSH1 0x4 ADD PUSH2 0x1393 SWAP1 PUSH2 0x271B JUMP JUMPDEST PUSH1 0x40 MLOAD DUP1 SWAP2 SUB SWAP1 REVERT JUMPDEST PUSH1 0x0 PUSH20 0xFFFFFFFFFFFFFFFFFFFFFFFFFFFFFFFFFFFFFFFF AND DUP3 PUSH20 0xFFFFFFFFFFFFFFFFFFFFFFFFFFFFFFFFFFFFFFFF AND SUB PUSH2 0x140B JUMPI PUSH1 0x40 MLOAD PUSH32 0x8C379A000000000000000000000000000000000000000000000000000000000 DUP2 MSTORE PUSH1 0x4 ADD PUSH2 0x1402 SWAP1 PUSH2 0x27AD JUMP JUMPDEST PUSH1 0x40 MLOAD DUP1 SWAP2 SUB SWAP1 REVERT JUMPDEST PUSH2 0x1416 DUP4 DUP4 DUP4 PUSH2 0x18C6 JUMP JUMPDEST PUSH1 0x0 DUP1 PUSH1 0x0 DUP6 PUSH20 0xFFFFFFFFFFFFFFFFFFFFFFFFFFFFFFFFFFFFFFFF AND PUSH20 0xFFFFFFFFFFFFFFFFFFFFFFFFFFFFFFFFFFFFFFFF AND DUP2 MSTORE PUSH1 0x20 ADD SWAP1 DUP2 MSTORE PUSH1 0x20 ADD PUSH1 0x0 KECCAK256 SLOAD SWAP1 POP DUP2 DUP2 LT ISZERO PUSH2 0x149C JUMPI PUSH1 0x40 MLOAD PUSH32 0x8C379A000000000000000000000000000000000000000000000000000000000 DUP2 MSTORE PUSH1 0x4 ADD PUSH2 0x1493 SWAP1 PUSH2 0x283F JUMP JUMPDEST PUSH1 0x40 MLOAD DUP1 SWAP2 SUB SWAP1 REVERT JUMPDEST DUP2 DUP2 SUB PUSH1 0x0 DUP1 DUP7 PUSH20 0xFFFFFFFFFFFFFFFFFFFFFFFFFFFFFFFFFFFFFFFF AND PUSH20 0xFFFFFFFFFFFFFFFFFFFFFFFFFFFFFFFFFFFFFFFF AND DUP2 MSTORE PUSH1 0x20 ADD SWAP1 DUP2 MSTORE PUSH1 0x20 ADD PUSH1 0x0 KECCAK256 DUP2 SWAP1 SSTORE POP DUP2 PUSH1 0x0 DUP1 DUP6 PUSH20 0xFFFFFFFFFFFFFFFFFFFFFFFFFFFFFFFFFFFFFFFF AND PUSH20 0xFFFFFFFFFFFFFFFFFFFFFFFFFFFFFFFFFFFFFFFF AND DUP2 MSTORE PUSH1 0x20 ADD SWAP1 DUP2 MSTORE PUSH1 0x20 ADD PUSH1 0x0 KECCAK256 PUSH1 0x0 DUP3 DUP3 SLOAD ADD SWAP3 POP POP DUP2 SWAP1 SSTORE POP DUP3 PUSH20 0xFFFFFFFFFFFFFFFFFFFFFFFFFFFFFFFFFFFFFFFF AND DUP5 PUSH20 0xFFFFFFFFFFFFFFFFFFFFFFFFFFFFFFFFFFFFFFFF AND PUSH32 0xDDF252AD1BE2C89B69C2B068FC378DAA952BA7F163C4A11628F55A4DF523B3EF DUP5 PUSH1 0x40 MLOAD PUSH2 0x158A SWAP2 SWAP1 PUSH2 0x1AA0 JUMP JUMPDEST PUSH1 0x40 MLOAD DUP1 SWAP2 SUB SWAP1 LOG3 PUSH2 0x159D DUP5 DUP5 DUP5 PUSH2 0x18CB JUMP JUMPDEST POP POP POP POP JUMP JUMPDEST PUSH1 0x0 PUSH20 0xFFFFFFFFFFFFFFFFFFFFFFFFFFFFFFFFFFFFFFFF AND DUP3 PUSH20 0xFFFFFFFFFFFFFFFFFFFFFFFFFFFFFFFFFFFFFFFF AND SUB PUSH2 0x1612 JUMPI PUSH1 0x40 MLOAD PUSH32 0x8C379A000000000000000000000000000000000000000000000000000000000 DUP2 MSTORE PUSH1 0x4 ADD PUSH2 0x1609 SWAP1 PUSH2 0x28D1 JUMP JUMPDEST PUSH1 0x40 MLOAD DUP1 SWAP2 SUB SWAP1 REVERT JUMPDEST PUSH2 0x161E DUP3 PUSH1 0x0 DUP4 PUSH2 0x18C6 JUMP JUMPDEST PUSH1 0x0 DUP1 PUSH1 0x0 DUP5 PUSH20 0xFFFFFFFFFFFFFFFFFFFFFFFFFFFFFFFFFFFFFFFF AND PUSH20 0xFFFFFFFFFFFFFFFFFFFFFFFFFFFFFFFFFFFFFFFF AND DUP2 MSTORE PUSH1 0x20 ADD SWAP1 DUP2 MSTORE PUSH1 0x20 ADD PUSH1 0x0 KECCAK256 SLOAD SWAP1 POP DUP2 DUP2 LT ISZERO PUSH2 0x16A4 JUMPI PUSH1 0x40 MLOAD PUSH32 0x8C379A000000000000000000000000000000000000000000000000000000000 DUP2 MSTORE PUSH1 0x4 ADD PUSH2 0x169B SWAP1 PUSH2 0x2963 JUMP JUMPDEST PUSH1 0x40 MLOAD DUP1 SWAP2 SUB SWAP1 REVERT JUMPDEST DUP2 DUP2 SUB PUSH1 0x0 DUP1 DUP6 PUSH20 0xFFFFFFFFFFFFFFFFFFFFFFFFFFFFFFFFFFFFFFFF AND PUSH20 0xFFFFFFFFFFFFFFFFFFFFFFFFFFFFFFFFFFFFFFFF AND DUP2 MSTORE PUSH1 0x20 ADD SWAP1 DUP2 MSTORE PUSH1 0x20 ADD PUSH1 0x0 KECCAK256 DUP2 SWAP1 SSTORE POP DUP2 PUSH1 0x2 PUSH1 0x0 DUP3 DUP3 SLOAD SUB SWAP3 POP POP DUP2 SWAP1 SSTORE POP PUSH1 0x0 PUSH20 0xFFFFFFFFFFFFFFFFFFFFFFFFFFFFFFFFFFFFFFFF AND DUP4 PUSH20 0xFFFFFFFFFFFFFFFFFFFFFFFFFFFFFFFFFFFFFFFF AND PUSH32 0xDDF252AD1BE2C89B69C2B068FC378DAA952BA7F163C4A11628F55A4DF523B3EF DUP5 PUSH1 0x40 MLOAD PUSH2 0x1757 SWAP2 SWAP1 PUSH2 0x1AA0 JUMP JUMPDEST PUSH1 0x40 MLOAD DUP1 SWAP2 SUB SWAP1 LOG3 PUSH2 0x176B DUP4 PUSH1 0x0 DUP5 PUSH2 0x18CB JUMP JUMPDEST POP POP POP JUMP JUMPDEST PUSH1 0x0 PUSH20 0xFFFFFFFFFFFFFFFFFFFFFFFFFFFFFFFFFFFFFFFF AND DUP3 PUSH20 0xFFFFFFFFFFFFFFFFFFFFFFFFFFFFFFFFFFFFFFFF AND SUB PUSH2 0x17DF JUMPI PUSH1 0x40 MLOAD PUSH32 0x8C379A000000000000000000000000000000000000000000000000000000000 DUP2 MSTORE PUSH1 0x4 ADD PUSH2 0x17D6 SWAP1 PUSH2 0x29CF JUMP JUMPDEST PUSH1 0x40 MLOAD DUP1 SWAP2 SUB SWAP1 REVERT JUMPDEST PUSH2 0x17EB PUSH1 0x0 DUP4 DUP4 PUSH2 0x18C6 JUMP JUMPDEST DUP1 PUSH1 0x2 PUSH1 0x0 DUP3 DUP3 SLOAD PUSH2 0x17FD SWAP2 SWAP1 PUSH2 0x1DD4 JUMP JUMPDEST SWAP3 POP POP DUP2 SWAP1 SSTORE POP DUP1 PUSH1 0x0 DUP1 DUP5 PUSH20 0xFFFFFFFFFFFFFFFFFFFFFFFFFFFFFFFFFFFFFFFF AND PUSH20 0xFFFFFFFFFFFFFFFFFFFFFFFFFFFFFFFFFFFFFFFF AND DUP2 MSTORE PUSH1 0x20 ADD SWAP1 DUP2 MSTORE PUSH1 0x20 ADD PUSH1 0x0 KECCAK256 PUSH1 0x0 DUP3 DUP3 SLOAD ADD SWAP3 POP POP DUP2 SWAP1 SSTORE POP DUP2 PUSH20 0xFFFFFFFFFFFFFFFFFFFFFFFFFFFFFFFFFFFFFFFF AND PUSH1 0x0 PUSH20 0xFFFFFFFFFFFFFFFFFFFFFFFFFFFFFFFFFFFFFFFF AND PUSH32 0xDDF252AD1BE2C89B69C2B068FC378DAA952BA7F163C4A11628F55A4DF523B3EF DUP4 PUSH1 0x40 MLOAD PUSH2 0x18AE SWAP2 SWAP1 PUSH2 0x1AA0 JUMP JUMPDEST PUSH1 0x40 MLOAD DUP1 SWAP2 SUB SWAP1 LOG3 PUSH2 0x18C2 PUSH1 0x0 DUP4 DUP4 PUSH2 0x18CB JUMP JUMPDEST POP POP JUMP JUMPDEST POP POP POP JUMP JUMPDEST POP POP POP JUMP JUMPDEST PUSH1 0x0 DUP2 MLOAD SWAP1 POP SWAP2 SWAP1 POP JUMP JUMPDEST PUSH1 0x0 DUP3 DUP3 MSTORE PUSH1 0x20 DUP3 ADD SWAP1 POP SWAP3 SWAP2 POP POP JUMP JUMPDEST PUSH1 0x0 JUMPDEST DUP4 DUP2 LT ISZERO PUSH2 0x190A JUMPI DUP1 DUP3 ADD MLOAD DUP2 DUP5 ADD MSTORE PUSH1 0x20 DUP2 ADD SWAP1 POP PUSH2 0x18EF JUMP JUMPDEST PUSH1 0x0 DUP5 DUP5 ADD MSTORE POP POP POP POP JUMP JUMPDEST PUSH1 0x0 PUSH1 0x1F NOT PUSH1 0x1F DUP4 ADD AND SWAP1 POP SWAP2 SWAP1 POP JUMP JUMPDEST PUSH1 0x0 PUSH2 0x1932 DUP3 PUSH2 0x18D0 JUMP JUMPDEST PUSH2 0x193C DUP2 DUP6 PUSH2 0x18DB JUMP JUMPDEST SWAP4 POP PUSH2 0x194C DUP2 DUP6 PUSH1 0x20 DUP7 ADD PUSH2 0x18EC JUMP JUMPDEST PUSH2 0x1955 DUP2 PUSH2 0x1916 JUMP JUMPDEST DUP5 ADD SWAP2 POP POP SWAP3 SWAP2 POP POP JUMP JUMPDEST PUSH1 0x0 PUSH1 0x20 DUP3 ADD SWAP1 POP DUP2 DUP2 SUB PUSH1 0x0 DUP4 ADD MSTORE PUSH2 0x197A DUP2 DUP5 PUSH2 0x1927 JUMP JUMPDEST SWAP1 POP SWAP3 SWAP2 POP POP JUMP JUMPDEST PUSH1 0x0 DUP1 REVERT JUMPDEST PUSH1 0x0 PUSH20 0xFFFFFFFFFFFFFFFFFFFFFFFFFFFFFFFFFFFFFFFF DUP3 AND SWAP1 POP SWAP2 SWAP1 POP JUMP JUMPDEST PUSH1 0x0 PUSH2 0x19B2 DUP3 PUSH2 0x1987 JUMP JUMPDEST SWAP1 POP SWAP2 SWAP1 POP JUMP JUMPDEST PUSH2 0x19C2 DUP2 PUSH2 0x19A7 JUMP JUMPDEST DUP2 EQ PUSH2 0x19CD JUMPI PUSH1 0x0 DUP1 REVERT JUMPDEST POP JUMP JUMPDEST PUSH1 0x0 DUP2 CALLDATALOAD SWAP1 POP PUSH2 0x19DF DUP2 PUSH2 0x19B9 JUMP JUMPDEST SWAP3 SWAP2 POP POP JUMP JUMPDEST PUSH1 0x0 DUP2 SWAP1 POP SWAP2 SWAP1 POP JUMP JUMPDEST PUSH2 0x19F8 DUP2 PUSH2 0x19E5 JUMP JUMPDEST DUP2 EQ PUSH2 0x1A03 JUMPI PUSH1 0x0 DUP1 REVERT JUMPDEST POP JUMP JUMPDEST PUSH1 0x0 DUP2 CALLDATALOAD SWAP1 POP PUSH2 0x1A15 DUP2 PUSH2 0x19EF JUMP JUMPDEST SWAP3 SWAP2 POP POP JUMP JUMPDEST PUSH1 0x0 DUP1 PUSH1 0x40 DUP4 DUP6 SUB SLT ISZERO PUSH2 0x1A32 JUMPI PUSH2 0x1A31 PUSH2 0x1982 JUMP JUMPDEST JUMPDEST PUSH1 0x0 PUSH2 0x1A40 DUP6 DUP3 DUP7 ADD PUSH2 0x19D0 JUMP JUMPDEST SWAP3 POP POP PUSH1 0x20 PUSH2 0x1A51 DUP6 DUP3 DUP7 ADD PUSH2 0x1A06 JUMP JUMPDEST SWAP2 POP POP SWAP3 POP SWAP3 SWAP1 POP JUMP JUMPDEST PUSH1 0x0 DUP2 ISZERO ISZERO SWAP1 POP SWAP2 SWAP1 POP JUMP JUMPDEST PUSH2 0x1A70 DUP2 PUSH2 0x1A5B JUMP JUMPDEST DUP3 MSTORE POP POP JUMP JUMPDEST PUSH1 0x0 PUSH1 0x20 DUP3 ADD SWAP1 POP PUSH2 0x1A8B PUSH1 0x0 DUP4 ADD DUP5 PUSH2 0x1A67 JUMP JUMPDEST SWAP3 SWAP2 POP POP JUMP JUMPDEST PUSH2 0x1A9A DUP2 PUSH2 0x19E5 JUMP JUMPDEST DUP3 MSTORE POP POP JUMP JUMPDEST PUSH1 0x0 PUSH1 0x20 DUP3 ADD SWAP1 POP PUSH2 0x1AB5 PUSH1 0x0 DUP4 ADD DUP5 PUSH2 0x1A91 JUMP JUMPDEST SWAP3 SWAP2 POP POP JUMP JUMPDEST PUSH1 0x0 DUP1 PUSH1 0x0 PUSH1 0x60 DUP5 DUP7 SUB SLT ISZERO PUSH2 0x1AD4 JUMPI PUSH2 0x1AD3 PUSH2 0x1982 JUMP JUMPDEST JUMPDEST PUSH1 0x0 PUSH2 0x1AE2 DUP7 DUP3 DUP8 ADD PUSH2 0x19D0 JUMP JUMPDEST SWAP4 POP POP PUSH1 0x20 PUSH2 0x1AF3 DUP7 DUP3 DUP8 ADD PUSH2 0x19D0 JUMP JUMPDEST SWAP3 POP POP PUSH1 0x40 PUSH2 0x1B04 DUP7 DUP3 DUP8 ADD PUSH2 0x1A06 JUMP JUMPDEST SWAP2 POP POP SWAP3 POP SWAP3 POP SWAP3 JUMP JUMPDEST PUSH1 0x0 PUSH1 0xFF DUP3 AND SWAP1 POP SWAP2 SWAP1 POP JUMP JUMPDEST PUSH2 0x1B24 DUP2 PUSH2 0x1B0E JUMP JUMPDEST DUP3 MSTORE POP POP JUMP JUMPDEST PUSH1 0x0 PUSH1 0x20 DUP3 ADD SWAP1 POP PUSH2 0x1B3F PUSH1 0x0 DUP4 ADD DUP5 PUSH2 0x1B1B JUMP JUMPDEST SWAP3 SWAP2 POP POP JUMP JUMPDEST PUSH1 0x0 PUSH1 0x20 DUP3 DUP5 SUB SLT ISZERO PUSH2 0x1B5B JUMPI PUSH2 0x1B5A PUSH2 0x1982 JUMP JUMPDEST JUMPDEST PUSH1 0x0 PUSH2 0x1B69 DUP5 DUP3 DUP6 ADD PUSH2 0x1A06 JUMP JUMPDEST SWAP2 POP POP SWAP3 SWAP2 POP POP JUMP JUMPDEST PUSH1 0x0 PUSH1 0x20 DUP3 DUP5 SUB SLT ISZERO PUSH2 0x1B88 JUMPI PUSH2 0x1B87 PUSH2 0x1982 JUMP JUMPDEST JUMPDEST PUSH1 0x0 PUSH2 0x1B96 DUP5 DUP3 DUP6 ADD PUSH2 0x19D0 JUMP JUMPDEST SWAP2 POP POP SWAP3 SWAP2 POP POP JUMP JUMPDEST PUSH1 0x0 DUP2 MLOAD SWAP1 POP SWAP2 SWAP1 POP JUMP JUMPDEST PUSH1 0x0 DUP3 DUP3 MSTORE PUSH1 0x20 DUP3 ADD SWAP1 POP SWAP3 SWAP2 POP POP JUMP JUMPDEST PUSH1 0x0 DUP2 SWAP1 POP PUSH1 0x20 DUP3 ADD SWAP1 POP SWAP2 SWAP1 POP JUMP JUMPDEST PUSH1 0x0 DUP3 DUP3 MSTORE PUSH1 0x20 DUP3 ADD SWAP1 POP SWAP3 SWAP2 POP POP JUMP JUMPDEST PUSH1 0x0 PUSH2 0x1BE7 DUP3 PUSH2 0x18D0 JUMP JUMPDEST PUSH2 0x1BF1 DUP2 DUP6 PUSH2 0x1BCB JUMP JUMPDEST SWAP4 POP PUSH2 0x1C01 DUP2 DUP6 PUSH1 0x20 DUP7 ADD PUSH2 0x18EC JUMP JUMPDEST PUSH2 0x1C0A DUP2 PUSH2 0x1916 JUMP JUMPDEST DUP5 ADD SWAP2 POP POP SWAP3 SWAP2 POP POP JUMP JUMPDEST PUSH1 0x0 PUSH2 0x1C21 DUP4 DUP4 PUSH2 0x1BDC JUMP JUMPDEST SWAP1 POP SWAP3 SWAP2 POP POP JUMP JUMPDEST PUSH1 0x0 PUSH1 0x20 DUP3 ADD SWAP1 POP SWAP2 SWAP1 POP JUMP JUMPDEST PUSH1 0x0 PUSH2 0x1C41 DUP3 PUSH2 0x1B9F JUMP JUMPDEST PUSH2 0x1C4B DUP2 DUP6 PUSH2 0x1BAA JUMP JUMPDEST SWAP4 POP DUP4 PUSH1 0x20 DUP3 MUL DUP6 ADD PUSH2 0x1C5D DUP6 PUSH2 0x1BBB JUMP JUMPDEST DUP1 PUSH1 0x0 JUMPDEST DUP6 DUP2 LT ISZERO PUSH2 0x1C99 JUMPI DUP5 DUP5 SUB DUP10 MSTORE DUP2 MLOAD PUSH2 0x1C7A DUP6 DUP3 PUSH2 0x1C15 JUMP JUMPDEST SWAP5 POP PUSH2 0x1C85 DUP4 PUSH2 0x1C29 JUMP JUMPDEST SWAP3 POP PUSH1 0x20 DUP11 ADD SWAP10 POP POP PUSH1 0x1 DUP2 ADD SWAP1 POP PUSH2 0x1C61 JUMP JUMPDEST POP DUP3 SWAP8 POP DUP8 SWAP6 POP POP POP POP POP POP SWAP3 SWAP2 POP POP JUMP JUMPDEST PUSH1 0x0 PUSH1 0x40 DUP3 ADD SWAP1 POP DUP2 DUP2 SUB PUSH1 0x0 DUP4 ADD MSTORE PUSH2 0x1CC5 DUP2 DUP6 PUSH2 0x1C36 JUMP JUMPDEST SWAP1 POP PUSH2 0x1CD4 PUSH1 0x20 DUP4 ADD DUP5 PUSH2 0x1A91 JUMP JUMPDEST SWAP4 SWAP3 POP POP POP JUMP JUMPDEST PUSH2 0x1CE4 DUP2 PUSH2 0x19A7 JUMP JUMPDEST DUP3 MSTORE POP POP JUMP JUMPDEST PUSH1 0x0 PUSH1 0x20 DUP3 ADD SWAP1 POP PUSH2 0x1CFF PUSH1 0x0 DUP4 ADD DUP5 PUSH2 0x1CDB JUMP JUMPDEST SWAP3 SWAP2 POP POP JUMP JUMPDEST PUSH1 0x0 DUP1 PUSH1 0x40 DUP4 DUP6 SUB SLT ISZERO PUSH2 0x1D1C JUMPI PUSH2 0x1D1B PUSH2 0x1982 JUMP JUMPDEST JUMPDEST PUSH1 0x0 PUSH2 0x1D2A DUP6 DUP3 DUP7 ADD PUSH2 0x19D0 JUMP JUMPDEST SWAP3 POP POP PUSH1 0x20 PUSH2 0x1D3B DUP6 DUP3 DUP7 ADD PUSH2 0x19D0 JUMP JUMPDEST SWAP2 POP POP SWAP3 POP SWAP3 SWAP1 POP JUMP JUMPDEST PUSH32 0x4E487B7100000000000000000000000000000000000000000000000000000000 PUSH1 0x0 MSTORE PUSH1 0x22 PUSH1 0x4 MSTORE PUSH1 0x24 PUSH1 0x0 REVERT JUMPDEST PUSH1 0x0 PUSH1 0x2 DUP3 DIV SWAP1 POP PUSH1 0x1 DUP3 AND DUP1 PUSH2 0x1D8C JUMPI PUSH1 0x7F DUP3 AND SWAP2 POP JUMPDEST PUSH1 0x20 DUP3 LT DUP2 SUB PUSH2 0x1D9F JUMPI PUSH2 0x1D9E PUSH2 0x1D45 JUMP JUMPDEST JUMPDEST POP SWAP2 SWAP1 POP JUMP JUMPDEST PUSH32 0x4E487B7100000000000000000000000000000000000000000000000000000000 PUSH1 0x0 MSTORE PUSH1 0x11 PUSH1 0x4 MSTORE PUSH1 0x24 PUSH1 0x0 REVERT JUMPDEST PUSH1 0x0 PUSH2 0x1DDF DUP3 PUSH2 0x19E5 JUMP JUMPDEST SWAP2 POP PUSH2 0x1DEA DUP4 PUSH2 0x19E5 JUMP JUMPDEST SWAP3 POP DUP3 DUP3 ADD SWAP1 POP DUP1 DUP3 GT ISZERO PUSH2 0x1E02 JUMPI PUSH2 0x1E01 PUSH2 0x1DA5 JUMP JUMPDEST JUMPDEST SWAP3 SWAP2 POP POP JUMP JUMPDEST PUSH32 0x596F7520646F6E2774206861766520656E6F75676820746F6B656E7321000000 PUSH1 0x0 DUP3 ADD MSTORE POP JUMP JUMPDEST PUSH1 0x0 PUSH2 0x1E3E PUSH1 0x1D DUP4 PUSH2 0x18DB JUMP JUMPDEST SWAP2 POP PUSH2 0x1E49 DUP3 PUSH2 0x1E08 JUMP JUMPDEST PUSH1 0x20 DUP3 ADD SWAP1 POP SWAP2 SWAP1 POP JUMP JUMPDEST PUSH1 0x0 PUSH1 0x20 DUP3 ADD SWAP1 POP DUP2 DUP2 SUB PUSH1 0x0 DUP4 ADD MSTORE PUSH2 0x1E6D DUP2 PUSH2 0x1E31 JUMP JUMPDEST SWAP1 POP SWAP2 SWAP1 POP JUMP JUMPDEST PUSH32 0x4E6F2070757263686173657320666F756E6420666F7220746869732061646472 PUSH1 0x0 DUP3 ADD MSTORE PUSH32 0x6573730000000000000000000000000000000000000000000000000000000000 PUSH1 0x20 DUP3 ADD MSTORE POP JUMP JUMPDEST PUSH1 0x0 PUSH2 0x1ED0 PUSH1 0x23 DUP4 PUSH2 0x18DB JUMP JUMPDEST SWAP2 POP PUSH2 0x1EDB DUP3 PUSH2 0x1E74 JUMP JUMPDEST PUSH1 0x40 DUP3 ADD SWAP1 POP SWAP2 SWAP1 POP JUMP JUMPDEST PUSH1 0x0 PUSH1 0x20 DUP3 ADD SWAP1 POP DUP2 DUP2 SUB PUSH1 0x0 DUP4 ADD MSTORE PUSH2 0x1EFF DUP2 PUSH2 0x1EC3 JUMP JUMPDEST SWAP1 POP SWAP2 SWAP1 POP JUMP JUMPDEST PUSH32 0x45524332303A2064656372656173656420616C6C6F77616E63652062656C6F77 PUSH1 0x0 DUP3 ADD MSTORE PUSH32 0x207A65726F000000000000000000000000000000000000000000000000000000 PUSH1 0x20 DUP3 ADD MSTORE POP JUMP JUMPDEST PUSH1 0x0 PUSH2 0x1F62 PUSH1 0x25 DUP4 PUSH2 0x18DB JUMP JUMPDEST SWAP2 POP PUSH2 0x1F6D DUP3 PUSH2 0x1F06 JUMP JUMPDEST PUSH1 0x40 DUP3 ADD SWAP1 POP SWAP2 SWAP1 POP JUMP JUMPDEST PUSH1 0x0 PUSH1 0x20 DUP3 ADD SWAP1 POP DUP2 DUP2 SUB PUSH1 0x0 DUP4 ADD MSTORE PUSH2 0x1F91 DUP2 PUSH2 0x1F55 JUMP JUMPDEST SWAP1 POP SWAP2 SWAP1 POP JUMP JUMPDEST PUSH32 0x57726F6E67206F7074696F6E2073656C65637465642100000000000000000000 PUSH1 0x0 DUP3 ADD MSTORE POP JUMP JUMPDEST PUSH1 0x0 PUSH2 0x1FCE PUSH1 0x16 DUP4 PUSH2 0x18DB JUMP JUMPDEST SWAP2 POP PUSH2 0x1FD9 DUP3 PUSH2 0x1F98 JUMP JUMPDEST PUSH1 0x20 DUP3 ADD SWAP1 POP SWAP2 SWAP1 POP JUMP JUMPDEST PUSH1 0x0 PUSH1 0x20 DUP3 ADD SWAP1 POP DUP2 DUP2 SUB PUSH1 0x0 DUP4 ADD MSTORE PUSH2 0x1FFD DUP2 PUSH2 0x1FC1 JUMP JUMPDEST SWAP1 POP SWAP2 SWAP1 POP JUMP JUMPDEST PUSH32 0x4F6F70732120496E73756666696369656E7420546F6B656E7300000000000000 PUSH1 0x0 DUP3 ADD MSTORE POP JUMP JUMPDEST PUSH1 0x0 PUSH2 0x203A PUSH1 0x19 DUP4 PUSH2 0x18DB JUMP JUMPDEST SWAP2 POP PUSH2 0x2045 DUP3 PUSH2 0x2004 JUMP JUMPDEST PUSH1 0x20 DUP3 ADD SWAP1 POP SWAP2 SWAP1 POP JUMP JUMPDEST PUSH1 0x0 PUSH1 0x20 DUP3 ADD SWAP1 POP DUP2 DUP2 SUB PUSH1 0x0 DUP4 ADD MSTORE PUSH2 0x2069 DUP2 PUSH2 0x202D JUMP JUMPDEST SWAP1 POP SWAP2 SWAP1 POP JUMP JUMPDEST PUSH32 0x4E487B7100000000000000000000000000000000000000000000000000000000 PUSH1 0x0 MSTORE PUSH1 0x41 PUSH1 0x4 MSTORE PUSH1 0x24 PUSH1 0x0 REVERT JUMPDEST PUSH1 0x0 DUP2 SWAP1 POP DUP2 PUSH1 0x0 MSTORE PUSH1 0x20 PUSH1 0x0 KECCAK256 SWAP1 POP SWAP2 SWAP1 POP JUMP JUMPDEST PUSH1 0x0 PUSH1 0x20 PUSH1 0x1F DUP4 ADD DIV SWAP1 POP SWAP2 SWAP1 POP JUMP JUMPDEST PUSH1 0x0 DUP3 DUP3 SHL SWAP1 POP SWAP3 SWAP2 POP POP JUMP JUMPDEST PUSH1 0x0 PUSH1 0x8 DUP4 MUL PUSH2 0x2101 PUSH32 0xFFFFFFFFFFFFFFFFFFFFFFFFFFFFFFFFFFFFFFFFFFFFFFFFFFFFFFFFFFFFFFFF DUP3 PUSH2 0x20C4 JUMP JUMPDEST PUSH2 0x210B DUP7 DUP4 PUSH2 0x20C4 JUMP JUMPDEST SWAP6 POP DUP1 NOT DUP5 AND SWAP4 POP DUP1 DUP7 AND DUP5 OR SWAP3 POP POP POP SWAP4 SWAP3 POP POP POP JUMP JUMPDEST PUSH1 0x0 DUP2 SWAP1 POP SWAP2 SWAP1 POP JUMP JUMPDEST PUSH1 0x0 PUSH2 0x2148 PUSH2 0x2143 PUSH2 0x213E DUP5 PUSH2 0x19E5 JUMP JUMPDEST PUSH2 0x2123 JUMP JUMPDEST PUSH2 0x19E5 JUMP JUMPDEST SWAP1 POP SWAP2 SWAP1 POP JUMP JUMPDEST PUSH1 0x0 DUP2 SWAP1 POP SWAP2 SWAP1 POP JUMP JUMPDEST PUSH2 0x2162 DUP4 PUSH2 0x212D JUMP JUMPDEST PUSH2 0x2176 PUSH2 0x216E DUP3 PUSH2 0x214F JUMP JUMPDEST DUP5 DUP5 SLOAD PUSH2 0x20D1 JUMP JUMPDEST DUP3 SSTORE POP POP POP POP JUMP JUMPDEST PUSH1 0x0 SWAP1 JUMP JUMPDEST PUSH2 0x218B PUSH2 0x217E JUMP JUMPDEST PUSH2 0x2196 DUP2 DUP5 DUP5 PUSH2 0x2159 JUMP JUMPDEST POP POP POP JUMP JUMPDEST JUMPDEST DUP2 DUP2 LT ISZERO PUSH2 0x21BA JUMPI PUSH2 0x21AF PUSH1 0x0 DUP3 PUSH2 0x2183 JUMP JUMPDEST PUSH1 0x1 DUP2 ADD SWAP1 POP PUSH2 0x219C JUMP JUMPDEST POP POP JUMP JUMPDEST PUSH1 0x1F DUP3 GT ISZERO PUSH2 0x21FF JUMPI PUSH2 0x21D0 DUP2 PUSH2 0x209F JUMP JUMPDEST PUSH2 0x21D9 DUP5 PUSH2 0x20B4 JUMP JUMPDEST DUP2 ADD PUSH1 0x20 DUP6 LT ISZERO PUSH2 0x21E8 JUMPI DUP2 SWAP1 POP JUMPDEST PUSH2 0x21FC PUSH2 0x21F4 DUP6 PUSH2 0x20B4 JUMP JUMPDEST DUP4 ADD DUP3 PUSH2 0x219B JUMP JUMPDEST POP POP JUMPDEST POP POP POP JUMP JUMPDEST PUSH1 0x0 DUP3 DUP3 SHR SWAP1 POP SWAP3 SWAP2 POP POP JUMP JUMPDEST PUSH1 0x0 PUSH2 0x2222 PUSH1 0x0 NOT DUP5 PUSH1 0x8 MUL PUSH2 0x2204 JUMP JUMPDEST NOT DUP1 DUP4 AND SWAP2 POP POP SWAP3 SWAP2 POP POP JUMP JUMPDEST PUSH1 0x0 PUSH2 0x223B DUP4 DUP4 PUSH2 0x2211 JUMP JUMPDEST SWAP2 POP DUP3 PUSH1 0x2 MUL DUP3 OR SWAP1 POP SWAP3 SWAP2 POP POP JUMP JUMPDEST PUSH2 0x2254 DUP3 PUSH2 0x18D0 JUMP JUMPDEST PUSH8 0xFFFFFFFFFFFFFFFF DUP2 GT ISZERO PUSH2 0x226D JUMPI PUSH2 0x226C PUSH2 0x2070 JUMP JUMPDEST JUMPDEST PUSH2 0x2277 DUP3 SLOAD PUSH2 0x1D74 JUMP JUMPDEST PUSH2 0x2282 DUP3 DUP3 DUP6 PUSH2 0x21BE JUMP JUMPDEST PUSH1 0x0 PUSH1 0x20 SWAP1 POP PUSH1 0x1F DUP4 GT PUSH1 0x1 DUP2 EQ PUSH2 0x22B5 JUMPI PUSH1 0x0 DUP5 ISZERO PUSH2 0x22A3 JUMPI DUP3 DUP8 ADD MLOAD SWAP1 POP JUMPDEST PUSH2 0x22AD DUP6 DUP3 PUSH2 0x222F JUMP JUMPDEST DUP7 SSTORE POP PUSH2 0x2315 JUMP JUMPDEST PUSH1 0x1F NOT DUP5 AND PUSH2 0x22C3 DUP7 PUSH2 0x209F JUMP JUMPDEST PUSH1 0x0 JUMPDEST DUP3 DUP2 LT ISZERO PUSH2 0x22EB JUMPI DUP5 DUP10 ADD MLOAD DUP3 SSTORE PUSH1 0x1 DUP3 ADD SWAP2 POP PUSH1 0x20 DUP6 ADD SWAP5 POP PUSH1 0x20 DUP2 ADD SWAP1 POP PUSH2 0x22C6 JUMP JUMPDEST DUP7 DUP4 LT ISZERO PUSH2 0x2308 JUMPI DUP5 DUP10 ADD MLOAD PUSH2 0x2304 PUSH1 0x1F DUP10 AND DUP3 PUSH2 0x2211 JUMP JUMPDEST DUP4 SSTORE POP JUMPDEST PUSH1 0x1 PUSH1 0x2 DUP9 MUL ADD DUP9 SSTORE POP POP POP JUMPDEST POP POP POP POP POP POP JUMP JUMPDEST PUSH32 0x536F7272792C206E6F7420656E6F7567682062616C616E636520696E2077616C PUSH1 0x0 DUP3 ADD MSTORE PUSH32 0x6C65742E00000000000000000000000000000000000000000000000000000000 PUSH1 0x20 DUP3 ADD MSTORE POP JUMP JUMPDEST PUSH1 0x0 PUSH2 0x2379 PUSH1 0x24 DUP4 PUSH2 0x18DB JUMP JUMPDEST SWAP2 POP PUSH2 0x2384 DUP3 PUSH2 0x231D JUMP JUMPDEST PUSH1 0x40 DUP3 ADD SWAP1 POP SWAP2 SWAP1 POP JUMP JUMPDEST PUSH1 0x0 PUSH1 0x20 DUP3 ADD SWAP1 POP DUP2 DUP2 SUB PUSH1 0x0 DUP4 ADD MSTORE PUSH2 0x23A8 DUP2 PUSH2 0x236C JUMP JUMPDEST SWAP1 POP SWAP2 SWAP1 POP JUMP JUMPDEST PUSH32 0x4F6E6C792C206F776E65722063616E206D696E742074686520746F6B656E7321 PUSH1 0x0 DUP3 ADD MSTORE POP JUMP JUMPDEST PUSH1 0x0 PUSH2 0x23E5 PUSH1 0x20 DUP4 PUSH2 0x18DB JUMP JUMPDEST SWAP2 POP PUSH2 0x23F0 DUP3 PUSH2 0x23AF JUMP JUMPDEST PUSH1 0x20 DUP3 ADD SWAP1 POP SWAP2 SWAP1 POP JUMP JUMPDEST PUSH1 0x0 PUSH1 0x20 DUP3 ADD SWAP1 POP DUP2 DUP2 SUB PUSH1 0x0 DUP4 ADD MSTORE PUSH2 0x2414 DUP2 PUSH2 0x23D8 JUMP JUMPDEST SWAP1 POP SWAP2 SWAP1 POP JUMP JUMPDEST PUSH32 0x54686973206164647265737320646F65736E2774206578697374000000000000 PUSH1 0x0 DUP3 ADD MSTORE POP JUMP JUMPDEST PUSH1 0x0 PUSH2 0x2451 PUSH1 0x1A DUP4 PUSH2 0x18DB JUMP JUMPDEST SWAP2 POP PUSH2 0x245C DUP3 PUSH2 0x241B JUMP JUMPDEST PUSH1 0x20 DUP3 ADD SWAP1 POP SWAP2 SWAP1 POP JUMP JUMPDEST PUSH1 0x0 PUSH1 0x20 DUP3 ADD SWAP1 POP DUP2 DUP2 SUB PUSH1 0x0 DUP4 ADD MSTORE PUSH2 0x2480 DUP2 PUSH2 0x2444 JUMP JUMPDEST SWAP1 POP SWAP2 SWAP1 POP JUMP JUMPDEST PUSH32 0x596F752063616E2774206D696E74206E65676174697665206E756D626572206F PUSH1 0x0 DUP3 ADD MSTORE PUSH32 0x6620746F6B656E73000000000000000000000000000000000000000000000000 PUSH1 0x20 DUP3 ADD MSTORE POP JUMP JUMPDEST PUSH1 0x0 PUSH2 0x24E3 PUSH1 0x28 DUP4 PUSH2 0x18DB JUMP JUMPDEST SWAP2 POP PUSH2 0x24EE DUP3 PUSH2 0x2487 JUMP JUMPDEST PUSH1 0x40 DUP3 ADD SWAP1 POP SWAP2 SWAP1 POP JUMP JUMPDEST PUSH1 0x0 PUSH1 0x20 DUP3 ADD SWAP1 POP DUP2 DUP2 SUB PUSH1 0x0 DUP4 ADD MSTORE PUSH2 0x2512 DUP2 PUSH2 0x24D6 JUMP JUMPDEST SWAP1 POP SWAP2 SWAP1 POP JUMP JUMPDEST PUSH32 0x45524332303A20617070726F76652066726F6D20746865207A65726F20616464 PUSH1 0x0 DUP3 ADD MSTORE PUSH32 0x7265737300000000000000000000000000000000000000000000000000000000 PUSH1 0x20 DUP3 ADD MSTORE POP JUMP JUMPDEST PUSH1 0x0 PUSH2 0x2575 PUSH1 0x24 DUP4 PUSH2 0x18DB JUMP JUMPDEST SWAP2 POP PUSH2 0x2580 DUP3 PUSH2 0x2519 JUMP JUMPDEST PUSH1 0x40 DUP3 ADD SWAP1 POP SWAP2 SWAP1 POP JUMP JUMPDEST PUSH1 0x0 PUSH1 0x20 DUP3 ADD SWAP1 POP DUP2 DUP2 SUB PUSH1 0x0 DUP4 ADD MSTORE PUSH2 0x25A4 DUP2 PUSH2 0x2568 JUMP JUMPDEST SWAP1 POP SWAP2 SWAP1 POP JUMP JUMPDEST PUSH32 0x45524332303A20617070726F766520746F20746865207A65726F206164647265 PUSH1 0x0 DUP3 ADD MSTORE PUSH32 0x7373000000000000000000000000000000000000000000000000000000000000 PUSH1 0x20 DUP3 ADD MSTORE POP JUMP JUMPDEST PUSH1 0x0 PUSH2 0x2607 PUSH1 0x22 DUP4 PUSH2 0x18DB JUMP JUMPDEST SWAP2 POP PUSH2 0x2612 DUP3 PUSH2 0x25AB JUMP JUMPDEST PUSH1 0x40 DUP3 ADD SWAP1 POP SWAP2 SWAP1 POP JUMP JUMPDEST PUSH1 0x0 PUSH1 0x20 DUP3 ADD SWAP1 POP DUP2 DUP2 SUB PUSH1 0x0 DUP4 ADD MSTORE PUSH2 0x2636 DUP2 PUSH2 0x25FA JUMP JUMPDEST SWAP1 POP SWAP2 SWAP1 POP JUMP JUMPDEST PUSH32 0x45524332303A20696E73756666696369656E7420616C6C6F77616E6365000000 PUSH1 0x0 DUP3 ADD MSTORE POP JUMP JUMPDEST PUSH1 0x0 PUSH2 0x2673 PUSH1 0x1D DUP4 PUSH2 0x18DB JUMP JUMPDEST SWAP2 POP PUSH2 0x267E DUP3 PUSH2 0x263D JUMP JUMPDEST PUSH1 0x20 DUP3 ADD SWAP1 POP SWAP2 SWAP1 POP JUMP JUMPDEST PUSH1 0x0 PUSH1 0x20 DUP3 ADD SWAP1 POP DUP2 DUP2 SUB PUSH1 0x0 DUP4 ADD MSTORE PUSH2 0x26A2 DUP2 PUSH2 0x2666 JUMP JUMPDEST SWAP1 POP SWAP2 SWAP1 POP JUMP JUMPDEST PUSH32 0x45524332303A207472616E736665722066726F6D20746865207A65726F206164 PUSH1 0x0 DUP3 ADD MSTORE PUSH32 0x6472657373000000000000000000000000000000000000000000000000000000 PUSH1 0x20 DUP3 ADD MSTORE POP JUMP JUMPDEST PUSH1 0x0 PUSH2 0x2705 PUSH1 0x25 DUP4 PUSH2 0x18DB JUMP JUMPDEST SWAP2 POP PUSH2 0x2710 DUP3 PUSH2 0x26A9 JUMP JUMPDEST PUSH1 0x40 DUP3 ADD SWAP1 POP SWAP2 SWAP1 POP JUMP JUMPDEST PUSH1 0x0 PUSH1 0x20 DUP3 ADD SWAP1 POP DUP2 DUP2 SUB PUSH1 0x0 DUP4 ADD MSTORE PUSH2 0x2734 DUP2 PUSH2 0x26F8 JUMP JUMPDEST SWAP1 POP SWAP2 SWAP1 POP JUMP JUMPDEST PUSH32 0x45524332303A207472616E7366657220746F20746865207A65726F2061646472 PUSH1 0x0 DUP3 ADD MSTORE PUSH32 0x6573730000000000000000000000000000000000000000000000000000000000 PUSH1 0x20 DUP3 ADD MSTORE POP JUMP JUMPDEST PUSH1 0x0 PUSH2 0x2797 PUSH1 0x23 DUP4 PUSH2 0x18DB JUMP JUMPDEST SWAP2 POP PUSH2 0x27A2 DUP3 PUSH2 0x273B JUMP JUMPDEST PUSH1 0x40 DUP3 ADD SWAP1 POP SWAP2 SWAP1 POP JUMP JUMPDEST PUSH1 0x0 PUSH1 0x20 DUP3 ADD SWAP1 POP DUP2 DUP2 SUB PUSH1 0x0 DUP4 ADD MSTORE PUSH2 0x27C6 DUP2 PUSH2 0x278A JUMP JUMPDEST SWAP1 POP SWAP2 SWAP1 POP JUMP JUMPDEST PUSH32 0x45524332303A207472616E7366657220616D6F756E7420657863656564732062 PUSH1 0x0 DUP3 ADD MSTORE PUSH32 0x616C616E63650000000000000000000000000000000000000000000000000000 PUSH1 0x20 DUP3 ADD MSTORE POP JUMP JUMPDEST PUSH1 0x0 PUSH2 0x2829 PUSH1 0x26 DUP4 PUSH2 0x18DB JUMP JUMPDEST SWAP2 POP PUSH2 0x2834 DUP3 PUSH2 0x27CD JUMP JUMPDEST PUSH1 0x40 DUP3 ADD SWAP1 POP SWAP2 SWAP1 POP JUMP JUMPDEST PUSH1 0x0 PUSH1 0x20 DUP3 ADD SWAP1 POP DUP2 DUP2 SUB PUSH1 0x0 DUP4 ADD MSTORE PUSH2 0x2858 DUP2 PUSH2 0x281C JUMP JUMPDEST SWAP1 POP SWAP2 SWAP1 POP JUMP JUMPDEST PUSH32 0x45524332303A206275726E2066726F6D20746865207A65726F20616464726573 PUSH1 0x0 DUP3 ADD MSTORE PUSH32 0x7300000000000000000000000000000000000000000000000000000000000000 PUSH1 0x20 DUP3 ADD MSTORE POP JUMP JUMPDEST PUSH1 0x0 PUSH2 0x28BB PUSH1 0x21 DUP4 PUSH2 0x18DB JUMP JUMPDEST SWAP2 POP PUSH2 0x28C6 DUP3 PUSH2 0x285F JUMP JUMPDEST PUSH1 0x40 DUP3 ADD SWAP1 POP SWAP2 SWAP1 POP JUMP JUMPDEST PUSH1 0x0 PUSH1 0x20 DUP3 ADD SWAP1 POP DUP2 DUP2 SUB PUSH1 0x0 DUP4 ADD MSTORE PUSH2 0x28EA DUP2 PUSH2 0x28AE JUMP JUMPDEST SWAP1 POP SWAP2 SWAP1 POP JUMP JUMPDEST PUSH32 0x45524332303A206275726E20616D6F756E7420657863656564732062616C616E PUSH1 0x0 DUP3 ADD MSTORE PUSH32 0x6365000000000000000000000000000000000000000000000000000000000000 PUSH1 0x20 DUP3 ADD MSTORE POP JUMP JUMPDEST PUSH1 0x0 PUSH2 0x294D PUSH1 0x22 DUP4 PUSH2 0x18DB JUMP JUMPDEST SWAP2 POP PUSH2 0x2958 DUP3 PUSH2 0x28F1 JUMP JUMPDEST PUSH1 0x40 DUP3 ADD SWAP1 POP SWAP2 SWAP1 POP JUMP JUMPDEST PUSH1 0x0 PUSH1 0x20 DUP3 ADD SWAP1 POP DUP2 DUP2 SUB PUSH1 0x0 DUP4 ADD MSTORE PUSH2 0x297C DUP2 PUSH2 0x2940 JUMP JUMPDEST SWAP1 POP SWAP2 SWAP1 POP JUMP JUMPDEST PUSH32 0x45524332303A206D696E7420746F20746865207A65726F206164647265737300 PUSH1 0x0 DUP3 ADD MSTORE POP JUMP JUMPDEST PUSH1 0x0 PUSH2 0x29B9 PUSH1 0x1F DUP4 PUSH2 0x18DB JUMP JUMPDEST SWAP2 POP PUSH2 0x29C4 DUP3 PUSH2 0x2983 JUMP JUMPDEST PUSH1 0x20 DUP3 ADD SWAP1 POP SWAP2 SWAP1 POP JUMP JUMPDEST PUSH1 0x0 PUSH1 0x20 DUP3 ADD SWAP1 POP DUP2 DUP2 SUB PUSH1 0x0 DUP4 ADD MSTORE PUSH2 0x29E8 DUP2 PUSH2 0x29AC JUMP JUMPDEST SWAP1 POP SWAP2 SWAP1 POP JUMP INVALID BALANCE 0x2E KECCAK256 JUMP PUSH2 0x6E64 PUSH2 0x6C5F MSTORE8 0x4B 0x49 0x4E KECCAK256 JUMPDEST CODESIZE ADDRESS ADDRESS KECCAK256 PREVRANDAO SELFBALANCE 0x4E 0x5D KECCAK256 ORIGIN 0x2E KECCAK256 0x4F POP GASLIMIT MSTORE COINBASE SLOAD 0x4F MSTORE 0x5F MSTORE8 0x4B 0x49 0x4E KECCAK256 JUMPDEST CALLDATASIZE ADDRESS ADDRESS KECCAK256 PREVRANDAO SELFBALANCE 0x4E 0x5D KECCAK256 CALLER 0x2E KECCAK256 POP BASEFEE COINBASE 0x4E SLOAD 0x4F 0x4D 0x5F MSTORE8 0x4B 0x49 0x4E KECCAK256 JUMPDEST ORIGIN CALLDATALOAD ADDRESS KECCAK256 PREVRANDAO SELFBALANCE 0x4E 0x5D KECCAK256 CALLVALUE 0x2E KECCAK256 MSTORE8 BASEFEE GASLIMIT MSTORE 0x49 CHAINID CHAINID 0x5F MSTORE8 0x4B 0x49 0x4E KECCAK256 JUMPDEST BALANCE CALLDATACOPY CALLDATALOAD KECCAK256 PREVRANDAO SELFBALANCE 0x4E 0x5D LOG2 PUSH5 0x6970667358 0x22 SLT KECCAK256 PREVRANDAO DUP13 0xC3 AND SGT 0xD6 LOG1 GASLIMIT PUSH16 0xA5F821BD6E2A3B62B0F736A64C59ED7D PUSH12 0x88C4D72F2AE064736F6C6343 STOP ADDMOD SLT STOP CALLER "
				},
				"gasEstimates": {
					"creation": {
						"codeDepositCost": "2178400",
						"executionCost": "infinite",
						"totalCost": "infinite"
					},
					"external": {
						"allowance(address,address)": "infinite",
						"approve(address,uint256)": "infinite",
						"balanceOf(address)": "2864",
						"burnTokens(uint256)": "infinite",
						"checkTokenBalance()": "2636",
						"decimals()": "366",
						"decreaseAllowance(address,uint256)": "infinite",
						"increaseAllowance(address,uint256)": "infinite",
						"mintTokens(address,uint256)": "infinite",
						"myPurchases()": "infinite",
						"name()": "infinite",
						"owner()": "2603",
						"redeemTokens(uint256)": "infinite",
						"shopItems()": "infinite",
						"symbol()": "infinite",
						"tokenName()": "infinite",
						"tokenSymbol()": "infinite",
						"totalSupply()": "2527",
						"transfer(address,uint256)": "infinite",
						"transferFrom(address,address,uint256)": "infinite",
						"transferTokens(address,uint256)": "infinite"
					}
				},
				"methodIdentifiers": {
					"allowance(address,address)": "dd62ed3e",
					"approve(address,uint256)": "095ea7b3",
					"balanceOf(address)": "70a08231",
					"burnTokens(uint256)": "6d1b229d",
					"checkTokenBalance()": "4f731087",
					"decimals()": "313ce567",
					"decreaseAllowance(address,uint256)": "a457c2d7",
					"increaseAllowance(address,uint256)": "39509351",
					"mintTokens(address,uint256)": "f0dda65c",
					"myPurchases()": "8af8a986",
					"name()": "06fdde03",
					"owner()": "8da5cb5b",
					"redeemTokens(uint256)": "a6e158f8",
					"shopItems()": "08514a41",
					"symbol()": "95d89b41",
					"tokenName()": "6c02a931",
					"tokenSymbol()": "7b61c320",
					"totalSupply()": "18160ddd",
					"transfer(address,uint256)": "a9059cbb",
					"transferFrom(address,address,uint256)": "23b872dd",
					"transferTokens(address,uint256)": "bec3fa17"
				}
			},
			"storageLayout": {
				"storage": [
					{
						"astId": 15,
						"contract": "contracts/DegenToken.sol:DegenToken",
						"label": "_balances",
						"offset": 0,
						"slot": "0",
						"type": "t_mapping(t_address,t_uint256)"
					},
					{
						"astId": 21,
						"contract": "contracts/DegenToken.sol:DegenToken",
						"label": "_allowances",
						"offset": 0,
						"slot": "1",
						"type": "t_mapping(t_address,t_mapping(t_address,t_uint256))"
					},
					{
						"astId": 23,
						"contract": "contracts/DegenToken.sol:DegenToken",
						"label": "_totalSupply",
						"offset": 0,
						"slot": "2",
						"type": "t_uint256"
					},
					{
						"astId": 25,
						"contract": "contracts/DegenToken.sol:DegenToken",
						"label": "_name",
						"offset": 0,
						"slot": "3",
						"type": "t_string_storage"
					},
					{
						"astId": 27,
						"contract": "contracts/DegenToken.sol:DegenToken",
						"label": "_symbol",
						"offset": 0,
						"slot": "4",
						"type": "t_string_storage"
					},
					{
						"astId": 719,
						"contract": "contracts/DegenToken.sol:DegenToken",
						"label": "tokenName",
						"offset": 0,
						"slot": "5",
						"type": "t_string_storage"
					},
					{
						"astId": 722,
						"contract": "contracts/DegenToken.sol:DegenToken",
						"label": "tokenSymbol",
						"offset": 0,
						"slot": "6",
						"type": "t_string_storage"
					},
					{
						"astId": 727,
						"contract": "contracts/DegenToken.sol:DegenToken",
						"label": "purchases",
						"offset": 0,
						"slot": "7",
						"type": "t_mapping(t_address,t_array(t_string_storage)dyn_storage)"
					},
					{
						"astId": 729,
						"contract": "contracts/DegenToken.sol:DegenToken",
						"label": "owner",
						"offset": 0,
						"slot": "8",
						"type": "t_address"
					}
				],
				"types": {
					"t_address": {
						"encoding": "inplace",
						"label": "address",
						"numberOfBytes": "20"
					},
					"t_array(t_string_storage)dyn_storage": {
						"base": "t_string_storage",
						"encoding": "dynamic_array",
						"label": "string[]",
						"numberOfBytes": "32"
					},
					"t_mapping(t_address,t_array(t_string_storage)dyn_storage)": {
						"encoding": "mapping",
						"key": "t_address",
						"label": "mapping(address => string[])",
						"numberOfBytes": "32",
						"value": "t_array(t_string_storage)dyn_storage"
					},
					"t_mapping(t_address,t_mapping(t_address,t_uint256))": {
						"encoding": "mapping",
						"key": "t_address",
						"label": "mapping(address => mapping(address => uint256))",
						"numberOfBytes": "32",
						"value": "t_mapping(t_address,t_uint256)"
					},
					"t_mapping(t_address,t_uint256)": {
						"encoding": "mapping",
						"key": "t_address",
						"label": "mapping(address => uint256)",
						"numberOfBytes": "32",
						"value": "t_uint256"
					},
					"t_string_storage": {
						"encoding": "bytes",
						"label": "string",
						"numberOfBytes": "32"
					},
					"t_uint256": {
						"encoding": "inplace",
						"label": "uint256",
						"numberOfBytes": "32"
					}
				}
			},
			"userdoc": {
				"kind": "user",
				"methods": {},
				"version": 1
			}
		}
	}
}